{
  "_format": "hh-sol-artifact-1",
  "contractName": "VoltVoterUpgradeable",
  "sourceName": "contracts/base/vote/VoltVoterUpgradeable.sol",
  "abi": [
    {
      "anonymous": false,
      "inputs": [
        {
          "indexed": false,
          "internalType": "uint256",
          "name": "tokenId",
          "type": "uint256"
        },
        {
          "indexed": false,
          "internalType": "int256",
          "name": "weight",
          "type": "int256"
        }
      ],
      "name": "Abstained",
      "type": "event"
    },
    {
      "anonymous": false,
      "inputs": [
        {
          "indexed": true,
          "internalType": "address",
          "name": "owner",
          "type": "address"
        },
        {
          "indexed": true,
          "internalType": "address",
          "name": "gauge",
          "type": "address"
        },
        {
          "indexed": false,
          "internalType": "uint256",
          "name": "tokenId",
          "type": "uint256"
        }
      ],
      "name": "Attach",
      "type": "event"
    },
    {
      "anonymous": false,
      "inputs": [
        {
          "indexed": true,
          "internalType": "address",
          "name": "lp",
          "type": "address"
        },
        {
          "indexed": true,
          "internalType": "address",
          "name": "gauge",
          "type": "address"
        },
        {
          "indexed": false,
          "internalType": "uint256",
          "name": "tokenId",
          "type": "uint256"
        },
        {
          "indexed": false,
          "internalType": "uint256",
          "name": "amount",
          "type": "uint256"
        }
      ],
      "name": "Deposit",
      "type": "event"
    },
    {
      "anonymous": false,
      "inputs": [
        {
          "indexed": true,
          "internalType": "address",
          "name": "owner",
          "type": "address"
        },
        {
          "indexed": true,
          "internalType": "address",
          "name": "gauge",
          "type": "address"
        },
        {
          "indexed": false,
          "internalType": "uint256",
          "name": "tokenId",
          "type": "uint256"
        }
      ],
      "name": "Detach",
      "type": "event"
    },
    {
      "anonymous": false,
      "inputs": [
        {
          "indexed": true,
          "internalType": "address",
          "name": "sender",
          "type": "address"
        },
        {
          "indexed": true,
          "internalType": "address",
          "name": "gauge",
          "type": "address"
        },
        {
          "indexed": false,
          "internalType": "uint256",
          "name": "amount",
          "type": "uint256"
        }
      ],
      "name": "DistributeReward",
      "type": "event"
    },
    {
      "anonymous": false,
      "inputs": [
        {
          "indexed": true,
          "internalType": "address",
          "name": "gauge",
          "type": "address"
        },
        {
          "indexed": false,
          "internalType": "address",
          "name": "creator",
          "type": "address"
        },
        {
          "indexed": true,
          "internalType": "address",
          "name": "bribe",
          "type": "address"
        },
        {
          "indexed": true,
          "internalType": "address",
          "name": "pool",
          "type": "address"
        }
      ],
      "name": "GaugeCreated",
      "type": "event"
    },
    {
      "anonymous": false,
      "inputs": [
        {
          "indexed": true,
          "internalType": "address",
          "name": "sender",
          "type": "address"
        },
        {
          "indexed": true,
          "internalType": "address",
          "name": "reward",
          "type": "address"
        },
        {
          "indexed": false,
          "internalType": "uint256",
          "name": "amount",
          "type": "uint256"
        }
      ],
      "name": "NotifyReward",
      "type": "event"
    },
    {
      "anonymous": false,
      "inputs": [
        {
          "indexed": true,
          "internalType": "address",
          "name": "voter",
          "type": "address"
        },
        {
          "indexed": false,
          "internalType": "uint256",
          "name": "tokenId",
          "type": "uint256"
        },
        {
          "indexed": false,
          "internalType": "int256",
          "name": "weight",
          "type": "int256"
        }
      ],
      "name": "Voted",
      "type": "event"
    },
    {
      "anonymous": false,
      "inputs": [
        {
          "indexed": true,
          "internalType": "address",
          "name": "whitelister",
          "type": "address"
        },
        {
          "indexed": true,
          "internalType": "address",
          "name": "token",
          "type": "address"
        }
      ],
      "name": "Whitelisted",
      "type": "event"
    },
    {
      "anonymous": false,
      "inputs": [
        {
          "indexed": true,
          "internalType": "address",
          "name": "lp",
          "type": "address"
        },
        {
          "indexed": true,
          "internalType": "address",
          "name": "gauge",
          "type": "address"
        },
        {
          "indexed": false,
          "internalType": "uint256",
          "name": "tokenId",
          "type": "uint256"
        },
        {
          "indexed": false,
          "internalType": "uint256",
          "name": "amount",
          "type": "uint256"
        }
      ],
      "name": "Withdraw",
      "type": "event"
    },
    {
      "inputs": [
        {
          "internalType": "uint256",
          "name": "tokenId",
          "type": "uint256"
        },
        {
          "internalType": "address",
          "name": "account",
          "type": "address"
        }
      ],
      "name": "attachTokenToGauge",
      "outputs": [],
      "stateMutability": "nonpayable",
      "type": "function"
    },
    {
      "inputs": [],
      "name": "bribeFactory",
      "outputs": [
        {
          "internalType": "address",
          "name": "",
          "type": "address"
        }
      ],
      "stateMutability": "view",
      "type": "function"
    },
    {
      "inputs": [
        {
          "internalType": "address",
          "name": "",
          "type": "address"
        }
      ],
      "name": "bribes",
      "outputs": [
        {
          "internalType": "address",
          "name": "",
          "type": "address"
        }
      ],
      "stateMutability": "view",
      "type": "function"
    },
    {
      "inputs": [
        {
          "internalType": "address[]",
          "name": "_bribes",
          "type": "address[]"
        },
        {
          "internalType": "address[][]",
          "name": "_tokens",
          "type": "address[][]"
        },
        {
          "internalType": "uint256",
          "name": "_tokenId",
          "type": "uint256"
        }
      ],
      "name": "claimBribes",
      "outputs": [],
      "stateMutability": "nonpayable",
      "type": "function"
    },
    {
      "inputs": [
        {
          "internalType": "address[]",
          "name": "_bribes",
          "type": "address[]"
        },
        {
          "internalType": "address[][]",
          "name": "_tokens",
          "type": "address[][]"
        },
        {
          "internalType": "uint256",
          "name": "_tokenId",
          "type": "uint256"
        }
      ],
      "name": "claimFees",
      "outputs": [],
      "stateMutability": "nonpayable",
      "type": "function"
    },
    {
      "inputs": [
        {
          "internalType": "address[]",
          "name": "_gauges",
          "type": "address[]"
        },
        {
          "internalType": "address[][]",
          "name": "_tokens",
          "type": "address[][]"
        }
      ],
      "name": "claimRewards",
      "outputs": [],
      "stateMutability": "nonpayable",
      "type": "function"
    },
    {
      "inputs": [
        {
          "internalType": "address",
          "name": "",
          "type": "address"
        }
      ],
      "name": "claimable",
      "outputs": [
        {
          "internalType": "uint256",
          "name": "",
          "type": "uint256"
        }
      ],
      "stateMutability": "view",
      "type": "function"
    },
    {
      "inputs": [
        {
          "internalType": "address",
          "name": "_pool",
          "type": "address"
        }
      ],
      "name": "createGauge",
      "outputs": [
        {
          "internalType": "address",
          "name": "",
          "type": "address"
        }
      ],
      "stateMutability": "nonpayable",
      "type": "function"
    },
    {
      "inputs": [
        {
          "internalType": "uint256",
          "name": "tokenId",
          "type": "uint256"
        },
        {
          "internalType": "address",
          "name": "account",
          "type": "address"
        }
      ],
      "name": "detachTokenFromGauge",
      "outputs": [],
      "stateMutability": "nonpayable",
      "type": "function"
    },
    {
      "inputs": [
        {
          "internalType": "address",
          "name": "_gauge",
          "type": "address"
        }
      ],
      "name": "distribute",
      "outputs": [],
      "stateMutability": "nonpayable",
      "type": "function"
    },
    {
      "inputs": [],
      "name": "distributeAll",
      "outputs": [],
      "stateMutability": "nonpayable",
      "type": "function"
    },
    {
      "inputs": [
        {
          "internalType": "address[]",
          "name": "_gauges",
          "type": "address[]"
        }
      ],
      "name": "distributeFees",
      "outputs": [],
      "stateMutability": "nonpayable",
      "type": "function"
    },
    {
      "inputs": [
        {
          "internalType": "address[]",
          "name": "_gauges",
          "type": "address[]"
        }
      ],
      "name": "distributeForGauges",
      "outputs": [],
      "stateMutability": "nonpayable",
      "type": "function"
    },
    {
      "inputs": [
        {
          "internalType": "uint256",
          "name": "start",
          "type": "uint256"
        },
        {
          "internalType": "uint256",
          "name": "finish",
          "type": "uint256"
        }
      ],
      "name": "distributeForPoolsInRange",
      "outputs": [],
      "stateMutability": "nonpayable",
      "type": "function"
    },
    {
      "inputs": [
        {
          "internalType": "uint256",
          "name": "tokenId",
          "type": "uint256"
        },
        {
          "internalType": "address",
          "name": "account",
          "type": "address"
        },
        {
          "internalType": "uint256",
          "name": "amount",
          "type": "uint256"
        }
      ],
      "name": "emitDeposit",
      "outputs": [],
      "stateMutability": "nonpayable",
      "type": "function"
    },
    {
      "inputs": [
        {
          "internalType": "uint256",
          "name": "tokenId",
          "type": "uint256"
        },
        {
          "internalType": "address",
          "name": "account",
          "type": "address"
        },
        {
          "internalType": "uint256",
          "name": "amount",
          "type": "uint256"
        }
      ],
      "name": "emitWithdraw",
      "outputs": [],
      "stateMutability": "nonpayable",
      "type": "function"
    },
    {
      "inputs": [],
      "name": "factory",
      "outputs": [
        {
          "internalType": "address",
          "name": "",
          "type": "address"
        }
      ],
      "stateMutability": "view",
      "type": "function"
    },
    {
      "inputs": [],
      "name": "gaugeFactory",
      "outputs": [
        {
          "internalType": "address",
          "name": "",
          "type": "address"
        }
      ],
      "stateMutability": "view",
      "type": "function"
    },
    {
      "inputs": [
        {
          "internalType": "address",
          "name": "",
          "type": "address"
        }
      ],
      "name": "gauges",
      "outputs": [
        {
          "internalType": "address",
          "name": "",
          "type": "address"
        }
      ],
      "stateMutability": "view",
      "type": "function"
    },
    {
      "inputs": [],
      "name": "index",
      "outputs": [
        {
          "internalType": "uint256",
          "name": "",
          "type": "uint256"
        }
      ],
      "stateMutability": "view",
      "type": "function"
    },
    {
      "inputs": [
        {
          "internalType": "address[]",
          "name": "_tokens",
          "type": "address[]"
        },
        {
          "internalType": "address",
          "name": "_minter",
          "type": "address"
        }
      ],
      "name": "init",
      "outputs": [],
      "stateMutability": "nonpayable",
      "type": "function"
    },
    {
      "inputs": [
        {
          "internalType": "address",
          "name": "_ve",
          "type": "address"
        },
        {
          "internalType": "address",
          "name": "_factory",
          "type": "address"
        },
        {
          "internalType": "address",
          "name": "_gaugeFactory",
          "type": "address"
        },
        {
          "internalType": "address",
          "name": "_bribeFactory",
          "type": "address"
        },
        {
          "internalType": "address",
          "name": "_minter",
          "type": "address"
        }
      ],
      "name": "initialize",
      "outputs": [],
      "stateMutability": "nonpayable",
      "type": "function"
    },
    {
      "inputs": [
        {
          "internalType": "address",
          "name": "",
          "type": "address"
        }
      ],
      "name": "isGauge",
      "outputs": [
        {
          "internalType": "bool",
          "name": "",
          "type": "bool"
        }
      ],
      "stateMutability": "view",
      "type": "function"
    },
    {
      "inputs": [
        {
          "internalType": "address",
          "name": "",
          "type": "address"
        }
      ],
      "name": "isWhitelisted",
      "outputs": [
        {
          "internalType": "bool",
          "name": "",
          "type": "bool"
        }
      ],
      "stateMutability": "view",
      "type": "function"
    },
    {
      "inputs": [],
      "name": "listingFee",
      "outputs": [
        {
          "internalType": "uint256",
          "name": "",
          "type": "uint256"
        }
      ],
      "stateMutability": "view",
      "type": "function"
    },
    {
      "inputs": [],
      "name": "minter",
      "outputs": [
        {
          "internalType": "address",
          "name": "",
          "type": "address"
        }
      ],
      "stateMutability": "view",
      "type": "function"
    },
    {
      "inputs": [
        {
          "internalType": "uint256",
          "name": "amount",
          "type": "uint256"
        }
      ],
      "name": "notifyRewardAmount",
      "outputs": [],
      "stateMutability": "nonpayable",
      "type": "function"
    },
    {
      "inputs": [
        {
          "internalType": "uint256",
          "name": "_tokenId",
          "type": "uint256"
        }
      ],
      "name": "poke",
      "outputs": [],
      "stateMutability": "nonpayable",
      "type": "function"
    },
    {
      "inputs": [
        {
          "internalType": "address",
          "name": "",
          "type": "address"
        }
      ],
      "name": "poolForGauge",
      "outputs": [
        {
          "internalType": "address",
          "name": "",
          "type": "address"
        }
      ],
      "stateMutability": "view",
      "type": "function"
    },
    {
      "inputs": [
        {
          "internalType": "uint256",
          "name": "",
          "type": "uint256"
        },
        {
          "internalType": "uint256",
          "name": "",
          "type": "uint256"
        }
      ],
      "name": "poolVote",
      "outputs": [
        {
          "internalType": "address",
          "name": "",
          "type": "address"
        }
      ],
      "stateMutability": "view",
      "type": "function"
    },
    {
      "inputs": [
        {
          "internalType": "uint256",
          "name": "",
          "type": "uint256"
        }
      ],
      "name": "pools",
      "outputs": [
        {
          "internalType": "address",
          "name": "",
          "type": "address"
        }
      ],
      "stateMutability": "view",
      "type": "function"
    },
    {
      "inputs": [],
      "name": "poolsLength",
      "outputs": [
        {
          "internalType": "uint256",
          "name": "",
          "type": "uint256"
        }
      ],
      "stateMutability": "view",
      "type": "function"
    },
    {
      "inputs": [
        {
          "internalType": "address",
          "name": "_token",
          "type": "address"
        },
        {
          "internalType": "address",
          "name": "_gaugeOrBribe",
          "type": "address"
        },
        {
          "internalType": "uint256",
          "name": "_tokenId",
          "type": "uint256"
        }
      ],
      "name": "registerRewardToken",
      "outputs": [],
      "stateMutability": "nonpayable",
      "type": "function"
    },
    {
      "inputs": [
        {
          "internalType": "address",
          "name": "_token",
          "type": "address"
        },
        {
          "internalType": "address",
          "name": "_gaugeOrBribe",
          "type": "address"
        },
        {
          "internalType": "uint256",
          "name": "_tokenId",
          "type": "uint256"
        }
      ],
      "name": "removeRewardToken",
      "outputs": [],
      "stateMutability": "nonpayable",
      "type": "function"
    },
    {
      "inputs": [
        {
          "internalType": "uint256",
          "name": "_tokenId",
          "type": "uint256"
        }
      ],
      "name": "reset",
      "outputs": [],
      "stateMutability": "nonpayable",
      "type": "function"
    },
    {
      "inputs": [
        {
          "internalType": "address",
          "name": "",
          "type": "address"
        }
      ],
      "name": "supplyIndex",
      "outputs": [
        {
          "internalType": "uint256",
          "name": "",
          "type": "uint256"
        }
      ],
      "stateMutability": "view",
      "type": "function"
    },
    {
      "inputs": [],
      "name": "token",
      "outputs": [
        {
          "internalType": "address",
          "name": "",
          "type": "address"
        }
      ],
      "stateMutability": "view",
      "type": "function"
    },
    {
      "inputs": [],
      "name": "totalWeight",
      "outputs": [
        {
          "internalType": "uint256",
          "name": "",
          "type": "uint256"
        }
      ],
      "stateMutability": "view",
      "type": "function"
    },
    {
      "inputs": [],
      "name": "updateAll",
      "outputs": [],
      "stateMutability": "nonpayable",
      "type": "function"
    },
    {
      "inputs": [
        {
          "internalType": "address[]",
          "name": "_gauges",
          "type": "address[]"
        }
      ],
      "name": "updateFor",
      "outputs": [],
      "stateMutability": "nonpayable",
      "type": "function"
    },
    {
      "inputs": [
        {
          "internalType": "uint256",
          "name": "start",
          "type": "uint256"
        },
        {
          "internalType": "uint256",
          "name": "end",
          "type": "uint256"
        }
      ],
      "name": "updateForRange",
      "outputs": [],
      "stateMutability": "nonpayable",
      "type": "function"
    },
    {
      "inputs": [
        {
          "internalType": "address",
          "name": "_gauge",
          "type": "address"
        }
      ],
      "name": "updateGauge",
      "outputs": [],
      "stateMutability": "nonpayable",
      "type": "function"
    },
    {
      "inputs": [
        {
          "internalType": "uint256",
          "name": "",
          "type": "uint256"
        }
      ],
      "name": "usedWeights",
      "outputs": [
        {
          "internalType": "uint256",
          "name": "",
          "type": "uint256"
        }
      ],
      "stateMutability": "view",
      "type": "function"
    },
    {
      "inputs": [],
      "name": "ve",
      "outputs": [
        {
          "internalType": "address",
          "name": "",
          "type": "address"
        }
      ],
      "stateMutability": "view",
      "type": "function"
    },
    {
      "inputs": [
        {
          "internalType": "uint256",
          "name": "tokenId",
          "type": "uint256"
        },
        {
          "internalType": "address[]",
          "name": "_poolVote",
          "type": "address[]"
        },
        {
          "internalType": "int256[]",
          "name": "_weights",
          "type": "int256[]"
        }
      ],
      "name": "vote",
      "outputs": [],
      "stateMutability": "nonpayable",
      "type": "function"
    },
    {
      "inputs": [
        {
          "internalType": "uint256",
          "name": "tokenId",
          "type": "uint256"
        },
        {
          "internalType": "address[]",
          "name": "_poolVote",
          "type": "address[]"
        },
        {
          "internalType": "int256[]",
          "name": "_weights",
          "type": "int256[]"
        }
      ],
      "name": "votePart",
      "outputs": [],
      "stateMutability": "nonpayable",
      "type": "function"
    },
    {
      "inputs": [
        {
          "internalType": "uint256",
          "name": "",
          "type": "uint256"
        },
        {
          "internalType": "address",
          "name": "",
          "type": "address"
        }
      ],
      "name": "votes",
      "outputs": [
        {
          "internalType": "int256",
          "name": "",
          "type": "int256"
        }
      ],
      "stateMutability": "view",
      "type": "function"
    },
    {
      "inputs": [
        {
          "internalType": "address",
          "name": "",
          "type": "address"
        }
      ],
      "name": "weights",
      "outputs": [
        {
          "internalType": "int256",
          "name": "",
          "type": "int256"
        }
      ],
      "stateMutability": "view",
      "type": "function"
    },
    {
      "inputs": [
        {
          "internalType": "address",
          "name": "_token",
          "type": "address"
        },
        {
          "internalType": "uint256",
          "name": "_tokenId",
          "type": "uint256"
        }
      ],
      "name": "whitelist",
      "outputs": [],
      "stateMutability": "nonpayable",
      "type": "function"
    }
  ],
  "bytecode": "0x6080604052600160005534801561001557600080fd5b50613b6d806100256000396000f3fe608060405234801561001057600080fd5b50600436106102bb5760003560e01c80637715ee7511610182578063ac4afa38116100e9578063ddbe883c116100a2578063ea94ee441161007c578063ea94ee44146106c4578063eb4a78e0146106d7578063fc0c546a146106ea578063fecdad60146106fd57600080fd5b8063ddbe883c1461067e578063de838fc114610691578063e380fcad146106a457600080fd5b8063ac4afa38146105de578063b9a09fd5146105f1578063c45a01551461061a578063c527ee1f1461062d578063d23254b414610640578063d560b0d71461066b57600080fd5b8063a5f4301e1161013b578063a5f4301e14610539578063a61c713a1461054c578063a7cac8461461055f578063a86a366d1461057f578063a8c5d95a14610592578063aa79979b146105bb57600080fd5b80637715ee75146104c457806379e93824146104d75780637e1ddf64146104f757806396c82e571461050a57806398fc55d8146105135780639b6a9d721461052657600080fd5b80633c6b16ab1161022657806353f38e6b116101df57806353f38e6b1461045d57806363453ae114610470578063666256aa14610483578063698473e3146104965780636a1b7ecc146104a95780636ecbe38a146104b157600080fd5b80633c6b16ab146103f4578063402914f514610407578063411b1f7714610427578063436596c41461043a5780634c6e62b61461044257806353d786931461045557600080fd5b806320b1cb6f1161027857806320b1cb6f1461036d5780632716ae66146103805780632986c0e514610392578063310bd74b1461039b57806332145f90146103ae5780633af32abf146103c157600080fd5b806306d6a1b2146102c057806307546172146103065780630d52333c146103195780631459457a1461032c5780631f850716146103415780632025e9b81461035a575b600080fd5b6102e96102ce3660046131ac565b600a602052600090815260409020546001600160a01b031681565b6040516001600160a01b0390911681526020015b60405180910390f35b6006546102e9906001600160a01b031681565b6004546102e9906001600160a01b031681565b61033f61033a3660046131c9565b610710565b005b6001546102e9906201000090046001600160a01b031681565b61033f610368366004613319565b6108be565b61033f61037b3660046133d6565b610902565b6008545b6040519081526020016102fd565b61038460125481565b61033f6103a936600461343a565b6109b8565b61033f6103bc36600461343a565b610abb565b6103e46103cf3660046131ac565b60116020526000908152604090205460ff1681565b60405190151581526020016102fd565b61033f61040236600461343a565b610c78565b6103846104153660046131ac565b60146020526000908152604090205481565b61033f610435366004613453565b610d96565b61033f610e74565b61033f610450366004613483565b610ede565b61033f611098565b61033f61046b3660046134c4565b6110a9565b61033f61047e3660046131ac565b6110df565b61033f6104913660046134e6565b6110eb565b61033f6104a4366004613453565b611236565b61038461130b565b61033f6104bf3660046131ac565b61131a565b61033f6104d23660046134e6565b611323565b6103846104e536600461343a565b600f6020526000908152604090205481565b61033f610505366004613553565b611468565b61038460075481565b61033f61052136600461359a565b611510565b61033f6105343660046134c4565b611672565b6102e96105473660046131ac565b6116d8565b61033f61055a3660046135c6565b611bc6565b61038461056d3660046131ac565b600c6020526000908152604090205481565b6102e961058d3660046134c4565b611c38565b6102e96105a03660046131ac565b600b602052600090815260409020546001600160a01b031681565b6103e46105c93660046131ac565b60106020526000908152604090205460ff1681565b6102e96105ec36600461343a565b611c70565b6102e96105ff3660046131ac565b6009602052600090815260409020546001600160a01b031681565b6002546102e9906001600160a01b031681565b61033f61063b366004613319565b611c9a565b61038461064e366004613453565b600d60209081526000928352604080842090915290825290205481565b61033f610679366004613319565b611d37565b61033f61068c366004613483565b611d77565b61033f61069f366004613639565b611efe565b6103846106b23660046131ac565b60136020526000908152604090205481565b61033f6106d23660046135c6565b61210e565b6005546102e9906001600160a01b031681565b6003546102e9906001600160a01b031681565b61033f61070b366004613639565b612180565b600154610100900460ff1661072b5760015460ff161561072f565b303b155b6107975760405162461bcd60e51b815260206004820152602e60248201527f496e697469616c697a61626c653a20636f6e747261637420697320616c72656160448201526d191e481a5b9a5d1a585b1a5e995960921b60648201526084015b60405180910390fd5b600154610100900460ff161580156107b9576001805461ffff19166101011790555b6001805462010000600160b01b031916620100006001600160a01b0389811691820292909217909255600280546001600160a01b03191691881691909117905560408051637e062a3560e11b8152905163fc0c546a916004808201926020929091908290030181865afa158015610834573d6000803e3d6000fd5b505050506040513d601f19601f8201168201806040525081019061085891906136b3565b600380546001600160a01b03199081166001600160a01b039384161790915560048054821687841617905560058054821686841617905560068054909116918416919091179055600160005580156108b6576001805461ff00191690555b505050505050565b60005b81518110156108fe576108ec8282815181106108df576108df6136d0565b6020026020010151612349565b806108f6816136fc565b9150506108c1565b5050565b60005b82518110156109b357828181518110610920576109206136d0565b60200260200101516001600160a01b03166331279d3d33848481518110610949576109496136d0565b60200260200101516040518363ffffffff1660e01b815260040161096e929190613759565b600060405180830381600087803b15801561098857600080fd5b505af115801561099c573d6000803e3d6000fd5b5050505080806109ab906136fc565b915050610905565b505050565b60015460405163430c208160e01b815233600482015260248101839052620100009091046001600160a01b03169063430c208190604401602060405180830381865afa158015610a0c573d6000803e3d6000fd5b505050506040513d601f19601f82011682018060405250810190610a30919061377d565b610a4c5760405162461bcd60e51b815260040161078e9061379f565b610a5581612575565b60015460405163c1f0fb9f60e01b815260048101839052620100009091046001600160a01b03169063c1f0fb9f90602401600060405180830381600087803b158015610aa057600080fd5b505af1158015610ab4573d6000803e3d6000fd5b5050505050565b6000818152600e6020908152604080832080548251818502810185019093528083529192909190830182828015610b1b57602002820191906000526020600020905b81546001600160a01b03168152600190910190602001808311610afd575b5050505050905060008151905060008167ffffffffffffffff811115610b4357610b4361323a565b604051908082528060200260200182016040528015610b6c578160200160208202803683370190505b5090506000805b83811015610c6b57600d60008781526020019081526020016000206000868381518110610ba257610ba26136d0565b60200260200101516001600160a01b03166001600160a01b0316815260200190815260200160002054838281518110610bdd57610bdd6136d0565b6020026020010181815250506000838281518110610bfd57610bfd6136d0565b602002602001015113610c3257828181518110610c1c57610c1c6136d0565b6020026020010151610c2d906137bf565b610c4d565b828181518110610c4457610c446136d0565b60200260200101515b610c5790836137db565b915080610c63816136fc565b915050610b73565b50610ab485858484612785565b80600003610cb65760405162461bcd60e51b815260206004820152600b60248201526a1e995c9bc8185b5bdd5b9d60aa1b604482015260640161078e565b6007546000819003610cf55760405162461bcd60e51b8152602060048201526008602482015267217765696768747360c01b604482015260640161078e565b600354610d0d906001600160a01b0316333085612b5b565b600081610d2284670de0b6b3a764000061381c565b610d2c9190613851565b90508015610d4c578060126000828254610d469190613865565b90915550505b6003546040518481526001600160a01b039091169033907ff70d5c697de7ea828df48e5c4573cb2194c659f1901f70110c52b066dcf50826906020015b60405180910390a3505050565b3360009081526010602052604090205460ff16610dc55760405162461bcd60e51b815260040161078e9061387d565b8115610e2f57600154604051634c3c15a760e11b815260048101849052620100009091046001600160a01b0316906398782b4e90602401600060405180830381600087803b158015610e1657600080fd5b505af1158015610e2a573d6000803e3d6000fd5b505050505b60405182815233906001600160a01b038316907fae268d9aab12f3605f58efd74fd3801fa812b03fdb44317eb70f46dff0e19e22906020015b60405180910390a35050565b60085460005b818110156108fe57610ecc6009600060088481548110610e9c57610e9c6136d0565b60009182526020808320909101546001600160a01b03908116845290830193909352604090910190205416612349565b80610ed6816136fc565b915050610e7a565b60008111610efe5760405162461bcd60e51b815260040161078e9061389d565b6001546040516331a9108f60e11b815260048101839052620100009091046001600160a01b031690636352211e90602401602060405180830381865afa158015610f4c573d6000803e3d6000fd5b505050506040513d601f19601f82011682018060405250810190610f7091906136b3565b6001600160a01b0316336001600160a01b031614610fa05760405162461bcd60e51b815260040161078e9061379f565b610fa8612bc6565b6001546040516339f890b560e21b815260048101849052620100009091046001600160a01b03169063e7e242d490602401602060405180830381865afa158015610ff6573d6000803e3d6000fd5b505050506040513d601f19601f8201168201806040525081019061101a91906138bd565b116110375760405162461bcd60e51b815260040161078e906138d6565b604051631c8db79360e31b81526001600160a01b03848116600483015283169063e46dbc98906024015b600060405180830381600087803b15801561107b57600080fd5b505af115801561108f573d6000803e3d6000fd5b50505050505050565b6008546110a790600090611672565b565b815b818110156109b3576110cd6009600060088481548110610e9c57610e9c6136d0565b806110d7816136fc565b9150506110ab565b6110e881612349565b50565b60015460405163430c208160e01b815233600482015260248101839052620100009091046001600160a01b03169063430c208190604401602060405180830381865afa15801561113f573d6000803e3d6000fd5b505050506040513d601f19601f82011682018060405250810190611163919061377d565b61117f5760405162461bcd60e51b815260040161078e9061379f565b60005b83518110156112305783818151811061119d5761119d6136d0565b60200260200101516001600160a01b031663a7852afa838584815181106111c6576111c66136d0565b60200260200101516040518363ffffffff1660e01b81526004016111eb9291906138f6565b600060405180830381600087803b15801561120557600080fd5b505af1158015611219573d6000803e3d6000fd5b505050508080611228906136fc565b915050611182565b50505050565b3360009081526010602052604090205460ff166112655760405162461bcd60e51b815260040161078e9061387d565b81156112ce576001546040516246b3bd60e81b815260048101849052620100009091046001600160a01b0316906346b3bd0090602401600060405180830381600087803b1580156112b557600080fd5b505af11580156112c9573d6000803e3d6000fd5b505050505b60405182815233906001600160a01b038316907f60940192810a6fb3bce3fd3e2e3a13fd6ccc7605e963fb87ee971aba829989bd90602001610e68565b6000611315612bc6565b905090565b6110e881612d47565b60015460405163430c208160e01b815233600482015260248101839052620100009091046001600160a01b03169063430c208190604401602060405180830381865afa158015611377573d6000803e3d6000fd5b505050506040513d601f19601f8201168201806040525081019061139b919061377d565b6113b75760405162461bcd60e51b815260040161078e9061379f565b60005b8351811015611230578381815181106113d5576113d56136d0565b60200260200101516001600160a01b031663a7852afa838584815181106113fe576113fe6136d0565b60200260200101516040518363ffffffff1660e01b81526004016114239291906138f6565b600060405180830381600087803b15801561143d57600080fd5b505af1158015611451573d6000803e3d6000fd5b505050508080611460906136fc565b9150506113ba565b6006546001600160a01b031633146114ac5760405162461bcd60e51b815260206004820152600760248201526610b6b4b73a32b960c91b604482015260640161078e565b60005b82518110156114ec576114da8382815181106114cd576114cd6136d0565b6020026020010151612e2a565b806114e4816136fc565b9150506114af565b50600680546001600160a01b0319166001600160a01b039290921691909117905550565b600081116115305760405162461bcd60e51b815260040161078e9061389d565b6001546040516331a9108f60e11b815260048101839052620100009091046001600160a01b031690636352211e90602401602060405180830381865afa15801561157e573d6000803e3d6000fd5b505050506040513d601f19601f820116820180604052508101906115a291906136b3565b6001600160a01b0316336001600160a01b0316146115d25760405162461bcd60e51b815260040161078e9061379f565b6115da612bc6565b6001546040516339f890b560e21b815260048101849052620100009091046001600160a01b03169063e7e242d490602401602060405180830381865afa158015611628573d6000803e3d6000fd5b505050506040513d601f19601f8201168201806040525081019061164c91906138bd565b116116695760405162461bcd60e51b815260040161078e906138d6565b6108fe82612e2a565b815b818110156109b3576116c66009600060088481548110611696576116966136d0565b60009182526020808320909101546001600160a01b03908116845290830193909352604090910190205416612d47565b806116d0816136fc565b915050611674565b6001600160a01b038181166000908152600960205260408120549091161561172b5760405162461bcd60e51b815260206004820152600660248201526565786973747360d01b604482015260640161078e565b60025460405163e5e31b1360e01b81526001600160a01b0384811660048301529091169063e5e31b1390602401602060405180830381865afa158015611775573d6000803e3d6000fd5b505050506040513d601f19601f82011682018060405250810190611799919061377d565b6117cd5760405162461bcd60e51b8152602060048201526005602482015264085c1bdbdb60da1b604482015260640161078e565b600080836001600160a01b0316639d63848a6040518163ffffffff1660e01b81526004016040805180830381865afa15801561180d573d6000803e3d6000fd5b505050506040513d601f19601f82011682018060405250810190611831919061390f565b6001600160a01b038216600090815260116020526040902054919350915060ff16801561187657506001600160a01b03811660009081526011602052604090205460ff165b6118b15760405162461bcd60e51b815260206004820152600c60248201526b085dda1a5d195b1a5cdd195960a21b604482015260640161078e565b604080516003808252608082019092526000916020820160608036833701905050905082816000815181106118e8576118e86136d0565b60200260200101906001600160a01b031690816001600160a01b031681525050818160018151811061191c5761191c6136d0565b6001600160a01b03928316602091820292909201015260035481169084161480159061195657506003546001600160a01b03838116911614155b156119a05760035481516001600160a01b03909116908290600290811061197f5761197f6136d0565b60200260200101906001600160a01b031690816001600160a01b0316815250505b60055460405163897cd6b360e01b81526000916001600160a01b03169063897cd6b3906119d190859060040161393e565b6020604051808303816000875af11580156119f0573d6000803e3d6000fd5b505050506040513d601f19601f82011682018060405250810190611a1491906136b3565b600480546001546040516358c14b6560e01b81529394506000936001600160a01b03928316936358c14b6593611a5b938d93899362010000909204909216918a9101613951565b6020604051808303816000875af1158015611a7a573d6000803e3d6000fd5b505050506040513d601f19601f82011682018060405250810190611a9e91906136b3565b600354909150611aba906001600160a01b031682600019612ed6565b6001600160a01b038082166000818152600b6020908152604080832080548689166001600160a01b031991821617909155948c16808452600983528184208054871686179055938352600a8252808320805490951690931790935560109092529020805460ff19166001179055611b3081612d47565b600880546001810182556000919091527ff3f7a9fe364faab93b216da50a3214154f22a0a2b415b23a84c8169e8b636ee30180546001600160a01b0319166001600160a01b03898116918217909255604051338152909184811691908416907f48d3c521fd0d5541640f58c6d6381eed7cb2e8c9df421ae165a4f4c2d221ee0d9060200160405180910390a49695505050505050565b3360009081526010602052604090205460ff16611bf55760405162461bcd60e51b815260040161078e9061387d565b604080518481526020810183905233916001600160a01b038516917fdcbc1c05240f31ff3ad067ef1ee35ce4997762752e3a095284754544f4c709d79101610d89565b600e6020528160005260406000208181548110611c5457600080fd5b6000918252602090912001546001600160a01b03169150829050565b60088181548110611c8057600080fd5b6000918252602090912001546001600160a01b0316905081565b60005b81518110156108fe57818181518110611cb857611cb86136d0565b60200260200101516001600160a01b031663d294f0936040518163ffffffff1660e01b815260040160408051808303816000875af1158015611cfe573d6000803e3d6000fd5b505050506040513d601f19601f82011682018060405250810190611d22919061398f565b50508080611d2f906136fc565b915050611c9d565b60005b81518110156108fe57611d65828281518110611d5857611d586136d0565b6020026020010151612d47565b80611d6f816136fc565b915050611d3a565b60008111611d975760405162461bcd60e51b815260040161078e9061389d565b6001546040516331a9108f60e11b815260048101839052620100009091046001600160a01b031690636352211e90602401602060405180830381865afa158015611de5573d6000803e3d6000fd5b505050506040513d601f19601f82011682018060405250810190611e0991906136b3565b6001600160a01b0316336001600160a01b031614611e395760405162461bcd60e51b815260040161078e9061379f565b611e41612bc6565b6001546040516339f890b560e21b815260048101849052620100009091046001600160a01b03169063e7e242d490602401602060405180830381865afa158015611e8f573d6000803e3d6000fd5b505050506040513d601f19601f82011682018060405250810190611eb391906138bd565b11611ed05760405162461bcd60e51b815260040161078e906138d6565b604051633d509c9760e01b81526001600160a01b038481166004830152831690633d509c9790602401611061565b60015460405163430c208160e01b815233600482015260248101879052620100009091046001600160a01b03169063430c208190604401602060405180830381865afa158015611f52573d6000803e3d6000fd5b505050506040513d601f19601f82011682018060405250810190611f76919061377d565b611f925760405162461bcd60e51b815260040161078e9061379f565b828114611fcb5760405162461bcd60e51b81526020600482015260076024820152662161727261797360c81b604482015260640161078e565b6000805b84811015612056576000848483818110611feb57611feb6136d0565b905060200201351361201e57838382818110612009576120096136d0565b90506020020135612019906137bf565b612038565b838382818110612030576120306136d0565b905060200201355b61204290836137db565b91508061204e816136fc565b915050611fcf565b50606481131561209a5760405162461bcd60e51b815260206004820152600f60248201526e1d1bdd185b159bdd1955d95a59da1d608a1b604482015260640161078e565b606490506108b68686868080602002602001604051908101604052809392919081815260200183836020028082843760009201919091525050604080516020808a02828101820190935289825290935089925088918291850190849080828437600092019190915250879250612785915050565b3360009081526010602052604090205460ff1661213d5760405162461bcd60e51b815260040161078e9061387d565b604080518481526020810183905233916001600160a01b038516917ff341246adaac6f497bc2a656f546ab9e182111d630394f0c57c710a59a2cb5679101610d89565b60015460405163430c208160e01b815233600482015260248101879052620100009091046001600160a01b03169063430c208190604401602060405180830381865afa1580156121d4573d6000803e3d6000fd5b505050506040513d601f19601f820116820180604052508101906121f8919061377d565b6122145760405162461bcd60e51b815260040161078e9061379f565b82811461224d5760405162461bcd60e51b81526020600482015260076024820152662161727261797360c81b604482015260640161078e565b6000805b848110156122d857600084848381811061226d5761226d6136d0565b90506020020135136122a05783838281811061228b5761228b6136d0565b9050602002013561229b906137bf565b6122ba565b8383828181106122b2576122b26136d0565b905060200201355b6122c490836137db565b9150806122d0816136fc565b915050612251565b506108b68686868080602002602001604051908101604052809392919081815260200183836020028082843760009201919091525050604080516020808a02828101820190935289825290935089925088918291850190849080828437600092019190915250879250612785915050565b60005460011461238c5760405162461bcd60e51b815260206004820152600e60248201526d1499595b9d1c985b9d0818d85b1b60921b604482015260640161078e565b6002600081905550600660009054906101000a90046001600160a01b03166001600160a01b031663a83627de6040518163ffffffff1660e01b81526004016020604051808303816000875af11580156123e9573d6000803e3d6000fd5b505050506040513d601f19601f8201168201806040525081019061240d91906138bd565b5061241781612d47565b6001600160a01b0381811660008181526014602052604090819020546003549151634cde602960e11b81529190931660048201526399bcc05290602401602060405180830381865afa158015612471573d6000803e3d6000fd5b505050506040513d601f19601f8201168201806040525081019061249591906138bd565b811180156124af575060006124ad62093a8083613851565b115b1561256c576001600160a01b0382811660008181526014602052604080822091909155600354905163b66503cf60e01b815292166004830152602482018390529063b66503cf90604401600060405180830381600087803b15801561251357600080fd5b505af1158015612527573d6000803e3d6000fd5b50506040518381526001600160a01b03851692503391507f4fa9693cae526341d334e2862ca2413b2e503f1266255f9e0869fb36e6d89b179060200160405180910390a35b50506001600055565b6000818152600e6020526040812080549091805b828110156127495760008482815481106125a5576125a56136d0565b6000918252602080832090910154888352600d825260408084206001600160a01b0392831680865290845281852054600990945293205492935090916125eb9116612d47565b6001600160a01b0382166000908152600c6020526040812080548392906126139084906139b3565b90915550506000878152600d602090815260408083206001600160a01b03861684529091528120805483929061264a9084906139b3565b909155505060008113156126ee576001600160a01b0382811660009081526009602090815260408083205484168352600b9091529081902054905163278afc8b60e21b815260048101849052602481018a9052911690639e2bf22c90604401600060405180830381600087803b1580156126c357600080fd5b505af11580156126d7573d6000803e3d6000fd5b5050505080846126e791906137db565b93506126fb565b6126f881856139b3565b93505b60408051888152602081018390527f6b3894ce60b9bbe9d93f1a4e6fc25b6b93cd8222e73ab6348d79c596f5b51de9910160405180910390a150508080612741906136fc565b915050612589565b50806007600082825461275c91906139f2565b90915550506000848152600f60209081526040808320839055600e909152812061123091613165565b61278e84612575565b82516001546040516339f890b560e21b8152600481018790526000916201000090046001600160a01b03169063e7e242d490602401602060405180830381865afa1580156127e0573d6000803e3d6000fd5b505050506040513d601f19601f8201168201806040525081019061280491906138bd565b905060008060005b84811015612abb576000888281518110612828576128286136d0565b6020908102919091018101516001600160a01b038082166000908152600990935260408320548b51929450169190899088908c908790811061286c5761286c6136d0565b602002602001015161287e9190613a09565b6128889190613a8e565b60008d8152600d602090815260408083206001600160a01b0388168452909152902054909150156128ec5760405162461bcd60e51b815260206004820152600e60248201526d191d5c1b1a58d85d19481c1bdbdb60921b604482015260640161078e565b806000036129295760405162461bcd60e51b815260206004820152600a6024820152693d32b937903837bbb2b960b11b604482015260640161078e565b61293282612d47565b60008c8152600e6020908152604080832080546001810182559084528284200180546001600160a01b0319166001600160a01b0388169081179091558352600c909152812080548392906129879084906137db565b909155505060008c8152600d602090815260408083206001600160a01b0387168452909152812080548392906129be9084906137db565b90915550506000811315612a45576001600160a01b038083166000908152600b60205260409081902054905163f320772360e01b815260048101849052602481018f905291169063f320772390604401600060405180830381600087803b158015612a2857600080fd5b505af1158015612a3c573d6000803e3d6000fd5b50505050612a51565b612a4e816137bf565b90505b612a5b81866137db565b9450612a6781876137db565b604080518e81526020810184905291975033917f1263a2295e53acd6ef8f655b8afc11fa0f2cf11925be7aa1757d741ef32a926c910160405180910390a25050508080612ab3906136fc565b91505061280c565b506000811315612b295760015460405163fd4a77f160e01b8152600481018a9052620100009091046001600160a01b03169063fd4a77f190602401600060405180830381600087803b158015612b1057600080fd5b505af1158015612b24573d6000803e3d6000fd5b505050505b8160076000828254612b3b9190613865565b90915550506000978852600f602052604090972096909655505050505050565b6040516001600160a01b03808516602483015283166044820152606481018290526112309085906323b872dd60e01b906084015b60408051601f198184030181529190526020810180516001600160e01b03166001600160e01b031990931692909217909152612f88565b6003546006546040516370a0823160e01b81526001600160a01b03918216600482015260009260149216906370a0823190602401602060405180830381865afa158015612c17573d6000803e3d6000fd5b505050506040513d601f19601f82011682018060405250810190612c3b91906138bd565b600160029054906101000a90046001600160a01b03166001600160a01b03166318160ddd6040518163ffffffff1660e01b8152600401602060405180830381865afa158015612c8e573d6000803e3d6000fd5b505050506040513d601f19601f82011682018060405250810190612cb291906138bd565b600360009054906101000a90046001600160a01b03166001600160a01b03166318160ddd6040518163ffffffff1660e01b8152600401602060405180830381865afa158015612d05573d6000803e3d6000fd5b505050506040513d601f19601f82011682018060405250810190612d2991906138bd565b612d3391906139f2565b612d3d91906139f2565b6113159190613851565b6001600160a01b038082166000908152600a6020908152604080832054909316808352600c9091529181205490811315612e09576001600160a01b038316600090815260136020526040812080546012549182905591612da783836139f2565b905080156108b6576000670de0b6b3a7640000612dc4838761381c565b612dce9190613851565b6001600160a01b038816600090815260146020526040812080549293508392909190612dfb908490613865565b909155505050505050505050565b6012546001600160a01b038416600090815260136020526040902055505050565b6001600160a01b03811660009081526011602052604090205460ff1615612e895760405162461bcd60e51b8152602060048201526013602482015272185b1c9958591e481dda1a5d195b1a5cdd1959606a1b604482015260640161078e565b6001600160a01b038116600081815260116020526040808220805460ff191660011790555133917f6661a7108aecd07864384529117d96c319c1163e3010c01390f6b704726e07de91a350565b604051636eb1769f60e11b81523060048201526001600160a01b038381166024830152600091839186169063dd62ed3e90604401602060405180830381865afa158015612f27573d6000803e3d6000fd5b505050506040513d601f19601f82011682018060405250810190612f4b91906138bd565b612f559190613865565b6040516001600160a01b03851660248201526044810182905290915061123090859063095ea7b360e01b90606401612b8f565b6000612fdd826040518060400160405280602081526020017f5361666545524332303a206c6f772d6c6576656c2063616c6c206661696c6564815250856001600160a01b031661305a9092919063ffffffff16565b8051909150156109b35780806020019051810190612ffb919061377d565b6109b35760405162461bcd60e51b815260206004820152602a60248201527f5361666545524332303a204552433230206f7065726174696f6e20646964206e6044820152691bdd081cdd58d8d9595960b21b606482015260840161078e565b60606001600160a01b0384163b6130b35760405162461bcd60e51b815260206004820152601d60248201527f416464726573733a2063616c6c20746f206e6f6e2d636f6e7472616374000000604482015260640161078e565b600080856001600160a01b0316856040516130ce9190613ae8565b6000604051808303816000865af19150503d806000811461310b576040519150601f19603f3d011682016040523d82523d6000602084013e613110565b606091505b509150915061312082828661312c565b925050505b9392505050565b6060831561313b575081613125565b82511561314b5782518084602001fd5b8160405162461bcd60e51b815260040161078e9190613b04565b50805460008255906000526020600020908101906110e891905b80821115613193576000815560010161317f565b5090565b6001600160a01b03811681146110e857600080fd5b6000602082840312156131be57600080fd5b813561312581613197565b600080600080600060a086880312156131e157600080fd5b85356131ec81613197565b945060208601356131fc81613197565b9350604086013561320c81613197565b9250606086013561321c81613197565b9150608086013561322c81613197565b809150509295509295909350565b634e487b7160e01b600052604160045260246000fd5b604051601f8201601f1916810167ffffffffffffffff811182821017156132795761327961323a565b604052919050565b600067ffffffffffffffff82111561329b5761329b61323a565b5060051b60200190565b600082601f8301126132b657600080fd5b813560206132cb6132c683613281565b613250565b82815260059290921b840181019181810190868411156132ea57600080fd5b8286015b8481101561330e57803561330181613197565b83529183019183016132ee565b509695505050505050565b60006020828403121561332b57600080fd5b813567ffffffffffffffff81111561334257600080fd5b61334e848285016132a5565b949350505050565b600082601f83011261336757600080fd5b813560206133776132c683613281565b82815260059290921b8401810191818101908684111561339657600080fd5b8286015b8481101561330e57803567ffffffffffffffff8111156133ba5760008081fd5b6133c88986838b01016132a5565b84525091830191830161339a565b600080604083850312156133e957600080fd5b823567ffffffffffffffff8082111561340157600080fd5b61340d868387016132a5565b9350602085013591508082111561342357600080fd5b5061343085828601613356565b9150509250929050565b60006020828403121561344c57600080fd5b5035919050565b6000806040838503121561346657600080fd5b82359150602083013561347881613197565b809150509250929050565b60008060006060848603121561349857600080fd5b83356134a381613197565b925060208401356134b381613197565b929592945050506040919091013590565b600080604083850312156134d757600080fd5b50508035926020909101359150565b6000806000606084860312156134fb57600080fd5b833567ffffffffffffffff8082111561351357600080fd5b61351f878388016132a5565b9450602086013591508082111561353557600080fd5b5061354286828701613356565b925050604084013590509250925092565b6000806040838503121561356657600080fd5b823567ffffffffffffffff81111561357d57600080fd5b613589858286016132a5565b925050602083013561347881613197565b600080604083850312156135ad57600080fd5b82356135b881613197565b946020939093013593505050565b6000806000606084860312156135db57600080fd5b8335925060208401356134b381613197565b60008083601f8401126135ff57600080fd5b50813567ffffffffffffffff81111561361757600080fd5b6020830191508360208260051b850101111561363257600080fd5b9250929050565b60008060008060006060868803121561365157600080fd5b85359450602086013567ffffffffffffffff8082111561367057600080fd5b61367c89838a016135ed565b9096509450604088013591508082111561369557600080fd5b506136a2888289016135ed565b969995985093965092949392505050565b6000602082840312156136c557600080fd5b815161312581613197565b634e487b7160e01b600052603260045260246000fd5b634e487b7160e01b600052601160045260246000fd5b60006001820161370e5761370e6136e6565b5060010190565b600081518084526020808501945080840160005b8381101561374e5781516001600160a01b031687529582019590820190600101613729565b509495945050505050565b6001600160a01b038316815260406020820181905260009061334e90830184613715565b60006020828403121561378f57600080fd5b8151801515811461312557600080fd5b60208082526006908201526510b7bbb732b960d11b604082015260600190565b6000600160ff1b82016137d4576137d46136e6565b5060000390565b600080821280156001600160ff1b03849003851316156137fd576137fd6136e6565b600160ff1b8390038412811615613816576138166136e6565b50500190565b6000816000190483118215151615613836576138366136e6565b500290565b634e487b7160e01b600052601260045260246000fd5b6000826138605761386061383b565b500490565b60008219821115613878576138786136e6565b500190565b60208082526006908201526521676175676560d01b604082015260600190565b60208082526006908201526510ba37b5b2b760d11b604082015260600190565b6000602082840312156138cf57600080fd5b5051919050565b60208082526006908201526510b837bbb2b960d11b604082015260600190565b82815260406020820152600061334e6040830184613715565b6000806040838503121561392257600080fd5b825161392d81613197565b602084015190925061347881613197565b6020815260006131256020830184613715565b6001600160a01b03858116825284811660208301528316604082015260806060820181905260009061398590830184613715565b9695505050505050565b600080604083850312156139a257600080fd5b505080516020909101519092909150565b60008083128015600160ff1b8501841216156139d1576139d16136e6565b6001600160ff1b03840183138116156139ec576139ec6136e6565b50500390565b600082821015613a0457613a046136e6565b500390565b60006001600160ff1b0381841382841380821686840486111615613a2f57613a2f6136e6565b600160ff1b6000871282811687830589121615613a4e57613a4e6136e6565b60008712925087820587128484161615613a6a57613a6a6136e6565b87850587128184161615613a8057613a806136e6565b505050929093029392505050565b600082613a9d57613a9d61383b565b600160ff1b821460001984141615613ab757613ab76136e6565b500590565b60005b83811015613ad7578181015183820152602001613abf565b838111156112305750506000910152565b60008251613afa818460208701613abc565b9190910192915050565b6020815260008251806020840152613b23816040850160208701613abc565b601f01601f1916919091016040019291505056fea2646970667358221220936a3b5ddbd46d2b70154e4339b73e5d78ccff028926d1b91429a26fdec3fa5164736f6c634300080d0033",
  "linkReferences": {},
  "deployedLinkReferences": {}
}