{
  "_format": "hh-sol-artifact-1",
  "contractName": "VoltVoterUpgradeable",
  "sourceName": "contracts/base/vote/VoltVoterUpgradeable.sol",
  "abi": [
    {
      "anonymous": false,
      "inputs": [
        {
          "indexed": false,
          "internalType": "uint256",
          "name": "tokenId",
          "type": "uint256"
        },
        {
          "indexed": false,
          "internalType": "int256",
          "name": "weight",
          "type": "int256"
        }
      ],
      "name": "Abstained",
      "type": "event"
    },
    {
      "anonymous": false,
      "inputs": [
        {
          "indexed": true,
          "internalType": "address",
          "name": "owner",
          "type": "address"
        },
        {
          "indexed": true,
          "internalType": "address",
          "name": "gauge",
          "type": "address"
        },
        {
          "indexed": false,
          "internalType": "uint256",
          "name": "tokenId",
          "type": "uint256"
        }
      ],
      "name": "Attach",
      "type": "event"
    },
    {
      "anonymous": false,
      "inputs": [
        {
          "indexed": true,
          "internalType": "address",
          "name": "lp",
          "type": "address"
        },
        {
          "indexed": true,
          "internalType": "address",
          "name": "gauge",
          "type": "address"
        },
        {
          "indexed": false,
          "internalType": "uint256",
          "name": "tokenId",
          "type": "uint256"
        },
        {
          "indexed": false,
          "internalType": "uint256",
          "name": "amount",
          "type": "uint256"
        }
      ],
      "name": "Deposit",
      "type": "event"
    },
    {
      "anonymous": false,
      "inputs": [
        {
          "indexed": true,
          "internalType": "address",
          "name": "owner",
          "type": "address"
        },
        {
          "indexed": true,
          "internalType": "address",
          "name": "gauge",
          "type": "address"
        },
        {
          "indexed": false,
          "internalType": "uint256",
          "name": "tokenId",
          "type": "uint256"
        }
      ],
      "name": "Detach",
      "type": "event"
    },
    {
      "anonymous": false,
      "inputs": [
        {
          "indexed": true,
          "internalType": "address",
          "name": "sender",
          "type": "address"
        },
        {
          "indexed": true,
          "internalType": "address",
          "name": "gauge",
          "type": "address"
        },
        {
          "indexed": false,
          "internalType": "uint256",
          "name": "amount",
          "type": "uint256"
        }
      ],
      "name": "DistributeReward",
      "type": "event"
    },
    {
      "anonymous": false,
      "inputs": [
        {
          "indexed": true,
          "internalType": "address",
          "name": "gauge",
          "type": "address"
        },
        {
          "indexed": false,
          "internalType": "address",
          "name": "creator",
          "type": "address"
        },
        {
          "indexed": true,
          "internalType": "address",
          "name": "bribe",
          "type": "address"
        },
        {
          "indexed": true,
          "internalType": "address",
          "name": "pool",
          "type": "address"
        }
      ],
      "name": "GaugeCreated",
      "type": "event"
    },
    {
      "anonymous": false,
      "inputs": [
        {
          "indexed": true,
          "internalType": "address",
          "name": "sender",
          "type": "address"
        },
        {
          "indexed": true,
          "internalType": "address",
          "name": "reward",
          "type": "address"
        },
        {
          "indexed": false,
          "internalType": "uint256",
          "name": "amount",
          "type": "uint256"
        }
      ],
      "name": "NotifyReward",
      "type": "event"
    },
    {
      "anonymous": false,
      "inputs": [
        {
          "indexed": true,
          "internalType": "address",
          "name": "voter",
          "type": "address"
        },
        {
          "indexed": false,
          "internalType": "uint256",
          "name": "tokenId",
          "type": "uint256"
        },
        {
          "indexed": false,
          "internalType": "int256",
          "name": "weight",
          "type": "int256"
        }
      ],
      "name": "Voted",
      "type": "event"
    },
    {
      "anonymous": false,
      "inputs": [
        {
          "indexed": true,
          "internalType": "address",
          "name": "whitelister",
          "type": "address"
        },
        {
          "indexed": true,
          "internalType": "address",
          "name": "token",
          "type": "address"
        }
      ],
      "name": "Whitelisted",
      "type": "event"
    },
    {
      "anonymous": false,
      "inputs": [
        {
          "indexed": true,
          "internalType": "address",
          "name": "lp",
          "type": "address"
        },
        {
          "indexed": true,
          "internalType": "address",
          "name": "gauge",
          "type": "address"
        },
        {
          "indexed": false,
          "internalType": "uint256",
          "name": "tokenId",
          "type": "uint256"
        },
        {
          "indexed": false,
          "internalType": "uint256",
          "name": "amount",
          "type": "uint256"
        }
      ],
      "name": "Withdraw",
      "type": "event"
    },
    {
      "inputs": [
        {
          "internalType": "uint256",
          "name": "tokenId",
          "type": "uint256"
        },
        {
          "internalType": "address",
          "name": "account",
          "type": "address"
        }
      ],
      "name": "attachTokenToGauge",
      "outputs": [],
      "stateMutability": "nonpayable",
      "type": "function"
    },
    {
      "inputs": [],
      "name": "bribeFactory",
      "outputs": [
        {
          "internalType": "address",
          "name": "",
          "type": "address"
        }
      ],
      "stateMutability": "view",
      "type": "function"
    },
    {
      "inputs": [
        {
          "internalType": "address",
          "name": "",
          "type": "address"
        }
      ],
      "name": "bribes",
      "outputs": [
        {
          "internalType": "address",
          "name": "",
          "type": "address"
        }
      ],
      "stateMutability": "view",
      "type": "function"
    },
    {
      "inputs": [
        {
          "internalType": "address[]",
          "name": "_bribes",
          "type": "address[]"
        },
        {
          "internalType": "address[][]",
          "name": "_tokens",
          "type": "address[][]"
        },
        {
          "internalType": "uint256",
          "name": "_tokenId",
          "type": "uint256"
        }
      ],
      "name": "claimBribes",
      "outputs": [],
      "stateMutability": "nonpayable",
      "type": "function"
    },
    {
      "inputs": [
        {
          "internalType": "address[]",
          "name": "_bribes",
          "type": "address[]"
        },
        {
          "internalType": "address[][]",
          "name": "_tokens",
          "type": "address[][]"
        },
        {
          "internalType": "uint256",
          "name": "_tokenId",
          "type": "uint256"
        }
      ],
      "name": "claimFees",
      "outputs": [],
      "stateMutability": "nonpayable",
      "type": "function"
    },
    {
      "inputs": [
        {
          "internalType": "address[]",
          "name": "_gauges",
          "type": "address[]"
        },
        {
          "internalType": "address[][]",
          "name": "_tokens",
          "type": "address[][]"
        }
      ],
      "name": "claimRewards",
      "outputs": [],
      "stateMutability": "nonpayable",
      "type": "function"
    },
    {
      "inputs": [
        {
          "internalType": "address",
          "name": "",
          "type": "address"
        }
      ],
      "name": "claimable",
      "outputs": [
        {
          "internalType": "uint256",
          "name": "",
          "type": "uint256"
        }
      ],
      "stateMutability": "view",
      "type": "function"
    },
    {
      "inputs": [
        {
          "internalType": "address",
          "name": "_pool",
          "type": "address"
        }
      ],
      "name": "createGauge",
      "outputs": [
        {
          "internalType": "address",
          "name": "",
          "type": "address"
        }
      ],
      "stateMutability": "nonpayable",
      "type": "function"
    },
    {
      "inputs": [
        {
          "internalType": "uint256",
          "name": "tokenId",
          "type": "uint256"
        },
        {
          "internalType": "address",
          "name": "account",
          "type": "address"
        }
      ],
      "name": "detachTokenFromGauge",
      "outputs": [],
      "stateMutability": "nonpayable",
      "type": "function"
    },
    {
      "inputs": [
        {
          "internalType": "address",
          "name": "_gauge",
          "type": "address"
        }
      ],
      "name": "distribute",
      "outputs": [],
      "stateMutability": "nonpayable",
      "type": "function"
    },
    {
      "inputs": [],
      "name": "distributeAll",
      "outputs": [],
      "stateMutability": "nonpayable",
      "type": "function"
    },
    {
      "inputs": [
        {
          "internalType": "address[]",
          "name": "_gauges",
          "type": "address[]"
        }
      ],
      "name": "distributeFees",
      "outputs": [],
      "stateMutability": "nonpayable",
      "type": "function"
    },
    {
      "inputs": [
        {
          "internalType": "address[]",
          "name": "_gauges",
          "type": "address[]"
        }
      ],
      "name": "distributeForGauges",
      "outputs": [],
      "stateMutability": "nonpayable",
      "type": "function"
    },
    {
      "inputs": [
        {
          "internalType": "uint256",
          "name": "start",
          "type": "uint256"
        },
        {
          "internalType": "uint256",
          "name": "finish",
          "type": "uint256"
        }
      ],
      "name": "distributeForPoolsInRange",
      "outputs": [],
      "stateMutability": "nonpayable",
      "type": "function"
    },
    {
      "inputs": [
        {
          "internalType": "uint256",
          "name": "tokenId",
          "type": "uint256"
        },
        {
          "internalType": "address",
          "name": "account",
          "type": "address"
        },
        {
          "internalType": "uint256",
          "name": "amount",
          "type": "uint256"
        }
      ],
      "name": "emitDeposit",
      "outputs": [],
      "stateMutability": "nonpayable",
      "type": "function"
    },
    {
      "inputs": [
        {
          "internalType": "uint256",
          "name": "tokenId",
          "type": "uint256"
        },
        {
          "internalType": "address",
          "name": "account",
          "type": "address"
        },
        {
          "internalType": "uint256",
          "name": "amount",
          "type": "uint256"
        }
      ],
      "name": "emitWithdraw",
      "outputs": [],
      "stateMutability": "nonpayable",
      "type": "function"
    },
    {
      "inputs": [],
      "name": "factory",
      "outputs": [
        {
          "internalType": "address",
          "name": "",
          "type": "address"
        }
      ],
      "stateMutability": "view",
      "type": "function"
    },
    {
      "inputs": [],
      "name": "gaugeFactory",
      "outputs": [
        {
          "internalType": "address",
          "name": "",
          "type": "address"
        }
      ],
      "stateMutability": "view",
      "type": "function"
    },
    {
      "inputs": [
        {
          "internalType": "address",
          "name": "",
          "type": "address"
        }
      ],
      "name": "gauges",
      "outputs": [
        {
          "internalType": "address",
          "name": "",
          "type": "address"
        }
      ],
      "stateMutability": "view",
      "type": "function"
    },
    {
      "inputs": [],
      "name": "index",
      "outputs": [
        {
          "internalType": "uint256",
          "name": "",
          "type": "uint256"
        }
      ],
      "stateMutability": "view",
      "type": "function"
    },
    {
      "inputs": [
        {
          "internalType": "address[]",
          "name": "_tokens",
          "type": "address[]"
        },
        {
          "internalType": "address",
          "name": "_minter",
          "type": "address"
        }
      ],
      "name": "init",
      "outputs": [],
      "stateMutability": "nonpayable",
      "type": "function"
    },
    {
      "inputs": [
        {
          "internalType": "address",
          "name": "_ve",
          "type": "address"
        },
        {
          "internalType": "address",
          "name": "_factory",
          "type": "address"
        },
        {
          "internalType": "address",
          "name": "_gaugeFactory",
          "type": "address"
        },
        {
          "internalType": "address",
          "name": "_bribeFactory",
          "type": "address"
        },
        {
          "internalType": "address",
          "name": "_minter",
          "type": "address"
        }
      ],
      "name": "initialize",
      "outputs": [],
      "stateMutability": "nonpayable",
      "type": "function"
    },
    {
      "inputs": [
        {
          "internalType": "address",
          "name": "",
          "type": "address"
        }
      ],
      "name": "isGauge",
      "outputs": [
        {
          "internalType": "bool",
          "name": "",
          "type": "bool"
        }
      ],
      "stateMutability": "view",
      "type": "function"
    },
    {
      "inputs": [
        {
          "internalType": "address",
          "name": "",
          "type": "address"
        }
      ],
      "name": "isWhitelisted",
      "outputs": [
        {
          "internalType": "bool",
          "name": "",
          "type": "bool"
        }
      ],
      "stateMutability": "view",
      "type": "function"
    },
    {
      "inputs": [],
      "name": "listingFee",
      "outputs": [
        {
          "internalType": "uint256",
          "name": "",
          "type": "uint256"
        }
      ],
      "stateMutability": "view",
      "type": "function"
    },
    {
      "inputs": [],
      "name": "minter",
      "outputs": [
        {
          "internalType": "address",
          "name": "",
          "type": "address"
        }
      ],
      "stateMutability": "view",
      "type": "function"
    },
    {
      "inputs": [
        {
          "internalType": "uint256",
          "name": "amount",
          "type": "uint256"
        }
      ],
      "name": "notifyRewardAmount",
      "outputs": [],
      "stateMutability": "nonpayable",
      "type": "function"
    },
    {
      "inputs": [
        {
          "internalType": "uint256",
          "name": "_tokenId",
          "type": "uint256"
        }
      ],
      "name": "poke",
      "outputs": [],
      "stateMutability": "nonpayable",
      "type": "function"
    },
    {
      "inputs": [
        {
          "internalType": "address",
          "name": "",
          "type": "address"
        }
      ],
      "name": "poolForGauge",
      "outputs": [
        {
          "internalType": "address",
          "name": "",
          "type": "address"
        }
      ],
      "stateMutability": "view",
      "type": "function"
    },
    {
      "inputs": [
        {
          "internalType": "uint256",
          "name": "",
          "type": "uint256"
        },
        {
          "internalType": "uint256",
          "name": "",
          "type": "uint256"
        }
      ],
      "name": "poolVote",
      "outputs": [
        {
          "internalType": "address",
          "name": "",
          "type": "address"
        }
      ],
      "stateMutability": "view",
      "type": "function"
    },
    {
      "inputs": [
        {
          "internalType": "uint256",
          "name": "",
          "type": "uint256"
        }
      ],
      "name": "pools",
      "outputs": [
        {
          "internalType": "address",
          "name": "",
          "type": "address"
        }
      ],
      "stateMutability": "view",
      "type": "function"
    },
    {
      "inputs": [],
      "name": "poolsLength",
      "outputs": [
        {
          "internalType": "uint256",
          "name": "",
          "type": "uint256"
        }
      ],
      "stateMutability": "view",
      "type": "function"
    },
    {
      "inputs": [
        {
          "internalType": "address",
          "name": "_token",
          "type": "address"
        },
        {
          "internalType": "address",
          "name": "_gaugeOrBribe",
          "type": "address"
        },
        {
          "internalType": "uint256",
          "name": "_tokenId",
          "type": "uint256"
        }
      ],
      "name": "registerRewardToken",
      "outputs": [],
      "stateMutability": "nonpayable",
      "type": "function"
    },
    {
      "inputs": [
        {
          "internalType": "address",
          "name": "_token",
          "type": "address"
        },
        {
          "internalType": "address",
          "name": "_gaugeOrBribe",
          "type": "address"
        },
        {
          "internalType": "uint256",
          "name": "_tokenId",
          "type": "uint256"
        }
      ],
      "name": "removeRewardToken",
      "outputs": [],
      "stateMutability": "nonpayable",
      "type": "function"
    },
    {
      "inputs": [
        {
          "internalType": "uint256",
          "name": "_tokenId",
          "type": "uint256"
        }
      ],
      "name": "reset",
      "outputs": [],
      "stateMutability": "nonpayable",
      "type": "function"
    },
    {
      "inputs": [
        {
          "internalType": "address",
          "name": "",
          "type": "address"
        }
      ],
      "name": "supplyIndex",
      "outputs": [
        {
          "internalType": "uint256",
          "name": "",
          "type": "uint256"
        }
      ],
      "stateMutability": "view",
      "type": "function"
    },
    {
      "inputs": [],
      "name": "token",
      "outputs": [
        {
          "internalType": "address",
          "name": "",
          "type": "address"
        }
      ],
      "stateMutability": "view",
      "type": "function"
    },
    {
      "inputs": [],
      "name": "totalWeight",
      "outputs": [
        {
          "internalType": "uint256",
          "name": "",
          "type": "uint256"
        }
      ],
      "stateMutability": "view",
      "type": "function"
    },
    {
      "inputs": [],
      "name": "updateAll",
      "outputs": [],
      "stateMutability": "nonpayable",
      "type": "function"
    },
    {
      "inputs": [
        {
          "internalType": "address[]",
          "name": "_gauges",
          "type": "address[]"
        }
      ],
      "name": "updateFor",
      "outputs": [],
      "stateMutability": "nonpayable",
      "type": "function"
    },
    {
      "inputs": [
        {
          "internalType": "uint256",
          "name": "start",
          "type": "uint256"
        },
        {
          "internalType": "uint256",
          "name": "end",
          "type": "uint256"
        }
      ],
      "name": "updateForRange",
      "outputs": [],
      "stateMutability": "nonpayable",
      "type": "function"
    },
    {
      "inputs": [
        {
          "internalType": "address",
          "name": "_gauge",
          "type": "address"
        }
      ],
      "name": "updateGauge",
      "outputs": [],
      "stateMutability": "nonpayable",
      "type": "function"
    },
    {
      "inputs": [
        {
          "internalType": "uint256",
          "name": "",
          "type": "uint256"
        }
      ],
      "name": "usedWeights",
      "outputs": [
        {
          "internalType": "uint256",
          "name": "",
          "type": "uint256"
        }
      ],
      "stateMutability": "view",
      "type": "function"
    },
    {
      "inputs": [],
      "name": "ve",
      "outputs": [
        {
          "internalType": "address",
          "name": "",
          "type": "address"
        }
      ],
      "stateMutability": "view",
      "type": "function"
    },
    {
      "inputs": [
        {
          "internalType": "uint256",
          "name": "tokenId",
          "type": "uint256"
        },
        {
          "internalType": "address[]",
          "name": "_poolVote",
          "type": "address[]"
        },
        {
          "internalType": "int256[]",
          "name": "_weights",
          "type": "int256[]"
        }
      ],
      "name": "vote",
      "outputs": [],
      "stateMutability": "nonpayable",
      "type": "function"
    },
    {
      "inputs": [
        {
          "internalType": "uint256",
          "name": "",
          "type": "uint256"
        },
        {
          "internalType": "address",
          "name": "",
          "type": "address"
        }
      ],
      "name": "votes",
      "outputs": [
        {
          "internalType": "int256",
          "name": "",
          "type": "int256"
        }
      ],
      "stateMutability": "view",
      "type": "function"
    },
    {
      "inputs": [
        {
          "internalType": "address",
          "name": "",
          "type": "address"
        }
      ],
      "name": "weights",
      "outputs": [
        {
          "internalType": "int256",
          "name": "",
          "type": "int256"
        }
      ],
      "stateMutability": "view",
      "type": "function"
    },
    {
      "inputs": [
        {
          "internalType": "address",
          "name": "_token",
          "type": "address"
        },
        {
          "internalType": "uint256",
          "name": "_tokenId",
          "type": "uint256"
        }
      ],
      "name": "whitelist",
      "outputs": [],
      "stateMutability": "nonpayable",
      "type": "function"
    }
  ],
  "bytecode": "0x6080604052600160005534801561001557600080fd5b506138bd806100256000396000f3fe608060405234801561001057600080fd5b50600436106102a05760003560e01c80637715ee7511610167578063ac4afa38116100ce578063ddbe883c11610087578063ddbe883c14610663578063e380fcad14610676578063ea94ee4414610696578063eb4a78e0146106a9578063fc0c546a146106bc578063fecdad60146106cf57600080fd5b8063ac4afa38146105c3578063b9a09fd5146105d6578063c45a0155146105ff578063c527ee1f14610612578063d23254b414610625578063d560b0d71461065057600080fd5b8063a5f4301e11610120578063a5f4301e1461051e578063a61c713a14610531578063a7cac84614610544578063a86a366d14610564578063a8c5d95a14610577578063aa79979b146105a057600080fd5b80637715ee75146104a957806379e93824146104bc5780637e1ddf64146104dc57806396c82e57146104ef57806398fc55d8146104f85780639b6a9d721461050b57600080fd5b80633c6b16ab1161020b57806353f38e6b116101c457806353f38e6b1461044257806363453ae114610455578063666256aa14610468578063698473e31461047b5780636a1b7ecc1461048e5780636ecbe38a1461049657600080fd5b80633c6b16ab146103d9578063402914f5146103ec578063411b1f771461040c578063436596c41461041f5780634c6e62b61461042757806353d786931461043a57600080fd5b806320b1cb6f1161025d57806320b1cb6f146103525780632716ae66146103655780632986c0e514610377578063310bd74b1461038057806332145f90146103935780633af32abf146103a657600080fd5b806306d6a1b2146102a557806307546172146102eb5780630d52333c146102fe5780631459457a146103115780631f850716146103265780632025e9b81461033f575b600080fd5b6102ce6102b3366004612efc565b600a602052600090815260409020546001600160a01b031681565b6040516001600160a01b0390911681526020015b60405180910390f35b6006546102ce906001600160a01b031681565b6004546102ce906001600160a01b031681565b61032461031f366004612f19565b6106e2565b005b6001546102ce906201000090046001600160a01b031681565b61032461034d366004613069565b610890565b610324610360366004613126565b6108d4565b6008545b6040519081526020016102e2565b61036960125481565b61032461038e36600461318a565b61098a565b6103246103a136600461318a565b610a8d565b6103c96103b4366004612efc565b60116020526000908152604090205460ff1681565b60405190151581526020016102e2565b6103246103e736600461318a565b610bdd565b6103696103fa366004612efc565b60146020526000908152604090205481565b61032461041a3660046131a3565b610cfb565b610324610dd9565b6103246104353660046131d3565b610e43565b610324610ffd565b610324610450366004613214565b61100e565b610324610463366004612efc565b611044565b610324610476366004613236565b611050565b6103246104893660046131a3565b611195565b61036961126a565b6103246104a4366004612efc565b611279565b6103246104b7366004613236565b611282565b6103696104ca36600461318a565b600f6020526000908152604090205481565b6103246104ea3660046132a3565b6113c7565b61036960075481565b6103246105063660046132ea565b61146f565b610324610519366004613214565b6115d1565b6102ce61052c366004612efc565b611637565b61032461053f366004613316565b611b25565b610369610552366004612efc565b600c6020526000908152604090205481565b6102ce610572366004613214565b611b97565b6102ce610585366004612efc565b600b602052600090815260409020546001600160a01b031681565b6103c96105ae366004612efc565b60106020526000908152604090205460ff1681565b6102ce6105d136600461318a565b611bcf565b6102ce6105e4366004612efc565b6009602052600090815260409020546001600160a01b031681565b6002546102ce906001600160a01b031681565b610324610620366004613069565b611bf9565b6103696106333660046131a3565b600d60209081526000928352604080842090915290825290205481565b61032461065e366004613069565b611c96565b6103246106713660046131d3565b611cd6565b610369610684366004612efc565b60136020526000908152604090205481565b6103246106a4366004613316565b611e5d565b6005546102ce906001600160a01b031681565b6003546102ce906001600160a01b031681565b6103246106dd366004613389565b611ecf565b600154610100900460ff166106fd5760015460ff1615610701565b303b155b6107695760405162461bcd60e51b815260206004820152602e60248201527f496e697469616c697a61626c653a20636f6e747261637420697320616c72656160448201526d191e481a5b9a5d1a585b1a5e995960921b60648201526084015b60405180910390fd5b600154610100900460ff1615801561078b576001805461ffff19166101011790555b6001805462010000600160b01b031916620100006001600160a01b0389811691820292909217909255600280546001600160a01b03191691881691909117905560408051637e062a3560e11b8152905163fc0c546a916004808201926020929091908290030181865afa158015610806573d6000803e3d6000fd5b505050506040513d601f19601f8201168201806040525081019061082a9190613403565b600380546001600160a01b03199081166001600160a01b03938416179091556004805482168784161790556005805482168684161790556006805490911691841691909117905560016000558015610888576001805461ff00191690555b505050505050565b60005b81518110156108d0576108be8282815181106108b1576108b1613420565b602002602001015161200a565b806108c88161344c565b915050610893565b5050565b60005b8251811015610985578281815181106108f2576108f2613420565b60200260200101516001600160a01b03166331279d3d3384848151811061091b5761091b613420565b60200260200101516040518363ffffffff1660e01b81526004016109409291906134a9565b600060405180830381600087803b15801561095a57600080fd5b505af115801561096e573d6000803e3d6000fd5b50505050808061097d9061344c565b9150506108d7565b505050565b60015460405163430c208160e01b815233600482015260248101839052620100009091046001600160a01b03169063430c208190604401602060405180830381865afa1580156109de573d6000803e3d6000fd5b505050506040513d601f19601f82011682018060405250810190610a0291906134cd565b610a1e5760405162461bcd60e51b8152600401610760906134ef565b610a2781612236565b60015460405163c1f0fb9f60e01b815260048101839052620100009091046001600160a01b03169063c1f0fb9f90602401600060405180830381600087803b158015610a7257600080fd5b505af1158015610a86573d6000803e3d6000fd5b5050505050565b6000818152600e6020908152604080832080548251818502810185019093528083529192909190830182828015610aed57602002820191906000526020600020905b81546001600160a01b03168152600190910190602001808311610acf575b5050505050905060008151905060008167ffffffffffffffff811115610b1557610b15612f8a565b604051908082528060200260200182016040528015610b3e578160200160208202803683370190505b50905060005b82811015610bcb57600d60008681526020019081526020016000206000858381518110610b7357610b73613420565b60200260200101516001600160a01b03166001600160a01b0316815260200190815260200160002054828281518110610bae57610bae613420565b602090810291909101015280610bc38161344c565b915050610b44565b50610bd7848483612446565b50505050565b80600003610c1b5760405162461bcd60e51b815260206004820152600b60248201526a1e995c9bc8185b5bdd5b9d60aa1b6044820152606401610760565b6007546000819003610c5a5760405162461bcd60e51b8152602060048201526008602482015267217765696768747360c01b6044820152606401610760565b600354610c72906001600160a01b03163330856128ab565b600081610c8784670de0b6b3a764000061350f565b610c919190613544565b90508015610cb1578060126000828254610cab9190613558565b90915550505b6003546040518481526001600160a01b039091169033907ff70d5c697de7ea828df48e5c4573cb2194c659f1901f70110c52b066dcf50826906020015b60405180910390a3505050565b3360009081526010602052604090205460ff16610d2a5760405162461bcd60e51b815260040161076090613570565b8115610d9457600154604051634c3c15a760e11b815260048101849052620100009091046001600160a01b0316906398782b4e90602401600060405180830381600087803b158015610d7b57600080fd5b505af1158015610d8f573d6000803e3d6000fd5b505050505b60405182815233906001600160a01b038316907fae268d9aab12f3605f58efd74fd3801fa812b03fdb44317eb70f46dff0e19e22906020015b60405180910390a35050565b60085460005b818110156108d057610e316009600060088481548110610e0157610e01613420565b60009182526020808320909101546001600160a01b0390811684529083019390935260409091019020541661200a565b80610e3b8161344c565b915050610ddf565b60008111610e635760405162461bcd60e51b815260040161076090613590565b6001546040516331a9108f60e11b815260048101839052620100009091046001600160a01b031690636352211e90602401602060405180830381865afa158015610eb1573d6000803e3d6000fd5b505050506040513d601f19601f82011682018060405250810190610ed59190613403565b6001600160a01b0316336001600160a01b031614610f055760405162461bcd60e51b8152600401610760906134ef565b610f0d612916565b6001546040516339f890b560e21b815260048101849052620100009091046001600160a01b03169063e7e242d490602401602060405180830381865afa158015610f5b573d6000803e3d6000fd5b505050506040513d601f19601f82011682018060405250810190610f7f91906135b0565b11610f9c5760405162461bcd60e51b8152600401610760906135c9565b604051631c8db79360e31b81526001600160a01b03848116600483015283169063e46dbc98906024015b600060405180830381600087803b158015610fe057600080fd5b505af1158015610ff4573d6000803e3d6000fd5b50505050505050565b60085461100c906000906115d1565b565b815b81811015610985576110326009600060088481548110610e0157610e01613420565b8061103c8161344c565b915050611010565b61104d8161200a565b50565b60015460405163430c208160e01b815233600482015260248101839052620100009091046001600160a01b03169063430c208190604401602060405180830381865afa1580156110a4573d6000803e3d6000fd5b505050506040513d601f19601f820116820180604052508101906110c891906134cd565b6110e45760405162461bcd60e51b8152600401610760906134ef565b60005b8351811015610bd75783818151811061110257611102613420565b60200260200101516001600160a01b031663a7852afa8385848151811061112b5761112b613420565b60200260200101516040518363ffffffff1660e01b81526004016111509291906135e9565b600060405180830381600087803b15801561116a57600080fd5b505af115801561117e573d6000803e3d6000fd5b50505050808061118d9061344c565b9150506110e7565b3360009081526010602052604090205460ff166111c45760405162461bcd60e51b815260040161076090613570565b811561122d576001546040516246b3bd60e81b815260048101849052620100009091046001600160a01b0316906346b3bd0090602401600060405180830381600087803b15801561121457600080fd5b505af1158015611228573d6000803e3d6000fd5b505050505b60405182815233906001600160a01b038316907f60940192810a6fb3bce3fd3e2e3a13fd6ccc7605e963fb87ee971aba829989bd90602001610dcd565b6000611274612916565b905090565b61104d81612a97565b60015460405163430c208160e01b815233600482015260248101839052620100009091046001600160a01b03169063430c208190604401602060405180830381865afa1580156112d6573d6000803e3d6000fd5b505050506040513d601f19601f820116820180604052508101906112fa91906134cd565b6113165760405162461bcd60e51b8152600401610760906134ef565b60005b8351811015610bd75783818151811061133457611334613420565b60200260200101516001600160a01b031663a7852afa8385848151811061135d5761135d613420565b60200260200101516040518363ffffffff1660e01b81526004016113829291906135e9565b600060405180830381600087803b15801561139c57600080fd5b505af11580156113b0573d6000803e3d6000fd5b5050505080806113bf9061344c565b915050611319565b6006546001600160a01b0316331461140b5760405162461bcd60e51b815260206004820152600760248201526610b6b4b73a32b960c91b6044820152606401610760565b60005b825181101561144b5761143983828151811061142c5761142c613420565b6020026020010151612b7a565b806114438161344c565b91505061140e565b50600680546001600160a01b0319166001600160a01b039290921691909117905550565b6000811161148f5760405162461bcd60e51b815260040161076090613590565b6001546040516331a9108f60e11b815260048101839052620100009091046001600160a01b031690636352211e90602401602060405180830381865afa1580156114dd573d6000803e3d6000fd5b505050506040513d601f19601f820116820180604052508101906115019190613403565b6001600160a01b0316336001600160a01b0316146115315760405162461bcd60e51b8152600401610760906134ef565b611539612916565b6001546040516339f890b560e21b815260048101849052620100009091046001600160a01b03169063e7e242d490602401602060405180830381865afa158015611587573d6000803e3d6000fd5b505050506040513d601f19601f820116820180604052508101906115ab91906135b0565b116115c85760405162461bcd60e51b8152600401610760906135c9565b6108d082612b7a565b815b818110156109855761162560096000600884815481106115f5576115f5613420565b60009182526020808320909101546001600160a01b03908116845290830193909352604090910190205416612a97565b8061162f8161344c565b9150506115d3565b6001600160a01b038181166000908152600960205260408120549091161561168a5760405162461bcd60e51b815260206004820152600660248201526565786973747360d01b6044820152606401610760565b60025460405163e5e31b1360e01b81526001600160a01b0384811660048301529091169063e5e31b1390602401602060405180830381865afa1580156116d4573d6000803e3d6000fd5b505050506040513d601f19601f820116820180604052508101906116f891906134cd565b61172c5760405162461bcd60e51b8152602060048201526005602482015264085c1bdbdb60da1b6044820152606401610760565b600080836001600160a01b0316639d63848a6040518163ffffffff1660e01b81526004016040805180830381865afa15801561176c573d6000803e3d6000fd5b505050506040513d601f19601f820116820180604052508101906117909190613602565b6001600160a01b038216600090815260116020526040902054919350915060ff1680156117d557506001600160a01b03811660009081526011602052604090205460ff165b6118105760405162461bcd60e51b815260206004820152600c60248201526b085dda1a5d195b1a5cdd195960a21b6044820152606401610760565b6040805160038082526080820190925260009160208201606080368337019050509050828160008151811061184757611847613420565b60200260200101906001600160a01b031690816001600160a01b031681525050818160018151811061187b5761187b613420565b6001600160a01b0392831660209182029290920101526003548116908416148015906118b557506003546001600160a01b03838116911614155b156118ff5760035481516001600160a01b0390911690829060029081106118de576118de613420565b60200260200101906001600160a01b031690816001600160a01b0316815250505b60055460405163897cd6b360e01b81526000916001600160a01b03169063897cd6b390611930908590600401613631565b6020604051808303816000875af115801561194f573d6000803e3d6000fd5b505050506040513d601f19601f820116820180604052508101906119739190613403565b600480546001546040516358c14b6560e01b81529394506000936001600160a01b03928316936358c14b65936119ba938d93899362010000909204909216918a9101613644565b6020604051808303816000875af11580156119d9573d6000803e3d6000fd5b505050506040513d601f19601f820116820180604052508101906119fd9190613403565b600354909150611a19906001600160a01b031682600019612c26565b6001600160a01b038082166000818152600b6020908152604080832080548689166001600160a01b031991821617909155948c16808452600983528184208054871686179055938352600a8252808320805490951690931790935560109092529020805460ff19166001179055611a8f81612a97565b600880546001810182556000919091527ff3f7a9fe364faab93b216da50a3214154f22a0a2b415b23a84c8169e8b636ee30180546001600160a01b0319166001600160a01b03898116918217909255604051338152909184811691908416907f48d3c521fd0d5541640f58c6d6381eed7cb2e8c9df421ae165a4f4c2d221ee0d9060200160405180910390a49695505050505050565b3360009081526010602052604090205460ff16611b545760405162461bcd60e51b815260040161076090613570565b604080518481526020810183905233916001600160a01b038516917fdcbc1c05240f31ff3ad067ef1ee35ce4997762752e3a095284754544f4c709d79101610cee565b600e6020528160005260406000208181548110611bb357600080fd5b6000918252602090912001546001600160a01b03169150829050565b60088181548110611bdf57600080fd5b6000918252602090912001546001600160a01b0316905081565b60005b81518110156108d057818181518110611c1757611c17613420565b60200260200101516001600160a01b031663d294f0936040518163ffffffff1660e01b815260040160408051808303816000875af1158015611c5d573d6000803e3d6000fd5b505050506040513d601f19601f82011682018060405250810190611c819190613682565b50508080611c8e9061344c565b915050611bfc565b60005b81518110156108d057611cc4828281518110611cb757611cb7613420565b6020026020010151612a97565b80611cce8161344c565b915050611c99565b60008111611cf65760405162461bcd60e51b815260040161076090613590565b6001546040516331a9108f60e11b815260048101839052620100009091046001600160a01b031690636352211e90602401602060405180830381865afa158015611d44573d6000803e3d6000fd5b505050506040513d601f19601f82011682018060405250810190611d689190613403565b6001600160a01b0316336001600160a01b031614611d985760405162461bcd60e51b8152600401610760906134ef565b611da0612916565b6001546040516339f890b560e21b815260048101849052620100009091046001600160a01b03169063e7e242d490602401602060405180830381865afa158015611dee573d6000803e3d6000fd5b505050506040513d601f19601f82011682018060405250810190611e1291906135b0565b11611e2f5760405162461bcd60e51b8152600401610760906135c9565b604051633d509c9760e01b81526001600160a01b038481166004830152831690633d509c9790602401610fc6565b3360009081526010602052604090205460ff16611e8c5760405162461bcd60e51b815260040161076090613570565b604080518481526020810183905233916001600160a01b038516917ff341246adaac6f497bc2a656f546ab9e182111d630394f0c57c710a59a2cb5679101610cee565b60015460405163430c208160e01b815233600482015260248101879052620100009091046001600160a01b03169063430c208190604401602060405180830381865afa158015611f23573d6000803e3d6000fd5b505050506040513d601f19601f82011682018060405250810190611f4791906134cd565b611f635760405162461bcd60e51b8152600401610760906134ef565b828114611f9c5760405162461bcd60e51b81526020600482015260076024820152662161727261797360c81b6044820152606401610760565b610a86858585808060200260200160405190810160405280939291908181526020018383602002808284376000920191909152505060408051602080890282810182019093528882529093508892508791829185019084908082843760009201919091525061244692505050565b60005460011461204d5760405162461bcd60e51b815260206004820152600e60248201526d1499595b9d1c985b9d0818d85b1b60921b6044820152606401610760565b6002600081905550600660009054906101000a90046001600160a01b03166001600160a01b031663a83627de6040518163ffffffff1660e01b81526004016020604051808303816000875af11580156120aa573d6000803e3d6000fd5b505050506040513d601f19601f820116820180604052508101906120ce91906135b0565b506120d881612a97565b6001600160a01b0381811660008181526014602052604090819020546003549151634cde602960e11b81529190931660048201526399bcc05290602401602060405180830381865afa158015612132573d6000803e3d6000fd5b505050506040513d601f19601f8201168201806040525081019061215691906135b0565b811180156121705750600061216e62093a8083613544565b115b1561222d576001600160a01b0382811660008181526014602052604080822091909155600354905163b66503cf60e01b815292166004830152602482018390529063b66503cf90604401600060405180830381600087803b1580156121d457600080fd5b505af11580156121e8573d6000803e3d6000fd5b50506040518381526001600160a01b03851692503391507f4fa9693cae526341d334e2862ca2413b2e503f1266255f9e0869fb36e6d89b179060200160405180910390a35b50506001600055565b6000818152600e6020526040812080549091805b8281101561240a57600084828154811061226657612266613420565b6000918252602080832090910154888352600d825260408084206001600160a01b0392831680865290845281852054600990945293205492935090916122ac9116612a97565b6001600160a01b0382166000908152600c6020526040812080548392906122d49084906136a6565b90915550506000878152600d602090815260408083206001600160a01b03861684529091528120805483929061230b9084906136a6565b909155505060008113156123af576001600160a01b0382811660009081526009602090815260408083205484168352600b9091529081902054905163278afc8b60e21b815260048101849052602481018a9052911690639e2bf22c90604401600060405180830381600087803b15801561238457600080fd5b505af1158015612398573d6000803e3d6000fd5b5050505080846123a891906136e5565b93506123bc565b6123b981856136a6565b93505b60408051888152602081018390527f6b3894ce60b9bbe9d93f1a4e6fc25b6b93cd8222e73ab6348d79c596f5b51de9910160405180910390a1505080806124029061344c565b91505061224a565b50806007600082825461241d9190613726565b90915550506000848152600f60209081526040808320839055600e9091528120610bd791612eb5565b61244f83612236565b81516001546040516339f890b560e21b8152600481018690526000916201000090046001600160a01b03169063e7e242d490602401602060405180830381865afa1580156124a1573d6000803e3d6000fd5b505050506040513d601f19601f820116820180604052508101906124c591906135b0565b90506000806000805b858110156125585760008782815181106124ea576124ea613420565b60200260200101511361251f5786818151811061250957612509613420565b602002602001015161251a9061373d565b61253a565b86818151811061253157612531613420565b60200260200101515b61254490856136e5565b9350806125508161344c565b9150506124ce565b5060005b8581101561280b57600088828151811061257857612578613420565b6020908102919091018101516001600160a01b038082166000908152600990935260408320548b51929450169190879089908c90879081106125bc576125bc613420565b60200260200101516125ce9190613759565b6125d891906137de565b60008d8152600d602090815260408083206001600160a01b03881684529091529020549091501561263c5760405162461bcd60e51b815260206004820152600e60248201526d191d5c1b1a58d85d19481c1bdbdb60921b6044820152606401610760565b806000036126795760405162461bcd60e51b815260206004820152600a6024820152693d32b937903837bbb2b960b11b6044820152606401610760565b61268282612a97565b60008c8152600e6020908152604080832080546001810182559084528284200180546001600160a01b0319166001600160a01b0388169081179091558352600c909152812080548392906126d79084906136e5565b909155505060008c8152600d602090815260408083206001600160a01b03871684529091528120805483929061270e9084906136e5565b90915550506000811315612795576001600160a01b038083166000908152600b60205260409081902054905163f320772360e01b815260048101849052602481018f905291169063f320772390604401600060405180830381600087803b15801561277857600080fd5b505af115801561278c573d6000803e3d6000fd5b505050506127a1565b61279e8161373d565b90505b6127ab81866136e5565b94506127b781876136e5565b604080518e81526020810184905291975033917f1263a2295e53acd6ef8f655b8afc11fa0f2cf11925be7aa1757d741ef32a926c910160405180910390a250505080806128039061344c565b91505061255c565b5060008113156128795760015460405163fd4a77f160e01b8152600481018a9052620100009091046001600160a01b03169063fd4a77f190602401600060405180830381600087803b15801561286057600080fd5b505af1158015612874573d6000803e3d6000fd5b505050505b816007600082825461288b9190613558565b90915550506000978852600f602052604090972096909655505050505050565b6040516001600160a01b0380851660248301528316604482015260648101829052610bd79085906323b872dd60e01b906084015b60408051601f198184030181529190526020810180516001600160e01b03166001600160e01b031990931692909217909152612cd8565b6003546006546040516370a0823160e01b81526001600160a01b03918216600482015260009260149216906370a0823190602401602060405180830381865afa158015612967573d6000803e3d6000fd5b505050506040513d601f19601f8201168201806040525081019061298b91906135b0565b600160029054906101000a90046001600160a01b03166001600160a01b03166318160ddd6040518163ffffffff1660e01b8152600401602060405180830381865afa1580156129de573d6000803e3d6000fd5b505050506040513d601f19601f82011682018060405250810190612a0291906135b0565b600360009054906101000a90046001600160a01b03166001600160a01b03166318160ddd6040518163ffffffff1660e01b8152600401602060405180830381865afa158015612a55573d6000803e3d6000fd5b505050506040513d601f19601f82011682018060405250810190612a7991906135b0565b612a839190613726565b612a8d9190613726565b6112749190613544565b6001600160a01b038082166000908152600a6020908152604080832054909316808352600c9091529181205490811315612b59576001600160a01b038316600090815260136020526040812080546012549182905591612af78383613726565b90508015610888576000670de0b6b3a7640000612b14838761350f565b612b1e9190613544565b6001600160a01b038816600090815260146020526040812080549293508392909190612b4b908490613558565b909155505050505050505050565b6012546001600160a01b038416600090815260136020526040902055505050565b6001600160a01b03811660009081526011602052604090205460ff1615612bd95760405162461bcd60e51b8152602060048201526013602482015272185b1c9958591e481dda1a5d195b1a5cdd1959606a1b6044820152606401610760565b6001600160a01b038116600081815260116020526040808220805460ff191660011790555133917f6661a7108aecd07864384529117d96c319c1163e3010c01390f6b704726e07de91a350565b604051636eb1769f60e11b81523060048201526001600160a01b038381166024830152600091839186169063dd62ed3e90604401602060405180830381865afa158015612c77573d6000803e3d6000fd5b505050506040513d601f19601f82011682018060405250810190612c9b91906135b0565b612ca59190613558565b6040516001600160a01b038516602482015260448101829052909150610bd790859063095ea7b360e01b906064016128df565b6000612d2d826040518060400160405280602081526020017f5361666545524332303a206c6f772d6c6576656c2063616c6c206661696c6564815250856001600160a01b0316612daa9092919063ffffffff16565b8051909150156109855780806020019051810190612d4b91906134cd565b6109855760405162461bcd60e51b815260206004820152602a60248201527f5361666545524332303a204552433230206f7065726174696f6e20646964206e6044820152691bdd081cdd58d8d9595960b21b6064820152608401610760565b60606001600160a01b0384163b612e035760405162461bcd60e51b815260206004820152601d60248201527f416464726573733a2063616c6c20746f206e6f6e2d636f6e74726163740000006044820152606401610760565b600080856001600160a01b031685604051612e1e9190613838565b6000604051808303816000865af19150503d8060008114612e5b576040519150601f19603f3d011682016040523d82523d6000602084013e612e60565b606091505b5091509150612e70828286612e7c565b925050505b9392505050565b60608315612e8b575081612e75565b825115612e9b5782518084602001fd5b8160405162461bcd60e51b81526004016107609190613854565b508054600082559060005260206000209081019061104d91905b80821115612ee35760008155600101612ecf565b5090565b6001600160a01b038116811461104d57600080fd5b600060208284031215612f0e57600080fd5b8135612e7581612ee7565b600080600080600060a08688031215612f3157600080fd5b8535612f3c81612ee7565b94506020860135612f4c81612ee7565b93506040860135612f5c81612ee7565b92506060860135612f6c81612ee7565b91506080860135612f7c81612ee7565b809150509295509295909350565b634e487b7160e01b600052604160045260246000fd5b604051601f8201601f1916810167ffffffffffffffff81118282101715612fc957612fc9612f8a565b604052919050565b600067ffffffffffffffff821115612feb57612feb612f8a565b5060051b60200190565b600082601f83011261300657600080fd5b8135602061301b61301683612fd1565b612fa0565b82815260059290921b8401810191818101908684111561303a57600080fd5b8286015b8481101561305e57803561305181612ee7565b835291830191830161303e565b509695505050505050565b60006020828403121561307b57600080fd5b813567ffffffffffffffff81111561309257600080fd5b61309e84828501612ff5565b949350505050565b600082601f8301126130b757600080fd5b813560206130c761301683612fd1565b82815260059290921b840181019181810190868411156130e657600080fd5b8286015b8481101561305e57803567ffffffffffffffff81111561310a5760008081fd5b6131188986838b0101612ff5565b8452509183019183016130ea565b6000806040838503121561313957600080fd5b823567ffffffffffffffff8082111561315157600080fd5b61315d86838701612ff5565b9350602085013591508082111561317357600080fd5b50613180858286016130a6565b9150509250929050565b60006020828403121561319c57600080fd5b5035919050565b600080604083850312156131b657600080fd5b8235915060208301356131c881612ee7565b809150509250929050565b6000806000606084860312156131e857600080fd5b83356131f381612ee7565b9250602084013561320381612ee7565b929592945050506040919091013590565b6000806040838503121561322757600080fd5b50508035926020909101359150565b60008060006060848603121561324b57600080fd5b833567ffffffffffffffff8082111561326357600080fd5b61326f87838801612ff5565b9450602086013591508082111561328557600080fd5b50613292868287016130a6565b925050604084013590509250925092565b600080604083850312156132b657600080fd5b823567ffffffffffffffff8111156132cd57600080fd5b6132d985828601612ff5565b92505060208301356131c881612ee7565b600080604083850312156132fd57600080fd5b823561330881612ee7565b946020939093013593505050565b60008060006060848603121561332b57600080fd5b83359250602084013561320381612ee7565b60008083601f84011261334f57600080fd5b50813567ffffffffffffffff81111561336757600080fd5b6020830191508360208260051b850101111561338257600080fd5b9250929050565b6000806000806000606086880312156133a157600080fd5b85359450602086013567ffffffffffffffff808211156133c057600080fd5b6133cc89838a0161333d565b909650945060408801359150808211156133e557600080fd5b506133f28882890161333d565b969995985093965092949392505050565b60006020828403121561341557600080fd5b8151612e7581612ee7565b634e487b7160e01b600052603260045260246000fd5b634e487b7160e01b600052601160045260246000fd5b60006001820161345e5761345e613436565b5060010190565b600081518084526020808501945080840160005b8381101561349e5781516001600160a01b031687529582019590820190600101613479565b509495945050505050565b6001600160a01b038316815260406020820181905260009061309e90830184613465565b6000602082840312156134df57600080fd5b81518015158114612e7557600080fd5b60208082526006908201526510b7bbb732b960d11b604082015260600190565b600081600019048311821515161561352957613529613436565b500290565b634e487b7160e01b600052601260045260246000fd5b6000826135535761355361352e565b500490565b6000821982111561356b5761356b613436565b500190565b60208082526006908201526521676175676560d01b604082015260600190565b60208082526006908201526510ba37b5b2b760d11b604082015260600190565b6000602082840312156135c257600080fd5b5051919050565b60208082526006908201526510b837bbb2b960d11b604082015260600190565b82815260406020820152600061309e6040830184613465565b6000806040838503121561361557600080fd5b825161362081612ee7565b60208401519092506131c881612ee7565b602081526000612e756020830184613465565b6001600160a01b03858116825284811660208301528316604082015260806060820181905260009061367890830184613465565b9695505050505050565b6000806040838503121561369557600080fd5b505080516020909101519092909150565b60008083128015600160ff1b8501841216156136c4576136c4613436565b6001600160ff1b03840183138116156136df576136df613436565b50500390565b600080821280156001600160ff1b038490038513161561370757613707613436565b600160ff1b839003841281161561372057613720613436565b50500190565b60008282101561373857613738613436565b500390565b6000600160ff1b820161375257613752613436565b5060000390565b60006001600160ff1b038184138284138082168684048611161561377f5761377f613436565b600160ff1b600087128281168783058912161561379e5761379e613436565b600087129250878205871284841616156137ba576137ba613436565b878505871281841616156137d0576137d0613436565b505050929093029392505050565b6000826137ed576137ed61352e565b600160ff1b82146000198414161561380757613807613436565b500590565b60005b8381101561382757818101518382015260200161380f565b83811115610bd75750506000910152565b6000825161384a81846020870161380c565b9190910192915050565b602081526000825180602084015261387381604085016020870161380c565b601f01601f1916919091016040019291505056fea2646970667358221220444b8cfdd54b130b5fd3eb10edffb4aeb17c7fb07797ce2043a59548124ebb9764736f6c634300080d0033",
  "linkReferences": {},
  "deployedLinkReferences": {}
}