{
  "address": "0x704d683e9CBCd951A9c2aAc4a0F5e52912cC9461",
  "abi": [
    {
      "anonymous": false,
      "inputs": [
        {
          "indexed": false,
          "internalType": "uint256",
          "name": "time",
          "type": "uint256"
        },
        {
          "indexed": false,
          "internalType": "uint256",
          "name": "tokens",
          "type": "uint256"
        }
      ],
      "name": "CheckpointToken",
      "type": "event"
    },
    {
      "anonymous": false,
      "inputs": [
        {
          "indexed": false,
          "internalType": "uint256",
          "name": "tokenId",
          "type": "uint256"
        },
        {
          "indexed": false,
          "internalType": "uint256",
          "name": "amount",
          "type": "uint256"
        },
        {
          "indexed": false,
          "internalType": "uint256",
          "name": "claimEpoch",
          "type": "uint256"
        },
        {
          "indexed": false,
          "internalType": "uint256",
          "name": "maxEpoch",
          "type": "uint256"
        }
      ],
      "name": "Claimed",
      "type": "event"
    },
    {
      "inputs": [],
      "name": "WEEK",
      "outputs": [
        {
          "internalType": "uint256",
          "name": "",
          "type": "uint256"
        }
      ],
      "stateMutability": "view",
      "type": "function"
    },
    {
      "inputs": [
        {
          "internalType": "uint256",
          "name": "toDistribute",
          "type": "uint256"
        },
        {
          "internalType": "uint256",
          "name": "t0",
          "type": "uint256"
        },
        {
          "internalType": "uint256",
          "name": "t1",
          "type": "uint256"
        },
        {
          "internalType": "uint256",
          "name": "sinceLastCall",
          "type": "uint256"
        }
      ],
      "name": "adjustToDistribute",
      "outputs": [
        {
          "internalType": "uint256",
          "name": "",
          "type": "uint256"
        }
      ],
      "stateMutability": "pure",
      "type": "function"
    },
    {
      "inputs": [
        {
          "internalType": "uint256",
          "name": "t",
          "type": "uint256"
        },
        {
          "internalType": "uint256",
          "name": "ptTs",
          "type": "uint256"
        },
        {
          "internalType": "int128",
          "name": "ptBias",
          "type": "int128"
        },
        {
          "internalType": "int128",
          "name": "ptSlope",
          "type": "int128"
        }
      ],
      "name": "adjustVeSupply",
      "outputs": [
        {
          "internalType": "uint256",
          "name": "",
          "type": "uint256"
        }
      ],
      "stateMutability": "pure",
      "type": "function"
    },
    {
      "inputs": [
        {
          "internalType": "uint256",
          "name": "_tokenId",
          "type": "uint256"
        },
        {
          "internalType": "uint256",
          "name": "_lastTokenTime",
          "type": "uint256"
        }
      ],
      "name": "calculateClaim",
      "outputs": [
        {
          "components": [
            {
              "internalType": "uint256",
              "name": "toDistribute",
              "type": "uint256"
            },
            {
              "internalType": "uint256",
              "name": "userEpoch",
              "type": "uint256"
            },
            {
              "internalType": "uint256",
              "name": "weekCursor",
              "type": "uint256"
            },
            {
              "internalType": "uint256",
              "name": "maxUserEpoch",
              "type": "uint256"
            },
            {
              "internalType": "bool",
              "name": "success",
              "type": "bool"
            }
          ],
          "internalType": "struct VeDistUpgradeable.ClaimCalculationResult",
          "name": "",
          "type": "tuple"
        }
      ],
      "stateMutability": "view",
      "type": "function"
    },
    {
      "inputs": [],
      "name": "checkpointToken",
      "outputs": [],
      "stateMutability": "nonpayable",
      "type": "function"
    },
    {
      "inputs": [],
      "name": "checkpointTotalSupply",
      "outputs": [],
      "stateMutability": "nonpayable",
      "type": "function"
    },
    {
      "inputs": [
        {
          "internalType": "uint256",
          "name": "_tokenId",
          "type": "uint256"
        }
      ],
      "name": "claim",
      "outputs": [
        {
          "internalType": "uint256",
          "name": "",
          "type": "uint256"
        }
      ],
      "stateMutability": "nonpayable",
      "type": "function"
    },
    {
      "inputs": [
        {
          "internalType": "uint256[]",
          "name": "_tokenIds",
          "type": "uint256[]"
        }
      ],
      "name": "claimMany",
      "outputs": [
        {
          "internalType": "bool",
          "name": "",
          "type": "bool"
        }
      ],
      "stateMutability": "nonpayable",
      "type": "function"
    },
    {
      "inputs": [
        {
          "internalType": "uint256",
          "name": "_tokenId",
          "type": "uint256"
        }
      ],
      "name": "claimable",
      "outputs": [
        {
          "internalType": "uint256",
          "name": "",
          "type": "uint256"
        }
      ],
      "stateMutability": "view",
      "type": "function"
    },
    {
      "inputs": [],
      "name": "depositor",
      "outputs": [
        {
          "internalType": "address",
          "name": "",
          "type": "address"
        }
      ],
      "stateMutability": "view",
      "type": "function"
    },
    {
      "inputs": [
        {
          "internalType": "address",
          "name": "ve",
          "type": "address"
        },
        {
          "internalType": "uint256",
          "name": "tokenId",
          "type": "uint256"
        },
        {
          "internalType": "uint256",
          "name": "_timestamp",
          "type": "uint256"
        },
        {
          "internalType": "uint256",
          "name": "maxUserEpoch",
          "type": "uint256"
        }
      ],
      "name": "findTimestampUserEpoch",
      "outputs": [
        {
          "internalType": "uint256",
          "name": "",
          "type": "uint256"
        }
      ],
      "stateMutability": "view",
      "type": "function"
    },
    {
      "inputs": [
        {
          "internalType": "address",
          "name": "_votingEscrow",
          "type": "address"
        },
        {
          "internalType": "address",
          "name": "_depositor",
          "type": "address"
        }
      ],
      "name": "initialize",
      "outputs": [],
      "stateMutability": "nonpayable",
      "type": "function"
    },
    {
      "inputs": [],
      "name": "lastTokenTime",
      "outputs": [
        {
          "internalType": "uint256",
          "name": "",
          "type": "uint256"
        }
      ],
      "stateMutability": "view",
      "type": "function"
    },
    {
      "inputs": [
        {
          "internalType": "address",
          "name": "_depositor",
          "type": "address"
        }
      ],
      "name": "setDepositor",
      "outputs": [],
      "stateMutability": "nonpayable",
      "type": "function"
    },
    {
      "inputs": [],
      "name": "startTime",
      "outputs": [
        {
          "internalType": "uint256",
          "name": "",
          "type": "uint256"
        }
      ],
      "stateMutability": "view",
      "type": "function"
    },
    {
      "inputs": [],
      "name": "timeCursor",
      "outputs": [
        {
          "internalType": "uint256",
          "name": "",
          "type": "uint256"
        }
      ],
      "stateMutability": "view",
      "type": "function"
    },
    {
      "inputs": [
        {
          "internalType": "uint256",
          "name": "",
          "type": "uint256"
        }
      ],
      "name": "timeCursorOf",
      "outputs": [
        {
          "internalType": "uint256",
          "name": "",
          "type": "uint256"
        }
      ],
      "stateMutability": "view",
      "type": "function"
    },
    {
      "inputs": [],
      "name": "timestamp",
      "outputs": [
        {
          "internalType": "uint256",
          "name": "",
          "type": "uint256"
        }
      ],
      "stateMutability": "view",
      "type": "function"
    },
    {
      "inputs": [],
      "name": "token",
      "outputs": [
        {
          "internalType": "address",
          "name": "",
          "type": "address"
        }
      ],
      "stateMutability": "view",
      "type": "function"
    },
    {
      "inputs": [],
      "name": "tokenLastBalance",
      "outputs": [
        {
          "internalType": "uint256",
          "name": "",
          "type": "uint256"
        }
      ],
      "stateMutability": "view",
      "type": "function"
    },
    {
      "inputs": [
        {
          "internalType": "uint256",
          "name": "",
          "type": "uint256"
        }
      ],
      "name": "tokensPerWeek",
      "outputs": [
        {
          "internalType": "uint256",
          "name": "",
          "type": "uint256"
        }
      ],
      "stateMutability": "view",
      "type": "function"
    },
    {
      "inputs": [
        {
          "internalType": "uint256",
          "name": "",
          "type": "uint256"
        }
      ],
      "name": "userEpochOf",
      "outputs": [
        {
          "internalType": "uint256",
          "name": "",
          "type": "uint256"
        }
      ],
      "stateMutability": "view",
      "type": "function"
    },
    {
      "inputs": [
        {
          "internalType": "uint256",
          "name": "_tokenId",
          "type": "uint256"
        },
        {
          "internalType": "uint256",
          "name": "_timestamp",
          "type": "uint256"
        }
      ],
      "name": "veForAt",
      "outputs": [
        {
          "internalType": "uint256",
          "name": "",
          "type": "uint256"
        }
      ],
      "stateMutability": "view",
      "type": "function"
    },
    {
      "inputs": [
        {
          "internalType": "uint256",
          "name": "",
          "type": "uint256"
        }
      ],
      "name": "veSupply",
      "outputs": [
        {
          "internalType": "uint256",
          "name": "",
          "type": "uint256"
        }
      ],
      "stateMutability": "view",
      "type": "function"
    },
    {
      "inputs": [],
      "name": "votingEscrow",
      "outputs": [
        {
          "internalType": "address",
          "name": "",
          "type": "address"
        }
      ],
      "stateMutability": "view",
      "type": "function"
    }
  ],
  "transactionHash": "0xae2f1abbba0479b96b9defeedd681a4b45501bae3a053d102a7d9ee4e0a3bf2d",
  "args": [],
  "numDeployments": 1,
  "solcInputHash": "2af06ee761f8fc5b8f897721aba0b259",
  "bytecode": "0x608060405234801561001057600080fd5b50611e79806100206000396000f3fe608060405234801561001057600080fd5b50600436106101735760003560e01c8063925489a8116100de578063c7c4ff4611610097578063e32890c411610071578063e32890c41461035e578063f2c098b71461037e578063f4359ce514610391578063fc0c546a1461039b57600080fd5b8063c7c4ff461461031f578063c9e14ed214610338578063d1d58b251461034b57600080fd5b8063925489a8146102bd578063939ea66b146102e057806398bdfdee146102e95780639abd185c146102fc578063b80777ea1461030f578063bee5dc321461031757600080fd5b80634f2bfe5b116101305780634f2bfe5b1461020157806364fc9efa1461023257806378e97925146102895780638736659b14610292578063899519be1461029b5780638ec8468a146102ae57600080fd5b80630f6592ef14610178578063326a94071461019e578063379607f5146101a85780633935c802146101bb5780634607bf60146101ce578063485cc955146101ee575b600080fd5b61018b6101863660046118fc565b6103b4565b6040519081526020015b60405180910390f35b6101a66103d7565b005b61018b6101b63660046118fc565b6103e1565b61018b6101c936600461192d565b6104cb565b61018b6101dc3660046118fc565b60036020526000908152604090205481565b6101a66101fc366004611968565b6104e4565b66038d7ea4c680065461021a906001600160a01b031681565b6040516001600160a01b039091168152602001610195565b6102456102403660046119a1565b610698565b6040516101959190600060a0820190508251825260208301516020830152604083015160408301526060830151606083015260808301511515608083015292915050565b61018b60015481565b61018b60025481565b61018b6102a93660046118fc565b6106ea565b61018b66038d7ea4c680085481565b6102d06102cb366004611a0a565b610700565b6040519015158152602001610195565b61018b60055481565b61018b6102f7366004611ab0565b610846565b61018b61030a3660046119a1565b610854565b61018b610995565b6101a66109b4565b66071afd498d00095461021a906001600160a01b031681565b61018b610346366004611af1565b610a09565b61018b6103593660046118fc565b610a17565b61018b61036c3660046118fc565b60046020526000908152604090205481565b6101a661038c366004611b3b565b610a63565b61018b62093a8081565b66038d7ea4c680075461021a906001600160a01b031681565b66038d7ea4c680098166038d7ea4c6800081106103d057600080fd5b0154905081565b6103df610ad8565b565b600060025442106103f4576103f4610ad8565b60055462093a806104058183611b6e565b61040f9190611b90565b66038d7ea4c68006549091506000906104339085906001600160a01b031684610c53565b905080156104c45766038d7ea4c680065460405163076426ed60e11b815260048101869052602481018390526001600160a01b0390911690630ec84dda90604401600060405180830381600087803b15801561048e57600080fd5b505af11580156104a2573d6000803e3d6000fd5b505050508066038d7ea4c6800860008282546104be9190611baf565b90915550505b9392505050565b60006104d985858585610ce6565b90505b949350505050565b600054610100900460ff166104ff5760005460ff1615610503565b303b155b61056b5760405162461bcd60e51b815260206004820152602e60248201527f496e697469616c697a61626c653a20636f6e747261637420697320616c72656160448201526d191e481a5b9a5d1a585b1a5e995960921b60648201526084015b60405180910390fd5b600054610100900460ff1615801561058d576000805461ffff19166101011790555b600062093a8061059d8142611b6e565b6105a79190611b90565b90508060018190555080600581905550806002819055506000846001600160a01b031663fc0c546a6040518163ffffffff1660e01b8152600401602060405180830381865afa1580156105fe573d6000803e3d6000fd5b505050506040513d601f19601f820116820180604052508101906106229190611bc6565b66038d7ea4c6800780546001600160a01b038084166001600160a01b0319928316811790935566038d7ea4c6800680548a831690841617905566071afd498d000980549189169190921617905590915061067f9086600019610dda565b50508015610693576000805461ff00191690555b505050565b6106cc6040518060a00160405280600081526020016000815260200160008152602001600081526020016000151581525090565b66038d7ea4c68006546104c49084906001600160a01b031684610eb4565b60068166038d7ea4c6800081106103d057600080fd5b6000600254421061071357610713610ad8565b60055462093a806107248183611b6e565b61072e9190611b90565b66038d7ea4c68006549091506001600160a01b03166000805b855181101561081657600086828151811061076457610764611be3565b602002602001015190508060000361077c5750610816565b6000610789828688610c53565b905080156108015760405163076426ed60e11b815260048101839052602481018290526001600160a01b03861690630ec84dda90604401600060405180830381600087803b1580156107da57600080fd5b505af11580156107ee573d6000803e3d6000fd5b5050505080846107fe9190611bf9565b93505b5050808061080e90611c11565b915050610747565b50801561083b578066038d7ea4c6800860008282546108359190611baf565b90915550505b506001949350505050565b60006104d985858585611327565b66038d7ea4c680065460405163e58f594760e01b8152600481018490526000916001600160a01b0316908290829063e58f594790602401602060405180830381865afa1580156108a8573d6000803e3d6000fd5b505050506040513d601f19601f820116820180604052508101906108cc9190611c2a565b905060006108dc83878785610ce6565b6040516322565a1560e11b815260048101889052602481018290529091506000906001600160a01b038516906344acb42a90604401608060405180830381865afa15801561092e573d6000803e3d6000fd5b505050506040513d601f19601f820116820180604052508101906109529190611c43565b90506109878160400151876109679190611baf565b82602001516109769190611cb8565b82516109829190611d56565b611373565b600f0b979650505050505050565b600062093a806109a58142611b6e565b6109af9190611b90565b905090565b66071afd498d0009546001600160a01b03163314610a015760405162461bcd60e51b815260206004820152600a60248201526910b232b837b9b4ba37b960b11b6044820152606401610562565b6103df61138e565b60006104d985858585611551565b60008062093a8080600554610a2c9190611b6e565b610a369190611b90565b66038d7ea4c6800654909150600090610a5a9085906001600160a01b031684610eb4565b51949350505050565b66071afd498d0009546001600160a01b03163314610ab05760405162461bcd60e51b815260206004820152600a60248201526910b232b837b9b4ba37b960b11b6044820152606401610562565b66071afd498d000980546001600160a01b0319166001600160a01b0392909216919091179055565b66038d7ea4c68006546002546001600160a01b0390911690600062093a80610b008142611b6e565b610b0a9190611b90565b9050826001600160a01b031663c2c4c5c16040518163ffffffff1660e01b8152600401600060405180830381600087803b158015610b4757600080fd5b505af1158015610b5b573d6000803e3d6000fd5b5050505060005b6014811015610c4b57818311610c4b576000610b7e85856115b6565b604051638ad4c44760e01b8152600481018290529091506000906001600160a01b03871690638ad4c44790602401608060405180830381865afa158015610bc9573d6000803e3d6000fd5b505050506040513d601f19601f82011682018060405250810190610bed9190611c43565b9050610c0785826040015183600001518460200151611551565b66038d7ea4c680098666038d7ea4c680008110610c2657610c26611be3565b01555050610c3762093a8084611bf9565b925080610c4381611c11565b915050610b62565b505060025550565b600080610c61858585610eb4565b9050806080015115610a5a5760208181018051600088815260048452604080822092909255818501516003855290829020558351915160608086015183518b815295860194909452918401528201527fcae2990aa9af8eb1c64713b7eddb3a80bf18e49a94a13fe0d0002b5d61d58f009060800160405180910390a151949350505050565b60008082815b6080811015610dce5781831015610dce5760006002610d0b8486611bf9565b610d16906002611bf9565b610d209190611b6e565b6040516322565a1560e11b8152600481018a9052602481018290529091506000906001600160a01b038b16906344acb42a90604401608060405180830381865afa158015610d72573d6000803e3d6000fd5b505050506040513d601f19601f82011682018060405250810190610d969190611c43565b905087816040015111610dab57819450610db9565b610db6600183611baf565b93505b50508080610dc690611c11565b915050610cec565b50909695505050505050565b604051636eb1769f60e11b81523060048201526001600160a01b038381166024830152600091839186169063dd62ed3e90604401602060405180830381865afa158015610e2b573d6000803e3d6000fd5b505050506040513d601f19601f82011682018060405250810190610e4f9190611c2a565b610e599190611bf9565b604080516001600160a01b038616602482015260448082018490528251808303909101815260649091019091526020810180516001600160e01b031663095ea7b360e01b179052909150610eae90859061170b565b50505050565b610ee86040518060a00160405280600081526020016000815260200160008152602001600081526020016000151581525090565b6000806000856001600160a01b031663e58f5947886040518263ffffffff1660e01b8152600401610f1b91815260200190565b602060405180830381865afa158015610f38573d6000803e3d6000fd5b505050506040513d601f19601f82011682018060405250810190610f5c9190611c2a565b6001549091506000829003610fa4576040518060a0016040528060008152602001600081526020016000815260200160008152602001600015158152509450505050506104c4565b60008881526003602052604081205490819003610fce57610fc7888a8486610ce6565b9450610fe0565b60008981526004602052604090205494505b84600003610fed57600194505b6040516322565a1560e11b8152600481018a9052602481018690526000906001600160a01b038a16906344acb42a90604401608060405180830381865afa15801561103c573d6000803e3d6000fd5b505050506040513d601f19601f820116820180604052508101906110609190611c43565b9050816000036110a55762093a8080600162093a8084604001516110849190611bf9565b61108e9190611baf565b6110989190611b6e565b6110a29190611b90565b91505b60055482106110e9576040518060a00160405280600081526020016000815260200160008152602001600081526020016000151581525096505050505050506104c4565b828210156110f5578291505b6040805160808101825260008082526020820181905291810182905260608101829052905b60328110156112d857898410156112d8578260400151841015801561113f5750858811155b156112055761114f600189611bf9565b97508291508588111561118e5760405180608001604052806000600f0b81526020016000600f0b815260200160008152602001600081525092506112c6565b6040516322565a1560e11b8152600481018d9052602481018990526001600160a01b038c16906344acb42a90604401608060405180830381865afa1580156111da573d6000803e3d6000fd5b505050506040513d601f19601f820116820180604052508101906111fe9190611c43565b92506112c6565b60008260400151856112179190611baf565b9050600061123a84602001518361122e9190611cb8565b85516109829190611d56565b600f0b90508015801561124c5750878a115b156112585750506112d8565b66038d7ea4c680098666038d7ea4c68000811061127757611277611be3565b015460068766038d7ea4c68000811061129257611292611be3565b015461129e9083611b90565b6112a89190611b6e565b6112b2908a611bf9565b98506112c162093a8087611bf9565b955050505b806112d081611c11565b91505061111a565b506040518060a001604052808781526020016113008760018b6112fb9190611baf565b6117dd565b81526020810194909452604084019590955250506001606090910152509695505050505050565b6000828411158061133f575061133d8385611baf565b155b80611348575081155b156113545750836104dc565b8161135f8486611baf565b6113699087611b90565b6104d99190611b6e565b60008082600f0b126113855781611388565b60005b92915050565b66038d7ea4c68007546040516370a0823160e01b81523060048201526000916001600160a01b0316906370a0823190602401602060405180830381865afa1580156113dd573d6000803e3d6000fd5b505050506040513d601f19601f820116820180604052508101906114019190611c2a565b9050600066038d7ea4c6800854826114199190611baf565b66038d7ea4c6800883905560055490915060006114368242611baf565b426005559050600062093a8061144c8185611b6e565b6114569190611b90565b90506000805b601481101561150f5761147262093a8084611bf9565b9150814210156114bc5761148886428787611327565b60068466038d7ea4c6800081106114a1576114a1611be3565b0160008282546114b19190611bf9565b9091555061150f9050565b6114c886838787611327565b60068466038d7ea4c6800081106114e1576114e1611be3565b0160008282546114f19190611bf9565b9091555050819450819250808061150790611c11565b91505061145c565b5060408051428152602081018790527fce749457b74e10f393f2c6b1ce4261b78791376db5a3f501477a809f03f500d6910160405180910390a1505050505050565b600083851015611563575060006104dc565b600061156f8587611baf565b905061157b8184611cb8565b600f0b84600f0b12156115925760009150506104dc565b6115a961159f8285611cb8565b6109829086611d56565b600f0b9695505050505050565b600080600090506000846001600160a01b031663900cf0cf6040518163ffffffff1660e01b8152600401602060405180830381865afa1580156115fd573d6000803e3d6000fd5b505050506040513d601f19601f820116820180604052508101906116219190611c2a565b905060005b6080811015611701578183101561170157600060026116458486611bf9565b611650906002611bf9565b61165a9190611b6e565b604051638ad4c44760e01b8152600481018290529091506000906001600160a01b03891690638ad4c44790602401608060405180830381865afa1580156116a5573d6000803e3d6000fd5b505050506040513d601f19601f820116820180604052508101906116c99190611c43565b9050868160400151116116de578194506116ec565b6116e9600183611baf565b93505b505080806116f990611c11565b915050611626565b5090949350505050565b6000611760826040518060400160405280602081526020017f5361666545524332303a206c6f772d6c6576656c2063616c6c206661696c6564815250856001600160a01b03166117f39092919063ffffffff16565b805190915015610693578080602001905181019061177e9190611da6565b6106935760405162461bcd60e51b815260206004820152602a60248201527f5361666545524332303a204552433230206f7065726174696f6e20646964206e6044820152691bdd081cdd58d8d9595960b21b6064820152608401610562565b60008183106117ec57816104c4565b5090919050565b60606001600160a01b0384163b61184c5760405162461bcd60e51b815260206004820152601d60248201527f416464726573733a2063616c6c20746f206e6f6e2d636f6e74726163740000006044820152606401610562565b600080856001600160a01b0316856040516118679190611df4565b6000604051808303816000865af19150503d80600081146118a4576040519150601f19603f3d011682016040523d82523d6000602084013e6118a9565b606091505b50915091506118b98282866118c3565b9695505050505050565b606083156118d25750816104c4565b8251156118e25782518084602001fd5b8160405162461bcd60e51b81526004016105629190611e10565b60006020828403121561190e57600080fd5b5035919050565b6001600160a01b038116811461192a57600080fd5b50565b6000806000806080858703121561194357600080fd5b843561194e81611915565b966020860135965060408601359560600135945092505050565b6000806040838503121561197b57600080fd5b823561198681611915565b9150602083013561199681611915565b809150509250929050565b600080604083850312156119b457600080fd5b50508035926020909101359150565b634e487b7160e01b600052604160045260246000fd5b604051601f8201601f1916810167ffffffffffffffff81118282101715611a0257611a026119c3565b604052919050565b60006020808385031215611a1d57600080fd5b823567ffffffffffffffff80821115611a3557600080fd5b818501915085601f830112611a4957600080fd5b813581811115611a5b57611a5b6119c3565b8060051b9150611a6c8483016119d9565b8181529183018401918481019088841115611a8657600080fd5b938501935b83851015611aa457843582529385019390850190611a8b565b98975050505050505050565b60008060008060808587031215611ac657600080fd5b5050823594602084013594506040840135936060013592509050565b80600f0b811461192a57600080fd5b60008060008060808587031215611b0757600080fd5b84359350602085013592506040850135611b2081611ae2565b91506060850135611b3081611ae2565b939692955090935050565b600060208284031215611b4d57600080fd5b81356104c481611915565b634e487b7160e01b600052601160045260246000fd5b600082611b8b57634e487b7160e01b600052601260045260246000fd5b500490565b6000816000190483118215151615611baa57611baa611b58565b500290565b600082821015611bc157611bc1611b58565b500390565b600060208284031215611bd857600080fd5b81516104c481611915565b634e487b7160e01b600052603260045260246000fd5b60008219821115611c0c57611c0c611b58565b500190565b600060018201611c2357611c23611b58565b5060010190565b600060208284031215611c3c57600080fd5b5051919050565b600060808284031215611c5557600080fd5b6040516080810181811067ffffffffffffffff82111715611c7857611c786119c3565b6040528251611c8681611ae2565b81526020830151611c9681611ae2565b6020820152604083810151908201526060928301519281019290925250919050565b600081600f0b83600f0b60016001607f1b03600082136000841383830485118282161615611ce857611ce8611b58565b6f7fffffffffffffffffffffffffffffff196000851282811687830587121615611d1457611d14611b58565b60008712925085820587128484161615611d3057611d30611b58565b85850587128184161615611d4657611d46611b58565b5050509290910295945050505050565b600081600f0b83600f0b600081128160016001607f1b031901831281151615611d8157611d81611b58565b8160016001607f1b03018313811615611d9c57611d9c611b58565b5090039392505050565b600060208284031215611db857600080fd5b815180151581146104c457600080fd5b60005b83811015611de3578181015183820152602001611dcb565b83811115610eae5750506000910152565b60008251611e06818460208701611dc8565b9190910192915050565b6020815260008251806020840152611e2f816040850160208701611dc8565b601f01601f1916919091016040019291505056fea26469706673582212204090a89383a2a239f1d9089b4e0fa2fffc9af3c835b847ca6c2bce06172a6af964736f6c634300080d0033",
  "devdoc": {
    "kind": "dev",
    "methods": {
      "adjustToDistribute(uint256,uint256,uint256,uint256)": {
        "details": "For testing purposes."
      }
    },
    "version": 1
  },
  "userdoc": {
    "kind": "user",
    "methods": {},
    "version": 1
  },
  "storageLayout": {
    "storage": [
      {
        "astId": 26660,
        "contract": "contracts/base/vote/VeDistUpgradeable.sol:VeDistUpgradeable",
        "label": "_initialized",
        "offset": 0,
        "slot": "0",
        "type": "t_bool"
      },
      {
        "astId": 26663,
        "contract": "contracts/base/vote/VeDistUpgradeable.sol:VeDistUpgradeable",
        "label": "_initializing",
        "offset": 1,
        "slot": "0",
        "type": "t_bool"
      },
      {
        "astId": 15383,
        "contract": "contracts/base/vote/VeDistUpgradeable.sol:VeDistUpgradeable",
        "label": "startTime",
        "offset": 0,
        "slot": "1",
        "type": "t_uint256"
      },
      {
        "astId": 15385,
        "contract": "contracts/base/vote/VeDistUpgradeable.sol:VeDistUpgradeable",
        "label": "timeCursor",
        "offset": 0,
        "slot": "2",
        "type": "t_uint256"
      },
      {
        "astId": 15389,
        "contract": "contracts/base/vote/VeDistUpgradeable.sol:VeDistUpgradeable",
        "label": "timeCursorOf",
        "offset": 0,
        "slot": "3",
        "type": "t_mapping(t_uint256,t_uint256)"
      },
      {
        "astId": 15393,
        "contract": "contracts/base/vote/VeDistUpgradeable.sol:VeDistUpgradeable",
        "label": "userEpochOf",
        "offset": 0,
        "slot": "4",
        "type": "t_mapping(t_uint256,t_uint256)"
      },
      {
        "astId": 15395,
        "contract": "contracts/base/vote/VeDistUpgradeable.sol:VeDistUpgradeable",
        "label": "lastTokenTime",
        "offset": 0,
        "slot": "5",
        "type": "t_uint256"
      },
      {
        "astId": 15399,
        "contract": "contracts/base/vote/VeDistUpgradeable.sol:VeDistUpgradeable",
        "label": "tokensPerWeek",
        "offset": 0,
        "slot": "6",
        "type": "t_array(t_uint256)1000000000000000_storage"
      },
      {
        "astId": 15401,
        "contract": "contracts/base/vote/VeDistUpgradeable.sol:VeDistUpgradeable",
        "label": "votingEscrow",
        "offset": 0,
        "slot": "1000000000000006",
        "type": "t_address"
      },
      {
        "astId": 15403,
        "contract": "contracts/base/vote/VeDistUpgradeable.sol:VeDistUpgradeable",
        "label": "token",
        "offset": 0,
        "slot": "1000000000000007",
        "type": "t_address"
      },
      {
        "astId": 15405,
        "contract": "contracts/base/vote/VeDistUpgradeable.sol:VeDistUpgradeable",
        "label": "tokenLastBalance",
        "offset": 0,
        "slot": "1000000000000008",
        "type": "t_uint256"
      },
      {
        "astId": 15409,
        "contract": "contracts/base/vote/VeDistUpgradeable.sol:VeDistUpgradeable",
        "label": "veSupply",
        "offset": 0,
        "slot": "1000000000000009",
        "type": "t_array(t_uint256)1000000000000000_storage"
      },
      {
        "astId": 15411,
        "contract": "contracts/base/vote/VeDistUpgradeable.sol:VeDistUpgradeable",
        "label": "depositor",
        "offset": 0,
        "slot": "2000000000000009",
        "type": "t_address"
      }
    ],
    "types": {
      "t_address": {
        "encoding": "inplace",
        "label": "address",
        "numberOfBytes": "20"
      },
      "t_array(t_uint256)1000000000000000_storage": {
        "base": "t_uint256",
        "encoding": "inplace",
        "label": "uint256[1000000000000000]",
        "numberOfBytes": "32000000000000000"
      },
      "t_bool": {
        "encoding": "inplace",
        "label": "bool",
        "numberOfBytes": "1"
      },
      "t_mapping(t_uint256,t_uint256)": {
        "encoding": "mapping",
        "key": "t_uint256",
        "label": "mapping(uint256 => uint256)",
        "numberOfBytes": "32",
        "value": "t_uint256"
      },
      "t_uint256": {
        "encoding": "inplace",
        "label": "uint256",
        "numberOfBytes": "32"
      }
    }
  }
}