{
  "address": "0x722CCB55Ab1752796Cf34c12D1eA7083158EcAf9",
  "abi": [
    {
      "anonymous": false,
      "inputs": [
        {
          "indexed": false,
          "internalType": "address",
          "name": "value",
          "type": "address"
        }
      ],
      "name": "BribeCreated",
      "type": "event"
    },
    {
      "inputs": [
        {
          "internalType": "address[]",
          "name": "_allowedRewardTokens",
          "type": "address[]"
        }
      ],
      "name": "createBribe",
      "outputs": [
        {
          "internalType": "address",
          "name": "",
          "type": "address"
        }
      ],
      "stateMutability": "nonpayable",
      "type": "function"
    },
    {
      "inputs": [],
      "name": "lastGauge",
      "outputs": [
        {
          "internalType": "address",
          "name": "",
          "type": "address"
        }
      ],
      "stateMutability": "view",
      "type": "function"
    }
  ],
  "transactionHash": "0x1533b3c7322d37bd4acfdf08c402a0099f99d8985283c0ea617f3ed238cf06e6",
  "args": [],
  "numDeployments": 1,
  "solcInputHash": "f0e188e35fd96b365cb9bd616b596351",
  "bytecode": "0x608060405234801561001057600080fd5b50613004806100206000396000f3fe608060405234801561001057600080fd5b50600436106100365760003560e01c8063897cd6b31461003b578063b46d34651461006a575b600080fd5b61004e61004936600461014f565b61007d565b6040516001600160a01b03909116815260200160405180910390f35b60005461004e906001600160a01b031681565b600080338360405161008e90610110565b610099929190610214565b604051809103906000f0801580156100b5573d6000803e3d6000fd5b50600080546001600160a01b0319166001600160a01b0383169081179091556040519081529091507fe7f31a5ff9b31d4ba882657f1def4432f7380c765ad2c85aaa7e725814b55e0a9060200160405180910390a192915050565b612d5e8061027183390190565b634e487b7160e01b600052604160045260246000fd5b80356001600160a01b038116811461014a57600080fd5b919050565b6000602080838503121561016257600080fd5b823567ffffffffffffffff8082111561017a57600080fd5b818501915085601f83011261018e57600080fd5b8135818111156101a0576101a061011d565b8060051b604051601f19603f830116810181811085821117156101c5576101c561011d565b6040529182528482019250838101850191888311156101e357600080fd5b938501935b82851015610208576101f985610133565b845293850193928501926101e8565b98975050505050505050565b6001600160a01b038381168252604060208084018290528451918401829052600092858201929091906060860190855b81811015610262578551851683529483019491830191600101610244565b50909897505050505050505056fe608060405260016000553480156200001657600080fd5b5060405162002d5e38038062002d5e8339810160408190526200003991620002f3565b600280546001600160a01b0319908116909155600180549091166001600160a01b03841617905560008282825b8151811015620000e95760006001600160a01b0316828281518110620000905762000090620003dc565b60200260200101516001600160a01b031614620000d457620000d4828281518110620000c057620000c0620003dc565b6020026020010151620001a260201b60201c565b80620000e081620003f2565b91505062000066565b5050505081601560016101000a8154816001600160a01b0302191690836001600160a01b03160217905550816001600160a01b0316631f8507166040518163ffffffff1660e01b8152600401602060405180830381865afa15801562000153573d6000803e3d6000fd5b505050506040513d601f19601f820116820180604052508101906200017991906200041a565b601680546001600160a01b0319166001600160a01b0392909216919091179055506200043f9050565b600d54600a11620001fa5760405162461bcd60e51b815260206004820152601660248201527f546f6f206d616e792072657761726420746f6b656e730000000000000000000060448201526064015b60405180910390fd5b6001600160a01b0381166000908152600e602052604090205460ff16156200025a5760405162461bcd60e51b8152602060048201526012602482015271105b1c9958591e481c9959da5cdd195c995960721b6044820152606401620001f1565b6001600160a01b03166000818152600e60205260408120805460ff19166001908117909155600d805491820181559091527fd7b6990105719101dabeb77144f2a3385c8033acd3af97e9423a695e81ad1eb50180546001600160a01b0319169091179055565b80516001600160a01b0381168114620002d857600080fd5b919050565b634e487b7160e01b600052604160045260246000fd5b600080604083850312156200030757600080fd5b6200031283620002c0565b602084810151919350906001600160401b03808211156200033257600080fd5b818601915086601f8301126200034757600080fd5b8151818111156200035c576200035c620002dd565b8060051b604051601f19603f83011681018181108582111715620003845762000384620002dd565b604052918252848201925083810185019189831115620003a357600080fd5b938501935b82851015620003cc57620003bc85620002c0565b84529385019392850192620003a8565b8096505050505050509250929050565b634e487b7160e01b600052603260045260246000fd5b6000600182016200041357634e487b7160e01b600052601160045260246000fd5b5060010190565b6000602082840312156200042d57600080fd5b6200043882620002c0565b9392505050565b61290f806200044f6000396000f3fe608060405234801561001057600080fd5b506004361061025e5760003560e01c80637bb7bed111610146578063ccc6bc44116100c3578063e8111a1211610087578063e8111a1214610627578063f122977714610630578063f320772314610643578063f5f8d36514610656578063f7412baf14610669578063fd3140981461069057600080fd5b8063ccc6bc44146105cb578063d35e2544146105d8578063d7da4bb0146105eb578063da09d19d146105f4578063e46dbc981461061457600080fd5b8063a7852afa1161010a578063a7852afa1461054a578063aa4796521461055d578063b5fd73f81461057d578063b66503cf146105b0578063bf199e62146105c357600080fd5b80637bb7bed1146104c657806399bcc052146104d95780639ce43f90146104ec5780639e2bf22c1461050c578063a495e5b51461051f57600080fd5b80633d509c97116101df5780636511bf2e116101a35780636511bf2e1461043a57806368fcee1a1461044d5780636f307dc3146104605780636fcfff451461047357806370a082311461049357806376f4be36146104b357600080fd5b80633d509c97146103c757806346c96aac146103dc578063570ca735146103f4578063622e178a1461040757806363fb415b1461041a57600080fd5b80631f850716116102265780631f85071614610336578063211dc32d14610349578063221ca18c1461035c5780632ce9aead1461037c5780633ca068b61461039c57600080fd5b806301316ddf1461026357806308bb76a5146102af5780630cdfebfa146102da578063115c6f391461030c57806318160ddd1461032d575b600080fd5b61029561027136600461251c565b60136020908152600092835260408084209091529082529020805460019091015482565b604080519283526020830191909152015b60405180910390f35b6102c26102bd366004612548565b6106a3565b6040516001600160a01b0390911681526020016102a6565b6102956102e836600461251c565b600f6020908152600092835260408084209091529082529020805460019091015482565b61031f61031a36600461251c565b6106b4565b6040519081526020016102a6565b61031f600b5481565b6016546102c2906001600160a01b031681565b61031f610357366004612561565b6106c7565b61031f61036a36600461259a565b60056020526000908152604090205481565b61031f61038a36600461259a565b60076020526000908152604090205481565b61031f6103aa366004612561565b600a60209081526000928352604080842090915290825290205481565b6103da6103d536600461259a565b6106d3565b005b6015546102c29061010090046001600160a01b031681565b6001546102c2906001600160a01b031681565b6103da6104153660046125c5565b610998565b61031f61042836600461259a565b60046020526000908152604090205481565b61031f61044836600461259a565b6109d5565b6103da61045b36600461251c565b6109e6565b6002546102c2906001600160a01b031681565b61031f61048136600461259a565b60106020526000908152604090205481565b61031f6104a136600461259a565b600c6020526000908152604090205481565b61031f6104c1366004612548565b610a20565b6102c26104d4366004612548565b610a2b565b61031f6104e736600461259a565b610a55565b61031f6104fa36600461259a565b60086020526000908152604090205481565b6103da61051a3660046125e2565b610ada565b61031f61052d366004612561565b600960209081526000928352604080842090915290825290205481565b6103da61055836600461261a565b610b88565b61031f61056b36600461259a565b60146020526000908152604090205481565b6105a061058b36600461259a565b600e6020526000908152604090205460ff1681565b60405190151581526020016102a6565b6103da6105be36600461251c565b610c3f565b600d5461031f565b6015546105a09060ff1681565b61031f6105e636600461259a565b610c4d565b61031f60035481565b61031f61060236600461259a565b60066020526000908152604090205481565b6103da61062236600461259a565b610c6b565b61031f60125481565b61031f61063e36600461259a565b610ca1565b6103da6106513660046125e2565b610cac565b6103da61066436600461261a565b610d4d565b610295610677366004612548565b6011602052600090815260409020805460019091015482565b61029561069e36600461251c565b610e11565b60006106ae82610e2a565b92915050565b60006106c08383610e75565b9392505050565b60006106c08383610eca565b6001546001600160a01b031633146107065760405162461bcd60e51b81526004016106fd906126eb565b60405180910390fd5b6001600160a01b03811660009081526006602052604090205442116107615760405162461bcd60e51b815260206004820152601160248201527014995dd85c991cc81b9bdd08195b991959607a1b60448201526064016106fd565b6001600160a01b0381166000908152600e602052604090205460ff166107bc5760405162461bcd60e51b815260206004820152601060248201526f2737ba103932bbb0b932103a37b5b2b760811b60448201526064016106fd565b6001600160a01b0381166000908152600e60205260409020805460ff19169055600d546003811161083b5760405162461bcd60e51b8152602060048201526024808201527f4669727374203320746f6b656e732073686f756c64206e6f742062652072656d6044820152631bdd995960e21b60648201526084016106fd565b600360005b8282101561089b576000600d838154811061085d5761085d612711565b6000918252602090912001546001600160a01b0390811691508516810361088857600191505061089b565b50816108938161273d565b925050610840565b806108e85760405162461bcd60e51b815260206004820181905260248201527f466972737420746f6b656e7320666f7262696464656e20746f2072656d6f766560448201526064016106fd565b600d6108f5600185612756565b8154811061090557610905612711565b600091825260209091200154600d80546001600160a01b03909216918490811061093157610931612711565b9060005260206000200160006101000a8154816001600160a01b0302191690836001600160a01b03160217905550600d8054806109705761097061276d565b600082815260209020810160001990810180546001600160a01b031916905501905550505050565b6001546001600160a01b031633146109c25760405162461bcd60e51b81526004016106fd906126eb565b6015805460ff1916911515919091179055565b60006001600160a01b0382166106ae565b6109f28282600061114b565b6001600160a01b03909316600090815260086020908152604080832060079092529091209390935590915550565b60006106ae8261133b565b600d8181548110610a3b57600080fd5b6000918252602090912001546001600160a01b0316905081565b6001600160a01b0381166000908152600660205260408120544210610a7c57506000919050565b6001600160a01b038216600090815260066020526040812054610aa0904290612756565b6001600160a01b038416600090815260056020526040902054909150670de0b6b3a764000090610ad09083612783565b6106c091906127a2565b60155461010090046001600160a01b03163314610b095760405162461bcd60e51b81526004016106fd906127c4565b60008211610b295760405162461bcd60e51b81526004016106fd906127e7565b6000610b3482610e2a565b9050610b40818461135d565b806001600160a01b03167f884edad9ce6fa2440d8a54cc123490eb96d2768479d49ff9c7366125a942436484604051610b7b91815260200190565b60405180910390a2505050565b60155461010090046001600160a01b03163314610bb75760405162461bcd60e51b81526004016106fd906127c4565b6016546040516331a9108f60e11b8152600481018490526000916001600160a01b031690636352211e90602401602060405180830381865afa158015610c01573d6000803e3d6000fd5b505050506040513d601f19601f82011682018060405250810190610c25919061280c565b9050610c3a610c3384610e2a565b83836113b3565b505050565b610c4982826116ad565b5050565b6001600160a01b0381166000908152600c60205260408120546106ae565b6001546001600160a01b03163314610c955760405162461bcd60e51b81526004016106fd906126eb565b610c9e81611a3d565b50565b60006106ae82611b4c565b60155461010090046001600160a01b03163314610cdb5760405162461bcd60e51b81526004016106fd906127c4565b60008211610cfb5760405162461bcd60e51b81526004016106fd906127e7565b6000610d0682610e2a565b9050610d128184611bf7565b806001600160a01b03167fe1fffcc4923d04b559f4d29a8bfc6cda04eb5b0d3c460751c2402c5c5cc9109c84604051610b7b91815260200190565b60165460405163430c208160e01b8152336004820152602481018490526001600160a01b039091169063430c208190604401602060405180830381865afa158015610d9c573d6000803e3d6000fd5b505050506040513d601f19601f82011682018060405250810190610dc09190612829565b610dfe5760405162461bcd60e51b815260206004820152600f60248201526e2737ba103a37b5b2b71037bbb732b960891b60448201526064016106fd565b610c49610e0a83610e2a565b82336113b3565b600080610e1e8484611c3e565b915091505b9250929050565b600081806001600160a01b038116146106ae5760405162461bcd60e51b815260206004820152600d60248201526c15dc9bdb99c818dbdb9d995c9d609a1b60448201526064016106fd565b6001600160a01b038216600090815260106020526040812054808203610e9f5760009150506106ae565b6001600160a01b0384166000908152600f60205260409020610ec2908285611cc8565b949350505050565b6001600160a01b0381166000908152601060205260408120548103610ef1575060006106ae565b6001600160a01b03808416600081815260096020908152604080832094871683529381528382205492825260138152838220828052905291822054610f369190611e0e565b90506000610f448483610e75565b6001600160a01b03851660009081526010602052604081205491925090610f6d90600190612756565b90506000811561107f57825b610f84600184612756565b811161107d576001600160a01b0387166000818152600f602081815260408084208685528083528185208251808401909352805483526001908101548385015295855292909152928290610fd9908690612846565b815260200190815260200160002060405180604001604052908160008201548152602001600182015481525050905060006110188b8460000151611c3e565b509050600061102b8c8460000151611c3e565b509050670de0b6b3a76400006110418383612756565b85602001516110509190612783565b61105a91906127a2565b6110649087612846565b95505050505080806110759061273d565b915050610f79565b505b6001600160a01b0386166000908152600f602090815260408083208584528252808320815180830190925280548083526001909101549282019290925291906110c9908a90611c3e565b506001600160a01b03808b166000908152600a60209081526040808320938d1683529290522054909150670de0b6b3a764000090611108908390611e0e565b6111118b611b4c565b61111b9190612756565b836020015161112a9190612783565b61113491906127a2565b61113e9084612846565b9998505050505050505050565b6001600160a01b03831660009081526007602090815260408083205460089092528220546012548392919083036111855792509050611333565b6001600160a01b03871660009081526005602052604081205490036111b05792504291506113339050565b60006111bb8361133b565b905060006111d760016012546111d19190612756565b89611e25565b905080156112b057815b6111ec600183612756565b81116112ae57600081815260116020908152604091829020825180840190935280548352600101549082018190521561129b57600060118161122f856001612846565b815260200190815260200160002060405180604001604052908160008201548152602001600182015481525050905060008061127a8e8460000151866000015187602001518d611e34565b90925090506112898289612846565b97506112968e8983611eb8565b975050505b50806112a68161273d565b9150506111e1565b505b861561132a5760008181526011602090815260409182902082518084019093528054835260010154908201819052156113285760006113098b6112f28d611fc1565b84516112fe908a611e0e565b85602001518a611e34565b5090506113168186612846565b94506113238b8642611eb8565b429550505b505b50909350909150505b935093915050565b6012546000908082036113515750600092915050565b6106c060118285611cc8565b611365611fe5565b80600b60008282546113779190612756565b90915550506001600160a01b0382166000908152600c6020526040812080548392906113a4908490612756565b90915550610c49905082612069565b6000546001146113f65760405162461bcd60e51b815260206004820152600e60248201526d1499595b9d1c985b9d0818d85b1b60921b60448201526064016106fd565b600260009081555b82518110156116995761142e83828151811061141c5761141c612711565b6020026020010151600019600161114b565b6008600086858151811061144457611444612711565b60200260200101516001600160a01b03166001600160a01b0316815260200190815260200160002060006007600088878151811061148457611484612711565b60200260200101516001600160a01b03166001600160a01b03168152602001908152602001600020600084919050558391905055505060006114df8483815181106114d1576114d1612711565b602002602001015186610eca565b905042600960008685815181106114f8576114f8612711565b60200260200101516001600160a01b03166001600160a01b031681526020019081526020016000206000876001600160a01b03166001600160a01b03168152602001908152602001600020819055506008600085848151811061155d5761155d612711565b60200260200101516001600160a01b03166001600160a01b0316815260200190815260200160002054600a600086858151811061159c5761159c612711565b6020908102919091018101516001600160a01b0390811683528282019390935260409182016000908120938a168152929052902055801561160e5761160e83828685815181106115ee576115ee612711565b60200260200101516001600160a01b03166120ec9092919063ffffffff16565b83828151811061162057611620612711565b60200260200101516001600160a01b0316336001600160a01b03167fe4394b3c25e336e9d6b7fcefab7e3234f1c6b373f13655dc3920664b080b098d838660405161167e9291909182526001600160a01b0316602082015260400190565b60405180910390a350806116918161273d565b9150506113fe565b506116a383612069565b5050600160005550565b6000546001146116f05760405162461bcd60e51b815260206004820152600e60248201526d1499595b9d1c985b9d0818d85b1b60921b60448201526064016106fd565b60026000819055546001600160a01b03908116908316036117535760405162461bcd60e51b815260206004820152601760248201527f57726f6e6720746f6b656e20666f72207265776172647300000000000000000060448201526064016106fd565b600081116117735760405162461bcd60e51b81526004016106fd906127e7565b6001600160a01b0382166000908152600e602052604090205460ff166117cf5760405162461bcd60e51b8152602060048201526011602482015270151bdad95b881b9bdd08185b1b1bddd959607a1b60448201526064016106fd565b6001600160a01b03821660009081526005602052604081205490036117fa576117fa82600042611eb8565b61180882600019600161114b565b6001600160a01b0384166000908152600860209081526040808320600783528184209490945593909255600690915220544210611892576118546001600160a01b03831633308461214f565b62093a8061186a670de0b6b3a764000083612783565b61187491906127a2565b6001600160a01b0383166000908152600560205260409020556119ce565b6001600160a01b0382166000908152600660205260408120546118b6904290612756565b6001600160a01b038416600090815260056020526040812054919250906118dd9083612783565b60155490915060ff16158061190f575060155460ff16801561190f575061190c670de0b6b3a7640000826127a2565b83115b6119725760405162461bcd60e51b815260206004820152602e60248201527f416d6f756e742073686f756c6420626520686967686572207468616e2072656d60448201526d61696e696e67207265776172647360901b60648201526084016106fd565b6119876001600160a01b03851633308661214f565b62093a808161199e670de0b6b3a764000086612783565b6119a89190612846565b6119b291906127a2565b6001600160a01b03851660009081526005602052604090205550505b6119db62093a8042612846565b6001600160a01b0383166000818152600660205260409081902092909255905133907ff70d5c697de7ea828df48e5c4573cb2194c659f1901f70110c52b066dcf5082690611a2c9085815260200190565b60405180910390a350506001600055565b600d54600a11611a885760405162461bcd60e51b8152602060048201526016602482015275546f6f206d616e792072657761726420746f6b656e7360501b60448201526064016106fd565b6001600160a01b0381166000908152600e602052604090205460ff1615611ae65760405162461bcd60e51b8152602060048201526012602482015271105b1c9958591e481c9959da5cdd195c995960721b60448201526064016106fd565b6001600160a01b03166000818152600e60205260408120805460ff19166001908117909155600d805491820181559091527fd7b6990105719101dabeb77144f2a3385c8033acd3af97e9423a695e81ad1eb50180546001600160a01b0319169091179055565b6000600354600003611b7457506001600160a01b031660009081526008602052604090205490565b6003546001600160a01b03831660009081526005602090815260408083205460078352818420546006909352922054611bad9190611e25565b611bb685611fc1565b611bc09190612756565b611bca9190612783565b611bd491906127a2565b6001600160a01b0383166000908152600860205260409020546106ae9190612846565b611bff611fe5565b80600b6000828254611c119190612846565b90915550506001600160a01b0382166000908152600c6020526040812080548392906113a4908490612846565b6001600160a01b0382166000908152601460205260408120548190808203611c6d576000809250925050610e23565b6001600160a01b038516600090815260136020526040812090611c91828488611cc8565b6000908152602092835260409081902081518083019092528054808352600190910154919093018190529791965090945050505050565b600082600003611d0e5760405162461bcd60e51b8152602060048201526011602482015270456d70747920636865636b706f696e747360781b60448201526064016106fd565b81846000611d1d600187612756565b81526020019081526020016000206000015411611d4657611d3f600184612756565b90506106c0565b600080805260208590526040902054821015611d64575060006106c0565b600080611d72600186612756565b90505b81811115611e055760006002611d8b8484612756565b611d9591906127a2565b611d9f9083612756565b60008181526020898152604091829020825180840190935280548084526001909101549183019190915291925090869003611ddf575092506106c0915050565b8051861115611df057819350611dfe565b611dfb600183612756565b92505b5050611d75565b50949350505050565b600081831015611e1e57816106c0565b5090919050565b6000818310611e1e57816106c0565b6000806000611e438785611e0e565b6001600160a01b038916600090815260066020908152604080832054600590925290912054919250908690611e81611e7b8a89611e0e565b84611e25565b611e8b8585611e25565b611e959190612756565b611e9f9190612783565b611ea991906127a2565b99919850909650505050505050565b6001600160a01b0383166000908152601460205260409020548015801590611f1457506001600160a01b03841660009081526013602052604081208391611f00600185612756565b815260200190815260200160002060000154145b15611f57576001600160a01b03841660009081526013602052604081208491611f3e600185612756565b8152602081019190915260400160002060010155611fbb565b60408051808201825283815260208082018681526001600160a01b038816600090815260138352848120868252909252929020905181559051600191820155611fa1908290612846565b6001600160a01b0385166000908152601460205260409020555b50505050565b6001600160a01b0381166000908152600660205260408120546106ae904290611e25565b600d5460005b81811015610c49576000600d828154811061200857612008612711565b6000918252602090912001546001600160a01b0316905061202d81600019600161114b565b6001600160a01b0390921660009081526008602090815260408083206007909252909120929092559055806120618161273d565b915050611feb565b6001600160a01b0381166000908152600460205260408120546003805491928392612095908490612756565b9091555050506001600160a01b0381166000908152600c60209081526040808320546004909252822081905560038054919283926120d4908490612846565b909155506120e490508282612187565b610c49612278565b6040516001600160a01b038316602482015260448101829052610c3a90849063a9059cbb60e01b906064015b60408051601f198184030181529190526020810180516001600160e01b03166001600160e01b03199093169290921790915261231c565b6040516001600160a01b0380851660248301528316604482015260648101829052611fbb9085906323b872dd60e01b90608401612118565b6001600160a01b038216600090815260106020526040902054429080158015906121e557506001600160a01b0384166000908152600f6020526040812083916121d1600185612756565b815260200190815260200160002060000154145b1561220f576001600160a01b0384166000908152600f602052604081208491611f3e600185612756565b60408051808201825283815260208082018681526001600160a01b0388166000908152600f8352848120868252909252929020905181559051600191820155612259908290612846565b6001600160a01b03851660009081526010602052604090205550505050565b6012544281158015906122aa57508060116000612296600186612756565b815260200190815260200160002060000154145b156122d957600354601160006122c1600186612756565b81526020810191909152604001600020600101555050565b60408051808201825282815260035460208083019182526000868152601190915292909220905181559051600191820155612315908390612846565b6012555050565b6000612371826040518060400160405280602081526020017f5361666545524332303a206c6f772d6c6576656c2063616c6c206661696c6564815250856001600160a01b03166123ee9092919063ffffffff16565b805190915015610c3a578080602001905181019061238f9190612829565b610c3a5760405162461bcd60e51b815260206004820152602a60248201527f5361666545524332303a204552433230206f7065726174696f6e20646964206e6044820152691bdd081cdd58d8d9595960b21b60648201526084016106fd565b60606001600160a01b0384163b6124475760405162461bcd60e51b815260206004820152601d60248201527f416464726573733a2063616c6c20746f206e6f6e2d636f6e747261637400000060448201526064016106fd565b600080856001600160a01b031685604051612462919061288a565b6000604051808303816000865af19150503d806000811461249f576040519150601f19603f3d011682016040523d82523d6000602084013e6124a4565b606091505b50915091506124b48282866124be565b9695505050505050565b606083156124cd5750816106c0565b8251156124dd5782518084602001fd5b8160405162461bcd60e51b81526004016106fd91906128a6565b6001600160a01b0381168114610c9e57600080fd5b8035612517816124f7565b919050565b6000806040838503121561252f57600080fd5b823561253a816124f7565b946020939093013593505050565b60006020828403121561255a57600080fd5b5035919050565b6000806040838503121561257457600080fd5b823561257f816124f7565b9150602083013561258f816124f7565b809150509250929050565b6000602082840312156125ac57600080fd5b81356106c0816124f7565b8015158114610c9e57600080fd5b6000602082840312156125d757600080fd5b81356106c0816125b7565b600080604083850312156125f557600080fd5b50508035926020909101359150565b634e487b7160e01b600052604160045260246000fd5b6000806040838503121561262d57600080fd5b8235915060208084013567ffffffffffffffff8082111561264d57600080fd5b818601915086601f83011261266157600080fd5b81358181111561267357612673612604565b8060051b604051601f19603f8301168101818110858211171561269857612698612604565b6040529182528482019250838101850191898311156126b657600080fd5b938501935b828510156126db576126cc8561250c565b845293850193928501926126bb565b8096505050505050509250929050565b6020808252600c908201526b2737ba1037b832b930ba37b960a11b604082015260600190565b634e487b7160e01b600052603260045260246000fd5b634e487b7160e01b600052601160045260246000fd5b60006001820161274f5761274f612727565b5060010190565b60008282101561276857612768612727565b500390565b634e487b7160e01b600052603160045260246000fd5b600081600019048311821515161561279d5761279d612727565b500290565b6000826127bf57634e487b7160e01b600052601260045260246000fd5b500490565b6020808252600990820152682737ba103b37ba32b960b91b604082015260600190565b6020808252600b908201526a16995c9bc8185b5bdd5b9d60aa1b604082015260600190565b60006020828403121561281e57600080fd5b81516106c0816124f7565b60006020828403121561283b57600080fd5b81516106c0816125b7565b6000821982111561285957612859612727565b500190565b60005b83811015612879578181015183820152602001612861565b83811115611fbb5750506000910152565b6000825161289c81846020870161285e565b9190910192915050565b60208152600082518060208401526128c581604085016020870161285e565b601f01601f1916919091016040019291505056fea26469706673582212200c25d3cecc739242cb1746e75ac1379e2241632f782dba3527aa7d458eaeff7d64736f6c634300080d0033a2646970667358221220d45c996c4d386bbdea4fd5ff00383bb275f1a45981fd2911d5dd285e3bb746be64736f6c634300080d0033",
  "devdoc": {
    "kind": "dev",
    "methods": {},
    "version": 1
  },
  "userdoc": {
    "kind": "user",
    "methods": {},
    "version": 1
  },
  "storageLayout": {
    "storage": [
      {
        "astId": 6802,
        "contract": "contracts/base/reward/BribeFactory.sol:BribeFactory",
        "label": "lastGauge",
        "offset": 0,
        "slot": "0",
        "type": "t_address"
      }
    ],
    "types": {
      "t_address": {
        "encoding": "inplace",
        "label": "address",
        "numberOfBytes": "20"
      }
    }
  }
}