{
  "address": "0x86FDdc06Abb5b0A0F2CBCC133880a55F80038CB8",
  "abi": [
    {
      "anonymous": false,
      "inputs": [
        {
          "indexed": true,
          "internalType": "bytes32",
          "name": "role",
          "type": "bytes32"
        },
        {
          "indexed": true,
          "internalType": "address",
          "name": "account",
          "type": "address"
        },
        {
          "indexed": true,
          "internalType": "address",
          "name": "sender",
          "type": "address"
        }
      ],
      "name": "RoleGranted",
      "type": "event"
    },
    {
      "anonymous": false,
      "inputs": [
        {
          "indexed": true,
          "internalType": "bytes32",
          "name": "role",
          "type": "bytes32"
        },
        {
          "indexed": true,
          "internalType": "address",
          "name": "account",
          "type": "address"
        },
        {
          "indexed": true,
          "internalType": "address",
          "name": "sender",
          "type": "address"
        }
      ],
      "name": "RoleRevoked",
      "type": "event"
    },
    {
      "anonymous": false,
      "inputs": [
        {
          "indexed": true,
          "internalType": "address",
          "name": "sender",
          "type": "address"
        },
        {
          "indexed": false,
          "internalType": "uint256",
          "name": "veDistAmount",
          "type": "uint256"
        },
        {
          "indexed": false,
          "internalType": "uint256",
          "name": "voterAmount",
          "type": "uint256"
        }
      ],
      "name": "Send",
      "type": "event"
    },
    {
      "inputs": [],
      "name": "DEFAULT_ADMIN_ROLE",
      "outputs": [
        {
          "internalType": "bytes32",
          "name": "",
          "type": "bytes32"
        }
      ],
      "stateMutability": "view",
      "type": "function"
    },
    {
      "inputs": [],
      "name": "_token",
      "outputs": [
        {
          "internalType": "contract IERC20",
          "name": "",
          "type": "address"
        }
      ],
      "stateMutability": "view",
      "type": "function"
    },
    {
      "inputs": [],
      "name": "_ve",
      "outputs": [
        {
          "internalType": "contract IVe",
          "name": "",
          "type": "address"
        }
      ],
      "stateMutability": "view",
      "type": "function"
    },
    {
      "inputs": [],
      "name": "activeperiod",
      "outputs": [
        {
          "internalType": "uint256",
          "name": "",
          "type": "uint256"
        }
      ],
      "stateMutability": "view",
      "type": "function"
    },
    {
      "inputs": [
        {
          "internalType": "uint256",
          "name": "_veDistPerWeek",
          "type": "uint256"
        }
      ],
      "name": "adminSetVeDistPerWeek",
      "outputs": [],
      "stateMutability": "nonpayable",
      "type": "function"
    },
    {
      "inputs": [
        {
          "internalType": "uint256",
          "name": "_voterPerWeek",
          "type": "uint256"
        }
      ],
      "name": "adminSetVoterPerWeek",
      "outputs": [],
      "stateMutability": "nonpayable",
      "type": "function"
    },
    {
      "inputs": [],
      "name": "controller",
      "outputs": [
        {
          "internalType": "address",
          "name": "",
          "type": "address"
        }
      ],
      "stateMutability": "view",
      "type": "function"
    },
    {
      "inputs": [
        {
          "internalType": "bytes32",
          "name": "role",
          "type": "bytes32"
        }
      ],
      "name": "getRoleAdmin",
      "outputs": [
        {
          "internalType": "bytes32",
          "name": "",
          "type": "bytes32"
        }
      ],
      "stateMutability": "view",
      "type": "function"
    },
    {
      "inputs": [
        {
          "internalType": "bytes32",
          "name": "role",
          "type": "bytes32"
        },
        {
          "internalType": "uint256",
          "name": "index",
          "type": "uint256"
        }
      ],
      "name": "getRoleMember",
      "outputs": [
        {
          "internalType": "address",
          "name": "",
          "type": "address"
        }
      ],
      "stateMutability": "view",
      "type": "function"
    },
    {
      "inputs": [
        {
          "internalType": "bytes32",
          "name": "role",
          "type": "bytes32"
        }
      ],
      "name": "getRoleMemberCount",
      "outputs": [
        {
          "internalType": "uint256",
          "name": "",
          "type": "uint256"
        }
      ],
      "stateMutability": "view",
      "type": "function"
    },
    {
      "inputs": [
        {
          "internalType": "bytes32",
          "name": "role",
          "type": "bytes32"
        },
        {
          "internalType": "address",
          "name": "account",
          "type": "address"
        }
      ],
      "name": "getRoleMemberIndex",
      "outputs": [
        {
          "internalType": "uint256",
          "name": "",
          "type": "uint256"
        }
      ],
      "stateMutability": "view",
      "type": "function"
    },
    {
      "inputs": [
        {
          "internalType": "bytes32",
          "name": "role",
          "type": "bytes32"
        },
        {
          "internalType": "address",
          "name": "account",
          "type": "address"
        }
      ],
      "name": "grantRole",
      "outputs": [],
      "stateMutability": "nonpayable",
      "type": "function"
    },
    {
      "inputs": [
        {
          "internalType": "bytes32",
          "name": "role",
          "type": "bytes32"
        },
        {
          "internalType": "address",
          "name": "account",
          "type": "address"
        }
      ],
      "name": "hasRole",
      "outputs": [
        {
          "internalType": "bool",
          "name": "",
          "type": "bool"
        }
      ],
      "stateMutability": "view",
      "type": "function"
    },
    {
      "inputs": [
        {
          "internalType": "address",
          "name": "__ve",
          "type": "address"
        },
        {
          "internalType": "address",
          "name": "__controller",
          "type": "address"
        },
        {
          "internalType": "address",
          "name": "admin",
          "type": "address"
        }
      ],
      "name": "initialize",
      "outputs": [],
      "stateMutability": "nonpayable",
      "type": "function"
    },
    {
      "inputs": [
        {
          "internalType": "address",
          "name": "to",
          "type": "address"
        },
        {
          "internalType": "uint256",
          "name": "amount",
          "type": "uint256"
        }
      ],
      "name": "mint",
      "outputs": [],
      "stateMutability": "nonpayable",
      "type": "function"
    },
    {
      "inputs": [
        {
          "internalType": "address[]",
          "name": "tokens",
          "type": "address[]"
        }
      ],
      "name": "removeWhitelist",
      "outputs": [],
      "stateMutability": "nonpayable",
      "type": "function"
    },
    {
      "inputs": [
        {
          "internalType": "bytes32",
          "name": "role",
          "type": "bytes32"
        },
        {
          "internalType": "address",
          "name": "account",
          "type": "address"
        }
      ],
      "name": "renounceRole",
      "outputs": [],
      "stateMutability": "nonpayable",
      "type": "function"
    },
    {
      "inputs": [
        {
          "internalType": "bytes32",
          "name": "role",
          "type": "bytes32"
        },
        {
          "internalType": "address",
          "name": "account",
          "type": "address"
        }
      ],
      "name": "revokeRole",
      "outputs": [],
      "stateMutability": "nonpayable",
      "type": "function"
    },
    {
      "inputs": [
        {
          "internalType": "uint256",
          "name": "_activeperiod",
          "type": "uint256"
        }
      ],
      "name": "setActiveperiod",
      "outputs": [],
      "stateMutability": "nonpayable",
      "type": "function"
    },
    {
      "inputs": [
        {
          "internalType": "address",
          "name": "_gaugeOrBribe",
          "type": "address"
        },
        {
          "internalType": "bool",
          "name": "_checkAmount",
          "type": "bool"
        }
      ],
      "name": "setCheckAmount",
      "outputs": [],
      "stateMutability": "nonpayable",
      "type": "function"
    },
    {
      "inputs": [],
      "name": "updatePeriod",
      "outputs": [
        {
          "internalType": "uint256",
          "name": "",
          "type": "uint256"
        }
      ],
      "stateMutability": "nonpayable",
      "type": "function"
    },
    {
      "inputs": [],
      "name": "veDistPerWeek",
      "outputs": [
        {
          "internalType": "uint256",
          "name": "",
          "type": "uint256"
        }
      ],
      "stateMutability": "view",
      "type": "function"
    },
    {
      "inputs": [],
      "name": "voterPerWeek",
      "outputs": [
        {
          "internalType": "uint256",
          "name": "",
          "type": "uint256"
        }
      ],
      "stateMutability": "view",
      "type": "function"
    },
    {
      "inputs": [],
      "name": "weeklyEmission",
      "outputs": [
        {
          "internalType": "uint256",
          "name": "",
          "type": "uint256"
        }
      ],
      "stateMutability": "view",
      "type": "function"
    },
    {
      "inputs": [
        {
          "internalType": "address[]",
          "name": "tokens",
          "type": "address[]"
        }
      ],
      "name": "whiteList",
      "outputs": [],
      "stateMutability": "nonpayable",
      "type": "function"
    },
    {
      "inputs": [
        {
          "internalType": "uint256",
          "name": "amount",
          "type": "uint256"
        }
      ],
      "name": "withdraw",
      "outputs": [],
      "stateMutability": "nonpayable",
      "type": "function"
    }
  ],
  "transactionHash": "0xb40e52a1210a983e5405dcf7ed1e91ebcb4ccecb76220913c08dc84cecf38a5f",
  "args": [],
  "numDeployments": 1,
  "solcInputHash": "f0e188e35fd96b365cb9bd616b596351",
  "bytecode": "0x608060405234801561001057600080fd5b50611693806100206000396000f3fe608060405234801561001057600080fd5b506004361061018e5760003560e01c8063a217fddf116100de578063d651a83d11610097578063e81a062411610071578063e81a062414610343578063ea25119c14610356578063ecd0c0c314610369578063f77c47911461038257600080fd5b8063d651a83d14610329578063d70142fb14610332578063e52522b61461033a57600080fd5b8063a217fddf146102cd578063a83627de146102d5578063baa98bbd146102dd578063c0c53b8b146102f0578063ca15c87314610303578063d547741f1461031657600080fd5b80634e0df3f61161014b5780638dd598fb116101255780638dd598fb146102595780639010d07c1461028457806391c5f4a61461029757806391d14854146102aa57600080fd5b80634e0df3f61461022a578063713efc991461023d5780638053227a1461024657600080fd5b80632324521614610193578063248a9ca3146101a85780632e1a7d4d146101de5780632f2ff15d146101f157806336568abe1461020457806340c10f1914610217575b600080fd5b6101a66101a1366004611296565b610395565b005b6101cb6101b636600461135b565b60009081526020819052604090206002015490565b6040519081526020015b60405180910390f35b6101a66101ec36600461135b565b61042d565b6101a66101ff366004611374565b61050d565b6101a6610212366004611374565b61059b565b6101a66102253660046113a4565b610615565b6101cb610238366004611374565b610740565b6101cb60045481565b6101a66102543660046113de565b61076b565b60025461026c906001600160a01b031681565b6040516001600160a01b0390911681526020016101d5565b61026c61029236600461140c565b6107dc565b6101a66102a5366004611296565b6107fb565b6102bd6102b8366004611374565b610857565b60405190151581526020016101d5565b6101cb600081565b6101cb61086f565b6101a66102eb36600461135b565b610c68565b6101a66102fe36600461142e565b610c94565b6101cb61031136600461135b565b610e21565b6101a6610324366004611374565b610e38565b6101cb60055481565b6101cb610eb9565b6101cb60065481565b6101a661035136600461135b565b610ecb565b6101a661036436600461135b565b610ef7565b60015461026c906201000090046001600160a01b031681565b60035461026c906001600160a01b031681565b6103a0600033610857565b6103c55760405162461bcd60e51b81526004016103bc90611479565b60405180910390fd5b6103cd610f23565b6001600160a01b03166323245216826040518263ffffffff1660e01b81526004016103f891906114e0565b600060405180830381600087803b15801561041257600080fd5b505af1158015610426573d6000803e3d6000fd5b5050505050565b610438600033610857565b6104545760405162461bcd60e51b81526004016103bc90611479565b60015460405163a9059cbb60e01b815233600482015260248101839052620100009091046001600160a01b03169063a9059cbb906044016020604051808303816000875af11580156104aa573d6000803e3d6000fd5b505050506040513d601f19601f820116820180604052508101906104ce91906114f3565b61050a5760405162461bcd60e51b815260206004820152600d60248201526c151c985b9cd9995c8811985a5b609a1b60448201526064016103bc565b50565b6000828152602081905260409020600201546105299033610857565b61058d5760405162461bcd60e51b815260206004820152602f60248201527f416363657373436f6e74726f6c3a2073656e646572206d75737420626520616e60448201526e0818591b5a5b881d1bc819dc985b9d608a1b60648201526084016103bc565b6105978282610f91565b5050565b6001600160a01b038116331461060b5760405162461bcd60e51b815260206004820152602f60248201527f416363657373436f6e74726f6c3a2063616e206f6e6c792072656e6f756e636560448201526e103937b632b9903337b91039b2b63360891b60648201526084016103bc565b6105978282610fea565b610620600033610857565b61063c5760405162461bcd60e51b81526004016103bc90611479565b600154604080516001600160a01b038581166024830152604480830186905283518084039091018152606490920183526020820180516001600160e01b03166340c10f1960e01b1790529151600093849362010000909104169161069f91611510565b6000604051808303816000865af19150503d80600081146106dc576040519150601f19603f3d011682016040523d82523d6000602084013e6106e1565b606091505b509150915081801561070257508080602001905181019061070291906114f3565b61073a5760405162461bcd60e51b81526020600482015260096024820152681b5a5b9d0819985a5b60ba1b60448201526064016103bc565b50505050565b6000828152602081815260408083206001600160a01b03851684526001019091529020545b92915050565b610773610f23565b604051634029913d60e11b81526001600160a01b03848116600483015283151560248301529190911690638053227a90604401600060405180830381600087803b1580156107c057600080fd5b505af11580156107d4573d6000803e3d6000fd5b505050505050565b60008281526020819052604081206107f49083611043565b9392505050565b610806600033610857565b6108225760405162461bcd60e51b81526004016103bc90611479565b61082a610f23565b6001600160a01b0316637e1ddf6482306040518363ffffffff1660e01b81526004016103f892919061154b565b60008281526020819052604081206107f4908361104f565b600061087b8133610857565b6108975760405162461bcd60e51b81526004016103bc90611479565b6004546108a762093a808261158b565b4210610c635762093a806108bb81426115a3565b6108c591906115c5565b60048181556001546040516370a0823160e01b815230928101929092529192506000916201000090046001600160a01b0316906370a0823190602401602060405180830381865afa15801561091e573d6000803e3d6000fd5b505050506040513d601f19601f8201168201806040525081019061094291906115e4565b9050600654600554610954919061158b565b81101561099a5760405162461bcd60e51b8152602060048201526014602482015273496e73756666696369656e742062616c616e636560601b60448201526064016103bc565b60055415610b24576001546201000090046001600160a01b031663a9059cbb6109c1611071565b6005546040516001600160e01b031960e085901b1681526001600160a01b03909216600483015260248201526044016020604051808303816000875af1158015610a0f573d6000803e3d6000fd5b505050506040513d601f19601f82011682018060405250810190610a3391906114f3565b610a6f5760405162461bcd60e51b815260206004820152600d60248201526c151c985b9cd9995c8811985a5b609a1b60448201526064016103bc565b610a77611071565b6001600160a01b031663bee5dc326040518163ffffffff1660e01b8152600401600060405180830381600087803b158015610ab157600080fd5b505af1158015610ac5573d6000803e3d6000fd5b50505050610ad1611071565b6001600160a01b031663326a94076040518163ffffffff1660e01b8152600401600060405180830381600087803b158015610b0b57600080fd5b505af1158015610b1f573d6000803e3d6000fd5b505050505b6001546201000090046001600160a01b031663095ea7b3610b43610f23565b6006546040516001600160e01b031960e085901b1681526001600160a01b03909216600483015260248201526044016020604051808303816000875af1158015610b91573d6000803e3d6000fd5b505050506040513d601f19601f82011682018060405250810190610bb591906114f3565b50610bbe610f23565b6001600160a01b0316633c6b16ab6006546040518263ffffffff1660e01b8152600401610bed91815260200190565b600060405180830381600087803b158015610c0757600080fd5b505af1158015610c1b573d6000803e3d6000fd5b50506005546006546040805192835260208301919091523393507fb3a7f4e19ac1e31fc41d825d7a63c4af7b79cda95d9abfb66c36e6987706bf9792500160405180910390a2505b905090565b610c73600033610857565b610c8f5760405162461bcd60e51b81526004016103bc90611479565b600555565b600154610100900460ff16610caf5760015460ff1615610cb3565b303b155b610d165760405162461bcd60e51b815260206004820152602e60248201527f496e697469616c697a61626c653a20636f6e747261637420697320616c72656160448201526d191e481a5b9a5d1a585b1a5e995960921b60648201526084016103bc565b600154610100900460ff16158015610d38576001805461ffff19166101011790555b836001600160a01b031663fc0c546a6040518163ffffffff1660e01b8152600401602060405180830381865afa158015610d76573d6000803e3d6000fd5b505050506040513d601f19601f82011682018060405250810190610d9a91906115fd565b6001805462010000600160b01b031916620100006001600160a01b0393841602179055600280546001600160a01b0319908116878416179091556003805490911691851691909117905562093a80610df281426115a3565b610dfc91906115c5565b600455610e0a60008361058d565b801561073a576001805461ff001916905550505050565b6000818152602081905260408120610765906110bb565b600082815260208190526040902060020154610e549033610857565b61060b5760405162461bcd60e51b815260206004820152603060248201527f416363657373436f6e74726f6c3a2073656e646572206d75737420626520616e60448201526f2061646d696e20746f207265766f6b6560801b60648201526084016103bc565b6000600654600554610c63919061158b565b610ed6600033610857565b610ef25760405162461bcd60e51b81526004016103bc90611479565b600455565b610f02600033610857565b610f1e5760405162461bcd60e51b81526004016103bc90611479565b600655565b600354604080516311b25aab60e21b815290516000926001600160a01b0316916346c96aac9160048083019260209291908290030181865afa158015610f6d573d6000803e3d6000fd5b505050506040513d601f19601f82011682018060405250810190610c6391906115fd565b6000828152602081905260409020610fa990826110c5565b156105975760405133906001600160a01b0383169084907f2f8788117e7eff1d82e926ec794901d17c78024a50270940304540a733656f0d90600090a45050565b600082815260208190526040902061100290826110da565b156105975760405133906001600160a01b0383169084907ff6391f5c32d9c69d2a47ea670b442974b53935d1edc7fd64eb21e047a839171b90600090a45050565b60006107f483836110ef565b6001600160a01b038116600090815260018301602052604081205415156107f4565b6003546040805163c13270f160e01b815290516000926001600160a01b03169163c13270f19160048083019260209291908290030181865afa158015610f6d573d6000803e3d6000fd5b6000610765825490565b60006107f4836001600160a01b038416611119565b60006107f4836001600160a01b038416611168565b60008260000182815481106111065761110661161a565b9060005260206000200154905092915050565b600081815260018301602052604081205461116057508154600181810184556000848152602080822090930184905584548482528286019093526040902091909155610765565b506000610765565b6000818152600183016020526040812054801561125157600061118c600183611630565b85549091506000906111a090600190611630565b90508181146112055760008660000182815481106111c0576111c061161a565b90600052602060002001549050808760000184815481106111e3576111e361161a565b6000918252602080832090910192909255918252600188019052604090208390555b855486908061121657611216611647565b600190038181906000526020600020016000905590558560010160008681526020019081526020016000206000905560019350505050610765565b6000915050610765565b634e487b7160e01b600052604160045260246000fd5b6001600160a01b038116811461050a57600080fd5b803561129181611271565b919050565b600060208083850312156112a957600080fd5b823567ffffffffffffffff808211156112c157600080fd5b818501915085601f8301126112d557600080fd5b8135818111156112e7576112e761125b565b8060051b604051601f19603f8301168101818110858211171561130c5761130c61125b565b60405291825284820192508381018501918883111561132a57600080fd5b938501935b8285101561134f5761134085611286565b8452938501939285019261132f565b98975050505050505050565b60006020828403121561136d57600080fd5b5035919050565b6000806040838503121561138757600080fd5b82359150602083013561139981611271565b809150509250929050565b600080604083850312156113b757600080fd5b82356113c281611271565b946020939093013593505050565b801515811461050a57600080fd5b600080604083850312156113f157600080fd5b82356113fc81611271565b91506020830135611399816113d0565b6000806040838503121561141f57600080fd5b50508035926020909101359150565b60008060006060848603121561144357600080fd5b833561144e81611271565b9250602084013561145e81611271565b9150604084013561146e81611271565b809150509250925092565b6020808252600990820152683337b93134b23232b760b91b604082015260600190565b600081518084526020808501945080840160005b838110156114d55781516001600160a01b0316875295820195908201906001016114b0565b509495945050505050565b6020815260006107f4602083018461149c565b60006020828403121561150557600080fd5b81516107f4816113d0565b6000825160005b818110156115315760208186018101518583015201611517565b81811115611540576000828501525b509190910192915050565b60408152600061155e604083018561149c565b905060018060a01b03831660208301529392505050565b634e487b7160e01b600052601160045260246000fd5b6000821982111561159e5761159e611575565b500190565b6000826115c057634e487b7160e01b600052601260045260246000fd5b500490565b60008160001904831182151516156115df576115df611575565b500290565b6000602082840312156115f657600080fd5b5051919050565b60006020828403121561160f57600080fd5b81516107f481611271565b634e487b7160e01b600052603260045260246000fd5b60008282101561164257611642611575565b500390565b634e487b7160e01b600052603160045260246000fdfea26469706673582212201edef50eb3f0843eb863382671542d31d4001e8970db24709b9791be8f7cd41664736f6c634300080d0033",
  "devdoc": {
    "kind": "dev",
    "methods": {
      "getRoleAdmin(bytes32)": {
        "details": "Returns the admin role that controls `role`. See {grantRole} and {revokeRole}. To change a role's admin, use {_setRoleAdmin}."
      },
      "getRoleMember(bytes32,uint256)": {
        "details": "Returns one of the accounts that have `role`. `index` must be a value between 0 and {getRoleMemberCount}, non-inclusive. Role bearers are not sorted in any particular way, and their ordering may change at any point. WARNING: When using {getRoleMember} and {getRoleMemberCount}, make sure you perform all queries on the same block. See the following https://forum.openzeppelin.com/t/iterating-over-elements-on-enumerableset-in-openzeppelin-contracts/2296[forum post] for more information."
      },
      "getRoleMemberCount(bytes32)": {
        "details": "Returns the number of accounts that have `role`. Can be used together with {getRoleMember} to enumerate all bearers of a role."
      },
      "getRoleMemberIndex(bytes32,address)": {
        "details": "Returns the index of the account that have `role`."
      },
      "grantRole(bytes32,address)": {
        "details": "Grants `role` to `account`. If `account` had not been already granted `role`, emits a {RoleGranted} event. Requirements: - the caller must have ``role``'s admin role."
      },
      "hasRole(bytes32,address)": {
        "details": "Returns `true` if `account` has been granted `role`."
      },
      "renounceRole(bytes32,address)": {
        "details": "Revokes `role` from the calling account. Roles are often managed via {grantRole} and {revokeRole}: this function's purpose is to provide a mechanism for accounts to lose their privileges if they are compromised (such as when a trusted device is misplaced). If the calling account had been granted `role`, emits a {RoleRevoked} event. Requirements: - the caller must be `account`."
      },
      "revokeRole(bytes32,address)": {
        "details": "Revokes `role` from `account`. If `account` had been granted `role`, emits a {RoleRevoked} event. Requirements: - the caller must have ``role``'s admin role."
      }
    },
    "stateVariables": {
      "veDistPerWeek": {
        "details": "veDist per week"
      },
      "voterPerWeek": {
        "details": "voter per week"
      }
    },
    "version": 1
  },
  "userdoc": {
    "kind": "user",
    "methods": {},
    "version": 1
  },
  "storageLayout": {
    "storage": [
      {
        "astId": 26263,
        "contract": "contracts/base/token/MinterUpgradeable.sol:MinterUpgradeable",
        "label": "_roles",
        "offset": 0,
        "slot": "0",
        "type": "t_mapping(t_bytes32,t_struct(RoleData)26258_storage)"
      },
      {
        "astId": 27449,
        "contract": "contracts/base/token/MinterUpgradeable.sol:MinterUpgradeable",
        "label": "_initialized",
        "offset": 0,
        "slot": "1",
        "type": "t_bool"
      },
      {
        "astId": 27452,
        "contract": "contracts/base/token/MinterUpgradeable.sol:MinterUpgradeable",
        "label": "_initializing",
        "offset": 1,
        "slot": "1",
        "type": "t_bool"
      },
      {
        "astId": 10365,
        "contract": "contracts/base/token/MinterUpgradeable.sol:MinterUpgradeable",
        "label": "_token",
        "offset": 2,
        "slot": "1",
        "type": "t_contract(IERC20)24511"
      },
      {
        "astId": 10368,
        "contract": "contracts/base/token/MinterUpgradeable.sol:MinterUpgradeable",
        "label": "_ve",
        "offset": 0,
        "slot": "2",
        "type": "t_contract(IVe)26084"
      },
      {
        "astId": 10370,
        "contract": "contracts/base/token/MinterUpgradeable.sol:MinterUpgradeable",
        "label": "controller",
        "offset": 0,
        "slot": "3",
        "type": "t_address"
      },
      {
        "astId": 10372,
        "contract": "contracts/base/token/MinterUpgradeable.sol:MinterUpgradeable",
        "label": "activeperiod",
        "offset": 0,
        "slot": "4",
        "type": "t_uint256"
      },
      {
        "astId": 10375,
        "contract": "contracts/base/token/MinterUpgradeable.sol:MinterUpgradeable",
        "label": "veDistPerWeek",
        "offset": 0,
        "slot": "5",
        "type": "t_uint256"
      },
      {
        "astId": 10378,
        "contract": "contracts/base/token/MinterUpgradeable.sol:MinterUpgradeable",
        "label": "voterPerWeek",
        "offset": 0,
        "slot": "6",
        "type": "t_uint256"
      }
    ],
    "types": {
      "t_address": {
        "encoding": "inplace",
        "label": "address",
        "numberOfBytes": "20"
      },
      "t_array(t_bytes32)dyn_storage": {
        "base": "t_bytes32",
        "encoding": "dynamic_array",
        "label": "bytes32[]",
        "numberOfBytes": "32"
      },
      "t_bool": {
        "encoding": "inplace",
        "label": "bool",
        "numberOfBytes": "1"
      },
      "t_bytes32": {
        "encoding": "inplace",
        "label": "bytes32",
        "numberOfBytes": "32"
      },
      "t_contract(IERC20)24511": {
        "encoding": "inplace",
        "label": "contract IERC20",
        "numberOfBytes": "20"
      },
      "t_contract(IVe)26084": {
        "encoding": "inplace",
        "label": "contract IVe",
        "numberOfBytes": "20"
      },
      "t_mapping(t_bytes32,t_struct(RoleData)26258_storage)": {
        "encoding": "mapping",
        "key": "t_bytes32",
        "label": "mapping(bytes32 => struct AccessControl.RoleData)",
        "numberOfBytes": "32",
        "value": "t_struct(RoleData)26258_storage"
      },
      "t_mapping(t_bytes32,t_uint256)": {
        "encoding": "mapping",
        "key": "t_bytes32",
        "label": "mapping(bytes32 => uint256)",
        "numberOfBytes": "32",
        "value": "t_uint256"
      },
      "t_struct(AddressSet)27155_storage": {
        "encoding": "inplace",
        "label": "struct EnumerableSet.AddressSet",
        "members": [
          {
            "astId": 27154,
            "contract": "contracts/base/token/MinterUpgradeable.sol:MinterUpgradeable",
            "label": "_inner",
            "offset": 0,
            "slot": "0",
            "type": "t_struct(Set)26854_storage"
          }
        ],
        "numberOfBytes": "64"
      },
      "t_struct(RoleData)26258_storage": {
        "encoding": "inplace",
        "label": "struct AccessControl.RoleData",
        "members": [
          {
            "astId": 26255,
            "contract": "contracts/base/token/MinterUpgradeable.sol:MinterUpgradeable",
            "label": "members",
            "offset": 0,
            "slot": "0",
            "type": "t_struct(AddressSet)27155_storage"
          },
          {
            "astId": 26257,
            "contract": "contracts/base/token/MinterUpgradeable.sol:MinterUpgradeable",
            "label": "adminRole",
            "offset": 0,
            "slot": "2",
            "type": "t_bytes32"
          }
        ],
        "numberOfBytes": "96"
      },
      "t_struct(Set)26854_storage": {
        "encoding": "inplace",
        "label": "struct EnumerableSet.Set",
        "members": [
          {
            "astId": 26849,
            "contract": "contracts/base/token/MinterUpgradeable.sol:MinterUpgradeable",
            "label": "_values",
            "offset": 0,
            "slot": "0",
            "type": "t_array(t_bytes32)dyn_storage"
          },
          {
            "astId": 26853,
            "contract": "contracts/base/token/MinterUpgradeable.sol:MinterUpgradeable",
            "label": "_indexes",
            "offset": 0,
            "slot": "1",
            "type": "t_mapping(t_bytes32,t_uint256)"
          }
        ],
        "numberOfBytes": "64"
      },
      "t_uint256": {
        "encoding": "inplace",
        "label": "uint256",
        "numberOfBytes": "32"
      }
    }
  }
}