{
  "address": "0xb14900CC638F84a3E4F167a2776502C7BCd42CdD",
  "abi": [
    {
      "anonymous": false,
      "inputs": [
        {
          "indexed": false,
          "internalType": "uint256",
          "name": "tokenId",
          "type": "uint256"
        },
        {
          "indexed": false,
          "internalType": "int256",
          "name": "weight",
          "type": "int256"
        }
      ],
      "name": "Abstained",
      "type": "event"
    },
    {
      "anonymous": false,
      "inputs": [
        {
          "indexed": true,
          "internalType": "address",
          "name": "owner",
          "type": "address"
        },
        {
          "indexed": true,
          "internalType": "address",
          "name": "gauge",
          "type": "address"
        },
        {
          "indexed": false,
          "internalType": "uint256",
          "name": "tokenId",
          "type": "uint256"
        }
      ],
      "name": "Attach",
      "type": "event"
    },
    {
      "anonymous": false,
      "inputs": [
        {
          "indexed": true,
          "internalType": "address",
          "name": "lp",
          "type": "address"
        },
        {
          "indexed": true,
          "internalType": "address",
          "name": "gauge",
          "type": "address"
        },
        {
          "indexed": false,
          "internalType": "uint256",
          "name": "tokenId",
          "type": "uint256"
        },
        {
          "indexed": false,
          "internalType": "uint256",
          "name": "amount",
          "type": "uint256"
        }
      ],
      "name": "Deposit",
      "type": "event"
    },
    {
      "anonymous": false,
      "inputs": [
        {
          "indexed": true,
          "internalType": "address",
          "name": "owner",
          "type": "address"
        },
        {
          "indexed": true,
          "internalType": "address",
          "name": "gauge",
          "type": "address"
        },
        {
          "indexed": false,
          "internalType": "uint256",
          "name": "tokenId",
          "type": "uint256"
        }
      ],
      "name": "Detach",
      "type": "event"
    },
    {
      "anonymous": false,
      "inputs": [
        {
          "indexed": true,
          "internalType": "address",
          "name": "sender",
          "type": "address"
        },
        {
          "indexed": true,
          "internalType": "address",
          "name": "gauge",
          "type": "address"
        },
        {
          "indexed": false,
          "internalType": "uint256",
          "name": "amount",
          "type": "uint256"
        }
      ],
      "name": "DistributeReward",
      "type": "event"
    },
    {
      "anonymous": false,
      "inputs": [
        {
          "indexed": true,
          "internalType": "address",
          "name": "gauge",
          "type": "address"
        },
        {
          "indexed": false,
          "internalType": "address",
          "name": "creator",
          "type": "address"
        },
        {
          "indexed": true,
          "internalType": "address",
          "name": "bribe",
          "type": "address"
        },
        {
          "indexed": true,
          "internalType": "address",
          "name": "pool",
          "type": "address"
        }
      ],
      "name": "GaugeCreated",
      "type": "event"
    },
    {
      "anonymous": false,
      "inputs": [
        {
          "indexed": true,
          "internalType": "address",
          "name": "sender",
          "type": "address"
        },
        {
          "indexed": true,
          "internalType": "address",
          "name": "reward",
          "type": "address"
        },
        {
          "indexed": false,
          "internalType": "uint256",
          "name": "amount",
          "type": "uint256"
        }
      ],
      "name": "NotifyReward",
      "type": "event"
    },
    {
      "anonymous": false,
      "inputs": [
        {
          "indexed": true,
          "internalType": "address",
          "name": "whitelister",
          "type": "address"
        },
        {
          "indexed": true,
          "internalType": "address",
          "name": "token",
          "type": "address"
        }
      ],
      "name": "RemoveWhitelist",
      "type": "event"
    },
    {
      "anonymous": false,
      "inputs": [
        {
          "indexed": true,
          "internalType": "address",
          "name": "voter",
          "type": "address"
        },
        {
          "indexed": false,
          "internalType": "uint256",
          "name": "tokenId",
          "type": "uint256"
        },
        {
          "indexed": false,
          "internalType": "int256",
          "name": "weight",
          "type": "int256"
        }
      ],
      "name": "Voted",
      "type": "event"
    },
    {
      "anonymous": false,
      "inputs": [
        {
          "indexed": true,
          "internalType": "address",
          "name": "whitelister",
          "type": "address"
        },
        {
          "indexed": true,
          "internalType": "address",
          "name": "token",
          "type": "address"
        }
      ],
      "name": "Whitelisted",
      "type": "event"
    },
    {
      "anonymous": false,
      "inputs": [
        {
          "indexed": true,
          "internalType": "address",
          "name": "lp",
          "type": "address"
        },
        {
          "indexed": true,
          "internalType": "address",
          "name": "gauge",
          "type": "address"
        },
        {
          "indexed": false,
          "internalType": "uint256",
          "name": "tokenId",
          "type": "uint256"
        },
        {
          "indexed": false,
          "internalType": "uint256",
          "name": "amount",
          "type": "uint256"
        }
      ],
      "name": "Withdraw",
      "type": "event"
    },
    {
      "inputs": [
        {
          "internalType": "uint256",
          "name": "tokenId",
          "type": "uint256"
        },
        {
          "internalType": "address",
          "name": "account",
          "type": "address"
        }
      ],
      "name": "attachTokenToGauge",
      "outputs": [],
      "stateMutability": "nonpayable",
      "type": "function"
    },
    {
      "inputs": [],
      "name": "bribeFactory",
      "outputs": [
        {
          "internalType": "address",
          "name": "",
          "type": "address"
        }
      ],
      "stateMutability": "view",
      "type": "function"
    },
    {
      "inputs": [
        {
          "internalType": "address",
          "name": "",
          "type": "address"
        }
      ],
      "name": "bribes",
      "outputs": [
        {
          "internalType": "address",
          "name": "",
          "type": "address"
        }
      ],
      "stateMutability": "view",
      "type": "function"
    },
    {
      "inputs": [
        {
          "internalType": "address[]",
          "name": "_bribes",
          "type": "address[]"
        },
        {
          "internalType": "address[][]",
          "name": "_tokens",
          "type": "address[][]"
        },
        {
          "internalType": "uint256",
          "name": "_tokenId",
          "type": "uint256"
        }
      ],
      "name": "claimBribes",
      "outputs": [],
      "stateMutability": "nonpayable",
      "type": "function"
    },
    {
      "inputs": [
        {
          "internalType": "address[]",
          "name": "_bribes",
          "type": "address[]"
        },
        {
          "internalType": "address[][]",
          "name": "_tokens",
          "type": "address[][]"
        },
        {
          "internalType": "uint256",
          "name": "_tokenId",
          "type": "uint256"
        }
      ],
      "name": "claimFees",
      "outputs": [],
      "stateMutability": "nonpayable",
      "type": "function"
    },
    {
      "inputs": [
        {
          "internalType": "address[]",
          "name": "_gauges",
          "type": "address[]"
        },
        {
          "internalType": "address[][]",
          "name": "_tokens",
          "type": "address[][]"
        }
      ],
      "name": "claimRewards",
      "outputs": [],
      "stateMutability": "nonpayable",
      "type": "function"
    },
    {
      "inputs": [
        {
          "internalType": "address",
          "name": "",
          "type": "address"
        }
      ],
      "name": "claimable",
      "outputs": [
        {
          "internalType": "uint256",
          "name": "",
          "type": "uint256"
        }
      ],
      "stateMutability": "view",
      "type": "function"
    },
    {
      "inputs": [
        {
          "internalType": "address",
          "name": "_pool",
          "type": "address"
        }
      ],
      "name": "createGauge",
      "outputs": [
        {
          "internalType": "address",
          "name": "",
          "type": "address"
        }
      ],
      "stateMutability": "nonpayable",
      "type": "function"
    },
    {
      "inputs": [
        {
          "internalType": "uint256",
          "name": "tokenId",
          "type": "uint256"
        },
        {
          "internalType": "address",
          "name": "account",
          "type": "address"
        }
      ],
      "name": "detachTokenFromGauge",
      "outputs": [],
      "stateMutability": "nonpayable",
      "type": "function"
    },
    {
      "inputs": [
        {
          "internalType": "address",
          "name": "_gauge",
          "type": "address"
        }
      ],
      "name": "distribute",
      "outputs": [],
      "stateMutability": "nonpayable",
      "type": "function"
    },
    {
      "inputs": [],
      "name": "distributeAll",
      "outputs": [],
      "stateMutability": "nonpayable",
      "type": "function"
    },
    {
      "inputs": [
        {
          "internalType": "address[]",
          "name": "_gauges",
          "type": "address[]"
        }
      ],
      "name": "distributeFees",
      "outputs": [],
      "stateMutability": "nonpayable",
      "type": "function"
    },
    {
      "inputs": [
        {
          "internalType": "address[]",
          "name": "_gauges",
          "type": "address[]"
        }
      ],
      "name": "distributeForGauges",
      "outputs": [],
      "stateMutability": "nonpayable",
      "type": "function"
    },
    {
      "inputs": [
        {
          "internalType": "uint256",
          "name": "start",
          "type": "uint256"
        },
        {
          "internalType": "uint256",
          "name": "finish",
          "type": "uint256"
        }
      ],
      "name": "distributeForPoolsInRange",
      "outputs": [],
      "stateMutability": "nonpayable",
      "type": "function"
    },
    {
      "inputs": [
        {
          "internalType": "uint256",
          "name": "tokenId",
          "type": "uint256"
        },
        {
          "internalType": "address",
          "name": "account",
          "type": "address"
        },
        {
          "internalType": "uint256",
          "name": "amount",
          "type": "uint256"
        }
      ],
      "name": "emitDeposit",
      "outputs": [],
      "stateMutability": "nonpayable",
      "type": "function"
    },
    {
      "inputs": [
        {
          "internalType": "uint256",
          "name": "tokenId",
          "type": "uint256"
        },
        {
          "internalType": "address",
          "name": "account",
          "type": "address"
        },
        {
          "internalType": "uint256",
          "name": "amount",
          "type": "uint256"
        }
      ],
      "name": "emitWithdraw",
      "outputs": [],
      "stateMutability": "nonpayable",
      "type": "function"
    },
    {
      "inputs": [],
      "name": "factory",
      "outputs": [
        {
          "internalType": "address",
          "name": "",
          "type": "address"
        }
      ],
      "stateMutability": "view",
      "type": "function"
    },
    {
      "inputs": [],
      "name": "gaugeFactory",
      "outputs": [
        {
          "internalType": "address",
          "name": "",
          "type": "address"
        }
      ],
      "stateMutability": "view",
      "type": "function"
    },
    {
      "inputs": [
        {
          "internalType": "address",
          "name": "",
          "type": "address"
        }
      ],
      "name": "gauges",
      "outputs": [
        {
          "internalType": "address",
          "name": "",
          "type": "address"
        }
      ],
      "stateMutability": "view",
      "type": "function"
    },
    {
      "inputs": [],
      "name": "index",
      "outputs": [
        {
          "internalType": "uint256",
          "name": "",
          "type": "uint256"
        }
      ],
      "stateMutability": "view",
      "type": "function"
    },
    {
      "inputs": [
        {
          "internalType": "address[]",
          "name": "_tokens",
          "type": "address[]"
        },
        {
          "internalType": "address",
          "name": "_minter",
          "type": "address"
        }
      ],
      "name": "init",
      "outputs": [],
      "stateMutability": "nonpayable",
      "type": "function"
    },
    {
      "inputs": [
        {
          "internalType": "address",
          "name": "_ve",
          "type": "address"
        },
        {
          "internalType": "address",
          "name": "_factory",
          "type": "address"
        },
        {
          "internalType": "address",
          "name": "_gaugeFactory",
          "type": "address"
        },
        {
          "internalType": "address",
          "name": "_bribeFactory",
          "type": "address"
        },
        {
          "internalType": "address",
          "name": "_minter",
          "type": "address"
        }
      ],
      "name": "initialize",
      "outputs": [],
      "stateMutability": "nonpayable",
      "type": "function"
    },
    {
      "inputs": [
        {
          "internalType": "address",
          "name": "",
          "type": "address"
        }
      ],
      "name": "isGauge",
      "outputs": [
        {
          "internalType": "bool",
          "name": "",
          "type": "bool"
        }
      ],
      "stateMutability": "view",
      "type": "function"
    },
    {
      "inputs": [
        {
          "internalType": "address",
          "name": "",
          "type": "address"
        }
      ],
      "name": "isWhitelisted",
      "outputs": [
        {
          "internalType": "bool",
          "name": "",
          "type": "bool"
        }
      ],
      "stateMutability": "view",
      "type": "function"
    },
    {
      "inputs": [],
      "name": "listingFee",
      "outputs": [
        {
          "internalType": "uint256",
          "name": "",
          "type": "uint256"
        }
      ],
      "stateMutability": "view",
      "type": "function"
    },
    {
      "inputs": [],
      "name": "minter",
      "outputs": [
        {
          "internalType": "address",
          "name": "",
          "type": "address"
        }
      ],
      "stateMutability": "view",
      "type": "function"
    },
    {
      "inputs": [
        {
          "internalType": "uint256",
          "name": "amount",
          "type": "uint256"
        }
      ],
      "name": "notifyRewardAmount",
      "outputs": [],
      "stateMutability": "nonpayable",
      "type": "function"
    },
    {
      "inputs": [
        {
          "internalType": "uint256",
          "name": "_tokenId",
          "type": "uint256"
        }
      ],
      "name": "poke",
      "outputs": [],
      "stateMutability": "nonpayable",
      "type": "function"
    },
    {
      "inputs": [
        {
          "internalType": "address",
          "name": "",
          "type": "address"
        }
      ],
      "name": "poolForGauge",
      "outputs": [
        {
          "internalType": "address",
          "name": "",
          "type": "address"
        }
      ],
      "stateMutability": "view",
      "type": "function"
    },
    {
      "inputs": [
        {
          "internalType": "uint256",
          "name": "",
          "type": "uint256"
        },
        {
          "internalType": "uint256",
          "name": "",
          "type": "uint256"
        }
      ],
      "name": "poolVote",
      "outputs": [
        {
          "internalType": "address",
          "name": "",
          "type": "address"
        }
      ],
      "stateMutability": "view",
      "type": "function"
    },
    {
      "inputs": [
        {
          "internalType": "uint256",
          "name": "",
          "type": "uint256"
        }
      ],
      "name": "pools",
      "outputs": [
        {
          "internalType": "address",
          "name": "",
          "type": "address"
        }
      ],
      "stateMutability": "view",
      "type": "function"
    },
    {
      "inputs": [],
      "name": "poolsLength",
      "outputs": [
        {
          "internalType": "uint256",
          "name": "",
          "type": "uint256"
        }
      ],
      "stateMutability": "view",
      "type": "function"
    },
    {
      "inputs": [
        {
          "internalType": "address",
          "name": "_token",
          "type": "address"
        },
        {
          "internalType": "address",
          "name": "_gaugeOrBribe",
          "type": "address"
        },
        {
          "internalType": "uint256",
          "name": "_tokenId",
          "type": "uint256"
        }
      ],
      "name": "registerRewardToken",
      "outputs": [],
      "stateMutability": "nonpayable",
      "type": "function"
    },
    {
      "inputs": [
        {
          "internalType": "address",
          "name": "_token",
          "type": "address"
        },
        {
          "internalType": "address",
          "name": "_gaugeOrBribe",
          "type": "address"
        },
        {
          "internalType": "uint256",
          "name": "_tokenId",
          "type": "uint256"
        }
      ],
      "name": "removeRewardToken",
      "outputs": [],
      "stateMutability": "nonpayable",
      "type": "function"
    },
    {
      "inputs": [
        {
          "internalType": "address[]",
          "name": "_tokens",
          "type": "address[]"
        }
      ],
      "name": "removeWhitelist",
      "outputs": [],
      "stateMutability": "nonpayable",
      "type": "function"
    },
    {
      "inputs": [
        {
          "internalType": "uint256",
          "name": "_tokenId",
          "type": "uint256"
        }
      ],
      "name": "reset",
      "outputs": [],
      "stateMutability": "nonpayable",
      "type": "function"
    },
    {
      "inputs": [
        {
          "internalType": "address",
          "name": "_gaugeOrBribe",
          "type": "address"
        },
        {
          "internalType": "bool",
          "name": "_checkAmount",
          "type": "bool"
        }
      ],
      "name": "setCheckAmount",
      "outputs": [],
      "stateMutability": "nonpayable",
      "type": "function"
    },
    {
      "inputs": [
        {
          "internalType": "address",
          "name": "",
          "type": "address"
        }
      ],
      "name": "supplyIndex",
      "outputs": [
        {
          "internalType": "uint256",
          "name": "",
          "type": "uint256"
        }
      ],
      "stateMutability": "view",
      "type": "function"
    },
    {
      "inputs": [],
      "name": "token",
      "outputs": [
        {
          "internalType": "address",
          "name": "",
          "type": "address"
        }
      ],
      "stateMutability": "view",
      "type": "function"
    },
    {
      "inputs": [],
      "name": "totalWeight",
      "outputs": [
        {
          "internalType": "uint256",
          "name": "",
          "type": "uint256"
        }
      ],
      "stateMutability": "view",
      "type": "function"
    },
    {
      "inputs": [],
      "name": "updateAll",
      "outputs": [],
      "stateMutability": "nonpayable",
      "type": "function"
    },
    {
      "inputs": [
        {
          "internalType": "address[]",
          "name": "_gauges",
          "type": "address[]"
        }
      ],
      "name": "updateFor",
      "outputs": [],
      "stateMutability": "nonpayable",
      "type": "function"
    },
    {
      "inputs": [
        {
          "internalType": "uint256",
          "name": "start",
          "type": "uint256"
        },
        {
          "internalType": "uint256",
          "name": "end",
          "type": "uint256"
        }
      ],
      "name": "updateForRange",
      "outputs": [],
      "stateMutability": "nonpayable",
      "type": "function"
    },
    {
      "inputs": [
        {
          "internalType": "address",
          "name": "_gauge",
          "type": "address"
        }
      ],
      "name": "updateGauge",
      "outputs": [],
      "stateMutability": "nonpayable",
      "type": "function"
    },
    {
      "inputs": [
        {
          "internalType": "uint256",
          "name": "",
          "type": "uint256"
        }
      ],
      "name": "usedWeights",
      "outputs": [
        {
          "internalType": "uint256",
          "name": "",
          "type": "uint256"
        }
      ],
      "stateMutability": "view",
      "type": "function"
    },
    {
      "inputs": [],
      "name": "ve",
      "outputs": [
        {
          "internalType": "address",
          "name": "",
          "type": "address"
        }
      ],
      "stateMutability": "view",
      "type": "function"
    },
    {
      "inputs": [
        {
          "internalType": "uint256",
          "name": "tokenId",
          "type": "uint256"
        },
        {
          "internalType": "address[]",
          "name": "_poolVote",
          "type": "address[]"
        },
        {
          "internalType": "int256[]",
          "name": "_weights",
          "type": "int256[]"
        }
      ],
      "name": "vote",
      "outputs": [],
      "stateMutability": "nonpayable",
      "type": "function"
    },
    {
      "inputs": [
        {
          "internalType": "uint256",
          "name": "tokenId",
          "type": "uint256"
        },
        {
          "internalType": "address[]",
          "name": "_poolVote",
          "type": "address[]"
        },
        {
          "internalType": "int256[]",
          "name": "_weights",
          "type": "int256[]"
        }
      ],
      "name": "votePart",
      "outputs": [],
      "stateMutability": "nonpayable",
      "type": "function"
    },
    {
      "inputs": [
        {
          "internalType": "uint256",
          "name": "",
          "type": "uint256"
        },
        {
          "internalType": "address",
          "name": "",
          "type": "address"
        }
      ],
      "name": "votes",
      "outputs": [
        {
          "internalType": "int256",
          "name": "",
          "type": "int256"
        }
      ],
      "stateMutability": "view",
      "type": "function"
    },
    {
      "inputs": [
        {
          "internalType": "address",
          "name": "",
          "type": "address"
        }
      ],
      "name": "weights",
      "outputs": [
        {
          "internalType": "int256",
          "name": "",
          "type": "int256"
        }
      ],
      "stateMutability": "view",
      "type": "function"
    },
    {
      "inputs": [
        {
          "internalType": "address",
          "name": "_token",
          "type": "address"
        },
        {
          "internalType": "uint256",
          "name": "_tokenId",
          "type": "uint256"
        }
      ],
      "name": "whitelist",
      "outputs": [],
      "stateMutability": "nonpayable",
      "type": "function"
    }
  ],
  "transactionHash": "0xaad1fe4a52dadd357ca1d3bc1338e49b4d0c4ff42a0035e5f353d5d1cbf379f6",
  "args": [],
  "numDeployments": 1,
  "solcInputHash": "f0e188e35fd96b365cb9bd616b596351",
  "bytecode": "0x6080604052600160005534801561001557600080fd5b50613d9a806100256000396000f3fe608060405234801561001057600080fd5b50600436106102f15760003560e01c80637715ee751161019d578063ac4afa38116100e9578063ddbe883c116100a2578063ea94ee441161007c578063ea94ee4414610720578063eb4a78e014610733578063fc0c546a14610746578063fecdad601461075957600080fd5b8063ddbe883c146106da578063de838fc1146106ed578063e380fcad1461070057600080fd5b8063ac4afa381461063a578063b9a09fd51461064d578063c45a015514610676578063c527ee1f14610689578063d23254b41461069c578063d560b0d7146106c757600080fd5b80639b6a9d7211610156578063a7cac84611610130578063a7cac846146105bb578063a86a366d146105db578063a8c5d95a146105ee578063aa79979b1461061757600080fd5b80639b6a9d7214610582578063a5f4301e14610595578063a61c713a146105a857600080fd5b80637715ee751461050d57806379e93824146105205780637e1ddf64146105405780638053227a1461055357806396c82e571461056657806398fc55d81461056f57600080fd5b80633af32abf1161025c57806353d7869311610215578063666256aa116101ef578063666256aa146104cc578063698473e3146104df5780636a1b7ecc146104f25780636ecbe38a146104fa57600080fd5b806353d786931461049e57806353f38e6b146104a657806363453ae1146104b957600080fd5b80633af32abf1461040a5780633c6b16ab1461043d578063402914f514610450578063411b1f7714610470578063436596c4146104835780634c6e62b61461048b57600080fd5b806320b1cb6f116102ae57806320b1cb6f146103a357806323245216146103b65780632716ae66146103c95780632986c0e5146103db578063310bd74b146103e457806332145f90146103f757600080fd5b806306d6a1b2146102f6578063075461721461033c5780630d52333c1461034f5780631459457a146103625780631f850716146103775780632025e9b814610390575b600080fd5b61031f610304366004613381565b600a602052600090815260409020546001600160a01b031681565b6040516001600160a01b0390911681526020015b60405180910390f35b60065461031f906001600160a01b031681565b60045461031f906001600160a01b031681565b61037561037036600461339e565b61076c565b005b60015461031f906201000090046001600160a01b031681565b61037561039e3660046134ee565b61091a565b6103756103b13660046135ab565b61095e565b6103756103c43660046134ee565b610a14565b6008545b604051908152602001610333565b6103cd60125481565b6103756103f236600461360f565b610b26565b61037561040536600461360f565b610c29565b61042d610418366004613381565b60116020526000908152604090205460ff1681565b6040519015158152602001610333565b61037561044b36600461360f565b610de6565b6103cd61045e366004613381565b60146020526000908152604090205481565b61037561047e366004613628565b610f04565b610375610fe2565b610375610499366004613658565b61104c565b610375611206565b6103756104b4366004613699565b611217565b6103756104c7366004613381565b61124d565b6103756104da3660046136bb565b611259565b6103756104ed366004613628565b6113a4565b6103cd611479565b610375610508366004613381565b611488565b61037561051b3660046136bb565b611491565b6103cd61052e36600461360f565b600f6020526000908152604090205481565b61037561054e366004613728565b6115d6565b61037561056136600461377d565b611664565b6103cd60075481565b61037561057d3660046137ab565b6116e5565b610375610590366004613699565b611847565b61031f6105a3366004613381565b6118ad565b6103756105b63660046137d7565b611d9b565b6103cd6105c9366004613381565b600c6020526000908152604090205481565b61031f6105e9366004613699565b611e0d565b61031f6105fc366004613381565b600b602052600090815260409020546001600160a01b031681565b61042d610625366004613381565b60106020526000908152604090205460ff1681565b61031f61064836600461360f565b611e45565b61031f61065b366004613381565b6009602052600090815260409020546001600160a01b031681565b60025461031f906001600160a01b031681565b6103756106973660046134ee565b611e6f565b6103cd6106aa366004613628565b600d60209081526000928352604080842090915290825290205481565b6103756106d53660046134ee565b611f0c565b6103756106e8366004613658565b611f4c565b6103756106fb36600461384a565b6120d3565b6103cd61070e366004613381565b60136020526000908152604090205481565b61037561072e3660046137d7565b6122e3565b60055461031f906001600160a01b031681565b60035461031f906001600160a01b031681565b61037561076736600461384a565b612355565b600154610100900460ff166107875760015460ff161561078b565b303b155b6107f35760405162461bcd60e51b815260206004820152602e60248201527f496e697469616c697a61626c653a20636f6e747261637420697320616c72656160448201526d191e481a5b9a5d1a585b1a5e995960921b60648201526084015b60405180910390fd5b600154610100900460ff16158015610815576001805461ffff19166101011790555b6001805462010000600160b01b031916620100006001600160a01b0389811691820292909217909255600280546001600160a01b03191691881691909117905560408051637e062a3560e11b8152905163fc0c546a916004808201926020929091908290030181865afa158015610890573d6000803e3d6000fd5b505050506040513d601f19601f820116820180604052508101906108b491906138c4565b600380546001600160a01b03199081166001600160a01b03938416179091556004805482168784161790556005805482168684161790556006805490911691841691909117905560016000558015610912576001805461ff00191690555b505050505050565b60005b815181101561095a5761094882828151811061093b5761093b6138e1565b602002602001015161251e565b806109528161390d565b91505061091d565b5050565b60005b8251811015610a0f5782818151811061097c5761097c6138e1565b60200260200101516001600160a01b03166331279d3d338484815181106109a5576109a56138e1565b60200260200101516040518363ffffffff1660e01b81526004016109ca92919061396a565b600060405180830381600087803b1580156109e457600080fd5b505af11580156109f8573d6000803e3d6000fd5b505050508080610a079061390d565b915050610961565b505050565b6006546001600160a01b03163314610a3e5760405162461bcd60e51b81526004016107ea9061398e565b60005b815181101561095a576000828281518110610a5e57610a5e6138e1565b6020908102919091018101516001600160a01b0381166000908152601190925260409091205490915060ff16610acc5760405162461bcd60e51b8152602060048201526013602482015272185b1c9958591e481dda1a5d195b1a5cdd1959606a1b60448201526064016107ea565b6001600160a01b038116600081815260116020526040808220805460ff191690555133917f6661a7108aecd07864384529117d96c319c1163e3010c01390f6b704726e07de91a35080610b1e8161390d565b915050610a41565b60015460405163430c208160e01b815233600482015260248101839052620100009091046001600160a01b03169063430c208190604401602060405180830381865afa158015610b7a573d6000803e3d6000fd5b505050506040513d601f19601f82011682018060405250810190610b9e91906139af565b610bba5760405162461bcd60e51b81526004016107ea906139cc565b610bc38161274a565b60015460405163c1f0fb9f60e01b815260048101839052620100009091046001600160a01b03169063c1f0fb9f90602401600060405180830381600087803b158015610c0e57600080fd5b505af1158015610c22573d6000803e3d6000fd5b5050505050565b6000818152600e6020908152604080832080548251818502810185019093528083529192909190830182828015610c8957602002820191906000526020600020905b81546001600160a01b03168152600190910190602001808311610c6b575b5050505050905060008151905060008167ffffffffffffffff811115610cb157610cb161340f565b604051908082528060200260200182016040528015610cda578160200160208202803683370190505b5090506000805b83811015610dd957600d60008781526020019081526020016000206000868381518110610d1057610d106138e1565b60200260200101516001600160a01b03166001600160a01b0316815260200190815260200160002054838281518110610d4b57610d4b6138e1565b6020026020010181815250506000838281518110610d6b57610d6b6138e1565b602002602001015113610da057828181518110610d8a57610d8a6138e1565b6020026020010151610d9b906139ec565b610dbb565b828181518110610db257610db26138e1565b60200260200101515b610dc59083613a08565b915080610dd18161390d565b915050610ce1565b50610c228585848461295a565b80600003610e245760405162461bcd60e51b815260206004820152600b60248201526a1e995c9bc8185b5bdd5b9d60aa1b60448201526064016107ea565b6007546000819003610e635760405162461bcd60e51b8152602060048201526008602482015267217765696768747360c01b60448201526064016107ea565b600354610e7b906001600160a01b0316333085612d30565b600081610e9084670de0b6b3a7640000613a49565b610e9a9190613a7e565b90508015610eba578060126000828254610eb49190613a92565b90915550505b6003546040518481526001600160a01b039091169033907ff70d5c697de7ea828df48e5c4573cb2194c659f1901f70110c52b066dcf50826906020015b60405180910390a3505050565b3360009081526010602052604090205460ff16610f335760405162461bcd60e51b81526004016107ea90613aaa565b8115610f9d57600154604051634c3c15a760e11b815260048101849052620100009091046001600160a01b0316906398782b4e90602401600060405180830381600087803b158015610f8457600080fd5b505af1158015610f98573d6000803e3d6000fd5b505050505b60405182815233906001600160a01b038316907fae268d9aab12f3605f58efd74fd3801fa812b03fdb44317eb70f46dff0e19e22906020015b60405180910390a35050565b60085460005b8181101561095a5761103a600960006008848154811061100a5761100a6138e1565b60009182526020808320909101546001600160a01b0390811684529083019390935260409091019020541661251e565b806110448161390d565b915050610fe8565b6000811161106c5760405162461bcd60e51b81526004016107ea90613aca565b6001546040516331a9108f60e11b815260048101839052620100009091046001600160a01b031690636352211e90602401602060405180830381865afa1580156110ba573d6000803e3d6000fd5b505050506040513d601f19601f820116820180604052508101906110de91906138c4565b6001600160a01b0316336001600160a01b03161461110e5760405162461bcd60e51b81526004016107ea906139cc565b611116612d9b565b6001546040516339f890b560e21b815260048101849052620100009091046001600160a01b03169063e7e242d490602401602060405180830381865afa158015611164573d6000803e3d6000fd5b505050506040513d601f19601f820116820180604052508101906111889190613aea565b116111a55760405162461bcd60e51b81526004016107ea90613b03565b604051631c8db79360e31b81526001600160a01b03848116600483015283169063e46dbc98906024015b600060405180830381600087803b1580156111e957600080fd5b505af11580156111fd573d6000803e3d6000fd5b50505050505050565b60085461121590600090611847565b565b815b81811015610a0f5761123b600960006008848154811061100a5761100a6138e1565b806112458161390d565b915050611219565b6112568161251e565b50565b60015460405163430c208160e01b815233600482015260248101839052620100009091046001600160a01b03169063430c208190604401602060405180830381865afa1580156112ad573d6000803e3d6000fd5b505050506040513d601f19601f820116820180604052508101906112d191906139af565b6112ed5760405162461bcd60e51b81526004016107ea906139cc565b60005b835181101561139e5783818151811061130b5761130b6138e1565b60200260200101516001600160a01b031663a7852afa83858481518110611334576113346138e1565b60200260200101516040518363ffffffff1660e01b8152600401611359929190613b23565b600060405180830381600087803b15801561137357600080fd5b505af1158015611387573d6000803e3d6000fd5b5050505080806113969061390d565b9150506112f0565b50505050565b3360009081526010602052604090205460ff166113d35760405162461bcd60e51b81526004016107ea90613aaa565b811561143c576001546040516246b3bd60e81b815260048101849052620100009091046001600160a01b0316906346b3bd0090602401600060405180830381600087803b15801561142357600080fd5b505af1158015611437573d6000803e3d6000fd5b505050505b60405182815233906001600160a01b038316907f60940192810a6fb3bce3fd3e2e3a13fd6ccc7605e963fb87ee971aba829989bd90602001610fd6565b6000611483612d9b565b905090565b61125681612f1c565b60015460405163430c208160e01b815233600482015260248101839052620100009091046001600160a01b03169063430c208190604401602060405180830381865afa1580156114e5573d6000803e3d6000fd5b505050506040513d601f19601f8201168201806040525081019061150991906139af565b6115255760405162461bcd60e51b81526004016107ea906139cc565b60005b835181101561139e57838181518110611543576115436138e1565b60200260200101516001600160a01b031663a7852afa8385848151811061156c5761156c6138e1565b60200260200101516040518363ffffffff1660e01b8152600401611591929190613b23565b600060405180830381600087803b1580156115ab57600080fd5b505af11580156115bf573d6000803e3d6000fd5b5050505080806115ce9061390d565b915050611528565b6006546001600160a01b031633146116005760405162461bcd60e51b81526004016107ea9061398e565b60005b82518110156116405761162e838281518110611621576116216138e1565b6020026020010151612fff565b806116388161390d565b915050611603565b50600680546001600160a01b0319166001600160a01b039290921691909117905550565b6006546001600160a01b0316331461168e5760405162461bcd60e51b81526004016107ea9061398e565b6040516331170bc560e11b815281151560048201526001600160a01b0383169063622e178a90602401600060405180830381600087803b1580156116d157600080fd5b505af1158015610912573d6000803e3d6000fd5b600081116117055760405162461bcd60e51b81526004016107ea90613aca565b6001546040516331a9108f60e11b815260048101839052620100009091046001600160a01b031690636352211e90602401602060405180830381865afa158015611753573d6000803e3d6000fd5b505050506040513d601f19601f8201168201806040525081019061177791906138c4565b6001600160a01b0316336001600160a01b0316146117a75760405162461bcd60e51b81526004016107ea906139cc565b6117af612d9b565b6001546040516339f890b560e21b815260048101849052620100009091046001600160a01b03169063e7e242d490602401602060405180830381865afa1580156117fd573d6000803e3d6000fd5b505050506040513d601f19601f820116820180604052508101906118219190613aea565b1161183e5760405162461bcd60e51b81526004016107ea90613b03565b61095a82612fff565b815b81811015610a0f5761189b600960006008848154811061186b5761186b6138e1565b60009182526020808320909101546001600160a01b03908116845290830193909352604090910190205416612f1c565b806118a58161390d565b915050611849565b6001600160a01b03818116600090815260096020526040812054909116156119005760405162461bcd60e51b815260206004820152600660248201526565786973747360d01b60448201526064016107ea565b60025460405163e5e31b1360e01b81526001600160a01b0384811660048301529091169063e5e31b1390602401602060405180830381865afa15801561194a573d6000803e3d6000fd5b505050506040513d601f19601f8201168201806040525081019061196e91906139af565b6119a25760405162461bcd60e51b8152602060048201526005602482015264085c1bdbdb60da1b60448201526064016107ea565b600080836001600160a01b0316639d63848a6040518163ffffffff1660e01b81526004016040805180830381865afa1580156119e2573d6000803e3d6000fd5b505050506040513d601f19601f82011682018060405250810190611a069190613b3c565b6001600160a01b038216600090815260116020526040902054919350915060ff168015611a4b57506001600160a01b03811660009081526011602052604090205460ff165b611a865760405162461bcd60e51b815260206004820152600c60248201526b085dda1a5d195b1a5cdd195960a21b60448201526064016107ea565b60408051600380825260808201909252600091602082016060803683370190505090508281600081518110611abd57611abd6138e1565b60200260200101906001600160a01b031690816001600160a01b0316815250508181600181518110611af157611af16138e1565b6001600160a01b039283166020918202929092010152600354811690841614801590611b2b57506003546001600160a01b03838116911614155b15611b755760035481516001600160a01b039091169082906002908110611b5457611b546138e1565b60200260200101906001600160a01b031690816001600160a01b0316815250505b60055460405163897cd6b360e01b81526000916001600160a01b03169063897cd6b390611ba6908590600401613b6b565b6020604051808303816000875af1158015611bc5573d6000803e3d6000fd5b505050506040513d601f19601f82011682018060405250810190611be991906138c4565b600480546001546040516358c14b6560e01b81529394506000936001600160a01b03928316936358c14b6593611c30938d93899362010000909204909216918a9101613b7e565b6020604051808303816000875af1158015611c4f573d6000803e3d6000fd5b505050506040513d601f19601f82011682018060405250810190611c7391906138c4565b600354909150611c8f906001600160a01b0316826000196130ab565b6001600160a01b038082166000818152600b6020908152604080832080548689166001600160a01b031991821617909155948c16808452600983528184208054871686179055938352600a8252808320805490951690931790935560109092529020805460ff19166001179055611d0581612f1c565b600880546001810182556000919091527ff3f7a9fe364faab93b216da50a3214154f22a0a2b415b23a84c8169e8b636ee30180546001600160a01b0319166001600160a01b03898116918217909255604051338152909184811691908416907f48d3c521fd0d5541640f58c6d6381eed7cb2e8c9df421ae165a4f4c2d221ee0d9060200160405180910390a49695505050505050565b3360009081526010602052604090205460ff16611dca5760405162461bcd60e51b81526004016107ea90613aaa565b604080518481526020810183905233916001600160a01b038516917fdcbc1c05240f31ff3ad067ef1ee35ce4997762752e3a095284754544f4c709d79101610ef7565b600e6020528160005260406000208181548110611e2957600080fd5b6000918252602090912001546001600160a01b03169150829050565b60088181548110611e5557600080fd5b6000918252602090912001546001600160a01b0316905081565b60005b815181101561095a57818181518110611e8d57611e8d6138e1565b60200260200101516001600160a01b031663d294f0936040518163ffffffff1660e01b815260040160408051808303816000875af1158015611ed3573d6000803e3d6000fd5b505050506040513d601f19601f82011682018060405250810190611ef79190613bbc565b50508080611f049061390d565b915050611e72565b60005b815181101561095a57611f3a828281518110611f2d57611f2d6138e1565b6020026020010151612f1c565b80611f448161390d565b915050611f0f565b60008111611f6c5760405162461bcd60e51b81526004016107ea90613aca565b6001546040516331a9108f60e11b815260048101839052620100009091046001600160a01b031690636352211e90602401602060405180830381865afa158015611fba573d6000803e3d6000fd5b505050506040513d601f19601f82011682018060405250810190611fde91906138c4565b6001600160a01b0316336001600160a01b03161461200e5760405162461bcd60e51b81526004016107ea906139cc565b612016612d9b565b6001546040516339f890b560e21b815260048101849052620100009091046001600160a01b03169063e7e242d490602401602060405180830381865afa158015612064573d6000803e3d6000fd5b505050506040513d601f19601f820116820180604052508101906120889190613aea565b116120a55760405162461bcd60e51b81526004016107ea90613b03565b604051633d509c9760e01b81526001600160a01b038481166004830152831690633d509c97906024016111cf565b60015460405163430c208160e01b815233600482015260248101879052620100009091046001600160a01b03169063430c208190604401602060405180830381865afa158015612127573d6000803e3d6000fd5b505050506040513d601f19601f8201168201806040525081019061214b91906139af565b6121675760405162461bcd60e51b81526004016107ea906139cc565b8281146121a05760405162461bcd60e51b81526020600482015260076024820152662161727261797360c81b60448201526064016107ea565b6000805b8481101561222b5760008484838181106121c0576121c06138e1565b90506020020135136121f3578383828181106121de576121de6138e1565b905060200201356121ee906139ec565b61220d565b838382818110612205576122056138e1565b905060200201355b6122179083613a08565b9150806122238161390d565b9150506121a4565b50606481131561226f5760405162461bcd60e51b815260206004820152600f60248201526e1d1bdd185b159bdd1955d95a59da1d608a1b60448201526064016107ea565b606490506109128686868080602002602001604051908101604052809392919081815260200183836020028082843760009201919091525050604080516020808a0282810182019093528982529093508992508891829185019084908082843760009201919091525087925061295a915050565b3360009081526010602052604090205460ff166123125760405162461bcd60e51b81526004016107ea90613aaa565b604080518481526020810183905233916001600160a01b038516917ff341246adaac6f497bc2a656f546ab9e182111d630394f0c57c710a59a2cb5679101610ef7565b60015460405163430c208160e01b815233600482015260248101879052620100009091046001600160a01b03169063430c208190604401602060405180830381865afa1580156123a9573d6000803e3d6000fd5b505050506040513d601f19601f820116820180604052508101906123cd91906139af565b6123e95760405162461bcd60e51b81526004016107ea906139cc565b8281146124225760405162461bcd60e51b81526020600482015260076024820152662161727261797360c81b60448201526064016107ea565b6000805b848110156124ad576000848483818110612442576124426138e1565b905060200201351361247557838382818110612460576124606138e1565b90506020020135612470906139ec565b61248f565b838382818110612487576124876138e1565b905060200201355b6124999083613a08565b9150806124a58161390d565b915050612426565b506109128686868080602002602001604051908101604052809392919081815260200183836020028082843760009201919091525050604080516020808a0282810182019093528982529093508992508891829185019084908082843760009201919091525087925061295a915050565b6000546001146125615760405162461bcd60e51b815260206004820152600e60248201526d1499595b9d1c985b9d0818d85b1b60921b60448201526064016107ea565b6002600081905550600660009054906101000a90046001600160a01b03166001600160a01b031663a83627de6040518163ffffffff1660e01b81526004016020604051808303816000875af11580156125be573d6000803e3d6000fd5b505050506040513d601f19601f820116820180604052508101906125e29190613aea565b506125ec81612f1c565b6001600160a01b0381811660008181526014602052604090819020546003549151634cde602960e11b81529190931660048201526399bcc05290602401602060405180830381865afa158015612646573d6000803e3d6000fd5b505050506040513d601f19601f8201168201806040525081019061266a9190613aea565b811180156126845750600061268262093a8083613a7e565b115b15612741576001600160a01b0382811660008181526014602052604080822091909155600354905163b66503cf60e01b815292166004830152602482018390529063b66503cf90604401600060405180830381600087803b1580156126e857600080fd5b505af11580156126fc573d6000803e3d6000fd5b50506040518381526001600160a01b03851692503391507f4fa9693cae526341d334e2862ca2413b2e503f1266255f9e0869fb36e6d89b179060200160405180910390a35b50506001600055565b6000818152600e6020526040812080549091805b8281101561291e57600084828154811061277a5761277a6138e1565b6000918252602080832090910154888352600d825260408084206001600160a01b0392831680865290845281852054600990945293205492935090916127c09116612f1c565b6001600160a01b0382166000908152600c6020526040812080548392906127e8908490613be0565b90915550506000878152600d602090815260408083206001600160a01b03861684529091528120805483929061281f908490613be0565b909155505060008113156128c3576001600160a01b0382811660009081526009602090815260408083205484168352600b9091529081902054905163278afc8b60e21b815260048101849052602481018a9052911690639e2bf22c90604401600060405180830381600087803b15801561289857600080fd5b505af11580156128ac573d6000803e3d6000fd5b5050505080846128bc9190613a08565b93506128d0565b6128cd8185613be0565b93505b60408051888152602081018390527f6b3894ce60b9bbe9d93f1a4e6fc25b6b93cd8222e73ab6348d79c596f5b51de9910160405180910390a1505080806129169061390d565b91505061275e565b5080600760008282546129319190613c1f565b90915550506000848152600f60209081526040808320839055600e909152812061139e9161333a565b6129638461274a565b82516001546040516339f890b560e21b8152600481018790526000916201000090046001600160a01b03169063e7e242d490602401602060405180830381865afa1580156129b5573d6000803e3d6000fd5b505050506040513d601f19601f820116820180604052508101906129d99190613aea565b905060008060005b84811015612c905760008882815181106129fd576129fd6138e1565b6020908102919091018101516001600160a01b038082166000908152600990935260408320548b51929450169190899088908c9087908110612a4157612a416138e1565b6020026020010151612a539190613c36565b612a5d9190613cbb565b60008d8152600d602090815260408083206001600160a01b038816845290915290205490915015612ac15760405162461bcd60e51b815260206004820152600e60248201526d191d5c1b1a58d85d19481c1bdbdb60921b60448201526064016107ea565b80600003612afe5760405162461bcd60e51b815260206004820152600a6024820152693d32b937903837bbb2b960b11b60448201526064016107ea565b612b0782612f1c565b60008c8152600e6020908152604080832080546001810182559084528284200180546001600160a01b0319166001600160a01b0388169081179091558352600c90915281208054839290612b5c908490613a08565b909155505060008c8152600d602090815260408083206001600160a01b038716845290915281208054839290612b93908490613a08565b90915550506000811315612c1a576001600160a01b038083166000908152600b60205260409081902054905163f320772360e01b815260048101849052602481018f905291169063f320772390604401600060405180830381600087803b158015612bfd57600080fd5b505af1158015612c11573d6000803e3d6000fd5b50505050612c26565b612c23816139ec565b90505b612c308186613a08565b9450612c3c8187613a08565b604080518e81526020810184905291975033917f1263a2295e53acd6ef8f655b8afc11fa0f2cf11925be7aa1757d741ef32a926c910160405180910390a25050508080612c889061390d565b9150506129e1565b506000811315612cfe5760015460405163fd4a77f160e01b8152600481018a9052620100009091046001600160a01b03169063fd4a77f190602401600060405180830381600087803b158015612ce557600080fd5b505af1158015612cf9573d6000803e3d6000fd5b505050505b8160076000828254612d109190613a92565b90915550506000978852600f602052604090972096909655505050505050565b6040516001600160a01b038085166024830152831660448201526064810182905261139e9085906323b872dd60e01b906084015b60408051601f198184030181529190526020810180516001600160e01b03166001600160e01b03199093169290921790915261315d565b6003546006546040516370a0823160e01b81526001600160a01b03918216600482015260009260149216906370a0823190602401602060405180830381865afa158015612dec573d6000803e3d6000fd5b505050506040513d601f19601f82011682018060405250810190612e109190613aea565b600160029054906101000a90046001600160a01b03166001600160a01b03166318160ddd6040518163ffffffff1660e01b8152600401602060405180830381865afa158015612e63573d6000803e3d6000fd5b505050506040513d601f19601f82011682018060405250810190612e879190613aea565b600360009054906101000a90046001600160a01b03166001600160a01b03166318160ddd6040518163ffffffff1660e01b8152600401602060405180830381865afa158015612eda573d6000803e3d6000fd5b505050506040513d601f19601f82011682018060405250810190612efe9190613aea565b612f089190613c1f565b612f129190613c1f565b6114839190613a7e565b6001600160a01b038082166000908152600a6020908152604080832054909316808352600c9091529181205490811315612fde576001600160a01b038316600090815260136020526040812080546012549182905591612f7c8383613c1f565b90508015610912576000670de0b6b3a7640000612f998387613a49565b612fa39190613a7e565b6001600160a01b038816600090815260146020526040812080549293508392909190612fd0908490613a92565b909155505050505050505050565b6012546001600160a01b038416600090815260136020526040902055505050565b6001600160a01b03811660009081526011602052604090205460ff161561305e5760405162461bcd60e51b8152602060048201526013602482015272185b1c9958591e481dda1a5d195b1a5cdd1959606a1b60448201526064016107ea565b6001600160a01b038116600081815260116020526040808220805460ff191660011790555133917f6661a7108aecd07864384529117d96c319c1163e3010c01390f6b704726e07de91a350565b604051636eb1769f60e11b81523060048201526001600160a01b038381166024830152600091839186169063dd62ed3e90604401602060405180830381865afa1580156130fc573d6000803e3d6000fd5b505050506040513d601f19601f820116820180604052508101906131209190613aea565b61312a9190613a92565b6040516001600160a01b03851660248201526044810182905290915061139e90859063095ea7b360e01b90606401612d64565b60006131b2826040518060400160405280602081526020017f5361666545524332303a206c6f772d6c6576656c2063616c6c206661696c6564815250856001600160a01b031661322f9092919063ffffffff16565b805190915015610a0f57808060200190518101906131d091906139af565b610a0f5760405162461bcd60e51b815260206004820152602a60248201527f5361666545524332303a204552433230206f7065726174696f6e20646964206e6044820152691bdd081cdd58d8d9595960b21b60648201526084016107ea565b60606001600160a01b0384163b6132885760405162461bcd60e51b815260206004820152601d60248201527f416464726573733a2063616c6c20746f206e6f6e2d636f6e747261637400000060448201526064016107ea565b600080856001600160a01b0316856040516132a39190613d15565b6000604051808303816000865af19150503d80600081146132e0576040519150601f19603f3d011682016040523d82523d6000602084013e6132e5565b606091505b50915091506132f5828286613301565b925050505b9392505050565b606083156133105750816132fa565b8251156133205782518084602001fd5b8160405162461bcd60e51b81526004016107ea9190613d31565b508054600082559060005260206000209081019061125691905b808211156133685760008155600101613354565b5090565b6001600160a01b038116811461125657600080fd5b60006020828403121561339357600080fd5b81356132fa8161336c565b600080600080600060a086880312156133b657600080fd5b85356133c18161336c565b945060208601356133d18161336c565b935060408601356133e18161336c565b925060608601356133f18161336c565b915060808601356134018161336c565b809150509295509295909350565b634e487b7160e01b600052604160045260246000fd5b604051601f8201601f1916810167ffffffffffffffff8111828210171561344e5761344e61340f565b604052919050565b600067ffffffffffffffff8211156134705761347061340f565b5060051b60200190565b600082601f83011261348b57600080fd5b813560206134a061349b83613456565b613425565b82815260059290921b840181019181810190868411156134bf57600080fd5b8286015b848110156134e35780356134d68161336c565b83529183019183016134c3565b509695505050505050565b60006020828403121561350057600080fd5b813567ffffffffffffffff81111561351757600080fd5b6135238482850161347a565b949350505050565b600082601f83011261353c57600080fd5b8135602061354c61349b83613456565b82815260059290921b8401810191818101908684111561356b57600080fd5b8286015b848110156134e357803567ffffffffffffffff81111561358f5760008081fd5b61359d8986838b010161347a565b84525091830191830161356f565b600080604083850312156135be57600080fd5b823567ffffffffffffffff808211156135d657600080fd5b6135e28683870161347a565b935060208501359150808211156135f857600080fd5b506136058582860161352b565b9150509250929050565b60006020828403121561362157600080fd5b5035919050565b6000806040838503121561363b57600080fd5b82359150602083013561364d8161336c565b809150509250929050565b60008060006060848603121561366d57600080fd5b83356136788161336c565b925060208401356136888161336c565b929592945050506040919091013590565b600080604083850312156136ac57600080fd5b50508035926020909101359150565b6000806000606084860312156136d057600080fd5b833567ffffffffffffffff808211156136e857600080fd5b6136f48783880161347a565b9450602086013591508082111561370a57600080fd5b506137178682870161352b565b925050604084013590509250925092565b6000806040838503121561373b57600080fd5b823567ffffffffffffffff81111561375257600080fd5b61375e8582860161347a565b925050602083013561364d8161336c565b801515811461125657600080fd5b6000806040838503121561379057600080fd5b823561379b8161336c565b9150602083013561364d8161376f565b600080604083850312156137be57600080fd5b82356137c98161336c565b946020939093013593505050565b6000806000606084860312156137ec57600080fd5b8335925060208401356136888161336c565b60008083601f84011261381057600080fd5b50813567ffffffffffffffff81111561382857600080fd5b6020830191508360208260051b850101111561384357600080fd5b9250929050565b60008060008060006060868803121561386257600080fd5b85359450602086013567ffffffffffffffff8082111561388157600080fd5b61388d89838a016137fe565b909650945060408801359150808211156138a657600080fd5b506138b3888289016137fe565b969995985093965092949392505050565b6000602082840312156138d657600080fd5b81516132fa8161336c565b634e487b7160e01b600052603260045260246000fd5b634e487b7160e01b600052601160045260246000fd5b60006001820161391f5761391f6138f7565b5060010190565b600081518084526020808501945080840160005b8381101561395f5781516001600160a01b03168752958201959082019060010161393a565b509495945050505050565b6001600160a01b038316815260406020820181905260009061352390830184613926565b60208082526007908201526610b6b4b73a32b960c91b604082015260600190565b6000602082840312156139c157600080fd5b81516132fa8161376f565b60208082526006908201526510b7bbb732b960d11b604082015260600190565b6000600160ff1b8201613a0157613a016138f7565b5060000390565b600080821280156001600160ff1b0384900385131615613a2a57613a2a6138f7565b600160ff1b8390038412811615613a4357613a436138f7565b50500190565b6000816000190483118215151615613a6357613a636138f7565b500290565b634e487b7160e01b600052601260045260246000fd5b600082613a8d57613a8d613a68565b500490565b60008219821115613aa557613aa56138f7565b500190565b60208082526006908201526521676175676560d01b604082015260600190565b60208082526006908201526510ba37b5b2b760d11b604082015260600190565b600060208284031215613afc57600080fd5b5051919050565b60208082526006908201526510b837bbb2b960d11b604082015260600190565b8281526040602082015260006135236040830184613926565b60008060408385031215613b4f57600080fd5b8251613b5a8161336c565b602084015190925061364d8161336c565b6020815260006132fa6020830184613926565b6001600160a01b038581168252848116602083015283166040820152608060608201819052600090613bb290830184613926565b9695505050505050565b60008060408385031215613bcf57600080fd5b505080516020909101519092909150565b60008083128015600160ff1b850184121615613bfe57613bfe6138f7565b6001600160ff1b0384018313811615613c1957613c196138f7565b50500390565b600082821015613c3157613c316138f7565b500390565b60006001600160ff1b0381841382841380821686840486111615613c5c57613c5c6138f7565b600160ff1b6000871282811687830589121615613c7b57613c7b6138f7565b60008712925087820587128484161615613c9757613c976138f7565b87850587128184161615613cad57613cad6138f7565b505050929093029392505050565b600082613cca57613cca613a68565b600160ff1b821460001984141615613ce457613ce46138f7565b500590565b60005b83811015613d04578181015183820152602001613cec565b8381111561139e5750506000910152565b60008251613d27818460208701613ce9565b9190910192915050565b6020815260008251806020840152613d50816040850160208701613ce9565b601f01601f1916919091016040019291505056fea2646970667358221220b818569696befdfd0a67cb036e83bbbba8eb078054680359bb67ea4dad9583cb64736f6c634300080d0033",
  "devdoc": {
    "kind": "dev",
    "methods": {
      "attachTokenToGauge(uint256,address)": {
        "details": "A gauge should be able to attach a token for preventing transfers/withdraws."
      },
      "claimBribes(address[],address[][],uint256)": {
        "details": "Batch claim rewards from given bribe contracts for given tokenId."
      },
      "claimFees(address[],address[][],uint256)": {
        "details": "Claim fees from given bribes."
      },
      "claimRewards(address[],address[][])": {
        "details": "Batch claim rewards from given gauges."
      },
      "createGauge(address)": {
        "details": "Create gauge for given pool. Only for a pool with whitelisted tokens."
      },
      "detachTokenFromGauge(uint256,address)": {
        "details": "Detach given token."
      },
      "distribute(address)": {
        "details": "Get emission from minter and notify rewards for given gauge."
      },
      "distributeAll()": {
        "details": "Distribute rewards for all pools."
      },
      "distributeFees(address[])": {
        "details": "Move fees from deposited pools to bribes for given gauges."
      },
      "emitDeposit(uint256,address,uint256)": {
        "details": "Emit deposit event for easily handling external actions."
      },
      "emitWithdraw(uint256,address,uint256)": {
        "details": "Emit withdraw event for easily handling external actions."
      },
      "listingFee()": {
        "details": "Amount of tokens required to be hold for whitelisting."
      },
      "notifyRewardAmount(uint256)": {
        "details": "Add rewards to this contract. Usually it is VoltMinter."
      },
      "poke(uint256)": {
        "details": "Resubmit exist votes for given token. For internal purposes."
      },
      "poolsLength()": {
        "details": "Length of pools"
      },
      "registerRewardToken(address,address,uint256)": {
        "details": "Add a token to a gauge/bribe as possible reward."
      },
      "removeRewardToken(address,address,uint256)": {
        "details": "Remove a token from a gauge/bribe allowed rewards list."
      },
      "reset(uint256)": {
        "details": "Remove all votes for given tokenId."
      },
      "updateAll()": {
        "details": "Update all gauges."
      },
      "updateFor(address[])": {
        "details": "Update given gauges."
      },
      "updateForRange(uint256,uint256)": {
        "details": "Update gauges by indexes in a range."
      },
      "updateGauge(address)": {
        "details": "Update reward info for given gauge."
      },
      "vote(uint256,address[],int256[])": {
        "details": "Vote for given pools using a vote power of given tokenId. Reset previous votes."
      },
      "whitelist(address,uint256)": {
        "details": "Add token to whitelist. Only pools with whitelisted tokens can be added to gauge."
      }
    },
    "stateVariables": {
      "DURATION": {
        "details": "Rewards are released over 7 days"
      },
      "bribes": {
        "details": "gauge => bribe"
      },
      "factory": {
        "details": "VoltFactory"
      },
      "gauges": {
        "details": "pool => gauge"
      },
      "poolForGauge": {
        "details": "gauge => pool"
      },
      "poolVote": {
        "details": "nft => pools"
      },
      "pools": {
        "details": "All pools viable for incentives"
      },
      "totalWeight": {
        "details": "Total voting weight"
      },
      "usedWeights": {
        "details": "nft => total voting weight of user"
      },
      "ve": {
        "details": "The ve token that governs these contracts"
      },
      "votes": {
        "details": "nft => pool => votes"
      },
      "weights": {
        "details": "pool => weight"
      }
    },
    "version": 1
  },
  "userdoc": {
    "kind": "user",
    "methods": {},
    "version": 1
  },
  "storageLayout": {
    "storage": [
      {
        "astId": 451,
        "contract": "contracts/base/vote/VoltVoterUpgradeable.sol:VoltVoterUpgradeable",
        "label": "_unlocked",
        "offset": 0,
        "slot": "0",
        "type": "t_uint256"
      },
      {
        "astId": 27449,
        "contract": "contracts/base/vote/VoltVoterUpgradeable.sol:VoltVoterUpgradeable",
        "label": "_initialized",
        "offset": 0,
        "slot": "1",
        "type": "t_bool"
      },
      {
        "astId": 27452,
        "contract": "contracts/base/vote/VoltVoterUpgradeable.sol:VoltVoterUpgradeable",
        "label": "_initializing",
        "offset": 1,
        "slot": "1",
        "type": "t_bool"
      },
      {
        "astId": 22376,
        "contract": "contracts/base/vote/VoltVoterUpgradeable.sol:VoltVoterUpgradeable",
        "label": "ve",
        "offset": 2,
        "slot": "1",
        "type": "t_address"
      },
      {
        "astId": 22379,
        "contract": "contracts/base/vote/VoltVoterUpgradeable.sol:VoltVoterUpgradeable",
        "label": "factory",
        "offset": 0,
        "slot": "2",
        "type": "t_address"
      },
      {
        "astId": 22381,
        "contract": "contracts/base/vote/VoltVoterUpgradeable.sol:VoltVoterUpgradeable",
        "label": "token",
        "offset": 0,
        "slot": "3",
        "type": "t_address"
      },
      {
        "astId": 22383,
        "contract": "contracts/base/vote/VoltVoterUpgradeable.sol:VoltVoterUpgradeable",
        "label": "gaugeFactory",
        "offset": 0,
        "slot": "4",
        "type": "t_address"
      },
      {
        "astId": 22385,
        "contract": "contracts/base/vote/VoltVoterUpgradeable.sol:VoltVoterUpgradeable",
        "label": "bribeFactory",
        "offset": 0,
        "slot": "5",
        "type": "t_address"
      },
      {
        "astId": 22391,
        "contract": "contracts/base/vote/VoltVoterUpgradeable.sol:VoltVoterUpgradeable",
        "label": "minter",
        "offset": 0,
        "slot": "6",
        "type": "t_address"
      },
      {
        "astId": 22394,
        "contract": "contracts/base/vote/VoltVoterUpgradeable.sol:VoltVoterUpgradeable",
        "label": "totalWeight",
        "offset": 0,
        "slot": "7",
        "type": "t_uint256"
      },
      {
        "astId": 22398,
        "contract": "contracts/base/vote/VoltVoterUpgradeable.sol:VoltVoterUpgradeable",
        "label": "pools",
        "offset": 0,
        "slot": "8",
        "type": "t_array(t_address)dyn_storage"
      },
      {
        "astId": 22403,
        "contract": "contracts/base/vote/VoltVoterUpgradeable.sol:VoltVoterUpgradeable",
        "label": "gauges",
        "offset": 0,
        "slot": "9",
        "type": "t_mapping(t_address,t_address)"
      },
      {
        "astId": 22408,
        "contract": "contracts/base/vote/VoltVoterUpgradeable.sol:VoltVoterUpgradeable",
        "label": "poolForGauge",
        "offset": 0,
        "slot": "10",
        "type": "t_mapping(t_address,t_address)"
      },
      {
        "astId": 22413,
        "contract": "contracts/base/vote/VoltVoterUpgradeable.sol:VoltVoterUpgradeable",
        "label": "bribes",
        "offset": 0,
        "slot": "11",
        "type": "t_mapping(t_address,t_address)"
      },
      {
        "astId": 22418,
        "contract": "contracts/base/vote/VoltVoterUpgradeable.sol:VoltVoterUpgradeable",
        "label": "weights",
        "offset": 0,
        "slot": "12",
        "type": "t_mapping(t_address,t_int256)"
      },
      {
        "astId": 22425,
        "contract": "contracts/base/vote/VoltVoterUpgradeable.sol:VoltVoterUpgradeable",
        "label": "votes",
        "offset": 0,
        "slot": "13",
        "type": "t_mapping(t_uint256,t_mapping(t_address,t_int256))"
      },
      {
        "astId": 22431,
        "contract": "contracts/base/vote/VoltVoterUpgradeable.sol:VoltVoterUpgradeable",
        "label": "poolVote",
        "offset": 0,
        "slot": "14",
        "type": "t_mapping(t_uint256,t_array(t_address)dyn_storage)"
      },
      {
        "astId": 22436,
        "contract": "contracts/base/vote/VoltVoterUpgradeable.sol:VoltVoterUpgradeable",
        "label": "usedWeights",
        "offset": 0,
        "slot": "15",
        "type": "t_mapping(t_uint256,t_uint256)"
      },
      {
        "astId": 22440,
        "contract": "contracts/base/vote/VoltVoterUpgradeable.sol:VoltVoterUpgradeable",
        "label": "isGauge",
        "offset": 0,
        "slot": "16",
        "type": "t_mapping(t_address,t_bool)"
      },
      {
        "astId": 22444,
        "contract": "contracts/base/vote/VoltVoterUpgradeable.sol:VoltVoterUpgradeable",
        "label": "isWhitelisted",
        "offset": 0,
        "slot": "17",
        "type": "t_mapping(t_address,t_bool)"
      },
      {
        "astId": 22446,
        "contract": "contracts/base/vote/VoltVoterUpgradeable.sol:VoltVoterUpgradeable",
        "label": "index",
        "offset": 0,
        "slot": "18",
        "type": "t_uint256"
      },
      {
        "astId": 22450,
        "contract": "contracts/base/vote/VoltVoterUpgradeable.sol:VoltVoterUpgradeable",
        "label": "supplyIndex",
        "offset": 0,
        "slot": "19",
        "type": "t_mapping(t_address,t_uint256)"
      },
      {
        "astId": 22454,
        "contract": "contracts/base/vote/VoltVoterUpgradeable.sol:VoltVoterUpgradeable",
        "label": "claimable",
        "offset": 0,
        "slot": "20",
        "type": "t_mapping(t_address,t_uint256)"
      }
    ],
    "types": {
      "t_address": {
        "encoding": "inplace",
        "label": "address",
        "numberOfBytes": "20"
      },
      "t_array(t_address)dyn_storage": {
        "base": "t_address",
        "encoding": "dynamic_array",
        "label": "address[]",
        "numberOfBytes": "32"
      },
      "t_bool": {
        "encoding": "inplace",
        "label": "bool",
        "numberOfBytes": "1"
      },
      "t_int256": {
        "encoding": "inplace",
        "label": "int256",
        "numberOfBytes": "32"
      },
      "t_mapping(t_address,t_address)": {
        "encoding": "mapping",
        "key": "t_address",
        "label": "mapping(address => address)",
        "numberOfBytes": "32",
        "value": "t_address"
      },
      "t_mapping(t_address,t_bool)": {
        "encoding": "mapping",
        "key": "t_address",
        "label": "mapping(address => bool)",
        "numberOfBytes": "32",
        "value": "t_bool"
      },
      "t_mapping(t_address,t_int256)": {
        "encoding": "mapping",
        "key": "t_address",
        "label": "mapping(address => int256)",
        "numberOfBytes": "32",
        "value": "t_int256"
      },
      "t_mapping(t_address,t_uint256)": {
        "encoding": "mapping",
        "key": "t_address",
        "label": "mapping(address => uint256)",
        "numberOfBytes": "32",
        "value": "t_uint256"
      },
      "t_mapping(t_uint256,t_array(t_address)dyn_storage)": {
        "encoding": "mapping",
        "key": "t_uint256",
        "label": "mapping(uint256 => address[])",
        "numberOfBytes": "32",
        "value": "t_array(t_address)dyn_storage"
      },
      "t_mapping(t_uint256,t_mapping(t_address,t_int256))": {
        "encoding": "mapping",
        "key": "t_uint256",
        "label": "mapping(uint256 => mapping(address => int256))",
        "numberOfBytes": "32",
        "value": "t_mapping(t_address,t_int256)"
      },
      "t_mapping(t_uint256,t_uint256)": {
        "encoding": "mapping",
        "key": "t_uint256",
        "label": "mapping(uint256 => uint256)",
        "numberOfBytes": "32",
        "value": "t_uint256"
      },
      "t_uint256": {
        "encoding": "inplace",
        "label": "uint256",
        "numberOfBytes": "32"
      }
    }
  }
}