{
  "_format": "hh-sol-artifact-1",
  "contractName": "Minter",
  "sourceName": "contracts/base/token/Minter.sol",
  "abi": [
    {
      "inputs": [
        {
          "internalType": "address",
          "name": "__ve",
          "type": "address"
        },
        {
          "internalType": "address",
          "name": "__controller",
          "type": "address"
        }
      ],
      "stateMutability": "nonpayable",
      "type": "constructor"
    },
    {
      "anonymous": false,
      "inputs": [
        {
          "indexed": true,
          "internalType": "bytes32",
          "name": "role",
          "type": "bytes32"
        },
        {
          "indexed": true,
          "internalType": "address",
          "name": "account",
          "type": "address"
        },
        {
          "indexed": true,
          "internalType": "address",
          "name": "sender",
          "type": "address"
        }
      ],
      "name": "RoleGranted",
      "type": "event"
    },
    {
      "anonymous": false,
      "inputs": [
        {
          "indexed": true,
          "internalType": "bytes32",
          "name": "role",
          "type": "bytes32"
        },
        {
          "indexed": true,
          "internalType": "address",
          "name": "account",
          "type": "address"
        },
        {
          "indexed": true,
          "internalType": "address",
          "name": "sender",
          "type": "address"
        }
      ],
      "name": "RoleRevoked",
      "type": "event"
    },
    {
      "anonymous": false,
      "inputs": [
        {
          "indexed": true,
          "internalType": "address",
          "name": "sender",
          "type": "address"
        },
        {
          "indexed": false,
          "internalType": "uint256",
          "name": "veDistAmount",
          "type": "uint256"
        },
        {
          "indexed": false,
          "internalType": "uint256",
          "name": "voterAmount",
          "type": "uint256"
        }
      ],
      "name": "Send",
      "type": "event"
    },
    {
      "inputs": [],
      "name": "DEFAULT_ADMIN_ROLE",
      "outputs": [
        {
          "internalType": "bytes32",
          "name": "",
          "type": "bytes32"
        }
      ],
      "stateMutability": "view",
      "type": "function"
    },
    {
      "inputs": [],
      "name": "_token",
      "outputs": [
        {
          "internalType": "contract IERC20",
          "name": "",
          "type": "address"
        }
      ],
      "stateMutability": "view",
      "type": "function"
    },
    {
      "inputs": [],
      "name": "_ve",
      "outputs": [
        {
          "internalType": "contract IVe",
          "name": "",
          "type": "address"
        }
      ],
      "stateMutability": "view",
      "type": "function"
    },
    {
      "inputs": [],
      "name": "activeperiod",
      "outputs": [
        {
          "internalType": "uint256",
          "name": "",
          "type": "uint256"
        }
      ],
      "stateMutability": "view",
      "type": "function"
    },
    {
      "inputs": [
        {
          "internalType": "uint256",
          "name": "_veDistPerWeek",
          "type": "uint256"
        }
      ],
      "name": "adminSetVeDistPerWeek",
      "outputs": [],
      "stateMutability": "nonpayable",
      "type": "function"
    },
    {
      "inputs": [
        {
          "internalType": "uint256",
          "name": "_voterPerWeek",
          "type": "uint256"
        }
      ],
      "name": "adminSetVoterPerWeek",
      "outputs": [],
      "stateMutability": "nonpayable",
      "type": "function"
    },
    {
      "inputs": [],
      "name": "controller",
      "outputs": [
        {
          "internalType": "address",
          "name": "",
          "type": "address"
        }
      ],
      "stateMutability": "view",
      "type": "function"
    },
    {
      "inputs": [
        {
          "internalType": "bytes32",
          "name": "role",
          "type": "bytes32"
        }
      ],
      "name": "getRoleAdmin",
      "outputs": [
        {
          "internalType": "bytes32",
          "name": "",
          "type": "bytes32"
        }
      ],
      "stateMutability": "view",
      "type": "function"
    },
    {
      "inputs": [
        {
          "internalType": "bytes32",
          "name": "role",
          "type": "bytes32"
        },
        {
          "internalType": "uint256",
          "name": "index",
          "type": "uint256"
        }
      ],
      "name": "getRoleMember",
      "outputs": [
        {
          "internalType": "address",
          "name": "",
          "type": "address"
        }
      ],
      "stateMutability": "view",
      "type": "function"
    },
    {
      "inputs": [
        {
          "internalType": "bytes32",
          "name": "role",
          "type": "bytes32"
        }
      ],
      "name": "getRoleMemberCount",
      "outputs": [
        {
          "internalType": "uint256",
          "name": "",
          "type": "uint256"
        }
      ],
      "stateMutability": "view",
      "type": "function"
    },
    {
      "inputs": [
        {
          "internalType": "bytes32",
          "name": "role",
          "type": "bytes32"
        },
        {
          "internalType": "address",
          "name": "account",
          "type": "address"
        }
      ],
      "name": "getRoleMemberIndex",
      "outputs": [
        {
          "internalType": "uint256",
          "name": "",
          "type": "uint256"
        }
      ],
      "stateMutability": "view",
      "type": "function"
    },
    {
      "inputs": [
        {
          "internalType": "bytes32",
          "name": "role",
          "type": "bytes32"
        },
        {
          "internalType": "address",
          "name": "account",
          "type": "address"
        }
      ],
      "name": "grantRole",
      "outputs": [],
      "stateMutability": "nonpayable",
      "type": "function"
    },
    {
      "inputs": [
        {
          "internalType": "bytes32",
          "name": "role",
          "type": "bytes32"
        },
        {
          "internalType": "address",
          "name": "account",
          "type": "address"
        }
      ],
      "name": "hasRole",
      "outputs": [
        {
          "internalType": "bool",
          "name": "",
          "type": "bool"
        }
      ],
      "stateMutability": "view",
      "type": "function"
    },
    {
      "inputs": [
        {
          "internalType": "address",
          "name": "to",
          "type": "address"
        },
        {
          "internalType": "uint256",
          "name": "amount",
          "type": "uint256"
        }
      ],
      "name": "mint",
      "outputs": [],
      "stateMutability": "nonpayable",
      "type": "function"
    },
    {
      "inputs": [
        {
          "internalType": "bytes32",
          "name": "role",
          "type": "bytes32"
        },
        {
          "internalType": "address",
          "name": "account",
          "type": "address"
        }
      ],
      "name": "renounceRole",
      "outputs": [],
      "stateMutability": "nonpayable",
      "type": "function"
    },
    {
      "inputs": [
        {
          "internalType": "bytes32",
          "name": "role",
          "type": "bytes32"
        },
        {
          "internalType": "address",
          "name": "account",
          "type": "address"
        }
      ],
      "name": "revokeRole",
      "outputs": [],
      "stateMutability": "nonpayable",
      "type": "function"
    },
    {
      "inputs": [],
      "name": "updatePeriod",
      "outputs": [
        {
          "internalType": "uint256",
          "name": "",
          "type": "uint256"
        }
      ],
      "stateMutability": "nonpayable",
      "type": "function"
    },
    {
      "inputs": [],
      "name": "veDistPerWeek",
      "outputs": [
        {
          "internalType": "uint256",
          "name": "",
          "type": "uint256"
        }
      ],
      "stateMutability": "view",
      "type": "function"
    },
    {
      "inputs": [],
      "name": "voterPerWeek",
      "outputs": [
        {
          "internalType": "uint256",
          "name": "",
          "type": "uint256"
        }
      ],
      "stateMutability": "view",
      "type": "function"
    },
    {
      "inputs": [],
      "name": "weeklyEmission",
      "outputs": [
        {
          "internalType": "uint256",
          "name": "",
          "type": "uint256"
        }
      ],
      "stateMutability": "view",
      "type": "function"
    },
    {
      "inputs": [
        {
          "internalType": "address[]",
          "name": "tokens",
          "type": "address[]"
        }
      ],
      "name": "whiteList",
      "outputs": [],
      "stateMutability": "nonpayable",
      "type": "function"
    },
    {
      "inputs": [
        {
          "internalType": "uint256",
          "name": "amount",
          "type": "uint256"
        }
      ],
      "name": "withdraw",
      "outputs": [],
      "stateMutability": "nonpayable",
      "type": "function"
    }
  ],
  "bytecode": "0x60806040523480156200001157600080fd5b506040516200156b3803806200156b83398101604081905262000034916200020e565b816001600160a01b031663fc0c546a6040518163ffffffff1660e01b8152600401602060405180830381865afa15801562000073573d6000803e3d6000fd5b505050506040513d601f19601f8201168201806040525081019062000099919062000246565b600180546001600160a01b03199081166001600160a01b03938416179091556002805482168584161790556003805490911691831691909117905562093a80620000e4814262000264565b620000f0919062000287565b6004556200010060003362000108565b5050620002b5565b62000114828262000118565b5050565b6000828152602081815260409091206200013d91839062000bdc6200017f821b17901c565b15620001145760405133906001600160a01b0383169084907f2f8788117e7eff1d82e926ec794901d17c78024a50270940304540a733656f0d90600090a45050565b600062000196836001600160a01b0384166200019f565b90505b92915050565b6000818152600183016020526040812054620001e85750815460018181018455600084815260208082209093018490558454848252828601909352604090209190915562000199565b50600062000199565b80516001600160a01b03811681146200020957600080fd5b919050565b600080604083850312156200022257600080fd5b6200022d83620001f1565b91506200023d60208401620001f1565b90509250929050565b6000602082840312156200025957600080fd5b6200019682620001f1565b6000826200028257634e487b7160e01b600052601260045260246000fd5b500490565b6000816000190483118215151615620002b057634e487b7160e01b600052601160045260246000fd5b500290565b6112a680620002c56000396000f3fe608060405234801561001057600080fd5b50600436106101425760003560e01c8063a217fddf116100b8578063d651a83d1161007c578063d651a83d146102a4578063d70142fb146102ad578063e52522b6146102b5578063ea25119c146102be578063ecd0c0c3146102d1578063f77c4791146102e457600080fd5b8063a217fddf1461025b578063a83627de14610263578063baa98bbd1461026b578063ca15c8731461027e578063d547741f1461029157600080fd5b80634e0df3f61161010a5780634e0df3f6146101cb578063713efc99146101de5780638dd598fb146101e75780639010d07c1461021257806391c5f4a61461022557806391d148541461023857600080fd5b8063248a9ca3146101475780632e1a7d4d1461017d5780632f2ff15d1461019257806336568abe146101a557806340c10f19146101b8575b600080fd5b61016a610155366004610f14565b60009081526020819052604090206002015490565b6040519081526020015b60405180910390f35b61019061018b366004610f14565b6102f7565b005b6101906101a0366004610f52565b6103db565b6101906101b3366004610f52565b610469565b6101906101c6366004610f82565b6104e3565b61016a6101d9366004610f52565b610607565b61016a60045481565b6002546101fa906001600160a01b031681565b6040516001600160a01b039091168152602001610174565b6101fa610220366004610fae565b610632565b610190610233366004610fe6565b610651565b61024b610246366004610f52565b6106e2565b6040519015158152602001610174565b61016a600081565b61016a6106fa565b610190610279366004610f14565b610ada565b61016a61028c366004610f14565b610b06565b61019061029f366004610f52565b610b1d565b61016a60055481565b61016a610b9e565b61016a60065481565b6101906102cc366004610f14565b610bb0565b6001546101fa906001600160a01b031681565b6003546101fa906001600160a01b031681565b6103026000336106e2565b6103275760405162461bcd60e51b815260040161031e906110ab565b60405180910390fd5b60015460405163a9059cbb60e01b8152336004820152602481018390526001600160a01b039091169063a9059cbb906044016020604051808303816000875af1158015610378573d6000803e3d6000fd5b505050506040513d601f19601f8201168201806040525081019061039c91906110ce565b6103d85760405162461bcd60e51b815260206004820152600d60248201526c151c985b9cd9995c8811985a5b609a1b604482015260640161031e565b50565b6000828152602081905260409020600201546103f790336106e2565b61045b5760405162461bcd60e51b815260206004820152602f60248201527f416363657373436f6e74726f6c3a2073656e646572206d75737420626520616e60448201526e0818591b5a5b881d1bc819dc985b9d608a1b606482015260840161031e565b6104658282610bf1565b5050565b6001600160a01b03811633146104d95760405162461bcd60e51b815260206004820152602f60248201527f416363657373436f6e74726f6c3a2063616e206f6e6c792072656e6f756e636560448201526e103937b632b9903337b91039b2b63360891b606482015260840161031e565b6104658282610c4a565b6104ee6000336106e2565b61050a5760405162461bcd60e51b815260040161031e906110ab565b600154604080516001600160a01b038581166024830152604480830186905283518084039091018152606490920183526020820180516001600160e01b03166340c10f1960e01b179052915160009384931691610566916110f0565b6000604051808303816000865af19150503d80600081146105a3576040519150601f19603f3d011682016040523d82523d6000602084013e6105a8565b606091505b50915091508180156105c95750808060200190518101906105c991906110ce565b6106015760405162461bcd60e51b81526020600482015260096024820152681b5a5b9d0819985a5b60ba1b604482015260640161031e565b50505050565b6000828152602081815260408083206001600160a01b03851684526001019091529020545b92915050565b600082815260208190526040812061064a9083610ca3565b9392505050565b61065c6000336106e2565b6106785760405162461bcd60e51b815260040161031e906110ab565b610680610caf565b6001600160a01b0316637e1ddf6482306040518363ffffffff1660e01b81526004016106ad92919061112b565b600060405180830381600087803b1580156106c757600080fd5b505af11580156106db573d6000803e3d6000fd5b5050505050565b600082815260208190526040812061064a9083610d1d565b600061070681336106e2565b6107225760405162461bcd60e51b815260040161031e906110ab565b60045461073262093a808261119e565b4210610ad55762093a8061074681426111b6565b61075091906111d8565b60048181556001546040516370a0823160e01b815230928101929092529192506000916001600160a01b0316906370a0823190602401602060405180830381865afa1580156107a3573d6000803e3d6000fd5b505050506040513d601f19601f820116820180604052508101906107c791906111f7565b90506006546005546107d9919061119e565b81101561081f5760405162461bcd60e51b8152602060048201526014602482015273496e73756666696369656e742062616c616e636560601b604482015260640161031e565b6001546001600160a01b031663a9059cbb610838610d3f565b6005546040516001600160e01b031960e085901b1681526001600160a01b03909216600483015260248201526044016020604051808303816000875af1158015610886573d6000803e3d6000fd5b505050506040513d601f19601f820116820180604052508101906108aa91906110ce565b6108e65760405162461bcd60e51b815260206004820152600d60248201526c151c985b9cd9995c8811985a5b609a1b604482015260640161031e565b6108ee610d3f565b6001600160a01b031663bee5dc326040518163ffffffff1660e01b8152600401600060405180830381600087803b15801561092857600080fd5b505af115801561093c573d6000803e3d6000fd5b50505050610948610d3f565b6001600160a01b031663326a94076040518163ffffffff1660e01b8152600401600060405180830381600087803b15801561098257600080fd5b505af1158015610996573d6000803e3d6000fd5b50506001546001600160a01b0316915063095ea7b390506109b5610caf565b6006546040516001600160e01b031960e085901b1681526001600160a01b03909216600483015260248201526044016020604051808303816000875af1158015610a03573d6000803e3d6000fd5b505050506040513d601f19601f82011682018060405250810190610a2791906110ce565b50610a30610caf565b6001600160a01b0316633c6b16ab6006546040518263ffffffff1660e01b8152600401610a5f91815260200190565b600060405180830381600087803b158015610a7957600080fd5b505af1158015610a8d573d6000803e3d6000fd5b50506005546006546040805192835260208301919091523393507fb3a7f4e19ac1e31fc41d825d7a63c4af7b79cda95d9abfb66c36e6987706bf9792500160405180910390a2505b905090565b610ae56000336106e2565b610b015760405162461bcd60e51b815260040161031e906110ab565b600555565b600081815260208190526040812061062c90610d89565b600082815260208190526040902060020154610b3990336106e2565b6104d95760405162461bcd60e51b815260206004820152603060248201527f416363657373436f6e74726f6c3a2073656e646572206d75737420626520616e60448201526f2061646d696e20746f207265766f6b6560801b606482015260840161031e565b6000600654600554610ad5919061119e565b610bbb6000336106e2565b610bd75760405162461bcd60e51b815260040161031e906110ab565b600655565b600061064a836001600160a01b038416610d93565b6000828152602081905260409020610c099082610bdc565b156104655760405133906001600160a01b0383169084907f2f8788117e7eff1d82e926ec794901d17c78024a50270940304540a733656f0d90600090a45050565b6000828152602081905260409020610c629082610de2565b156104655760405133906001600160a01b0383169084907ff6391f5c32d9c69d2a47ea670b442974b53935d1edc7fd64eb21e047a839171b90600090a45050565b600061064a8383610df7565b600354604080516311b25aab60e21b815290516000926001600160a01b0316916346c96aac9160048083019260209291908290030181865afa158015610cf9573d6000803e3d6000fd5b505050506040513d601f19601f82011682018060405250810190610ad59190611210565b6001600160a01b0381166000908152600183016020526040812054151561064a565b6003546040805163c13270f160e01b815290516000926001600160a01b03169163c13270f19160048083019260209291908290030181865afa158015610cf9573d6000803e3d6000fd5b600061062c825490565b6000818152600183016020526040812054610dda5750815460018181018455600084815260208082209093018490558454848252828601909352604090209190915561062c565b50600061062c565b600061064a836001600160a01b038416610e21565b6000826000018281548110610e0e57610e0e61122d565b9060005260206000200154905092915050565b60008181526001830160205260408120548015610f0a576000610e45600183611243565b8554909150600090610e5990600190611243565b9050818114610ebe576000866000018281548110610e7957610e7961122d565b9060005260206000200154905080876000018481548110610e9c57610e9c61122d565b6000918252602080832090910192909255918252600188019052604090208390555b8554869080610ecf57610ecf61125a565b60019003818190600052602060002001600090559055856001016000868152602001908152602001600020600090556001935050505061062c565b600091505061062c565b600060208284031215610f2657600080fd5b5035919050565b6001600160a01b03811681146103d857600080fd5b8035610f4d81610f2d565b919050565b60008060408385031215610f6557600080fd5b823591506020830135610f7781610f2d565b809150509250929050565b60008060408385031215610f9557600080fd5b8235610fa081610f2d565b946020939093013593505050565b60008060408385031215610fc157600080fd5b50508035926020909101359150565b634e487b7160e01b600052604160045260246000fd5b60006020808385031215610ff957600080fd5b823567ffffffffffffffff8082111561101157600080fd5b818501915085601f83011261102557600080fd5b81358181111561103757611037610fd0565b8060051b604051601f19603f8301168101818110858211171561105c5761105c610fd0565b60405291825284820192508381018501918883111561107a57600080fd5b938501935b8285101561109f5761109085610f42565b8452938501939285019261107f565b98975050505050505050565b6020808252600990820152683337b93134b23232b760b91b604082015260600190565b6000602082840312156110e057600080fd5b8151801515811461064a57600080fd5b6000825160005b8181101561111157602081860181015185830152016110f7565b81811115611120576000828501525b509190910192915050565b604080825283519082018190526000906020906060840190828701845b8281101561116d5781516001600160a01b031684529284019290840190600101611148565b5050506001600160a01b039490941692019190915250919050565b634e487b7160e01b600052601160045260246000fd5b600082198211156111b1576111b1611188565b500190565b6000826111d357634e487b7160e01b600052601260045260246000fd5b500490565b60008160001904831182151516156111f2576111f2611188565b500290565b60006020828403121561120957600080fd5b5051919050565b60006020828403121561122257600080fd5b815161064a81610f2d565b634e487b7160e01b600052603260045260246000fd5b60008282101561125557611255611188565b500390565b634e487b7160e01b600052603160045260246000fdfea2646970667358221220b2b2fac0c53f7ccb3d024353bd425dddb329e39fd4db17e6e204db42cb9c88cc64736f6c634300080d0033",
  "linkReferences": {},
  "deployedLinkReferences": {}
}