{
  "_format": "hh-sol-artifact-1",
  "contractName": "Minter",
  "sourceName": "contracts/base/token/Minter.sol",
  "abi": [
    {
      "inputs": [
        {
          "internalType": "address",
          "name": "__ve",
          "type": "address"
        },
        {
          "internalType": "address",
          "name": "__controller",
          "type": "address"
        }
      ],
      "stateMutability": "nonpayable",
      "type": "constructor"
    },
    {
      "anonymous": false,
      "inputs": [
        {
          "indexed": true,
          "internalType": "bytes32",
          "name": "role",
          "type": "bytes32"
        },
        {
          "indexed": true,
          "internalType": "address",
          "name": "account",
          "type": "address"
        },
        {
          "indexed": true,
          "internalType": "address",
          "name": "sender",
          "type": "address"
        }
      ],
      "name": "RoleGranted",
      "type": "event"
    },
    {
      "anonymous": false,
      "inputs": [
        {
          "indexed": true,
          "internalType": "bytes32",
          "name": "role",
          "type": "bytes32"
        },
        {
          "indexed": true,
          "internalType": "address",
          "name": "account",
          "type": "address"
        },
        {
          "indexed": true,
          "internalType": "address",
          "name": "sender",
          "type": "address"
        }
      ],
      "name": "RoleRevoked",
      "type": "event"
    },
    {
      "anonymous": false,
      "inputs": [
        {
          "indexed": true,
          "internalType": "address",
          "name": "sender",
          "type": "address"
        },
        {
          "indexed": false,
          "internalType": "uint256",
          "name": "veDistAmount",
          "type": "uint256"
        },
        {
          "indexed": false,
          "internalType": "uint256",
          "name": "voterAmount",
          "type": "uint256"
        }
      ],
      "name": "Send",
      "type": "event"
    },
    {
      "inputs": [],
      "name": "DEFAULT_ADMIN_ROLE",
      "outputs": [
        {
          "internalType": "bytes32",
          "name": "",
          "type": "bytes32"
        }
      ],
      "stateMutability": "view",
      "type": "function"
    },
    {
      "inputs": [],
      "name": "_token",
      "outputs": [
        {
          "internalType": "contract IERC20",
          "name": "",
          "type": "address"
        }
      ],
      "stateMutability": "view",
      "type": "function"
    },
    {
      "inputs": [],
      "name": "_ve",
      "outputs": [
        {
          "internalType": "contract IVe",
          "name": "",
          "type": "address"
        }
      ],
      "stateMutability": "view",
      "type": "function"
    },
    {
      "inputs": [],
      "name": "activeperiod",
      "outputs": [
        {
          "internalType": "uint256",
          "name": "",
          "type": "uint256"
        }
      ],
      "stateMutability": "view",
      "type": "function"
    },
    {
      "inputs": [
        {
          "internalType": "uint256",
          "name": "_veDistPerWeek",
          "type": "uint256"
        }
      ],
      "name": "adminSetVeDistPerWeek",
      "outputs": [],
      "stateMutability": "nonpayable",
      "type": "function"
    },
    {
      "inputs": [
        {
          "internalType": "uint256",
          "name": "_voterPerWeek",
          "type": "uint256"
        }
      ],
      "name": "adminSetVoterPerWeek",
      "outputs": [],
      "stateMutability": "nonpayable",
      "type": "function"
    },
    {
      "inputs": [],
      "name": "controller",
      "outputs": [
        {
          "internalType": "address",
          "name": "",
          "type": "address"
        }
      ],
      "stateMutability": "view",
      "type": "function"
    },
    {
      "inputs": [
        {
          "internalType": "bytes32",
          "name": "role",
          "type": "bytes32"
        }
      ],
      "name": "getRoleAdmin",
      "outputs": [
        {
          "internalType": "bytes32",
          "name": "",
          "type": "bytes32"
        }
      ],
      "stateMutability": "view",
      "type": "function"
    },
    {
      "inputs": [
        {
          "internalType": "bytes32",
          "name": "role",
          "type": "bytes32"
        },
        {
          "internalType": "uint256",
          "name": "index",
          "type": "uint256"
        }
      ],
      "name": "getRoleMember",
      "outputs": [
        {
          "internalType": "address",
          "name": "",
          "type": "address"
        }
      ],
      "stateMutability": "view",
      "type": "function"
    },
    {
      "inputs": [
        {
          "internalType": "bytes32",
          "name": "role",
          "type": "bytes32"
        }
      ],
      "name": "getRoleMemberCount",
      "outputs": [
        {
          "internalType": "uint256",
          "name": "",
          "type": "uint256"
        }
      ],
      "stateMutability": "view",
      "type": "function"
    },
    {
      "inputs": [
        {
          "internalType": "bytes32",
          "name": "role",
          "type": "bytes32"
        },
        {
          "internalType": "address",
          "name": "account",
          "type": "address"
        }
      ],
      "name": "getRoleMemberIndex",
      "outputs": [
        {
          "internalType": "uint256",
          "name": "",
          "type": "uint256"
        }
      ],
      "stateMutability": "view",
      "type": "function"
    },
    {
      "inputs": [
        {
          "internalType": "bytes32",
          "name": "role",
          "type": "bytes32"
        },
        {
          "internalType": "address",
          "name": "account",
          "type": "address"
        }
      ],
      "name": "grantRole",
      "outputs": [],
      "stateMutability": "nonpayable",
      "type": "function"
    },
    {
      "inputs": [
        {
          "internalType": "bytes32",
          "name": "role",
          "type": "bytes32"
        },
        {
          "internalType": "address",
          "name": "account",
          "type": "address"
        }
      ],
      "name": "hasRole",
      "outputs": [
        {
          "internalType": "bool",
          "name": "",
          "type": "bool"
        }
      ],
      "stateMutability": "view",
      "type": "function"
    },
    {
      "inputs": [
        {
          "internalType": "address",
          "name": "to",
          "type": "address"
        },
        {
          "internalType": "uint256",
          "name": "amount",
          "type": "uint256"
        }
      ],
      "name": "mint",
      "outputs": [],
      "stateMutability": "nonpayable",
      "type": "function"
    },
    {
      "inputs": [
        {
          "internalType": "bytes32",
          "name": "role",
          "type": "bytes32"
        },
        {
          "internalType": "address",
          "name": "account",
          "type": "address"
        }
      ],
      "name": "renounceRole",
      "outputs": [],
      "stateMutability": "nonpayable",
      "type": "function"
    },
    {
      "inputs": [
        {
          "internalType": "bytes32",
          "name": "role",
          "type": "bytes32"
        },
        {
          "internalType": "address",
          "name": "account",
          "type": "address"
        }
      ],
      "name": "revokeRole",
      "outputs": [],
      "stateMutability": "nonpayable",
      "type": "function"
    },
    {
      "inputs": [],
      "name": "updatePeriod",
      "outputs": [
        {
          "internalType": "uint256",
          "name": "",
          "type": "uint256"
        }
      ],
      "stateMutability": "nonpayable",
      "type": "function"
    },
    {
      "inputs": [],
      "name": "veDistPerWeek",
      "outputs": [
        {
          "internalType": "uint256",
          "name": "",
          "type": "uint256"
        }
      ],
      "stateMutability": "view",
      "type": "function"
    },
    {
      "inputs": [],
      "name": "voterPerWeek",
      "outputs": [
        {
          "internalType": "uint256",
          "name": "",
          "type": "uint256"
        }
      ],
      "stateMutability": "view",
      "type": "function"
    },
    {
      "inputs": [],
      "name": "weeklyEmission",
      "outputs": [
        {
          "internalType": "uint256",
          "name": "",
          "type": "uint256"
        }
      ],
      "stateMutability": "view",
      "type": "function"
    },
    {
      "inputs": [
        {
          "internalType": "uint256",
          "name": "amount",
          "type": "uint256"
        }
      ],
      "name": "withdraw",
      "outputs": [],
      "stateMutability": "nonpayable",
      "type": "function"
    }
  ],
  "bytecode": "0x60806040523480156200001157600080fd5b50604051620013743803806200137483398101604081905262000034916200020e565b816001600160a01b031663fc0c546a6040518163ffffffff1660e01b8152600401602060405180830381865afa15801562000073573d6000803e3d6000fd5b505050506040513d601f19601f8201168201806040525081019062000099919062000246565b600180546001600160a01b03199081166001600160a01b03938416179091556002805482168584161790556003805490911691831691909117905562093a80620000e4814262000264565b620000f0919062000287565b6004556200010060003362000108565b5050620002b5565b62000114828262000118565b5050565b6000828152602081815260409091206200013d91839062000b2d6200017f821b17901c565b15620001145760405133906001600160a01b0383169084907f2f8788117e7eff1d82e926ec794901d17c78024a50270940304540a733656f0d90600090a45050565b600062000196836001600160a01b0384166200019f565b90505b92915050565b6000818152600183016020526040812054620001e85750815460018181018455600084815260208082209093018490558454848252828601909352604090209190915562000199565b50600062000199565b80516001600160a01b03811681146200020957600080fd5b919050565b600080604083850312156200022257600080fd5b6200022d83620001f1565b91506200023d60208401620001f1565b90509250929050565b6000602082840312156200025957600080fd5b6200019682620001f1565b6000826200028257634e487b7160e01b600052601260045260246000fd5b500490565b6000816000190483118215151615620002b057634e487b7160e01b600052601160045260246000fd5b500290565b6110af80620002c56000396000f3fe608060405234801561001057600080fd5b50600436106101375760003560e01c8063a217fddf116100b8578063d651a83d1161007c578063d651a83d14610286578063d70142fb1461028f578063e52522b614610297578063ea25119c146102a0578063ecd0c0c3146102b3578063f77c4791146102c657600080fd5b8063a217fddf1461023d578063a83627de14610245578063baa98bbd1461024d578063ca15c87314610260578063d547741f1461027357600080fd5b80634e0df3f6116100ff5780634e0df3f6146101c0578063713efc99146101d35780638dd598fb146101dc5780639010d07c1461020757806391d148541461021a57600080fd5b8063248a9ca31461013c5780632e1a7d4d146101725780632f2ff15d1461018757806336568abe1461019a57806340c10f19146101ad575b600080fd5b61015f61014a366004610e65565b60009081526020819052604090206002015490565b6040519081526020015b60405180910390f35b610185610180366004610e65565b6102d9565b005b610185610195366004610e93565b6103bd565b6101856101a8366004610e93565b61044b565b6101856101bb366004610ec3565b6104c5565b61015f6101ce366004610e93565b6105e9565b61015f60045481565b6002546101ef906001600160a01b031681565b6040516001600160a01b039091168152602001610169565b6101ef610215366004610eef565b610614565b61022d610228366004610e93565b610633565b6040519015158152602001610169565b61015f600081565b61015f61064b565b61018561025b366004610e65565b610a2b565b61015f61026e366004610e65565b610a57565b610185610281366004610e93565b610a6e565b61015f60055481565b61015f610aef565b61015f60065481565b6101856102ae366004610e65565b610b01565b6001546101ef906001600160a01b031681565b6003546101ef906001600160a01b031681565b6102e4600033610633565b6103095760405162461bcd60e51b815260040161030090610f11565b60405180910390fd5b60015460405163a9059cbb60e01b8152336004820152602481018390526001600160a01b039091169063a9059cbb906044016020604051808303816000875af115801561035a573d6000803e3d6000fd5b505050506040513d601f19601f8201168201806040525081019061037e9190610f34565b6103ba5760405162461bcd60e51b815260206004820152600d60248201526c151c985b9cd9995c8811985a5b609a1b6044820152606401610300565b50565b6000828152602081905260409020600201546103d99033610633565b61043d5760405162461bcd60e51b815260206004820152602f60248201527f416363657373436f6e74726f6c3a2073656e646572206d75737420626520616e60448201526e0818591b5a5b881d1bc819dc985b9d608a1b6064820152608401610300565b6104478282610b42565b5050565b6001600160a01b03811633146104bb5760405162461bcd60e51b815260206004820152602f60248201527f416363657373436f6e74726f6c3a2063616e206f6e6c792072656e6f756e636560448201526e103937b632b9903337b91039b2b63360891b6064820152608401610300565b6104478282610b9b565b6104d0600033610633565b6104ec5760405162461bcd60e51b815260040161030090610f11565b600154604080516001600160a01b038581166024830152604480830186905283518084039091018152606490920183526020820180516001600160e01b03166340c10f1960e01b17905291516000938493169161054891610f56565b6000604051808303816000865af19150503d8060008114610585576040519150601f19603f3d011682016040523d82523d6000602084013e61058a565b606091505b50915091508180156105ab5750808060200190518101906105ab9190610f34565b6105e35760405162461bcd60e51b81526020600482015260096024820152681b5a5b9d0819985a5b60ba1b6044820152606401610300565b50505050565b6000828152602081815260408083206001600160a01b03851684526001019091529020545b92915050565b600082815260208190526040812061062c9083610bf4565b9392505050565b600082815260208190526040812061062c9083610c00565b60006106578133610633565b6106735760405162461bcd60e51b815260040161030090610f11565b60045461068362093a8082610fa7565b4210610a265762093a806106978142610fbf565b6106a19190610fe1565b60048181556001546040516370a0823160e01b815230928101929092529192506000916001600160a01b0316906370a0823190602401602060405180830381865afa1580156106f4573d6000803e3d6000fd5b505050506040513d601f19601f820116820180604052508101906107189190611000565b905060065460055461072a9190610fa7565b8110156107705760405162461bcd60e51b8152602060048201526014602482015273496e73756666696369656e742062616c616e636560601b6044820152606401610300565b6001546001600160a01b031663a9059cbb610789610c22565b6005546040516001600160e01b031960e085901b1681526001600160a01b03909216600483015260248201526044016020604051808303816000875af11580156107d7573d6000803e3d6000fd5b505050506040513d601f19601f820116820180604052508101906107fb9190610f34565b6108375760405162461bcd60e51b815260206004820152600d60248201526c151c985b9cd9995c8811985a5b609a1b6044820152606401610300565b61083f610c22565b6001600160a01b031663bee5dc326040518163ffffffff1660e01b8152600401600060405180830381600087803b15801561087957600080fd5b505af115801561088d573d6000803e3d6000fd5b50505050610899610c22565b6001600160a01b031663326a94076040518163ffffffff1660e01b8152600401600060405180830381600087803b1580156108d357600080fd5b505af11580156108e7573d6000803e3d6000fd5b50506001546001600160a01b0316915063095ea7b39050610906610c90565b6006546040516001600160e01b031960e085901b1681526001600160a01b03909216600483015260248201526044016020604051808303816000875af1158015610954573d6000803e3d6000fd5b505050506040513d601f19601f820116820180604052508101906109789190610f34565b50610981610c90565b6001600160a01b0316633c6b16ab6006546040518263ffffffff1660e01b81526004016109b091815260200190565b600060405180830381600087803b1580156109ca57600080fd5b505af11580156109de573d6000803e3d6000fd5b50506005546006546040805192835260208301919091523393507fb3a7f4e19ac1e31fc41d825d7a63c4af7b79cda95d9abfb66c36e6987706bf9792500160405180910390a2505b905090565b610a36600033610633565b610a525760405162461bcd60e51b815260040161030090610f11565b600555565b600081815260208190526040812061060e90610cda565b600082815260208190526040902060020154610a8a9033610633565b6104bb5760405162461bcd60e51b815260206004820152603060248201527f416363657373436f6e74726f6c3a2073656e646572206d75737420626520616e60448201526f2061646d696e20746f207265766f6b6560801b6064820152608401610300565b6000600654600554610a269190610fa7565b610b0c600033610633565b610b285760405162461bcd60e51b815260040161030090610f11565b600655565b600061062c836001600160a01b038416610ce4565b6000828152602081905260409020610b5a9082610b2d565b156104475760405133906001600160a01b0383169084907f2f8788117e7eff1d82e926ec794901d17c78024a50270940304540a733656f0d90600090a45050565b6000828152602081905260409020610bb39082610d33565b156104475760405133906001600160a01b0383169084907ff6391f5c32d9c69d2a47ea670b442974b53935d1edc7fd64eb21e047a839171b90600090a45050565b600061062c8383610d48565b6001600160a01b0381166000908152600183016020526040812054151561062c565b6003546040805163c13270f160e01b815290516000926001600160a01b03169163c13270f19160048083019260209291908290030181865afa158015610c6c573d6000803e3d6000fd5b505050506040513d601f19601f82011682018060405250810190610a269190611019565b600354604080516311b25aab60e21b815290516000926001600160a01b0316916346c96aac9160048083019260209291908290030181865afa158015610c6c573d6000803e3d6000fd5b600061060e825490565b6000818152600183016020526040812054610d2b5750815460018181018455600084815260208082209093018490558454848252828601909352604090209190915561060e565b50600061060e565b600061062c836001600160a01b038416610d72565b6000826000018281548110610d5f57610d5f611036565b9060005260206000200154905092915050565b60008181526001830160205260408120548015610e5b576000610d9660018361104c565b8554909150600090610daa9060019061104c565b9050818114610e0f576000866000018281548110610dca57610dca611036565b9060005260206000200154905080876000018481548110610ded57610ded611036565b6000918252602080832090910192909255918252600188019052604090208390555b8554869080610e2057610e20611063565b60019003818190600052602060002001600090559055856001016000868152602001908152602001600020600090556001935050505061060e565b600091505061060e565b600060208284031215610e7757600080fd5b5035919050565b6001600160a01b03811681146103ba57600080fd5b60008060408385031215610ea657600080fd5b823591506020830135610eb881610e7e565b809150509250929050565b60008060408385031215610ed657600080fd5b8235610ee181610e7e565b946020939093013593505050565b60008060408385031215610f0257600080fd5b50508035926020909101359150565b6020808252600990820152683337b93134b23232b760b91b604082015260600190565b600060208284031215610f4657600080fd5b8151801515811461062c57600080fd5b6000825160005b81811015610f775760208186018101518583015201610f5d565b81811115610f86576000828501525b509190910192915050565b634e487b7160e01b600052601160045260246000fd5b60008219821115610fba57610fba610f91565b500190565b600082610fdc57634e487b7160e01b600052601260045260246000fd5b500490565b6000816000190483118215151615610ffb57610ffb610f91565b500290565b60006020828403121561101257600080fd5b5051919050565b60006020828403121561102b57600080fd5b815161062c81610e7e565b634e487b7160e01b600052603260045260246000fd5b60008282101561105e5761105e610f91565b500390565b634e487b7160e01b600052603160045260246000fdfea26469706673582212208625e0e4385c808727bebdd0fc7309da645a569881f85a201c97d6b84116ec9564736f6c634300080d0033",
  "linkReferences": {},
  "deployedLinkReferences": {}
}