{
  "_format": "hh-sol-artifact-1",
  "contractName": "Minter",
  "sourceName": "contracts/base/token/Minter.sol",
  "abi": [
    {
      "inputs": [
        {
          "internalType": "address",
          "name": "__ve",
          "type": "address"
        },
        {
          "internalType": "address",
          "name": "__controller",
          "type": "address"
        }
      ],
      "stateMutability": "nonpayable",
      "type": "constructor"
    },
    {
      "anonymous": false,
      "inputs": [
        {
          "indexed": true,
          "internalType": "bytes32",
          "name": "role",
          "type": "bytes32"
        },
        {
          "indexed": true,
          "internalType": "address",
          "name": "account",
          "type": "address"
        },
        {
          "indexed": true,
          "internalType": "address",
          "name": "sender",
          "type": "address"
        }
      ],
      "name": "RoleGranted",
      "type": "event"
    },
    {
      "anonymous": false,
      "inputs": [
        {
          "indexed": true,
          "internalType": "bytes32",
          "name": "role",
          "type": "bytes32"
        },
        {
          "indexed": true,
          "internalType": "address",
          "name": "account",
          "type": "address"
        },
        {
          "indexed": true,
          "internalType": "address",
          "name": "sender",
          "type": "address"
        }
      ],
      "name": "RoleRevoked",
      "type": "event"
    },
    {
      "anonymous": false,
      "inputs": [
        {
          "indexed": true,
          "internalType": "address",
          "name": "sender",
          "type": "address"
        },
        {
          "indexed": false,
          "internalType": "uint256",
          "name": "veDistAmount",
          "type": "uint256"
        },
        {
          "indexed": false,
          "internalType": "uint256",
          "name": "voterAmount",
          "type": "uint256"
        }
      ],
      "name": "Send",
      "type": "event"
    },
    {
      "inputs": [],
      "name": "DEFAULT_ADMIN_ROLE",
      "outputs": [
        {
          "internalType": "bytes32",
          "name": "",
          "type": "bytes32"
        }
      ],
      "stateMutability": "view",
      "type": "function"
    },
    {
      "inputs": [],
      "name": "VE_DIST_RATIO_MAX",
      "outputs": [
        {
          "internalType": "uint256",
          "name": "",
          "type": "uint256"
        }
      ],
      "stateMutability": "view",
      "type": "function"
    },
    {
      "inputs": [],
      "name": "_token",
      "outputs": [
        {
          "internalType": "contract IERC20",
          "name": "",
          "type": "address"
        }
      ],
      "stateMutability": "view",
      "type": "function"
    },
    {
      "inputs": [],
      "name": "_ve",
      "outputs": [
        {
          "internalType": "contract IVe",
          "name": "",
          "type": "address"
        }
      ],
      "stateMutability": "view",
      "type": "function"
    },
    {
      "inputs": [],
      "name": "activeperiod",
      "outputs": [
        {
          "internalType": "uint256",
          "name": "",
          "type": "uint256"
        }
      ],
      "stateMutability": "view",
      "type": "function"
    },
    {
      "inputs": [
        {
          "internalType": "uint256",
          "name": "_veDistRatio",
          "type": "uint256"
        }
      ],
      "name": "adminSetVeRatio",
      "outputs": [],
      "stateMutability": "nonpayable",
      "type": "function"
    },
    {
      "inputs": [],
      "name": "baseWeeklyEmission",
      "outputs": [
        {
          "internalType": "uint256",
          "name": "",
          "type": "uint256"
        }
      ],
      "stateMutability": "view",
      "type": "function"
    },
    {
      "inputs": [],
      "name": "calculateEmission",
      "outputs": [
        {
          "internalType": "uint256",
          "name": "",
          "type": "uint256"
        }
      ],
      "stateMutability": "view",
      "type": "function"
    },
    {
      "inputs": [],
      "name": "controller",
      "outputs": [
        {
          "internalType": "address",
          "name": "",
          "type": "address"
        }
      ],
      "stateMutability": "view",
      "type": "function"
    },
    {
      "inputs": [
        {
          "internalType": "bytes32",
          "name": "role",
          "type": "bytes32"
        }
      ],
      "name": "getRoleAdmin",
      "outputs": [
        {
          "internalType": "bytes32",
          "name": "",
          "type": "bytes32"
        }
      ],
      "stateMutability": "view",
      "type": "function"
    },
    {
      "inputs": [
        {
          "internalType": "bytes32",
          "name": "role",
          "type": "bytes32"
        },
        {
          "internalType": "uint256",
          "name": "index",
          "type": "uint256"
        }
      ],
      "name": "getRoleMember",
      "outputs": [
        {
          "internalType": "address",
          "name": "",
          "type": "address"
        }
      ],
      "stateMutability": "view",
      "type": "function"
    },
    {
      "inputs": [
        {
          "internalType": "bytes32",
          "name": "role",
          "type": "bytes32"
        }
      ],
      "name": "getRoleMemberCount",
      "outputs": [
        {
          "internalType": "uint256",
          "name": "",
          "type": "uint256"
        }
      ],
      "stateMutability": "view",
      "type": "function"
    },
    {
      "inputs": [
        {
          "internalType": "bytes32",
          "name": "role",
          "type": "bytes32"
        },
        {
          "internalType": "address",
          "name": "account",
          "type": "address"
        }
      ],
      "name": "getRoleMemberIndex",
      "outputs": [
        {
          "internalType": "uint256",
          "name": "",
          "type": "uint256"
        }
      ],
      "stateMutability": "view",
      "type": "function"
    },
    {
      "inputs": [
        {
          "internalType": "bytes32",
          "name": "role",
          "type": "bytes32"
        },
        {
          "internalType": "address",
          "name": "account",
          "type": "address"
        }
      ],
      "name": "grantRole",
      "outputs": [],
      "stateMutability": "nonpayable",
      "type": "function"
    },
    {
      "inputs": [
        {
          "internalType": "bytes32",
          "name": "role",
          "type": "bytes32"
        },
        {
          "internalType": "address",
          "name": "account",
          "type": "address"
        }
      ],
      "name": "hasRole",
      "outputs": [
        {
          "internalType": "bool",
          "name": "",
          "type": "bool"
        }
      ],
      "stateMutability": "view",
      "type": "function"
    },
    {
      "inputs": [],
      "name": "initialStubCirculation",
      "outputs": [
        {
          "internalType": "uint256",
          "name": "",
          "type": "uint256"
        }
      ],
      "stateMutability": "view",
      "type": "function"
    },
    {
      "inputs": [
        {
          "internalType": "address",
          "name": "to",
          "type": "address"
        },
        {
          "internalType": "uint256",
          "name": "amount",
          "type": "uint256"
        }
      ],
      "name": "mint",
      "outputs": [],
      "stateMutability": "nonpayable",
      "type": "function"
    },
    {
      "inputs": [
        {
          "internalType": "bytes32",
          "name": "role",
          "type": "bytes32"
        },
        {
          "internalType": "address",
          "name": "account",
          "type": "address"
        }
      ],
      "name": "renounceRole",
      "outputs": [],
      "stateMutability": "nonpayable",
      "type": "function"
    },
    {
      "inputs": [
        {
          "internalType": "bytes32",
          "name": "role",
          "type": "bytes32"
        },
        {
          "internalType": "address",
          "name": "account",
          "type": "address"
        }
      ],
      "name": "revokeRole",
      "outputs": [],
      "stateMutability": "nonpayable",
      "type": "function"
    },
    {
      "inputs": [],
      "name": "updatePeriod",
      "outputs": [
        {
          "internalType": "uint256",
          "name": "",
          "type": "uint256"
        }
      ],
      "stateMutability": "nonpayable",
      "type": "function"
    },
    {
      "inputs": [],
      "name": "veDistRatio",
      "outputs": [
        {
          "internalType": "uint256",
          "name": "",
          "type": "uint256"
        }
      ],
      "stateMutability": "view",
      "type": "function"
    },
    {
      "inputs": [],
      "name": "weeklyEmission",
      "outputs": [
        {
          "internalType": "uint256",
          "name": "",
          "type": "uint256"
        }
      ],
      "stateMutability": "view",
      "type": "function"
    }
  ],
  "bytecode": "0x60e06040526a108b2a2c280290940000006004553480156200002057600080fd5b50604051620016c6380380620016c68339810160408190526200004391620001fb565b816001600160a01b031663fc0c546a6040518163ffffffff1660e01b8152600401602060405180830381865afa15801562000082573d6000803e3d6000fd5b505050506040513d601f19601f82011682018060405250810190620000a8919062000233565b6001600160a01b0390811660805282811660a052811660c0526224ea00620000d1814262000251565b620000dd919062000274565b600255620000ed600033620000f5565b5050620002a2565b62000101828262000105565b5050565b6000828152602081815260409091206200012a91839062000aa96200016c821b17901c565b15620001015760405133906001600160a01b0383169084907f2f8788117e7eff1d82e926ec794901d17c78024a50270940304540a733656f0d90600090a45050565b600062000183836001600160a01b0384166200018c565b90505b92915050565b6000818152600183016020526040812054620001d55750815460018181018455600084815260208082209093018490558454848252828601909352604090209190915562000186565b50600062000186565b80516001600160a01b0381168114620001f657600080fd5b919050565b600080604083850312156200020f57600080fd5b6200021a83620001de565b91506200022a60208401620001de565b90509250929050565b6000602082840312156200024657600080fd5b6200018382620001de565b6000826200026f57634e487b7160e01b600052601260045260246000fd5b500490565b60008160001904831182151516156200029d57634e487b7160e01b600052601160045260246000fd5b500290565b60805160a05160c0516113a76200031f600039600081816102e901528181610ba20152610c260152600081816101f4015261103a0152600081816102c2015281816104980152818161063e015281816106d40152818161087c01528181610c8601528181610f2601528181610f9b01526110bc01526113a76000f3fe608060405234801561001057600080fd5b50600436106101425760003560e01c806391d14854116100b8578063ca15c8731161007c578063ca15c8731461028f578063d547741f146102a2578063d70142fb146102b5578063ecd0c0c3146102bd578063f77c4791146102e4578063f9d9e6fd1461030b57600080fd5b806391d1485414610241578063a217fddf14610264578063a83627de1461026c578063aa8754e414610274578063af9c894d1461027c57600080fd5b806340c10f191161010a57806340c10f19146101b75780634e0df3f6146101ca578063713efc99146101dd57806385ec4b25146101e65780638dd598fb146101ef5780639010d07c1461022e57600080fd5b806302c3b420146101475780630f2e908d14610163578063248a9ca31461016c5780632f2ff15d1461018f57806336568abe146101a4575b600080fd5b61015060045481565b6040519081526020015b60405180910390f35b61015060015481565b61015061017a36600461115a565b60009081526020819052604090206002015490565b6101a261019d36600461118b565b610314565b005b6101a26101b236600461118b565b6103a7565b6101a26101c53660046111bb565b610421565b6101506101d836600461118b565b610566565b61015060025481565b61015061271081565b6102167f000000000000000000000000000000000000000000000000000000000000000081565b6040516001600160a01b03909116815260200161015a565b61021661023c3660046111e7565b610591565b61025461024f36600461118b565b6105b0565b604051901515815260200161015a565b610150600081565b6101506105c8565b6101506109d1565b6101a261028a36600461115a565b6109db565b61015061029d36600461115a565b610a07565b6101a26102b036600461118b565b610a1e565b610150610a9f565b6102167f000000000000000000000000000000000000000000000000000000000000000081565b6102167f000000000000000000000000000000000000000000000000000000000000000081565b61015060035481565b60008281526020819052604090206002015461033090336105b0565b6103995760405162461bcd60e51b815260206004820152602f60248201527f416363657373436f6e74726f6c3a2073656e646572206d75737420626520616e60448201526e0818591b5a5b881d1bc819dc985b9d608a1b60648201526084015b60405180910390fd5b6103a38282610abe565b5050565b6001600160a01b03811633146104175760405162461bcd60e51b815260206004820152602f60248201527f416363657373436f6e74726f6c3a2063616e206f6e6c792072656e6f756e636560448201526e103937b632b9903337b91039b2b63360891b6064820152608401610390565b6103a38282610b17565b61042c6000336105b0565b6104485760405162461bcd60e51b815260040161039090611209565b604080516001600160a01b038481166024830152604480830185905283518084039091018152606490920183526020820180516001600160e01b03166340c10f1960e01b179052915160009283927f0000000000000000000000000000000000000000000000000000000000000000909116916104c5919061122c565b6000604051808303816000865af19150503d8060008114610502576040519150601f19603f3d011682016040523d82523d6000602084013e610507565b606091505b50915091508180156105285750808060200190518101906105289190611267565b6105605760405162461bcd60e51b81526020600482015260096024820152681b5a5b9d0819985a5b60ba1b6044820152606401610390565b50505050565b6000828152602081815260408083206001600160a01b03851684526001019091529020545b92915050565b60008281526020819052604081206105a99083610b70565b9392505050565b60008281526020819052604081206105a99083610b7c565b60006105d481336105b0565b6105f05760405162461bcd60e51b815260040161039090611209565b6002546106006224ea008261129f565b42106109cc576224ea0061061481426112b7565b61061e91906112d9565b60028190556040516370a0823160e01b81523060048201529091506000907f00000000000000000000000000000000000000000000000000000000000000006001600160a01b0316906370a0823190602401602060405180830381865afa15801561068d573d6000803e3d6000fd5b505050506040513d601f19601f820116820180604052508101906106b191906112f8565b90506000612710600154836106c691906112d9565b6106d091906112b7565b90507f00000000000000000000000000000000000000000000000000000000000000006001600160a01b031663a9059cbb610709610b9e565b6040516001600160e01b031960e084901b1681526001600160a01b039091166004820152602481018490526044016020604051808303816000875af1158015610756573d6000803e3d6000fd5b505050506040513d601f19601f8201168201806040525081019061077a9190611267565b6107b65760405162461bcd60e51b815260206004820152600d60248201526c151c985b9cd9995c8811985a5b609a1b6044820152606401610390565b6107be610b9e565b6001600160a01b031663bee5dc326040518163ffffffff1660e01b8152600401600060405180830381600087803b1580156107f857600080fd5b505af115801561080c573d6000803e3d6000fd5b50505050610818610b9e565b6001600160a01b031663326a94076040518163ffffffff1660e01b8152600401600060405180830381600087803b15801561085257600080fd5b505af1158015610866573d6000803e3d6000fd5b50505050600081836108789190611311565b90507f00000000000000000000000000000000000000000000000000000000000000006001600160a01b031663095ea7b36108b1610c22565b6040516001600160e01b031960e084901b1681526001600160a01b039091166004820152602481018490526044016020604051808303816000875af11580156108fe573d6000803e3d6000fd5b505050506040513d601f19601f820116820180604052508101906109229190611267565b5061092b610c22565b6001600160a01b0316633c6b16ab826040518263ffffffff1660e01b815260040161095891815260200190565b600060405180830381600087803b15801561097257600080fd5b505af1158015610986573d6000803e3d6000fd5b505060015460408051918252602082018690523393507fb3a7f4e19ac1e31fc41d825d7a63c4af7b79cda95d9abfb66c36e6987706bf9792500160405180910390a25050505b905090565b60006109cc610c82565b6109e66000336105b0565b610a025760405162461bcd60e51b815260040161039090611209565b600155565b600081815260208190526040812061058b90610d25565b600082815260208190526040902060020154610a3a90336105b0565b6104175760405162461bcd60e51b815260206004820152603060248201527f416363657373436f6e74726f6c3a2073656e646572206d75737420626520616e60448201526f2061646d696e20746f207265766f6b6560801b6064820152608401610390565b60006109cc610d2f565b60006105a9836001600160a01b038416610d49565b6000828152602081905260409020610ad69082610aa9565b156103a35760405133906001600160a01b0383169084907f2f8788117e7eff1d82e926ec794901d17c78024a50270940304540a733656f0d90600090a45050565b6000828152602081905260409020610b2f9082610d98565b156103a35760405133906001600160a01b0383169084907ff6391f5c32d9c69d2a47ea670b442974b53935d1edc7fd64eb21e047a839171b90600090a45050565b60006105a98383610dad565b6001600160a01b038116600090815260018301602052604081205415156105a9565b60007f00000000000000000000000000000000000000000000000000000000000000006001600160a01b031663c13270f16040518163ffffffff1660e01b8152600401602060405180830381865afa158015610bfe573d6000803e3d6000fd5b505050506040513d601f19601f820116820180604052508101906109cc9190611328565b60007f00000000000000000000000000000000000000000000000000000000000000006001600160a01b03166346c96aac6040518163ffffffff1660e01b8152600401602060405180830381865afa158015610bfe573d6000803e3d6000fd5b60007f00000000000000000000000000000000000000000000000000000000000000006001600160a01b03166318160ddd6040518163ffffffff1660e01b8152600401602060405180830381865afa158015610ce2573d6000803e3d6000fd5b505050506040513d601f19601f82011682018060405250810190610d0691906112f8565b610d0e610dd7565b600454610d1b91906112d9565b6109cc91906112b7565b600061058b825490565b60006109cc610d3c610c82565b610d44610dec565b610e04565b6000818152600183016020526040812054610d905750815460018181018455600084815260208082209093018490558454848252828601909352604090209190915561058b565b50600061058b565b60006105a9836001600160a01b038416610e1b565b6000826000018281548110610dc457610dc4611345565b9060005260206000200154905092915050565b60006109cc610de4610f0e565b600354610e04565b600060646001610dfa610f0e565b610d1b91906112d9565b600081831015610e1457816105a9565b5090919050565b60008181526001830160205260408120548015610f04576000610e3f600183611311565b8554909150600090610e5390600190611311565b9050818114610eb8576000866000018281548110610e7357610e73611345565b9060005260206000200154905080876000018481548110610e9657610e96611345565b6000918252602080832090910192909255918252600188019052604090208390555b8554869080610ec957610ec961135b565b60019003818190600052602060002001600090559055856001016000868152602001908152602001600020600090556001935050505061058b565b600091505061058b565b6040516370a0823160e01b81523060048201526000907f00000000000000000000000000000000000000000000000000000000000000006001600160a01b0316906370a0823190602401602060405180830381865afa158015610f75573d6000803e3d6000fd5b505050506040513d601f19601f82011682018060405250810190610f9991906112f8565b7f00000000000000000000000000000000000000000000000000000000000000006001600160a01b03166370a08231610fd0610b9e565b6040516001600160e01b031960e084901b1681526001600160a01b039091166004820152602401602060405180830381865afa158015611014573d6000803e3d6000fd5b505050506040513d601f19601f8201168201806040525081019061103891906112f8565b7f00000000000000000000000000000000000000000000000000000000000000006001600160a01b03166318160ddd6040518163ffffffff1660e01b8152600401602060405180830381865afa158015611096573d6000803e3d6000fd5b505050506040513d601f19601f820116820180604052508101906110ba91906112f8565b7f00000000000000000000000000000000000000000000000000000000000000006001600160a01b03166318160ddd6040518163ffffffff1660e01b8152600401602060405180830381865afa158015611118573d6000803e3d6000fd5b505050506040513d601f19601f8201168201806040525081019061113c91906112f8565b6111469190611311565b6111509190611311565b6109cc9190611311565b60006020828403121561116c57600080fd5b5035919050565b6001600160a01b038116811461118857600080fd5b50565b6000806040838503121561119e57600080fd5b8235915060208301356111b081611173565b809150509250929050565b600080604083850312156111ce57600080fd5b82356111d981611173565b946020939093013593505050565b600080604083850312156111fa57600080fd5b50508035926020909101359150565b6020808252600990820152683337b93134b23232b760b91b604082015260600190565b6000825160005b8181101561124d5760208186018101518583015201611233565b8181111561125c576000828501525b509190910192915050565b60006020828403121561127957600080fd5b815180151581146105a957600080fd5b634e487b7160e01b600052601160045260246000fd5b600082198211156112b2576112b2611289565b500190565b6000826112d457634e487b7160e01b600052601260045260246000fd5b500490565b60008160001904831182151516156112f3576112f3611289565b500290565b60006020828403121561130a57600080fd5b5051919050565b60008282101561132357611323611289565b500390565b60006020828403121561133a57600080fd5b81516105a981611173565b634e487b7160e01b600052603260045260246000fd5b634e487b7160e01b600052603160045260246000fdfea2646970667358221220f187ba41e2ad8450b990301086eceb7bc50520c055dce4e44e42a95dbaec737864736f6c634300080d0033",
  "linkReferences": {},
  "deployedLinkReferences": {}
}