{
  "_format": "hh-sol-artifact-1",
  "contractName": "Minter",
  "sourceName": "contracts/base/token/Minter.sol",
  "abi": [
    {
      "inputs": [
        {
          "internalType": "address",
          "name": "__ve",
          "type": "address"
        },
        {
          "internalType": "address",
          "name": "__controller",
          "type": "address"
        }
      ],
      "stateMutability": "nonpayable",
      "type": "constructor"
    },
    {
      "anonymous": false,
      "inputs": [
        {
          "indexed": true,
          "internalType": "bytes32",
          "name": "role",
          "type": "bytes32"
        },
        {
          "indexed": true,
          "internalType": "address",
          "name": "account",
          "type": "address"
        },
        {
          "indexed": true,
          "internalType": "address",
          "name": "sender",
          "type": "address"
        }
      ],
      "name": "RoleGranted",
      "type": "event"
    },
    {
      "anonymous": false,
      "inputs": [
        {
          "indexed": true,
          "internalType": "bytes32",
          "name": "role",
          "type": "bytes32"
        },
        {
          "indexed": true,
          "internalType": "address",
          "name": "account",
          "type": "address"
        },
        {
          "indexed": true,
          "internalType": "address",
          "name": "sender",
          "type": "address"
        }
      ],
      "name": "RoleRevoked",
      "type": "event"
    },
    {
      "anonymous": false,
      "inputs": [
        {
          "indexed": true,
          "internalType": "address",
          "name": "sender",
          "type": "address"
        },
        {
          "indexed": false,
          "internalType": "uint256",
          "name": "veDistAmount",
          "type": "uint256"
        },
        {
          "indexed": false,
          "internalType": "uint256",
          "name": "voterAmount",
          "type": "uint256"
        }
      ],
      "name": "Send",
      "type": "event"
    },
    {
      "inputs": [],
      "name": "DEFAULT_ADMIN_ROLE",
      "outputs": [
        {
          "internalType": "bytes32",
          "name": "",
          "type": "bytes32"
        }
      ],
      "stateMutability": "view",
      "type": "function"
    },
    {
      "inputs": [],
      "name": "VE_DIST_RATIO_MAX",
      "outputs": [
        {
          "internalType": "uint256",
          "name": "",
          "type": "uint256"
        }
      ],
      "stateMutability": "view",
      "type": "function"
    },
    {
      "inputs": [],
      "name": "_START_BASE_WEEKLY_EMISSION",
      "outputs": [
        {
          "internalType": "uint256",
          "name": "",
          "type": "uint256"
        }
      ],
      "stateMutability": "view",
      "type": "function"
    },
    {
      "inputs": [],
      "name": "_STUB_CIRCULATION",
      "outputs": [
        {
          "internalType": "uint256",
          "name": "",
          "type": "uint256"
        }
      ],
      "stateMutability": "view",
      "type": "function"
    },
    {
      "inputs": [],
      "name": "_STUB_CIRCULATION_DENOMINATOR",
      "outputs": [
        {
          "internalType": "uint256",
          "name": "",
          "type": "uint256"
        }
      ],
      "stateMutability": "view",
      "type": "function"
    },
    {
      "inputs": [],
      "name": "_TAIL_EMISSION",
      "outputs": [
        {
          "internalType": "uint256",
          "name": "",
          "type": "uint256"
        }
      ],
      "stateMutability": "view",
      "type": "function"
    },
    {
      "inputs": [],
      "name": "_TAIL_EMISSION_DENOMINATOR",
      "outputs": [
        {
          "internalType": "uint256",
          "name": "",
          "type": "uint256"
        }
      ],
      "stateMutability": "view",
      "type": "function"
    },
    {
      "inputs": [],
      "name": "_token",
      "outputs": [
        {
          "internalType": "contract IERC20",
          "name": "",
          "type": "address"
        }
      ],
      "stateMutability": "view",
      "type": "function"
    },
    {
      "inputs": [],
      "name": "_ve",
      "outputs": [
        {
          "internalType": "contract IVe",
          "name": "",
          "type": "address"
        }
      ],
      "stateMutability": "view",
      "type": "function"
    },
    {
      "inputs": [],
      "name": "activeperiod",
      "outputs": [
        {
          "internalType": "uint256",
          "name": "",
          "type": "uint256"
        }
      ],
      "stateMutability": "view",
      "type": "function"
    },
    {
      "inputs": [
        {
          "internalType": "uint256",
          "name": "_veDistPerWeek",
          "type": "uint256"
        }
      ],
      "name": "adminSetVeDistPerWeek",
      "outputs": [],
      "stateMutability": "nonpayable",
      "type": "function"
    },
    {
      "inputs": [
        {
          "internalType": "uint256",
          "name": "_voterPerWeek",
          "type": "uint256"
        }
      ],
      "name": "adminSetVoterPerWeek",
      "outputs": [],
      "stateMutability": "nonpayable",
      "type": "function"
    },
    {
      "inputs": [],
      "name": "baseWeeklyEmission",
      "outputs": [
        {
          "internalType": "uint256",
          "name": "",
          "type": "uint256"
        }
      ],
      "stateMutability": "view",
      "type": "function"
    },
    {
      "inputs": [],
      "name": "calculateEmission",
      "outputs": [
        {
          "internalType": "uint256",
          "name": "",
          "type": "uint256"
        }
      ],
      "stateMutability": "view",
      "type": "function"
    },
    {
      "inputs": [],
      "name": "controller",
      "outputs": [
        {
          "internalType": "address",
          "name": "",
          "type": "address"
        }
      ],
      "stateMutability": "view",
      "type": "function"
    },
    {
      "inputs": [
        {
          "internalType": "bytes32",
          "name": "role",
          "type": "bytes32"
        }
      ],
      "name": "getRoleAdmin",
      "outputs": [
        {
          "internalType": "bytes32",
          "name": "",
          "type": "bytes32"
        }
      ],
      "stateMutability": "view",
      "type": "function"
    },
    {
      "inputs": [
        {
          "internalType": "bytes32",
          "name": "role",
          "type": "bytes32"
        },
        {
          "internalType": "uint256",
          "name": "index",
          "type": "uint256"
        }
      ],
      "name": "getRoleMember",
      "outputs": [
        {
          "internalType": "address",
          "name": "",
          "type": "address"
        }
      ],
      "stateMutability": "view",
      "type": "function"
    },
    {
      "inputs": [
        {
          "internalType": "bytes32",
          "name": "role",
          "type": "bytes32"
        }
      ],
      "name": "getRoleMemberCount",
      "outputs": [
        {
          "internalType": "uint256",
          "name": "",
          "type": "uint256"
        }
      ],
      "stateMutability": "view",
      "type": "function"
    },
    {
      "inputs": [
        {
          "internalType": "bytes32",
          "name": "role",
          "type": "bytes32"
        },
        {
          "internalType": "address",
          "name": "account",
          "type": "address"
        }
      ],
      "name": "getRoleMemberIndex",
      "outputs": [
        {
          "internalType": "uint256",
          "name": "",
          "type": "uint256"
        }
      ],
      "stateMutability": "view",
      "type": "function"
    },
    {
      "inputs": [
        {
          "internalType": "bytes32",
          "name": "role",
          "type": "bytes32"
        },
        {
          "internalType": "address",
          "name": "account",
          "type": "address"
        }
      ],
      "name": "grantRole",
      "outputs": [],
      "stateMutability": "nonpayable",
      "type": "function"
    },
    {
      "inputs": [
        {
          "internalType": "bytes32",
          "name": "role",
          "type": "bytes32"
        },
        {
          "internalType": "address",
          "name": "account",
          "type": "address"
        }
      ],
      "name": "hasRole",
      "outputs": [
        {
          "internalType": "bool",
          "name": "",
          "type": "bool"
        }
      ],
      "stateMutability": "view",
      "type": "function"
    },
    {
      "inputs": [],
      "name": "initialStubCirculation",
      "outputs": [
        {
          "internalType": "uint256",
          "name": "",
          "type": "uint256"
        }
      ],
      "stateMutability": "view",
      "type": "function"
    },
    {
      "inputs": [
        {
          "internalType": "address",
          "name": "to",
          "type": "address"
        },
        {
          "internalType": "uint256",
          "name": "amount",
          "type": "uint256"
        }
      ],
      "name": "mint",
      "outputs": [],
      "stateMutability": "nonpayable",
      "type": "function"
    },
    {
      "inputs": [
        {
          "internalType": "bytes32",
          "name": "role",
          "type": "bytes32"
        },
        {
          "internalType": "address",
          "name": "account",
          "type": "address"
        }
      ],
      "name": "renounceRole",
      "outputs": [],
      "stateMutability": "nonpayable",
      "type": "function"
    },
    {
      "inputs": [
        {
          "internalType": "bytes32",
          "name": "role",
          "type": "bytes32"
        },
        {
          "internalType": "address",
          "name": "account",
          "type": "address"
        }
      ],
      "name": "revokeRole",
      "outputs": [],
      "stateMutability": "nonpayable",
      "type": "function"
    },
    {
      "inputs": [],
      "name": "updatePeriod",
      "outputs": [
        {
          "internalType": "uint256",
          "name": "",
          "type": "uint256"
        }
      ],
      "stateMutability": "nonpayable",
      "type": "function"
    },
    {
      "inputs": [],
      "name": "veDistPerWeek",
      "outputs": [
        {
          "internalType": "uint256",
          "name": "",
          "type": "uint256"
        }
      ],
      "stateMutability": "view",
      "type": "function"
    },
    {
      "inputs": [],
      "name": "veDistRatio",
      "outputs": [
        {
          "internalType": "uint256",
          "name": "",
          "type": "uint256"
        }
      ],
      "stateMutability": "view",
      "type": "function"
    },
    {
      "inputs": [],
      "name": "voterPerWeek",
      "outputs": [
        {
          "internalType": "uint256",
          "name": "",
          "type": "uint256"
        }
      ],
      "stateMutability": "view",
      "type": "function"
    },
    {
      "inputs": [],
      "name": "weeklyEmission",
      "outputs": [
        {
          "internalType": "uint256",
          "name": "",
          "type": "uint256"
        }
      ],
      "stateMutability": "view",
      "type": "function"
    },
    {
      "inputs": [
        {
          "internalType": "uint256",
          "name": "amount",
          "type": "uint256"
        }
      ],
      "name": "withdraw",
      "outputs": [],
      "stateMutability": "nonpayable",
      "type": "function"
    }
  ],
  "bytecode": "0x60806040526a108b2a2c280290940000006007553480156200002057600080fd5b50604051620017843803806200178483398101604081905262000043916200021d565b816001600160a01b031663fc0c546a6040518163ffffffff1660e01b8152600401602060405180830381865afa15801562000082573d6000803e3d6000fd5b505050506040513d601f19601f82011682018060405250810190620000a8919062000255565b600280546001600160a01b03199081166001600160a01b03938416179091556003805482168584161790556004805490911691831691909117905562093a80620000f3814262000273565b620000ff919062000296565b6005556200010f60003362000117565b5050620002c4565b62000123828262000127565b5050565b6000828152602081815260409091206200014c91839062000c336200018e821b17901c565b15620001235760405133906001600160a01b0383169084907f2f8788117e7eff1d82e926ec794901d17c78024a50270940304540a733656f0d90600090a45050565b6000620001a5836001600160a01b038416620001ae565b90505b92915050565b6000818152600183016020526040812054620001f757508154600181810184556000848152602080822090930184905584548482528286019093526040902091909155620001a8565b506000620001a8565b80516001600160a01b03811681146200021857600080fd5b919050565b600080604083850312156200023157600080fd5b6200023c8362000200565b91506200024c6020840162000200565b90509250929050565b6000602082840312156200026857600080fd5b620001a58262000200565b6000826200029157634e487b7160e01b600052601260045260246000fd5b500490565b6000816000190483118215151615620002bf57634e487b7160e01b600052601160045260246000fd5b500290565b6114b080620002d46000396000f3fe608060405234801561001057600080fd5b50600436106101e55760003560e01c8063a7c4cf431161010f578063d70142fb116100a2578063f6ff876911610071578063f6ff8769146103b9578063f77c4791146103c1578063f9d9e6fd146103d4578063ff26679f1461031657600080fd5b8063d70142fb14610382578063e52522b61461038a578063ea25119c14610393578063ecd0c0c3146103a657600080fd5b8063ca15c873116100de578063ca15c87314610341578063d547741f14610354578063d63e0f2714610367578063d651a83d1461037957600080fd5b8063a7c4cf4314610316578063a83627de1461031e578063aa8754e414610326578063baa98bbd1461032e57600080fd5b806341833cda116101875780638dd598fb116101565780638dd598fb146102ad5780639010d07c146102d857806391d14854146102eb578063a217fddf1461030e57600080fd5b806341833cda146102805780634e0df3f614610288578063713efc991461029b57806385ec4b25146102a457600080fd5b80632e1a7d4d116101c35780632e1a7d4d146102325780632f2ff15d1461024757806336568abe1461025a57806340c10f191461026d57600080fd5b806302c3b420146101ea5780630f2e908d14610206578063248a9ca31461020f575b600080fd5b6101f360075481565b6040519081526020015b60405180910390f35b6101f360015481565b6101f361021d366004611266565b60009081526020819052604090206002015490565b610245610240366004611266565b6103dd565b005b610245610255366004611294565b6104c1565b610245610268366004611294565b61054f565b61024561027b3660046112c4565b6105c9565b6101f3600181565b6101f3610296366004611294565b6106ed565b6101f360055481565b6101f361271081565b6003546102c0906001600160a01b031681565b6040516001600160a01b0390911681526020016101fd565b6102c06102e63660046112f0565b610718565b6102fe6102f9366004611294565b610737565b60405190151581526020016101fd565b6101f3600081565b6101f3606481565b6101f361074f565b6101f3610b2f565b61024561033c366004611266565b610b39565b6101f361034f366004611266565b610b65565b610245610362366004611294565b610b7c565b6101f36a108b2a2c2802909400000081565b6101f360085481565b6101f3610bfd565b6101f360095481565b6102456103a1366004611266565b610c07565b6002546102c0906001600160a01b031681565b6101f3600a81565b6004546102c0906001600160a01b031681565b6101f360065481565b6103e8600033610737565b61040d5760405162461bcd60e51b815260040161040490611312565b60405180910390fd5b60025460405163a9059cbb60e01b8152336004820152602481018390526001600160a01b039091169063a9059cbb906044016020604051808303816000875af115801561045e573d6000803e3d6000fd5b505050506040513d601f19601f820116820180604052508101906104829190611335565b6104be5760405162461bcd60e51b815260206004820152600d60248201526c151c985b9cd9995c8811985a5b609a1b6044820152606401610404565b50565b6000828152602081905260409020600201546104dd9033610737565b6105415760405162461bcd60e51b815260206004820152602f60248201527f416363657373436f6e74726f6c3a2073656e646572206d75737420626520616e60448201526e0818591b5a5b881d1bc819dc985b9d608a1b6064820152608401610404565b61054b8282610c48565b5050565b6001600160a01b03811633146105bf5760405162461bcd60e51b815260206004820152602f60248201527f416363657373436f6e74726f6c3a2063616e206f6e6c792072656e6f756e636560448201526e103937b632b9903337b91039b2b63360891b6064820152608401610404565b61054b8282610ca1565b6105d4600033610737565b6105f05760405162461bcd60e51b815260040161040490611312565b600254604080516001600160a01b038581166024830152604480830186905283518084039091018152606490920183526020820180516001600160e01b03166340c10f1960e01b17905291516000938493169161064c91611357565b6000604051808303816000865af19150503d8060008114610689576040519150601f19603f3d011682016040523d82523d6000602084013e61068e565b606091505b50915091508180156106af5750808060200190518101906106af9190611335565b6106e75760405162461bcd60e51b81526020600482015260096024820152681b5a5b9d0819985a5b60ba1b6044820152606401610404565b50505050565b6000828152602081815260408083206001600160a01b03851684526001019091529020545b92915050565b60008281526020819052604081206107309083610cfa565b9392505050565b60008281526020819052604081206107309083610d06565b600061075b8133610737565b6107775760405162461bcd60e51b815260040161040490611312565b60055461078762093a80826113a8565b4210610b2a5762093a8061079b81426113c0565b6107a591906113e2565b60058190556002546040516370a0823160e01b81523060048201529192506000916001600160a01b03909116906370a0823190602401602060405180830381865afa1580156107f8573d6000803e3d6000fd5b505050506040513d601f19601f8201168201806040525081019061081c9190611401565b905060095460085461082e91906113a8565b8110156108745760405162461bcd60e51b8152602060048201526014602482015273496e73756666696369656e742062616c616e636560601b6044820152606401610404565b6002546001600160a01b031663a9059cbb61088d610d28565b6008546040516001600160e01b031960e085901b1681526001600160a01b03909216600483015260248201526044016020604051808303816000875af11580156108db573d6000803e3d6000fd5b505050506040513d601f19601f820116820180604052508101906108ff9190611335565b61093b5760405162461bcd60e51b815260206004820152600d60248201526c151c985b9cd9995c8811985a5b609a1b6044820152606401610404565b610943610d28565b6001600160a01b031663bee5dc326040518163ffffffff1660e01b8152600401600060405180830381600087803b15801561097d57600080fd5b505af1158015610991573d6000803e3d6000fd5b5050505061099d610d28565b6001600160a01b031663326a94076040518163ffffffff1660e01b8152600401600060405180830381600087803b1580156109d757600080fd5b505af11580156109eb573d6000803e3d6000fd5b50506002546001600160a01b0316915063095ea7b39050610a0a610da1565b6009546040516001600160e01b031960e085901b1681526001600160a01b03909216600483015260248201526044016020604051808303816000875af1158015610a58573d6000803e3d6000fd5b505050506040513d601f19601f82011682018060405250810190610a7c9190611335565b50610a85610da1565b6001600160a01b0316633c6b16ab6009546040518263ffffffff1660e01b8152600401610ab491815260200190565b600060405180830381600087803b158015610ace57600080fd5b505af1158015610ae2573d6000803e3d6000fd5b50506008546009546040805192835260208301919091523393507fb3a7f4e19ac1e31fc41d825d7a63c4af7b79cda95d9abfb66c36e6987706bf9792500160405180910390a2505b905090565b6000610b2a610df6565b610b44600033610737565b610b605760405162461bcd60e51b815260040161040490611312565b600855565b600081815260208190526040812061071290610e83565b600082815260208190526040902060020154610b989033610737565b6105bf5760405162461bcd60e51b815260206004820152603060248201527f416363657373436f6e74726f6c3a2073656e646572206d75737420626520616e60448201526f2061646d696e20746f207265766f6b6560801b6064820152608401610404565b6000610b2a610e8d565b610c12600033610737565b610c2e5760405162461bcd60e51b815260040161040490611312565b600955565b6000610730836001600160a01b038416610ea7565b6000828152602081905260409020610c609082610c33565b1561054b5760405133906001600160a01b0383169084907f2f8788117e7eff1d82e926ec794901d17c78024a50270940304540a733656f0d90600090a45050565b6000828152602081905260409020610cb99082610ef6565b1561054b5760405133906001600160a01b0383169084907ff6391f5c32d9c69d2a47ea670b442974b53935d1edc7fd64eb21e047a839171b90600090a45050565b60006107308383610f0b565b6001600160a01b03811660009081526001830160205260408120541515610730565b6000600460009054906101000a90046001600160a01b03166001600160a01b031663c13270f16040518163ffffffff1660e01b8152600401602060405180830381865afa158015610d7d573d6000803e3d6000fd5b505050506040513d601f19601f82011682018060405250810190610b2a919061141a565b6000600460009054906101000a90046001600160a01b03166001600160a01b03166346c96aac6040518163ffffffff1660e01b8152600401602060405180830381865afa158015610d7d573d6000803e3d6000fd5b600254604080516318160ddd60e01b815290516000926001600160a01b0316916318160ddd9160048083019260209291908290030181865afa158015610e40573d6000803e3d6000fd5b505050506040513d601f19601f82011682018060405250810190610e649190611401565b610e6c610f35565b600754610e7991906113e2565b610b2a91906113c0565b6000610712825490565b6000610b2a610e9a610df6565b610ea2610f4a565b610f62565b6000818152600183016020526040812054610eee57508154600181810184556000848152602080822090930184905584548482528286019093526040902091909155610712565b506000610712565b6000610730836001600160a01b038416610f79565b6000826000018281548110610f2257610f22611437565b9060005260206000200154905092915050565b6000610b2a610f4261106c565b600654610f62565b600060646001610f5861106c565b610e7991906113e2565b600081831015610f725781610730565b5090919050565b60008181526001830160205260408120548015611062576000610f9d60018361144d565b8554909150600090610fb19060019061144d565b9050818114611016576000866000018281548110610fd157610fd1611437565b9060005260206000200154905080876000018481548110610ff457610ff4611437565b6000918252602080832090910192909255918252600188019052604090208390555b855486908061102757611027611464565b600190038181906000526020600020016000905590558560010160008681526020019081526020016000206000905560019350505050610712565b6000915050610712565b6002546040516370a0823160e01b81523060048201526000916001600160a01b0316906370a0823190602401602060405180830381865afa1580156110b5573d6000803e3d6000fd5b505050506040513d601f19601f820116820180604052508101906110d99190611401565b6002546001600160a01b03166370a082316110f2610d28565b6040516001600160e01b031960e084901b1681526001600160a01b039091166004820152602401602060405180830381865afa158015611136573d6000803e3d6000fd5b505050506040513d601f19601f8201168201806040525081019061115a9190611401565b600360009054906101000a90046001600160a01b03166001600160a01b03166318160ddd6040518163ffffffff1660e01b8152600401602060405180830381865afa1580156111ad573d6000803e3d6000fd5b505050506040513d601f19601f820116820180604052508101906111d19190611401565b600260009054906101000a90046001600160a01b03166001600160a01b03166318160ddd6040518163ffffffff1660e01b8152600401602060405180830381865afa158015611224573d6000803e3d6000fd5b505050506040513d601f19601f820116820180604052508101906112489190611401565b611252919061144d565b61125c919061144d565b610b2a919061144d565b60006020828403121561127857600080fd5b5035919050565b6001600160a01b03811681146104be57600080fd5b600080604083850312156112a757600080fd5b8235915060208301356112b98161127f565b809150509250929050565b600080604083850312156112d757600080fd5b82356112e28161127f565b946020939093013593505050565b6000806040838503121561130357600080fd5b50508035926020909101359150565b6020808252600990820152683337b93134b23232b760b91b604082015260600190565b60006020828403121561134757600080fd5b8151801515811461073057600080fd5b6000825160005b81811015611378576020818601810151858301520161135e565b81811115611387576000828501525b509190910192915050565b634e487b7160e01b600052601160045260246000fd5b600082198211156113bb576113bb611392565b500190565b6000826113dd57634e487b7160e01b600052601260045260246000fd5b500490565b60008160001904831182151516156113fc576113fc611392565b500290565b60006020828403121561141357600080fd5b5051919050565b60006020828403121561142c57600080fd5b81516107308161127f565b634e487b7160e01b600052603260045260246000fd5b60008282101561145f5761145f611392565b500390565b634e487b7160e01b600052603160045260246000fdfea26469706673582212201118d1c1769f25c4cda3d750406f13407f2ddfd87dbdb544532028342a9739a464736f6c634300080d0033",
  "linkReferences": {},
  "deployedLinkReferences": {}
}