{
  "_format": "hh-sol-artifact-1",
  "contractName": "Multicall2",
  "sourceName": "contracts/Multicall2.sol",
  "abi": [
    {
      "inputs": [
        {
          "components": [
            {
              "internalType": "address",
              "name": "target",
              "type": "address"
            },
            {
              "internalType": "bytes",
              "name": "callData",
              "type": "bytes"
            }
          ],
          "internalType": "struct Multicall2.Call[]",
          "name": "calls",
          "type": "tuple[]"
        }
      ],
      "name": "aggregate",
      "outputs": [
        {
          "internalType": "uint256",
          "name": "blockNumber",
          "type": "uint256"
        },
        {
          "internalType": "bytes[]",
          "name": "returnData",
          "type": "bytes[]"
        }
      ],
      "stateMutability": "nonpayable",
      "type": "function"
    },
    {
      "inputs": [
        {
          "components": [
            {
              "internalType": "address",
              "name": "target",
              "type": "address"
            },
            {
              "internalType": "bytes",
              "name": "callData",
              "type": "bytes"
            }
          ],
          "internalType": "struct Multicall2.Call[]",
          "name": "calls",
          "type": "tuple[]"
        }
      ],
      "name": "blockAndAggregate",
      "outputs": [
        {
          "internalType": "uint256",
          "name": "blockNumber",
          "type": "uint256"
        },
        {
          "internalType": "bytes32",
          "name": "blockHash",
          "type": "bytes32"
        },
        {
          "components": [
            {
              "internalType": "bool",
              "name": "success",
              "type": "bool"
            },
            {
              "internalType": "bytes",
              "name": "returnData",
              "type": "bytes"
            }
          ],
          "internalType": "struct Multicall2.Result[]",
          "name": "returnData",
          "type": "tuple[]"
        }
      ],
      "stateMutability": "nonpayable",
      "type": "function"
    },
    {
      "inputs": [
        {
          "internalType": "uint256",
          "name": "blockNumber",
          "type": "uint256"
        }
      ],
      "name": "getBlockHash",
      "outputs": [
        {
          "internalType": "bytes32",
          "name": "blockHash",
          "type": "bytes32"
        }
      ],
      "stateMutability": "view",
      "type": "function"
    },
    {
      "inputs": [],
      "name": "getBlockNumber",
      "outputs": [
        {
          "internalType": "uint256",
          "name": "blockNumber",
          "type": "uint256"
        }
      ],
      "stateMutability": "view",
      "type": "function"
    },
    {
      "inputs": [],
      "name": "getCurrentBlockCoinbase",
      "outputs": [
        {
          "internalType": "address",
          "name": "coinbase",
          "type": "address"
        }
      ],
      "stateMutability": "view",
      "type": "function"
    },
    {
      "inputs": [],
      "name": "getCurrentBlockDifficulty",
      "outputs": [
        {
          "internalType": "uint256",
          "name": "difficulty",
          "type": "uint256"
        }
      ],
      "stateMutability": "view",
      "type": "function"
    },
    {
      "inputs": [],
      "name": "getCurrentBlockGasLimit",
      "outputs": [
        {
          "internalType": "uint256",
          "name": "gaslimit",
          "type": "uint256"
        }
      ],
      "stateMutability": "view",
      "type": "function"
    },
    {
      "inputs": [],
      "name": "getCurrentBlockTimestamp",
      "outputs": [
        {
          "internalType": "uint256",
          "name": "timestamp",
          "type": "uint256"
        }
      ],
      "stateMutability": "view",
      "type": "function"
    },
    {
      "inputs": [
        {
          "internalType": "address",
          "name": "addr",
          "type": "address"
        }
      ],
      "name": "getEthBalance",
      "outputs": [
        {
          "internalType": "uint256",
          "name": "balance",
          "type": "uint256"
        }
      ],
      "stateMutability": "view",
      "type": "function"
    },
    {
      "inputs": [],
      "name": "getLastBlockHash",
      "outputs": [
        {
          "internalType": "bytes32",
          "name": "blockHash",
          "type": "bytes32"
        }
      ],
      "stateMutability": "view",
      "type": "function"
    },
    {
      "inputs": [
        {
          "internalType": "bool",
          "name": "requireSuccess",
          "type": "bool"
        },
        {
          "components": [
            {
              "internalType": "address",
              "name": "target",
              "type": "address"
            },
            {
              "internalType": "bytes",
              "name": "callData",
              "type": "bytes"
            }
          ],
          "internalType": "struct Multicall2.Call[]",
          "name": "calls",
          "type": "tuple[]"
        }
      ],
      "name": "tryAggregate",
      "outputs": [
        {
          "components": [
            {
              "internalType": "bool",
              "name": "success",
              "type": "bool"
            },
            {
              "internalType": "bytes",
              "name": "returnData",
              "type": "bytes"
            }
          ],
          "internalType": "struct Multicall2.Result[]",
          "name": "returnData",
          "type": "tuple[]"
        }
      ],
      "stateMutability": "nonpayable",
      "type": "function"
    },
    {
      "inputs": [
        {
          "internalType": "bool",
          "name": "requireSuccess",
          "type": "bool"
        },
        {
          "components": [
            {
              "internalType": "address",
              "name": "target",
              "type": "address"
            },
            {
              "internalType": "bytes",
              "name": "callData",
              "type": "bytes"
            }
          ],
          "internalType": "struct Multicall2.Call[]",
          "name": "calls",
          "type": "tuple[]"
        }
      ],
      "name": "tryBlockAndAggregate",
      "outputs": [
        {
          "internalType": "uint256",
          "name": "blockNumber",
          "type": "uint256"
        },
        {
          "internalType": "bytes32",
          "name": "blockHash",
          "type": "bytes32"
        },
        {
          "components": [
            {
              "internalType": "bool",
              "name": "success",
              "type": "bool"
            },
            {
              "internalType": "bytes",
              "name": "returnData",
              "type": "bytes"
            }
          ],
          "internalType": "struct Multicall2.Result[]",
          "name": "returnData",
          "type": "tuple[]"
        }
      ],
      "stateMutability": "nonpayable",
      "type": "function"
    }
  ],
  "bytecode": "0x608060405234801561001057600080fd5b50610921806100206000396000f3fe608060405234801561001057600080fd5b50600436106100b45760003560e01c806372425d9d1161007157806372425d9d1461013a57806386d516e814610140578063a8b0574e14610146578063bce38bd714610154578063c3077fa914610174578063ee82ac5e1461018757600080fd5b80630f28c97d146100b9578063252dba42146100ce57806327e86d6e146100ef578063399542e9146100f757806342cbb15c146101195780634d2301cc1461011f575b600080fd5b425b6040519081526020015b60405180910390f35b6100e16100dc3660046105c3565b610199565b6040516100c5929190610652565b6100bb610348565b61010a6101053660046106bc565b61035b565b6040516100c59392919061077e565b436100bb565b6100bb61012d3660046107a6565b6001600160a01b03163190565b446100bb565b456100bb565b6040514181526020016100c5565b6101676101623660046106bc565b610376565b6040516100c591906107d6565b61010a6101823660046105c3565b610558565b6100bb6101953660046107e9565b4090565b4360608267ffffffffffffffff8111156101b5576101b5610802565b6040519080825280602002602001820160405280156101e857816020015b60608152602001906001900390816101d35790505b50905060005b838110156103405760008086868481811061020b5761020b610818565b905060200281019061021d919061082e565b61022b9060208101906107a6565b6001600160a01b031687878581811061024657610246610818565b9050602002810190610258919061082e565b61026690602081019061084e565b604051610274929190610895565b6000604051808303816000865af19150503d80600081146102b1576040519150601f19603f3d011682016040523d82523d6000602084013e6102b6565b606091505b50915091508161030d5760405162461bcd60e51b815260206004820181905260248201527f4d756c746963616c6c206167677265676174653a2063616c6c206661696c656460448201526064015b60405180910390fd5b8084848151811061032057610320610818565b602002602001018190525050508080610338906108bb565b9150506101ee565b509250929050565b60006103556001436108d4565b40905090565b438040606061036b868686610376565b905093509350939050565b60608167ffffffffffffffff81111561039157610391610802565b6040519080825280602002602001820160405280156103d757816020015b6040805180820190915260008152606060208201528152602001906001900390816103af5790505b50905060005b82811015610550576000808585848181106103fa576103fa610818565b905060200281019061040c919061082e565b61041a9060208101906107a6565b6001600160a01b031686868581811061043557610435610818565b9050602002810190610447919061082e565b61045590602081019061084e565b604051610463929190610895565b6000604051808303816000865af19150503d80600081146104a0576040519150601f19603f3d011682016040523d82523d6000602084013e6104a5565b606091505b5091509150861561050757816105075760405162461bcd60e51b815260206004820152602160248201527f4d756c746963616c6c32206167677265676174653a2063616c6c206661696c656044820152601960fa1b6064820152608401610304565b604051806040016040528083151581526020018281525084848151811061053057610530610818565b602002602001018190525050508080610548906108bb565b9150506103dd565b509392505050565b60008060606105696001868661035b565b919790965090945092505050565b60008083601f84011261058957600080fd5b50813567ffffffffffffffff8111156105a157600080fd5b6020830191508360208260051b85010111156105bc57600080fd5b9250929050565b600080602083850312156105d657600080fd5b823567ffffffffffffffff8111156105ed57600080fd5b6105f985828601610577565b90969095509350505050565b6000815180845260005b8181101561062b5760208185018101518683018201520161060f565b8181111561063d576000602083870101525b50601f01601f19169290920160200192915050565b600060408201848352602060408185015281855180845260608601915060608160051b870101935082870160005b828110156106ae57605f1988870301845261069c868351610605565b95509284019290840190600101610680565b509398975050505050505050565b6000806000604084860312156106d157600080fd5b833580151581146106e157600080fd5b9250602084013567ffffffffffffffff8111156106fd57600080fd5b61070986828701610577565b9497909650939450505050565b6000815180845260208085019450848260051b860182860160005b858110156107715783830389528151805115158452850151604086850181905261075d81860183610605565b9a87019a9450505090840190600101610731565b5090979650505050505050565b83815282602082015260606040820152600061079d6060830184610716565b95945050505050565b6000602082840312156107b857600080fd5b81356001600160a01b03811681146107cf57600080fd5b9392505050565b6020815260006107cf6020830184610716565b6000602082840312156107fb57600080fd5b5035919050565b634e487b7160e01b600052604160045260246000fd5b634e487b7160e01b600052603260045260246000fd5b60008235603e1983360301811261084457600080fd5b9190910192915050565b6000808335601e1984360301811261086557600080fd5b83018035915067ffffffffffffffff82111561088057600080fd5b6020019150368190038213156105bc57600080fd5b8183823760009101908152919050565b634e487b7160e01b600052601160045260246000fd5b6000600182016108cd576108cd6108a5565b5060010190565b6000828210156108e6576108e66108a5565b50039056fea26469706673582212204ef64a3291498d4440c2a467febc43ac1df24909c016a7f3b5e27f586c29fa2064736f6c634300080d0033",
  "linkReferences": {},
  "deployedLinkReferences": {}
}