{
  "address": "0xbB7Ed4365D2c80e47df533E72BDed9642F801aB2",
  "abi": [
    {
      "inputs": [],
      "stateMutability": "nonpayable",
      "type": "constructor"
    },
    {
      "anonymous": false,
      "inputs": [
        {
          "indexed": false,
          "internalType": "address",
          "name": "receipent",
          "type": "address"
        },
        {
          "indexed": false,
          "internalType": "address",
          "name": "token",
          "type": "address"
        },
        {
          "indexed": false,
          "internalType": "uint256",
          "name": "amount",
          "type": "uint256"
        }
      ],
      "name": "Claimed",
      "type": "event"
    },
    {
      "inputs": [],
      "name": "acceptOwner",
      "outputs": [],
      "stateMutability": "nonpayable",
      "type": "function"
    },
    {
      "inputs": [
        {
          "internalType": "address[]",
          "name": "tokens",
          "type": "address[]"
        }
      ],
      "name": "claim",
      "outputs": [],
      "stateMutability": "nonpayable",
      "type": "function"
    },
    {
      "inputs": [],
      "name": "owner",
      "outputs": [
        {
          "internalType": "address",
          "name": "",
          "type": "address"
        }
      ],
      "stateMutability": "view",
      "type": "function"
    },
    {
      "inputs": [],
      "name": "pendingOwner",
      "outputs": [
        {
          "internalType": "address",
          "name": "",
          "type": "address"
        }
      ],
      "stateMutability": "view",
      "type": "function"
    },
    {
      "inputs": [
        {
          "internalType": "address",
          "name": "_owner",
          "type": "address"
        }
      ],
      "name": "setOwner",
      "outputs": [],
      "stateMutability": "nonpayable",
      "type": "function"
    }
  ],
  "transactionHash": "0x18020c7b116f621e58d4a7d3c7beaa60052b867cea1d6606092083553d405c8e",
  "args": [],
  "numDeployments": 1,
  "solcInputHash": "a2e5b4663605a50e69393503484dc72a",
  "bytecode": "0x608060405234801561001057600080fd5b50600080546001600160a01b031916331790556107b6806100326000396000f3fe608060405234801561001057600080fd5b50600436106100575760003560e01c806313af40351461005c578063318d9e5d146100715780638da5cb5b14610084578063e30c3978146100b3578063ebbc4965146100c6575b600080fd5b61006f61006a366004610593565b6100ce565b005b61006f61007f3660046105c4565b61013b565b600054610097906001600160a01b031681565b6040516001600160a01b03909116815260200160405180910390f35b600154610097906001600160a01b031681565b61006f6102d1565b6000546001600160a01b031633146101195760405162461bcd60e51b81526020600482015260096024820152682737ba1037bbb732b960b91b60448201526064015b60405180910390fd5b600180546001600160a01b0319166001600160a01b0392909216919091179055565b6000546001600160a01b031633146101815760405162461bcd60e51b81526020600482015260096024820152682737ba1037bbb732b960b91b6044820152606401610110565b60005b81518110156102cd5760008282815181106101a1576101a1610689565b60209081029190910101516040516370a0823160e01b81523060048201529091506000906001600160a01b038316906370a0823190602401602060405180830381865afa1580156101f6573d6000803e3d6000fd5b505050506040513d601f19601f8201168201806040525081019061021a919061069f565b90508060000361025b5760405162461bcd60e51b815260206004820152600c60248201526b5a65726f2062616c616e636560a01b6044820152606401610110565b61026f6001600160a01b0383163383610343565b604080513381526001600160a01b03841660208201529081018290527ff7a40077ff7a04c7e61f6f26fb13774259ddf1b6bce9ecf26a8276cdd39926839060600160405180910390a1505080806102c5906106b8565b915050610184565b5050565b6001546001600160a01b0316331461031f5760405162461bcd60e51b81526020600482015260116024820152702737ba103832b73234b7339037bbb732b960791b6044820152606401610110565b600154600080546001600160a01b0319166001600160a01b03909216919091179055565b604080516001600160a01b038416602482015260448082018490528251808303909101815260649091019091526020810180516001600160e01b031663a9059cbb60e01b17905261039590849061039a565b505050565b60006103ef826040518060400160405280602081526020017f5361666545524332303a206c6f772d6c6576656c2063616c6c206661696c6564815250856001600160a01b031661046c9092919063ffffffff16565b805190915015610395578080602001905181019061040d91906106df565b6103955760405162461bcd60e51b815260206004820152602a60248201527f5361666545524332303a204552433230206f7065726174696f6e20646964206e6044820152691bdd081cdd58d8d9595960b21b6064820152608401610110565b60606001600160a01b0384163b6104c55760405162461bcd60e51b815260206004820152601d60248201527f416464726573733a2063616c6c20746f206e6f6e2d636f6e74726163740000006044820152606401610110565b600080856001600160a01b0316856040516104e09190610731565b6000604051808303816000865af19150503d806000811461051d576040519150601f19603f3d011682016040523d82523d6000602084013e610522565b606091505b509150915061053282828661053e565b925050505b9392505050565b6060831561054d575081610537565b82511561055d5782518084602001fd5b8160405162461bcd60e51b8152600401610110919061074d565b80356001600160a01b038116811461058e57600080fd5b919050565b6000602082840312156105a557600080fd5b61053782610577565b634e487b7160e01b600052604160045260246000fd5b600060208083850312156105d757600080fd5b823567ffffffffffffffff808211156105ef57600080fd5b818501915085601f83011261060357600080fd5b813581811115610615576106156105ae565b8060051b604051601f19603f8301168101818110858211171561063a5761063a6105ae565b60405291825284820192508381018501918883111561065857600080fd5b938501935b8285101561067d5761066e85610577565b8452938501939285019261065d565b98975050505050505050565b634e487b7160e01b600052603260045260246000fd5b6000602082840312156106b157600080fd5b5051919050565b6000600182016106d857634e487b7160e01b600052601160045260246000fd5b5060010190565b6000602082840312156106f157600080fd5b8151801515811461053757600080fd5b60005b8381101561071c578181015183820152602001610704565b8381111561072b576000848401525b50505050565b60008251610743818460208701610701565b9190910192915050565b602081526000825180602084015261076c816040850160208701610701565b601f01601f1916919091016040019291505056fea264697066735822122032cecc7275e44ec4581eaf51b3dea6f49441239ce77988b5282865dc6add3a2b64736f6c634300080d0033",
  "devdoc": {
    "kind": "dev",
    "methods": {},
    "version": 1
  },
  "userdoc": {
    "kind": "user",
    "methods": {},
    "version": 1
  },
  "storageLayout": {
    "storage": [
      {
        "astId": 263,
        "contract": "contracts/base/core/GovernanceTreasury.sol:GovernanceTreasury",
        "label": "owner",
        "offset": 0,
        "slot": "0",
        "type": "t_address"
      },
      {
        "astId": 265,
        "contract": "contracts/base/core/GovernanceTreasury.sol:GovernanceTreasury",
        "label": "pendingOwner",
        "offset": 0,
        "slot": "1",
        "type": "t_address"
      }
    ],
    "types": {
      "t_address": {
        "encoding": "inplace",
        "label": "address",
        "numberOfBytes": "20"
      }
    }
  }
}