{
  "address": "0xA79BF5298225E779825EC5eC6efFA502F9bf0Bd4",
  "abi": [
    {
      "anonymous": false,
      "inputs": [
        {
          "indexed": true,
          "internalType": "bytes32",
          "name": "role",
          "type": "bytes32"
        },
        {
          "indexed": true,
          "internalType": "address",
          "name": "account",
          "type": "address"
        },
        {
          "indexed": true,
          "internalType": "address",
          "name": "sender",
          "type": "address"
        }
      ],
      "name": "RoleGranted",
      "type": "event"
    },
    {
      "anonymous": false,
      "inputs": [
        {
          "indexed": true,
          "internalType": "bytes32",
          "name": "role",
          "type": "bytes32"
        },
        {
          "indexed": true,
          "internalType": "address",
          "name": "account",
          "type": "address"
        },
        {
          "indexed": true,
          "internalType": "address",
          "name": "sender",
          "type": "address"
        }
      ],
      "name": "RoleRevoked",
      "type": "event"
    },
    {
      "anonymous": false,
      "inputs": [
        {
          "indexed": true,
          "internalType": "address",
          "name": "sender",
          "type": "address"
        },
        {
          "indexed": false,
          "internalType": "uint256",
          "name": "veDistAmount",
          "type": "uint256"
        },
        {
          "indexed": false,
          "internalType": "uint256",
          "name": "voterAmount",
          "type": "uint256"
        }
      ],
      "name": "Send",
      "type": "event"
    },
    {
      "inputs": [],
      "name": "DEFAULT_ADMIN_ROLE",
      "outputs": [
        {
          "internalType": "bytes32",
          "name": "",
          "type": "bytes32"
        }
      ],
      "stateMutability": "view",
      "type": "function"
    },
    {
      "inputs": [],
      "name": "_token",
      "outputs": [
        {
          "internalType": "contract IERC20",
          "name": "",
          "type": "address"
        }
      ],
      "stateMutability": "view",
      "type": "function"
    },
    {
      "inputs": [],
      "name": "_ve",
      "outputs": [
        {
          "internalType": "contract IVe",
          "name": "",
          "type": "address"
        }
      ],
      "stateMutability": "view",
      "type": "function"
    },
    {
      "inputs": [],
      "name": "activeperiod",
      "outputs": [
        {
          "internalType": "uint256",
          "name": "",
          "type": "uint256"
        }
      ],
      "stateMutability": "view",
      "type": "function"
    },
    {
      "inputs": [
        {
          "internalType": "uint256",
          "name": "_veDistPerWeek",
          "type": "uint256"
        }
      ],
      "name": "adminSetVeDistPerWeek",
      "outputs": [],
      "stateMutability": "nonpayable",
      "type": "function"
    },
    {
      "inputs": [
        {
          "internalType": "uint256",
          "name": "_voterPerWeek",
          "type": "uint256"
        }
      ],
      "name": "adminSetVoterPerWeek",
      "outputs": [],
      "stateMutability": "nonpayable",
      "type": "function"
    },
    {
      "inputs": [],
      "name": "controller",
      "outputs": [
        {
          "internalType": "address",
          "name": "",
          "type": "address"
        }
      ],
      "stateMutability": "view",
      "type": "function"
    },
    {
      "inputs": [
        {
          "internalType": "bytes32",
          "name": "role",
          "type": "bytes32"
        }
      ],
      "name": "getRoleAdmin",
      "outputs": [
        {
          "internalType": "bytes32",
          "name": "",
          "type": "bytes32"
        }
      ],
      "stateMutability": "view",
      "type": "function"
    },
    {
      "inputs": [
        {
          "internalType": "bytes32",
          "name": "role",
          "type": "bytes32"
        },
        {
          "internalType": "uint256",
          "name": "index",
          "type": "uint256"
        }
      ],
      "name": "getRoleMember",
      "outputs": [
        {
          "internalType": "address",
          "name": "",
          "type": "address"
        }
      ],
      "stateMutability": "view",
      "type": "function"
    },
    {
      "inputs": [
        {
          "internalType": "bytes32",
          "name": "role",
          "type": "bytes32"
        }
      ],
      "name": "getRoleMemberCount",
      "outputs": [
        {
          "internalType": "uint256",
          "name": "",
          "type": "uint256"
        }
      ],
      "stateMutability": "view",
      "type": "function"
    },
    {
      "inputs": [
        {
          "internalType": "bytes32",
          "name": "role",
          "type": "bytes32"
        },
        {
          "internalType": "address",
          "name": "account",
          "type": "address"
        }
      ],
      "name": "getRoleMemberIndex",
      "outputs": [
        {
          "internalType": "uint256",
          "name": "",
          "type": "uint256"
        }
      ],
      "stateMutability": "view",
      "type": "function"
    },
    {
      "inputs": [
        {
          "internalType": "bytes32",
          "name": "role",
          "type": "bytes32"
        },
        {
          "internalType": "address",
          "name": "account",
          "type": "address"
        }
      ],
      "name": "grantRole",
      "outputs": [],
      "stateMutability": "nonpayable",
      "type": "function"
    },
    {
      "inputs": [
        {
          "internalType": "bytes32",
          "name": "role",
          "type": "bytes32"
        },
        {
          "internalType": "address",
          "name": "account",
          "type": "address"
        }
      ],
      "name": "hasRole",
      "outputs": [
        {
          "internalType": "bool",
          "name": "",
          "type": "bool"
        }
      ],
      "stateMutability": "view",
      "type": "function"
    },
    {
      "inputs": [
        {
          "internalType": "address",
          "name": "__ve",
          "type": "address"
        },
        {
          "internalType": "address",
          "name": "__controller",
          "type": "address"
        },
        {
          "internalType": "address",
          "name": "admin",
          "type": "address"
        }
      ],
      "name": "initialize",
      "outputs": [],
      "stateMutability": "nonpayable",
      "type": "function"
    },
    {
      "inputs": [
        {
          "internalType": "address",
          "name": "to",
          "type": "address"
        },
        {
          "internalType": "uint256",
          "name": "amount",
          "type": "uint256"
        }
      ],
      "name": "mint",
      "outputs": [],
      "stateMutability": "nonpayable",
      "type": "function"
    },
    {
      "inputs": [
        {
          "internalType": "bytes32",
          "name": "role",
          "type": "bytes32"
        },
        {
          "internalType": "address",
          "name": "account",
          "type": "address"
        }
      ],
      "name": "renounceRole",
      "outputs": [],
      "stateMutability": "nonpayable",
      "type": "function"
    },
    {
      "inputs": [
        {
          "internalType": "bytes32",
          "name": "role",
          "type": "bytes32"
        },
        {
          "internalType": "address",
          "name": "account",
          "type": "address"
        }
      ],
      "name": "revokeRole",
      "outputs": [],
      "stateMutability": "nonpayable",
      "type": "function"
    },
    {
      "inputs": [
        {
          "internalType": "uint256",
          "name": "_activeperiod",
          "type": "uint256"
        }
      ],
      "name": "setActiveperiod",
      "outputs": [],
      "stateMutability": "nonpayable",
      "type": "function"
    },
    {
      "inputs": [],
      "name": "updatePeriod",
      "outputs": [
        {
          "internalType": "uint256",
          "name": "",
          "type": "uint256"
        }
      ],
      "stateMutability": "nonpayable",
      "type": "function"
    },
    {
      "inputs": [],
      "name": "veDistPerWeek",
      "outputs": [
        {
          "internalType": "uint256",
          "name": "",
          "type": "uint256"
        }
      ],
      "stateMutability": "view",
      "type": "function"
    },
    {
      "inputs": [],
      "name": "voterPerWeek",
      "outputs": [
        {
          "internalType": "uint256",
          "name": "",
          "type": "uint256"
        }
      ],
      "stateMutability": "view",
      "type": "function"
    },
    {
      "inputs": [],
      "name": "weeklyEmission",
      "outputs": [
        {
          "internalType": "uint256",
          "name": "",
          "type": "uint256"
        }
      ],
      "stateMutability": "view",
      "type": "function"
    },
    {
      "inputs": [
        {
          "internalType": "address[]",
          "name": "tokens",
          "type": "address[]"
        }
      ],
      "name": "whiteList",
      "outputs": [],
      "stateMutability": "nonpayable",
      "type": "function"
    },
    {
      "inputs": [
        {
          "internalType": "uint256",
          "name": "amount",
          "type": "uint256"
        }
      ],
      "name": "withdraw",
      "outputs": [],
      "stateMutability": "nonpayable",
      "type": "function"
    }
  ],
  "transactionHash": "0x89ccfe95f6ad245959d567fc823f418dfcf3906f51a88f3a30b22830542148f8",
  "args": [],
  "numDeployments": 1,
  "solcInputHash": "e99817f06ada10b740b2d2a091f0d467",
  "bytecode": "0x608060405234801561001057600080fd5b50611511806100206000396000f3fe608060405234801561001057600080fd5b50600436106101585760003560e01c8063a83627de116100c3578063d70142fb1161007c578063d70142fb146102d6578063e52522b6146102de578063e81a0624146102e7578063ea25119c146102fa578063ecd0c0c31461030d578063f77c47911461032657600080fd5b8063a83627de14610279578063baa98bbd14610281578063c0c53b8b14610294578063ca15c873146102a7578063d547741f146102ba578063d651a83d146102cd57600080fd5b8063713efc9911610115578063713efc99146101f45780638dd598fb146101fd5780639010d07c1461022857806391c5f4a61461023b57806391d148541461024e578063a217fddf1461027157600080fd5b8063248a9ca31461015d5780632e1a7d4d146101935780632f2ff15d146101a857806336568abe146101bb57806340c10f19146101ce5780634e0df3f6146101e1575b600080fd5b61018061016b366004611134565b60009081526020819052604090206002015490565b6040519081526020015b60405180910390f35b6101a66101a1366004611134565b610339565b005b6101a66101b6366004611172565b610422565b6101a66101c9366004611172565b6104b0565b6101a66101dc3660046111a2565b61052a565b6101806101ef366004611172565b610655565b61018060045481565b600254610210906001600160a01b031681565b6040516001600160a01b03909116815260200161018a565b6102106102363660046111ce565b610680565b6101a6610249366004611206565b61069f565b61026161025c366004611172565b610730565b604051901515815260200161018a565b610180600081565b610180610748565b6101a661028f366004611134565b610b41565b6101a66102a23660046112cb565b610b6d565b6101806102b5366004611134565b610cfa565b6101a66102c8366004611172565b610d11565b61018060055481565b610180610d92565b61018060065481565b6101a66102f5366004611134565b610da4565b6101a6610308366004611134565b610dd0565b600154610210906201000090046001600160a01b031681565b600354610210906001600160a01b031681565b610344600033610730565b6103695760405162461bcd60e51b815260040161036090611316565b60405180910390fd5b60015460405163a9059cbb60e01b815233600482015260248101839052620100009091046001600160a01b03169063a9059cbb906044016020604051808303816000875af11580156103bf573d6000803e3d6000fd5b505050506040513d601f19601f820116820180604052508101906103e39190611339565b61041f5760405162461bcd60e51b815260206004820152600d60248201526c151c985b9cd9995c8811985a5b609a1b6044820152606401610360565b50565b60008281526020819052604090206002015461043e9033610730565b6104a25760405162461bcd60e51b815260206004820152602f60248201527f416363657373436f6e74726f6c3a2073656e646572206d75737420626520616e60448201526e0818591b5a5b881d1bc819dc985b9d608a1b6064820152608401610360565b6104ac8282610dfc565b5050565b6001600160a01b03811633146105205760405162461bcd60e51b815260206004820152602f60248201527f416363657373436f6e74726f6c3a2063616e206f6e6c792072656e6f756e636560448201526e103937b632b9903337b91039b2b63360891b6064820152608401610360565b6104ac8282610e55565b610535600033610730565b6105515760405162461bcd60e51b815260040161036090611316565b600154604080516001600160a01b038581166024830152604480830186905283518084039091018152606490920183526020820180516001600160e01b03166340c10f1960e01b179052915160009384936201000090910416916105b49161135b565b6000604051808303816000865af19150503d80600081146105f1576040519150601f19603f3d011682016040523d82523d6000602084013e6105f6565b606091505b50915091508180156106175750808060200190518101906106179190611339565b61064f5760405162461bcd60e51b81526020600482015260096024820152681b5a5b9d0819985a5b60ba1b6044820152606401610360565b50505050565b6000828152602081815260408083206001600160a01b03851684526001019091529020545b92915050565b60008281526020819052604081206106989083610eae565b9392505050565b6106aa600033610730565b6106c65760405162461bcd60e51b815260040161036090611316565b6106ce610eba565b6001600160a01b0316637e1ddf6482306040518363ffffffff1660e01b81526004016106fb929190611396565b600060405180830381600087803b15801561071557600080fd5b505af1158015610729573d6000803e3d6000fd5b5050505050565b60008281526020819052604081206106989083610f28565b60006107548133610730565b6107705760405162461bcd60e51b815260040161036090611316565b60045461078062093a8082611409565b4210610b3c5762093a806107948142611421565b61079e9190611443565b60048181556001546040516370a0823160e01b815230928101929092529192506000916201000090046001600160a01b0316906370a0823190602401602060405180830381865afa1580156107f7573d6000803e3d6000fd5b505050506040513d601f19601f8201168201806040525081019061081b9190611462565b905060065460055461082d9190611409565b8110156108735760405162461bcd60e51b8152602060048201526014602482015273496e73756666696369656e742062616c616e636560601b6044820152606401610360565b600554156109fd576001546201000090046001600160a01b031663a9059cbb61089a610f4a565b6005546040516001600160e01b031960e085901b1681526001600160a01b03909216600483015260248201526044016020604051808303816000875af11580156108e8573d6000803e3d6000fd5b505050506040513d601f19601f8201168201806040525081019061090c9190611339565b6109485760405162461bcd60e51b815260206004820152600d60248201526c151c985b9cd9995c8811985a5b609a1b6044820152606401610360565b610950610f4a565b6001600160a01b031663bee5dc326040518163ffffffff1660e01b8152600401600060405180830381600087803b15801561098a57600080fd5b505af115801561099e573d6000803e3d6000fd5b505050506109aa610f4a565b6001600160a01b031663326a94076040518163ffffffff1660e01b8152600401600060405180830381600087803b1580156109e457600080fd5b505af11580156109f8573d6000803e3d6000fd5b505050505b6001546201000090046001600160a01b031663095ea7b3610a1c610eba565b6006546040516001600160e01b031960e085901b1681526001600160a01b03909216600483015260248201526044016020604051808303816000875af1158015610a6a573d6000803e3d6000fd5b505050506040513d601f19601f82011682018060405250810190610a8e9190611339565b50610a97610eba565b6001600160a01b0316633c6b16ab6006546040518263ffffffff1660e01b8152600401610ac691815260200190565b600060405180830381600087803b158015610ae057600080fd5b505af1158015610af4573d6000803e3d6000fd5b50506005546006546040805192835260208301919091523393507fb3a7f4e19ac1e31fc41d825d7a63c4af7b79cda95d9abfb66c36e6987706bf9792500160405180910390a2505b905090565b610b4c600033610730565b610b685760405162461bcd60e51b815260040161036090611316565b600555565b600154610100900460ff16610b885760015460ff1615610b8c565b303b155b610bef5760405162461bcd60e51b815260206004820152602e60248201527f496e697469616c697a61626c653a20636f6e747261637420697320616c72656160448201526d191e481a5b9a5d1a585b1a5e995960921b6064820152608401610360565b600154610100900460ff16158015610c11576001805461ffff19166101011790555b836001600160a01b031663fc0c546a6040518163ffffffff1660e01b8152600401602060405180830381865afa158015610c4f573d6000803e3d6000fd5b505050506040513d601f19601f82011682018060405250810190610c73919061147b565b6001805462010000600160b01b031916620100006001600160a01b0393841602179055600280546001600160a01b0319908116878416179091556003805490911691851691909117905562093a80610ccb8142611421565b610cd59190611443565b600455610ce36000836104a2565b801561064f576001805461ff001916905550505050565b600081815260208190526040812061067a90610f94565b600082815260208190526040902060020154610d2d9033610730565b6105205760405162461bcd60e51b815260206004820152603060248201527f416363657373436f6e74726f6c3a2073656e646572206d75737420626520616e60448201526f2061646d696e20746f207265766f6b6560801b6064820152608401610360565b6000600654600554610b3c9190611409565b610daf600033610730565b610dcb5760405162461bcd60e51b815260040161036090611316565b600455565b610ddb600033610730565b610df75760405162461bcd60e51b815260040161036090611316565b600655565b6000828152602081905260409020610e149082610f9e565b156104ac5760405133906001600160a01b0383169084907f2f8788117e7eff1d82e926ec794901d17c78024a50270940304540a733656f0d90600090a45050565b6000828152602081905260409020610e6d9082610fb3565b156104ac5760405133906001600160a01b0383169084907ff6391f5c32d9c69d2a47ea670b442974b53935d1edc7fd64eb21e047a839171b90600090a45050565b60006106988383610fc8565b600354604080516311b25aab60e21b815290516000926001600160a01b0316916346c96aac9160048083019260209291908290030181865afa158015610f04573d6000803e3d6000fd5b505050506040513d601f19601f82011682018060405250810190610b3c919061147b565b6001600160a01b03811660009081526001830160205260408120541515610698565b6003546040805163c13270f160e01b815290516000926001600160a01b03169163c13270f19160048083019260209291908290030181865afa158015610f04573d6000803e3d6000fd5b600061067a825490565b6000610698836001600160a01b038416610ff2565b6000610698836001600160a01b038416611041565b6000826000018281548110610fdf57610fdf611498565b9060005260206000200154905092915050565b60008181526001830160205260408120546110395750815460018181018455600084815260208082209093018490558454848252828601909352604090209190915561067a565b50600061067a565b6000818152600183016020526040812054801561112a5760006110656001836114ae565b8554909150600090611079906001906114ae565b90508181146110de57600086600001828154811061109957611099611498565b90600052602060002001549050808760000184815481106110bc576110bc611498565b6000918252602080832090910192909255918252600188019052604090208390555b85548690806110ef576110ef6114c5565b60019003818190600052602060002001600090559055856001016000868152602001908152602001600020600090556001935050505061067a565b600091505061067a565b60006020828403121561114657600080fd5b5035919050565b6001600160a01b038116811461041f57600080fd5b803561116d8161114d565b919050565b6000806040838503121561118557600080fd5b8235915060208301356111978161114d565b809150509250929050565b600080604083850312156111b557600080fd5b82356111c08161114d565b946020939093013593505050565b600080604083850312156111e157600080fd5b50508035926020909101359150565b634e487b7160e01b600052604160045260246000fd5b6000602080838503121561121957600080fd5b823567ffffffffffffffff8082111561123157600080fd5b818501915085601f83011261124557600080fd5b813581811115611257576112576111f0565b8060051b604051601f19603f8301168101818110858211171561127c5761127c6111f0565b60405291825284820192508381018501918883111561129a57600080fd5b938501935b828510156112bf576112b085611162565b8452938501939285019261129f565b98975050505050505050565b6000806000606084860312156112e057600080fd5b83356112eb8161114d565b925060208401356112fb8161114d565b9150604084013561130b8161114d565b809150509250925092565b6020808252600990820152683337b93134b23232b760b91b604082015260600190565b60006020828403121561134b57600080fd5b8151801515811461069857600080fd5b6000825160005b8181101561137c5760208186018101518583015201611362565b8181111561138b576000828501525b509190910192915050565b604080825283519082018190526000906020906060840190828701845b828110156113d85781516001600160a01b0316845292840192908401906001016113b3565b5050506001600160a01b039490941692019190915250919050565b634e487b7160e01b600052601160045260246000fd5b6000821982111561141c5761141c6113f3565b500190565b60008261143e57634e487b7160e01b600052601260045260246000fd5b500490565b600081600019048311821515161561145d5761145d6113f3565b500290565b60006020828403121561147457600080fd5b5051919050565b60006020828403121561148d57600080fd5b81516106988161114d565b634e487b7160e01b600052603260045260246000fd5b6000828210156114c0576114c06113f3565b500390565b634e487b7160e01b600052603160045260246000fdfea2646970667358221220054f6fa1890caab8968955dbb35e59d32f1fef13054923fdc09b09b3474e0a1564736f6c634300080d0033",
  "devdoc": {
    "kind": "dev",
    "methods": {
      "getRoleAdmin(bytes32)": {
        "details": "Returns the admin role that controls `role`. See {grantRole} and {revokeRole}. To change a role's admin, use {_setRoleAdmin}."
      },
      "getRoleMember(bytes32,uint256)": {
        "details": "Returns one of the accounts that have `role`. `index` must be a value between 0 and {getRoleMemberCount}, non-inclusive. Role bearers are not sorted in any particular way, and their ordering may change at any point. WARNING: When using {getRoleMember} and {getRoleMemberCount}, make sure you perform all queries on the same block. See the following https://forum.openzeppelin.com/t/iterating-over-elements-on-enumerableset-in-openzeppelin-contracts/2296[forum post] for more information."
      },
      "getRoleMemberCount(bytes32)": {
        "details": "Returns the number of accounts that have `role`. Can be used together with {getRoleMember} to enumerate all bearers of a role."
      },
      "getRoleMemberIndex(bytes32,address)": {
        "details": "Returns the index of the account that have `role`."
      },
      "grantRole(bytes32,address)": {
        "details": "Grants `role` to `account`. If `account` had not been already granted `role`, emits a {RoleGranted} event. Requirements: - the caller must have ``role``'s admin role."
      },
      "hasRole(bytes32,address)": {
        "details": "Returns `true` if `account` has been granted `role`."
      },
      "renounceRole(bytes32,address)": {
        "details": "Revokes `role` from the calling account. Roles are often managed via {grantRole} and {revokeRole}: this function's purpose is to provide a mechanism for accounts to lose their privileges if they are compromised (such as when a trusted device is misplaced). If the calling account had been granted `role`, emits a {RoleRevoked} event. Requirements: - the caller must be `account`."
      },
      "revokeRole(bytes32,address)": {
        "details": "Revokes `role` from `account`. If `account` had been granted `role`, emits a {RoleRevoked} event. Requirements: - the caller must have ``role``'s admin role."
      }
    },
    "stateVariables": {
      "veDistPerWeek": {
        "details": "veDist per week"
      },
      "voterPerWeek": {
        "details": "voter per week"
      }
    },
    "version": 1
  },
  "userdoc": {
    "kind": "user",
    "methods": {},
    "version": 1
  },
  "storageLayout": {
    "storage": [
      {
        "astId": 25763,
        "contract": "contracts/base/token/MinterUpgradeable.sol:MinterUpgradeable",
        "label": "_roles",
        "offset": 0,
        "slot": "0",
        "type": "t_mapping(t_bytes32,t_struct(RoleData)25758_storage)"
      },
      {
        "astId": 26949,
        "contract": "contracts/base/token/MinterUpgradeable.sol:MinterUpgradeable",
        "label": "_initialized",
        "offset": 0,
        "slot": "1",
        "type": "t_bool"
      },
      {
        "astId": 26952,
        "contract": "contracts/base/token/MinterUpgradeable.sol:MinterUpgradeable",
        "label": "_initializing",
        "offset": 1,
        "slot": "1",
        "type": "t_bool"
      },
      {
        "astId": 10085,
        "contract": "contracts/base/token/MinterUpgradeable.sol:MinterUpgradeable",
        "label": "_token",
        "offset": 2,
        "slot": "1",
        "type": "t_contract(IERC20)24029"
      },
      {
        "astId": 10088,
        "contract": "contracts/base/token/MinterUpgradeable.sol:MinterUpgradeable",
        "label": "_ve",
        "offset": 0,
        "slot": "2",
        "type": "t_contract(IVe)25597"
      },
      {
        "astId": 10090,
        "contract": "contracts/base/token/MinterUpgradeable.sol:MinterUpgradeable",
        "label": "controller",
        "offset": 0,
        "slot": "3",
        "type": "t_address"
      },
      {
        "astId": 10092,
        "contract": "contracts/base/token/MinterUpgradeable.sol:MinterUpgradeable",
        "label": "activeperiod",
        "offset": 0,
        "slot": "4",
        "type": "t_uint256"
      },
      {
        "astId": 10095,
        "contract": "contracts/base/token/MinterUpgradeable.sol:MinterUpgradeable",
        "label": "veDistPerWeek",
        "offset": 0,
        "slot": "5",
        "type": "t_uint256"
      },
      {
        "astId": 10098,
        "contract": "contracts/base/token/MinterUpgradeable.sol:MinterUpgradeable",
        "label": "voterPerWeek",
        "offset": 0,
        "slot": "6",
        "type": "t_uint256"
      }
    ],
    "types": {
      "t_address": {
        "encoding": "inplace",
        "label": "address",
        "numberOfBytes": "20"
      },
      "t_array(t_bytes32)dyn_storage": {
        "base": "t_bytes32",
        "encoding": "dynamic_array",
        "label": "bytes32[]",
        "numberOfBytes": "32"
      },
      "t_bool": {
        "encoding": "inplace",
        "label": "bool",
        "numberOfBytes": "1"
      },
      "t_bytes32": {
        "encoding": "inplace",
        "label": "bytes32",
        "numberOfBytes": "32"
      },
      "t_contract(IERC20)24029": {
        "encoding": "inplace",
        "label": "contract IERC20",
        "numberOfBytes": "20"
      },
      "t_contract(IVe)25597": {
        "encoding": "inplace",
        "label": "contract IVe",
        "numberOfBytes": "20"
      },
      "t_mapping(t_bytes32,t_struct(RoleData)25758_storage)": {
        "encoding": "mapping",
        "key": "t_bytes32",
        "label": "mapping(bytes32 => struct AccessControl.RoleData)",
        "numberOfBytes": "32",
        "value": "t_struct(RoleData)25758_storage"
      },
      "t_mapping(t_bytes32,t_uint256)": {
        "encoding": "mapping",
        "key": "t_bytes32",
        "label": "mapping(bytes32 => uint256)",
        "numberOfBytes": "32",
        "value": "t_uint256"
      },
      "t_struct(AddressSet)26655_storage": {
        "encoding": "inplace",
        "label": "struct EnumerableSet.AddressSet",
        "members": [
          {
            "astId": 26654,
            "contract": "contracts/base/token/MinterUpgradeable.sol:MinterUpgradeable",
            "label": "_inner",
            "offset": 0,
            "slot": "0",
            "type": "t_struct(Set)26354_storage"
          }
        ],
        "numberOfBytes": "64"
      },
      "t_struct(RoleData)25758_storage": {
        "encoding": "inplace",
        "label": "struct AccessControl.RoleData",
        "members": [
          {
            "astId": 25755,
            "contract": "contracts/base/token/MinterUpgradeable.sol:MinterUpgradeable",
            "label": "members",
            "offset": 0,
            "slot": "0",
            "type": "t_struct(AddressSet)26655_storage"
          },
          {
            "astId": 25757,
            "contract": "contracts/base/token/MinterUpgradeable.sol:MinterUpgradeable",
            "label": "adminRole",
            "offset": 0,
            "slot": "2",
            "type": "t_bytes32"
          }
        ],
        "numberOfBytes": "96"
      },
      "t_struct(Set)26354_storage": {
        "encoding": "inplace",
        "label": "struct EnumerableSet.Set",
        "members": [
          {
            "astId": 26349,
            "contract": "contracts/base/token/MinterUpgradeable.sol:MinterUpgradeable",
            "label": "_values",
            "offset": 0,
            "slot": "0",
            "type": "t_array(t_bytes32)dyn_storage"
          },
          {
            "astId": 26353,
            "contract": "contracts/base/token/MinterUpgradeable.sol:MinterUpgradeable",
            "label": "_indexes",
            "offset": 0,
            "slot": "1",
            "type": "t_mapping(t_bytes32,t_uint256)"
          }
        ],
        "numberOfBytes": "64"
      },
      "t_uint256": {
        "encoding": "inplace",
        "label": "uint256",
        "numberOfBytes": "32"
      }
    }
  }
}