{
  "address": "0xF96C383173b2D89314014Cc9e429D89A6D6cF3D3",
  "abi": [
    {
      "anonymous": false,
      "inputs": [
        {
          "indexed": true,
          "internalType": "bytes32",
          "name": "role",
          "type": "bytes32"
        },
        {
          "indexed": true,
          "internalType": "address",
          "name": "account",
          "type": "address"
        },
        {
          "indexed": true,
          "internalType": "address",
          "name": "sender",
          "type": "address"
        }
      ],
      "name": "RoleGranted",
      "type": "event"
    },
    {
      "anonymous": false,
      "inputs": [
        {
          "indexed": true,
          "internalType": "bytes32",
          "name": "role",
          "type": "bytes32"
        },
        {
          "indexed": true,
          "internalType": "address",
          "name": "account",
          "type": "address"
        },
        {
          "indexed": true,
          "internalType": "address",
          "name": "sender",
          "type": "address"
        }
      ],
      "name": "RoleRevoked",
      "type": "event"
    },
    {
      "anonymous": false,
      "inputs": [
        {
          "indexed": true,
          "internalType": "address",
          "name": "sender",
          "type": "address"
        },
        {
          "indexed": false,
          "internalType": "uint256",
          "name": "veDistAmount",
          "type": "uint256"
        },
        {
          "indexed": false,
          "internalType": "uint256",
          "name": "voterAmount",
          "type": "uint256"
        }
      ],
      "name": "Send",
      "type": "event"
    },
    {
      "inputs": [],
      "name": "DEFAULT_ADMIN_ROLE",
      "outputs": [
        {
          "internalType": "bytes32",
          "name": "",
          "type": "bytes32"
        }
      ],
      "stateMutability": "view",
      "type": "function"
    },
    {
      "inputs": [],
      "name": "_token",
      "outputs": [
        {
          "internalType": "contract IERC20",
          "name": "",
          "type": "address"
        }
      ],
      "stateMutability": "view",
      "type": "function"
    },
    {
      "inputs": [],
      "name": "_ve",
      "outputs": [
        {
          "internalType": "contract IVe",
          "name": "",
          "type": "address"
        }
      ],
      "stateMutability": "view",
      "type": "function"
    },
    {
      "inputs": [],
      "name": "activeperiod",
      "outputs": [
        {
          "internalType": "uint256",
          "name": "",
          "type": "uint256"
        }
      ],
      "stateMutability": "view",
      "type": "function"
    },
    {
      "inputs": [
        {
          "internalType": "uint256",
          "name": "_veDistPerWeek",
          "type": "uint256"
        }
      ],
      "name": "adminSetVeDistPerWeek",
      "outputs": [],
      "stateMutability": "nonpayable",
      "type": "function"
    },
    {
      "inputs": [
        {
          "internalType": "uint256",
          "name": "_voterPerWeek",
          "type": "uint256"
        }
      ],
      "name": "adminSetVoterPerWeek",
      "outputs": [],
      "stateMutability": "nonpayable",
      "type": "function"
    },
    {
      "inputs": [],
      "name": "controller",
      "outputs": [
        {
          "internalType": "address",
          "name": "",
          "type": "address"
        }
      ],
      "stateMutability": "view",
      "type": "function"
    },
    {
      "inputs": [
        {
          "internalType": "bytes32",
          "name": "role",
          "type": "bytes32"
        }
      ],
      "name": "getRoleAdmin",
      "outputs": [
        {
          "internalType": "bytes32",
          "name": "",
          "type": "bytes32"
        }
      ],
      "stateMutability": "view",
      "type": "function"
    },
    {
      "inputs": [
        {
          "internalType": "bytes32",
          "name": "role",
          "type": "bytes32"
        },
        {
          "internalType": "uint256",
          "name": "index",
          "type": "uint256"
        }
      ],
      "name": "getRoleMember",
      "outputs": [
        {
          "internalType": "address",
          "name": "",
          "type": "address"
        }
      ],
      "stateMutability": "view",
      "type": "function"
    },
    {
      "inputs": [
        {
          "internalType": "bytes32",
          "name": "role",
          "type": "bytes32"
        }
      ],
      "name": "getRoleMemberCount",
      "outputs": [
        {
          "internalType": "uint256",
          "name": "",
          "type": "uint256"
        }
      ],
      "stateMutability": "view",
      "type": "function"
    },
    {
      "inputs": [
        {
          "internalType": "bytes32",
          "name": "role",
          "type": "bytes32"
        },
        {
          "internalType": "address",
          "name": "account",
          "type": "address"
        }
      ],
      "name": "getRoleMemberIndex",
      "outputs": [
        {
          "internalType": "uint256",
          "name": "",
          "type": "uint256"
        }
      ],
      "stateMutability": "view",
      "type": "function"
    },
    {
      "inputs": [
        {
          "internalType": "bytes32",
          "name": "role",
          "type": "bytes32"
        },
        {
          "internalType": "address",
          "name": "account",
          "type": "address"
        }
      ],
      "name": "grantRole",
      "outputs": [],
      "stateMutability": "nonpayable",
      "type": "function"
    },
    {
      "inputs": [
        {
          "internalType": "bytes32",
          "name": "role",
          "type": "bytes32"
        },
        {
          "internalType": "address",
          "name": "account",
          "type": "address"
        }
      ],
      "name": "hasRole",
      "outputs": [
        {
          "internalType": "bool",
          "name": "",
          "type": "bool"
        }
      ],
      "stateMutability": "view",
      "type": "function"
    },
    {
      "inputs": [
        {
          "internalType": "address",
          "name": "__ve",
          "type": "address"
        },
        {
          "internalType": "address",
          "name": "__controller",
          "type": "address"
        },
        {
          "internalType": "address",
          "name": "admin",
          "type": "address"
        }
      ],
      "name": "initialize",
      "outputs": [],
      "stateMutability": "nonpayable",
      "type": "function"
    },
    {
      "inputs": [
        {
          "internalType": "address",
          "name": "to",
          "type": "address"
        },
        {
          "internalType": "uint256",
          "name": "amount",
          "type": "uint256"
        }
      ],
      "name": "mint",
      "outputs": [],
      "stateMutability": "nonpayable",
      "type": "function"
    },
    {
      "inputs": [
        {
          "internalType": "bytes32",
          "name": "role",
          "type": "bytes32"
        },
        {
          "internalType": "address",
          "name": "account",
          "type": "address"
        }
      ],
      "name": "renounceRole",
      "outputs": [],
      "stateMutability": "nonpayable",
      "type": "function"
    },
    {
      "inputs": [
        {
          "internalType": "bytes32",
          "name": "role",
          "type": "bytes32"
        },
        {
          "internalType": "address",
          "name": "account",
          "type": "address"
        }
      ],
      "name": "revokeRole",
      "outputs": [],
      "stateMutability": "nonpayable",
      "type": "function"
    },
    {
      "inputs": [
        {
          "internalType": "uint256",
          "name": "_activeperiod",
          "type": "uint256"
        }
      ],
      "name": "setActiveperiod",
      "outputs": [],
      "stateMutability": "nonpayable",
      "type": "function"
    },
    {
      "inputs": [],
      "name": "updatePeriod",
      "outputs": [
        {
          "internalType": "uint256",
          "name": "",
          "type": "uint256"
        }
      ],
      "stateMutability": "nonpayable",
      "type": "function"
    },
    {
      "inputs": [],
      "name": "veDistPerWeek",
      "outputs": [
        {
          "internalType": "uint256",
          "name": "",
          "type": "uint256"
        }
      ],
      "stateMutability": "view",
      "type": "function"
    },
    {
      "inputs": [],
      "name": "voterPerWeek",
      "outputs": [
        {
          "internalType": "uint256",
          "name": "",
          "type": "uint256"
        }
      ],
      "stateMutability": "view",
      "type": "function"
    },
    {
      "inputs": [],
      "name": "weeklyEmission",
      "outputs": [
        {
          "internalType": "uint256",
          "name": "",
          "type": "uint256"
        }
      ],
      "stateMutability": "view",
      "type": "function"
    },
    {
      "inputs": [
        {
          "internalType": "address[]",
          "name": "tokens",
          "type": "address[]"
        }
      ],
      "name": "whiteList",
      "outputs": [],
      "stateMutability": "nonpayable",
      "type": "function"
    },
    {
      "inputs": [
        {
          "internalType": "uint256",
          "name": "amount",
          "type": "uint256"
        }
      ],
      "name": "withdraw",
      "outputs": [],
      "stateMutability": "nonpayable",
      "type": "function"
    }
  ],
  "transactionHash": "0xfd0f935fc8066d3641542b0a584355ecd1dbacf4e17f17c981e2542ffc79a3fa",
  "args": [],
  "numDeployments": 9,
  "solcInputHash": "6ca1ad356f75333e45743bd5217af10c",
  "bytecode": "0x608060405234801561001057600080fd5b5061150a806100206000396000f3fe608060405234801561001057600080fd5b50600436106101585760003560e01c8063a83627de116100c3578063d70142fb1161007c578063d70142fb146102d6578063e52522b6146102de578063e81a0624146102e7578063ea25119c146102fa578063ecd0c0c31461030d578063f77c47911461032657600080fd5b8063a83627de14610279578063baa98bbd14610281578063c0c53b8b14610294578063ca15c873146102a7578063d547741f146102ba578063d651a83d146102cd57600080fd5b8063713efc9911610115578063713efc99146101f45780638dd598fb146101fd5780639010d07c1461022857806391c5f4a61461023b57806391d148541461024e578063a217fddf1461027157600080fd5b8063248a9ca31461015d5780632e1a7d4d146101935780632f2ff15d146101a857806336568abe146101bb57806340c10f19146101ce5780634e0df3f6146101e1575b600080fd5b61018061016b36600461112d565b60009081526020819052604090206002015490565b6040519081526020015b60405180910390f35b6101a66101a136600461112d565b610339565b005b6101a66101b636600461116b565b610422565b6101a66101c936600461116b565b6104b0565b6101a66101dc36600461119b565b61052a565b6101806101ef36600461116b565b610655565b61018060045481565b600254610210906001600160a01b031681565b6040516001600160a01b03909116815260200161018a565b6102106102363660046111c7565b610680565b6101a66102493660046111ff565b61069f565b61026161025c36600461116b565b610730565b604051901515815260200161018a565b610180600081565b610180610748565b6101a661028f36600461112d565b610b3a565b6101a66102a23660046112c4565b610b66565b6101806102b536600461112d565b610cf3565b6101a66102c836600461116b565b610d0a565b61018060055481565b610180610d8b565b61018060065481565b6101a66102f536600461112d565b610d9d565b6101a661030836600461112d565b610dc9565b600154610210906201000090046001600160a01b031681565b600354610210906001600160a01b031681565b610344600033610730565b6103695760405162461bcd60e51b81526004016103609061130f565b60405180910390fd5b60015460405163a9059cbb60e01b815233600482015260248101839052620100009091046001600160a01b03169063a9059cbb906044016020604051808303816000875af11580156103bf573d6000803e3d6000fd5b505050506040513d601f19601f820116820180604052508101906103e39190611332565b61041f5760405162461bcd60e51b815260206004820152600d60248201526c151c985b9cd9995c8811985a5b609a1b6044820152606401610360565b50565b60008281526020819052604090206002015461043e9033610730565b6104a25760405162461bcd60e51b815260206004820152602f60248201527f416363657373436f6e74726f6c3a2073656e646572206d75737420626520616e60448201526e0818591b5a5b881d1bc819dc985b9d608a1b6064820152608401610360565b6104ac8282610df5565b5050565b6001600160a01b03811633146105205760405162461bcd60e51b815260206004820152602f60248201527f416363657373436f6e74726f6c3a2063616e206f6e6c792072656e6f756e636560448201526e103937b632b9903337b91039b2b63360891b6064820152608401610360565b6104ac8282610e4e565b610535600033610730565b6105515760405162461bcd60e51b81526004016103609061130f565b600154604080516001600160a01b038581166024830152604480830186905283518084039091018152606490920183526020820180516001600160e01b03166340c10f1960e01b179052915160009384936201000090910416916105b491611354565b6000604051808303816000865af19150503d80600081146105f1576040519150601f19603f3d011682016040523d82523d6000602084013e6105f6565b606091505b50915091508180156106175750808060200190518101906106179190611332565b61064f5760405162461bcd60e51b81526020600482015260096024820152681b5a5b9d0819985a5b60ba1b6044820152606401610360565b50505050565b6000828152602081815260408083206001600160a01b03851684526001019091529020545b92915050565b60008281526020819052604081206106989083610ea7565b9392505050565b6106aa600033610730565b6106c65760405162461bcd60e51b81526004016103609061130f565b6106ce610eb3565b6001600160a01b0316637e1ddf6482306040518363ffffffff1660e01b81526004016106fb92919061138f565b600060405180830381600087803b15801561071557600080fd5b505af1158015610729573d6000803e3d6000fd5b5050505050565b60008281526020819052604081206106989083610f21565b60006107548133610730565b6107705760405162461bcd60e51b81526004016103609061130f565b60045461078062093a8082611402565b4210610b355762093a80610794814261141a565b61079e919061143c565b60048181556001546040516370a0823160e01b815230928101929092529192506000916201000090046001600160a01b0316906370a0823190602401602060405180830381865afa1580156107f7573d6000803e3d6000fd5b505050506040513d601f19601f8201168201806040525081019061081b919061145b565b905060065460055461082d9190611402565b8110156108735760405162461bcd60e51b8152602060048201526014602482015273496e73756666696369656e742062616c616e636560601b6044820152606401610360565b6001546201000090046001600160a01b031663a9059cbb610892610f43565b6005546040516001600160e01b031960e085901b1681526001600160a01b03909216600483015260248201526044016020604051808303816000875af11580156108e0573d6000803e3d6000fd5b505050506040513d601f19601f820116820180604052508101906109049190611332565b6109405760405162461bcd60e51b815260206004820152600d60248201526c151c985b9cd9995c8811985a5b609a1b6044820152606401610360565b610948610f43565b6001600160a01b031663bee5dc326040518163ffffffff1660e01b8152600401600060405180830381600087803b15801561098257600080fd5b505af1158015610996573d6000803e3d6000fd5b505050506109a2610f43565b6001600160a01b031663326a94076040518163ffffffff1660e01b8152600401600060405180830381600087803b1580156109dc57600080fd5b505af11580156109f0573d6000803e3d6000fd5b50506001546201000090046001600160a01b0316915063095ea7b39050610a15610eb3565b6006546040516001600160e01b031960e085901b1681526001600160a01b03909216600483015260248201526044016020604051808303816000875af1158015610a63573d6000803e3d6000fd5b505050506040513d601f19601f82011682018060405250810190610a879190611332565b50610a90610eb3565b6001600160a01b0316633c6b16ab6006546040518263ffffffff1660e01b8152600401610abf91815260200190565b600060405180830381600087803b158015610ad957600080fd5b505af1158015610aed573d6000803e3d6000fd5b50506005546006546040805192835260208301919091523393507fb3a7f4e19ac1e31fc41d825d7a63c4af7b79cda95d9abfb66c36e6987706bf9792500160405180910390a2505b905090565b610b45600033610730565b610b615760405162461bcd60e51b81526004016103609061130f565b600555565b600154610100900460ff16610b815760015460ff1615610b85565b303b155b610be85760405162461bcd60e51b815260206004820152602e60248201527f496e697469616c697a61626c653a20636f6e747261637420697320616c72656160448201526d191e481a5b9a5d1a585b1a5e995960921b6064820152608401610360565b600154610100900460ff16158015610c0a576001805461ffff19166101011790555b836001600160a01b031663fc0c546a6040518163ffffffff1660e01b8152600401602060405180830381865afa158015610c48573d6000803e3d6000fd5b505050506040513d601f19601f82011682018060405250810190610c6c9190611474565b6001805462010000600160b01b031916620100006001600160a01b0393841602179055600280546001600160a01b0319908116878416179091556003805490911691851691909117905562093a80610cc4814261141a565b610cce919061143c565b600455610cdc6000836104a2565b801561064f576001805461ff001916905550505050565b600081815260208190526040812061067a90610f8d565b600082815260208190526040902060020154610d269033610730565b6105205760405162461bcd60e51b815260206004820152603060248201527f416363657373436f6e74726f6c3a2073656e646572206d75737420626520616e60448201526f2061646d696e20746f207265766f6b6560801b6064820152608401610360565b6000600654600554610b359190611402565b610da8600033610730565b610dc45760405162461bcd60e51b81526004016103609061130f565b600455565b610dd4600033610730565b610df05760405162461bcd60e51b81526004016103609061130f565b600655565b6000828152602081905260409020610e0d9082610f97565b156104ac5760405133906001600160a01b0383169084907f2f8788117e7eff1d82e926ec794901d17c78024a50270940304540a733656f0d90600090a45050565b6000828152602081905260409020610e669082610fac565b156104ac5760405133906001600160a01b0383169084907ff6391f5c32d9c69d2a47ea670b442974b53935d1edc7fd64eb21e047a839171b90600090a45050565b60006106988383610fc1565b600354604080516311b25aab60e21b815290516000926001600160a01b0316916346c96aac9160048083019260209291908290030181865afa158015610efd573d6000803e3d6000fd5b505050506040513d601f19601f82011682018060405250810190610b359190611474565b6001600160a01b03811660009081526001830160205260408120541515610698565b6003546040805163c13270f160e01b815290516000926001600160a01b03169163c13270f19160048083019260209291908290030181865afa158015610efd573d6000803e3d6000fd5b600061067a825490565b6000610698836001600160a01b038416610feb565b6000610698836001600160a01b03841661103a565b6000826000018281548110610fd857610fd8611491565b9060005260206000200154905092915050565b60008181526001830160205260408120546110325750815460018181018455600084815260208082209093018490558454848252828601909352604090209190915561067a565b50600061067a565b6000818152600183016020526040812054801561112357600061105e6001836114a7565b8554909150600090611072906001906114a7565b90508181146110d757600086600001828154811061109257611092611491565b90600052602060002001549050808760000184815481106110b5576110b5611491565b6000918252602080832090910192909255918252600188019052604090208390555b85548690806110e8576110e86114be565b60019003818190600052602060002001600090559055856001016000868152602001908152602001600020600090556001935050505061067a565b600091505061067a565b60006020828403121561113f57600080fd5b5035919050565b6001600160a01b038116811461041f57600080fd5b803561116681611146565b919050565b6000806040838503121561117e57600080fd5b82359150602083013561119081611146565b809150509250929050565b600080604083850312156111ae57600080fd5b82356111b981611146565b946020939093013593505050565b600080604083850312156111da57600080fd5b50508035926020909101359150565b634e487b7160e01b600052604160045260246000fd5b6000602080838503121561121257600080fd5b823567ffffffffffffffff8082111561122a57600080fd5b818501915085601f83011261123e57600080fd5b813581811115611250576112506111e9565b8060051b604051601f19603f83011681018181108582111715611275576112756111e9565b60405291825284820192508381018501918883111561129357600080fd5b938501935b828510156112b8576112a98561115b565b84529385019392850192611298565b98975050505050505050565b6000806000606084860312156112d957600080fd5b83356112e481611146565b925060208401356112f481611146565b9150604084013561130481611146565b809150509250925092565b6020808252600990820152683337b93134b23232b760b91b604082015260600190565b60006020828403121561134457600080fd5b8151801515811461069857600080fd5b6000825160005b81811015611375576020818601810151858301520161135b565b81811115611384576000828501525b509190910192915050565b604080825283519082018190526000906020906060840190828701845b828110156113d15781516001600160a01b0316845292840192908401906001016113ac565b5050506001600160a01b039490941692019190915250919050565b634e487b7160e01b600052601160045260246000fd5b60008219821115611415576114156113ec565b500190565b60008261143757634e487b7160e01b600052601260045260246000fd5b500490565b6000816000190483118215151615611456576114566113ec565b500290565b60006020828403121561146d57600080fd5b5051919050565b60006020828403121561148657600080fd5b815161069881611146565b634e487b7160e01b600052603260045260246000fd5b6000828210156114b9576114b96113ec565b500390565b634e487b7160e01b600052603160045260246000fdfea2646970667358221220d546c83aa1dfc4c522ac33f49b19ba16b9e0b959110c11b290614ebc31ac596764736f6c634300080d0033",
  "devdoc": {
    "kind": "dev",
    "methods": {
      "getRoleAdmin(bytes32)": {
        "details": "Returns the admin role that controls `role`. See {grantRole} and {revokeRole}. To change a role's admin, use {_setRoleAdmin}."
      },
      "getRoleMember(bytes32,uint256)": {
        "details": "Returns one of the accounts that have `role`. `index` must be a value between 0 and {getRoleMemberCount}, non-inclusive. Role bearers are not sorted in any particular way, and their ordering may change at any point. WARNING: When using {getRoleMember} and {getRoleMemberCount}, make sure you perform all queries on the same block. See the following https://forum.openzeppelin.com/t/iterating-over-elements-on-enumerableset-in-openzeppelin-contracts/2296[forum post] for more information."
      },
      "getRoleMemberCount(bytes32)": {
        "details": "Returns the number of accounts that have `role`. Can be used together with {getRoleMember} to enumerate all bearers of a role."
      },
      "getRoleMemberIndex(bytes32,address)": {
        "details": "Returns the index of the account that have `role`."
      },
      "grantRole(bytes32,address)": {
        "details": "Grants `role` to `account`. If `account` had not been already granted `role`, emits a {RoleGranted} event. Requirements: - the caller must have ``role``'s admin role."
      },
      "hasRole(bytes32,address)": {
        "details": "Returns `true` if `account` has been granted `role`."
      },
      "renounceRole(bytes32,address)": {
        "details": "Revokes `role` from the calling account. Roles are often managed via {grantRole} and {revokeRole}: this function's purpose is to provide a mechanism for accounts to lose their privileges if they are compromised (such as when a trusted device is misplaced). If the calling account had been granted `role`, emits a {RoleRevoked} event. Requirements: - the caller must be `account`."
      },
      "revokeRole(bytes32,address)": {
        "details": "Revokes `role` from `account`. If `account` had been granted `role`, emits a {RoleRevoked} event. Requirements: - the caller must have ``role``'s admin role."
      }
    },
    "stateVariables": {
      "veDistPerWeek": {
        "details": "veDist per week"
      },
      "voterPerWeek": {
        "details": "voter per week"
      }
    },
    "version": 1
  },
  "userdoc": {
    "kind": "user",
    "methods": {},
    "version": 1
  },
  "storageLayout": {
    "storage": [
      {
        "astId": 25535,
        "contract": "contracts/base/token/MinterUpgradeable.sol:MinterUpgradeable",
        "label": "_roles",
        "offset": 0,
        "slot": "0",
        "type": "t_mapping(t_bytes32,t_struct(RoleData)25530_storage)"
      },
      {
        "astId": 26721,
        "contract": "contracts/base/token/MinterUpgradeable.sol:MinterUpgradeable",
        "label": "_initialized",
        "offset": 0,
        "slot": "1",
        "type": "t_bool"
      },
      {
        "astId": 26724,
        "contract": "contracts/base/token/MinterUpgradeable.sol:MinterUpgradeable",
        "label": "_initializing",
        "offset": 1,
        "slot": "1",
        "type": "t_bool"
      },
      {
        "astId": 10080,
        "contract": "contracts/base/token/MinterUpgradeable.sol:MinterUpgradeable",
        "label": "_token",
        "offset": 2,
        "slot": "1",
        "type": "t_contract(IERC20)23801"
      },
      {
        "astId": 10083,
        "contract": "contracts/base/token/MinterUpgradeable.sol:MinterUpgradeable",
        "label": "_ve",
        "offset": 0,
        "slot": "2",
        "type": "t_contract(IVe)25369"
      },
      {
        "astId": 10085,
        "contract": "contracts/base/token/MinterUpgradeable.sol:MinterUpgradeable",
        "label": "controller",
        "offset": 0,
        "slot": "3",
        "type": "t_address"
      },
      {
        "astId": 10087,
        "contract": "contracts/base/token/MinterUpgradeable.sol:MinterUpgradeable",
        "label": "activeperiod",
        "offset": 0,
        "slot": "4",
        "type": "t_uint256"
      },
      {
        "astId": 10090,
        "contract": "contracts/base/token/MinterUpgradeable.sol:MinterUpgradeable",
        "label": "veDistPerWeek",
        "offset": 0,
        "slot": "5",
        "type": "t_uint256"
      },
      {
        "astId": 10093,
        "contract": "contracts/base/token/MinterUpgradeable.sol:MinterUpgradeable",
        "label": "voterPerWeek",
        "offset": 0,
        "slot": "6",
        "type": "t_uint256"
      }
    ],
    "types": {
      "t_address": {
        "encoding": "inplace",
        "label": "address",
        "numberOfBytes": "20"
      },
      "t_array(t_bytes32)dyn_storage": {
        "base": "t_bytes32",
        "encoding": "dynamic_array",
        "label": "bytes32[]",
        "numberOfBytes": "32"
      },
      "t_bool": {
        "encoding": "inplace",
        "label": "bool",
        "numberOfBytes": "1"
      },
      "t_bytes32": {
        "encoding": "inplace",
        "label": "bytes32",
        "numberOfBytes": "32"
      },
      "t_contract(IERC20)23801": {
        "encoding": "inplace",
        "label": "contract IERC20",
        "numberOfBytes": "20"
      },
      "t_contract(IVe)25369": {
        "encoding": "inplace",
        "label": "contract IVe",
        "numberOfBytes": "20"
      },
      "t_mapping(t_bytes32,t_struct(RoleData)25530_storage)": {
        "encoding": "mapping",
        "key": "t_bytes32",
        "label": "mapping(bytes32 => struct AccessControl.RoleData)",
        "numberOfBytes": "32",
        "value": "t_struct(RoleData)25530_storage"
      },
      "t_mapping(t_bytes32,t_uint256)": {
        "encoding": "mapping",
        "key": "t_bytes32",
        "label": "mapping(bytes32 => uint256)",
        "numberOfBytes": "32",
        "value": "t_uint256"
      },
      "t_struct(AddressSet)26427_storage": {
        "encoding": "inplace",
        "label": "struct EnumerableSet.AddressSet",
        "members": [
          {
            "astId": 26426,
            "contract": "contracts/base/token/MinterUpgradeable.sol:MinterUpgradeable",
            "label": "_inner",
            "offset": 0,
            "slot": "0",
            "type": "t_struct(Set)26126_storage"
          }
        ],
        "numberOfBytes": "64"
      },
      "t_struct(RoleData)25530_storage": {
        "encoding": "inplace",
        "label": "struct AccessControl.RoleData",
        "members": [
          {
            "astId": 25527,
            "contract": "contracts/base/token/MinterUpgradeable.sol:MinterUpgradeable",
            "label": "members",
            "offset": 0,
            "slot": "0",
            "type": "t_struct(AddressSet)26427_storage"
          },
          {
            "astId": 25529,
            "contract": "contracts/base/token/MinterUpgradeable.sol:MinterUpgradeable",
            "label": "adminRole",
            "offset": 0,
            "slot": "2",
            "type": "t_bytes32"
          }
        ],
        "numberOfBytes": "96"
      },
      "t_struct(Set)26126_storage": {
        "encoding": "inplace",
        "label": "struct EnumerableSet.Set",
        "members": [
          {
            "astId": 26121,
            "contract": "contracts/base/token/MinterUpgradeable.sol:MinterUpgradeable",
            "label": "_values",
            "offset": 0,
            "slot": "0",
            "type": "t_array(t_bytes32)dyn_storage"
          },
          {
            "astId": 26125,
            "contract": "contracts/base/token/MinterUpgradeable.sol:MinterUpgradeable",
            "label": "_indexes",
            "offset": 0,
            "slot": "1",
            "type": "t_mapping(t_bytes32,t_uint256)"
          }
        ],
        "numberOfBytes": "64"
      },
      "t_uint256": {
        "encoding": "inplace",
        "label": "uint256",
        "numberOfBytes": "32"
      }
    }
  }
}