{
  "address": "0x7321b5bAb3052bb873847f36C1aAa0917CE7Bb82",
  "abi": [
    {
      "anonymous": false,
      "inputs": [
        {
          "indexed": true,
          "internalType": "bytes32",
          "name": "role",
          "type": "bytes32"
        },
        {
          "indexed": true,
          "internalType": "address",
          "name": "account",
          "type": "address"
        },
        {
          "indexed": true,
          "internalType": "address",
          "name": "sender",
          "type": "address"
        }
      ],
      "name": "RoleGranted",
      "type": "event"
    },
    {
      "anonymous": false,
      "inputs": [
        {
          "indexed": true,
          "internalType": "bytes32",
          "name": "role",
          "type": "bytes32"
        },
        {
          "indexed": true,
          "internalType": "address",
          "name": "account",
          "type": "address"
        },
        {
          "indexed": true,
          "internalType": "address",
          "name": "sender",
          "type": "address"
        }
      ],
      "name": "RoleRevoked",
      "type": "event"
    },
    {
      "anonymous": false,
      "inputs": [
        {
          "indexed": true,
          "internalType": "address",
          "name": "sender",
          "type": "address"
        },
        {
          "indexed": false,
          "internalType": "uint256",
          "name": "veDistAmount",
          "type": "uint256"
        },
        {
          "indexed": false,
          "internalType": "uint256",
          "name": "voterAmount",
          "type": "uint256"
        }
      ],
      "name": "Send",
      "type": "event"
    },
    {
      "inputs": [],
      "name": "DEFAULT_ADMIN_ROLE",
      "outputs": [
        {
          "internalType": "bytes32",
          "name": "",
          "type": "bytes32"
        }
      ],
      "stateMutability": "view",
      "type": "function"
    },
    {
      "inputs": [],
      "name": "VE_DIST_RATIO_MAX",
      "outputs": [
        {
          "internalType": "uint256",
          "name": "",
          "type": "uint256"
        }
      ],
      "stateMutability": "view",
      "type": "function"
    },
    {
      "inputs": [],
      "name": "_START_BASE_WEEKLY_EMISSION",
      "outputs": [
        {
          "internalType": "uint256",
          "name": "",
          "type": "uint256"
        }
      ],
      "stateMutability": "view",
      "type": "function"
    },
    {
      "inputs": [],
      "name": "_STUB_CIRCULATION",
      "outputs": [
        {
          "internalType": "uint256",
          "name": "",
          "type": "uint256"
        }
      ],
      "stateMutability": "view",
      "type": "function"
    },
    {
      "inputs": [],
      "name": "_STUB_CIRCULATION_DENOMINATOR",
      "outputs": [
        {
          "internalType": "uint256",
          "name": "",
          "type": "uint256"
        }
      ],
      "stateMutability": "view",
      "type": "function"
    },
    {
      "inputs": [],
      "name": "_TAIL_EMISSION",
      "outputs": [
        {
          "internalType": "uint256",
          "name": "",
          "type": "uint256"
        }
      ],
      "stateMutability": "view",
      "type": "function"
    },
    {
      "inputs": [],
      "name": "_TAIL_EMISSION_DENOMINATOR",
      "outputs": [
        {
          "internalType": "uint256",
          "name": "",
          "type": "uint256"
        }
      ],
      "stateMutability": "view",
      "type": "function"
    },
    {
      "inputs": [],
      "name": "_token",
      "outputs": [
        {
          "internalType": "contract IERC20",
          "name": "",
          "type": "address"
        }
      ],
      "stateMutability": "view",
      "type": "function"
    },
    {
      "inputs": [],
      "name": "_ve",
      "outputs": [
        {
          "internalType": "contract IVe",
          "name": "",
          "type": "address"
        }
      ],
      "stateMutability": "view",
      "type": "function"
    },
    {
      "inputs": [],
      "name": "activeperiod",
      "outputs": [
        {
          "internalType": "uint256",
          "name": "",
          "type": "uint256"
        }
      ],
      "stateMutability": "view",
      "type": "function"
    },
    {
      "inputs": [
        {
          "internalType": "uint256",
          "name": "_veDistPerWeek",
          "type": "uint256"
        }
      ],
      "name": "adminSetVeDistPerWeek",
      "outputs": [],
      "stateMutability": "nonpayable",
      "type": "function"
    },
    {
      "inputs": [
        {
          "internalType": "uint256",
          "name": "_voterPerWeek",
          "type": "uint256"
        }
      ],
      "name": "adminSetVoterPerWeek",
      "outputs": [],
      "stateMutability": "nonpayable",
      "type": "function"
    },
    {
      "inputs": [],
      "name": "baseWeeklyEmission",
      "outputs": [
        {
          "internalType": "uint256",
          "name": "",
          "type": "uint256"
        }
      ],
      "stateMutability": "view",
      "type": "function"
    },
    {
      "inputs": [],
      "name": "calculateEmission",
      "outputs": [
        {
          "internalType": "uint256",
          "name": "",
          "type": "uint256"
        }
      ],
      "stateMutability": "view",
      "type": "function"
    },
    {
      "inputs": [],
      "name": "controller",
      "outputs": [
        {
          "internalType": "address",
          "name": "",
          "type": "address"
        }
      ],
      "stateMutability": "view",
      "type": "function"
    },
    {
      "inputs": [
        {
          "internalType": "bytes32",
          "name": "role",
          "type": "bytes32"
        }
      ],
      "name": "getRoleAdmin",
      "outputs": [
        {
          "internalType": "bytes32",
          "name": "",
          "type": "bytes32"
        }
      ],
      "stateMutability": "view",
      "type": "function"
    },
    {
      "inputs": [
        {
          "internalType": "bytes32",
          "name": "role",
          "type": "bytes32"
        },
        {
          "internalType": "uint256",
          "name": "index",
          "type": "uint256"
        }
      ],
      "name": "getRoleMember",
      "outputs": [
        {
          "internalType": "address",
          "name": "",
          "type": "address"
        }
      ],
      "stateMutability": "view",
      "type": "function"
    },
    {
      "inputs": [
        {
          "internalType": "bytes32",
          "name": "role",
          "type": "bytes32"
        }
      ],
      "name": "getRoleMemberCount",
      "outputs": [
        {
          "internalType": "uint256",
          "name": "",
          "type": "uint256"
        }
      ],
      "stateMutability": "view",
      "type": "function"
    },
    {
      "inputs": [
        {
          "internalType": "bytes32",
          "name": "role",
          "type": "bytes32"
        },
        {
          "internalType": "address",
          "name": "account",
          "type": "address"
        }
      ],
      "name": "getRoleMemberIndex",
      "outputs": [
        {
          "internalType": "uint256",
          "name": "",
          "type": "uint256"
        }
      ],
      "stateMutability": "view",
      "type": "function"
    },
    {
      "inputs": [
        {
          "internalType": "bytes32",
          "name": "role",
          "type": "bytes32"
        },
        {
          "internalType": "address",
          "name": "account",
          "type": "address"
        }
      ],
      "name": "grantRole",
      "outputs": [],
      "stateMutability": "nonpayable",
      "type": "function"
    },
    {
      "inputs": [
        {
          "internalType": "bytes32",
          "name": "role",
          "type": "bytes32"
        },
        {
          "internalType": "address",
          "name": "account",
          "type": "address"
        }
      ],
      "name": "hasRole",
      "outputs": [
        {
          "internalType": "bool",
          "name": "",
          "type": "bool"
        }
      ],
      "stateMutability": "view",
      "type": "function"
    },
    {
      "inputs": [],
      "name": "initialStubCirculation",
      "outputs": [
        {
          "internalType": "uint256",
          "name": "",
          "type": "uint256"
        }
      ],
      "stateMutability": "view",
      "type": "function"
    },
    {
      "inputs": [
        {
          "internalType": "address",
          "name": "__ve",
          "type": "address"
        },
        {
          "internalType": "address",
          "name": "__controller",
          "type": "address"
        },
        {
          "internalType": "address",
          "name": "admin",
          "type": "address"
        }
      ],
      "name": "initialize",
      "outputs": [],
      "stateMutability": "nonpayable",
      "type": "function"
    },
    {
      "inputs": [
        {
          "internalType": "address",
          "name": "to",
          "type": "address"
        },
        {
          "internalType": "uint256",
          "name": "amount",
          "type": "uint256"
        }
      ],
      "name": "mint",
      "outputs": [],
      "stateMutability": "nonpayable",
      "type": "function"
    },
    {
      "inputs": [
        {
          "internalType": "bytes32",
          "name": "role",
          "type": "bytes32"
        },
        {
          "internalType": "address",
          "name": "account",
          "type": "address"
        }
      ],
      "name": "renounceRole",
      "outputs": [],
      "stateMutability": "nonpayable",
      "type": "function"
    },
    {
      "inputs": [
        {
          "internalType": "bytes32",
          "name": "role",
          "type": "bytes32"
        },
        {
          "internalType": "address",
          "name": "account",
          "type": "address"
        }
      ],
      "name": "revokeRole",
      "outputs": [],
      "stateMutability": "nonpayable",
      "type": "function"
    },
    {
      "inputs": [
        {
          "internalType": "uint256",
          "name": "_activeperiod",
          "type": "uint256"
        }
      ],
      "name": "setActiveperiod",
      "outputs": [],
      "stateMutability": "nonpayable",
      "type": "function"
    },
    {
      "inputs": [],
      "name": "updatePeriod",
      "outputs": [
        {
          "internalType": "uint256",
          "name": "",
          "type": "uint256"
        }
      ],
      "stateMutability": "nonpayable",
      "type": "function"
    },
    {
      "inputs": [],
      "name": "veDistPerWeek",
      "outputs": [
        {
          "internalType": "uint256",
          "name": "",
          "type": "uint256"
        }
      ],
      "stateMutability": "view",
      "type": "function"
    },
    {
      "inputs": [],
      "name": "veDistRatio",
      "outputs": [
        {
          "internalType": "uint256",
          "name": "",
          "type": "uint256"
        }
      ],
      "stateMutability": "view",
      "type": "function"
    },
    {
      "inputs": [],
      "name": "voterPerWeek",
      "outputs": [
        {
          "internalType": "uint256",
          "name": "",
          "type": "uint256"
        }
      ],
      "stateMutability": "view",
      "type": "function"
    },
    {
      "inputs": [],
      "name": "weeklyEmission",
      "outputs": [
        {
          "internalType": "uint256",
          "name": "",
          "type": "uint256"
        }
      ],
      "stateMutability": "view",
      "type": "function"
    }
  ],
  "transactionHash": "0x6139bbc6e8490f84bfb0d10a8d9c3fec7f15941da7121f7e0088cc9335346941",
  "args": [],
  "numDeployments": 6,
  "solcInputHash": "d0666713d370e8c0d97653bbe4c9dc4b",
  "bytecode": "0x60806040526a108b2a2c2802909400000060085534801561001f57600080fd5b506115c58061002f6000396000f3fe608060405234801561001057600080fd5b50600436106101f05760003560e01c8063aa8754e41161010f578063e52522b6116100a2578063f6ff876911610071578063f6ff8769146103d7578063f77c4791146103df578063f9d9e6fd146103f2578063ff26679f1461030e57600080fd5b8063e52522b614610395578063e81a06241461039e578063ea25119c146103b1578063ecd0c0c3146103c457600080fd5b8063d547741f116100de578063d547741f1461035f578063d63e0f2714610372578063d651a83d14610384578063d70142fb1461038d57600080fd5b8063aa8754e41461031e578063baa98bbd14610326578063c0c53b8b14610339578063ca15c8731461034c57600080fd5b8063713efc991161018757806391d148541161015657806391d14854146102e3578063a217fddf14610306578063a7c4cf431461030e578063a83627de1461031657600080fd5b8063713efc991461029357806385ec4b251461029c5780638dd598fb146102a55780639010d07c146102d057600080fd5b806336568abe116101c357806336568abe1461025257806340c10f191461026557806341833cda146102785780634e0df3f61461028057600080fd5b806302c3b420146101f55780630f2e908d14610211578063248a9ca31461021a5780632f2ff15d1461023d575b600080fd5b6101fe60085481565b6040519081526020015b60405180910390f35b6101fe60025481565b6101fe61022836600461132d565b60009081526020819052604090206002015490565b61025061024b36600461135e565b6103fb565b005b61025061026036600461135e565b61048e565b61025061027336600461138e565b610508565b6101fe600181565b6101fe61028e36600461135e565b61062c565b6101fe60065481565b6101fe61271081565b6004546102b8906001600160a01b031681565b6040516001600160a01b039091168152602001610208565b6102b86102de3660046113ba565b610657565b6102f66102f136600461135e565b610676565b6040519015158152602001610208565b6101fe600081565b6101fe606481565b6101fe61068e565b6101fe610a6e565b61025061033436600461132d565b610a78565b6102506103473660046113dc565b610aa4565b6101fe61035a36600461132d565b610c22565b61025061036d36600461135e565b610c39565b6101fe6a108b2a2c2802909400000081565b6101fe60095481565b6101fe610cba565b6101fe600a5481565b6102506103ac36600461132d565b610cc4565b6102506103bf36600461132d565b610cf0565b6003546102b8906001600160a01b031681565b6101fe600a81565b6005546102b8906001600160a01b031681565b6101fe60075481565b6000828152602081905260409020600201546104179033610676565b6104805760405162461bcd60e51b815260206004820152602f60248201527f416363657373436f6e74726f6c3a2073656e646572206d75737420626520616e60448201526e0818591b5a5b881d1bc819dc985b9d608a1b60648201526084015b60405180910390fd5b61048a8282610d1c565b5050565b6001600160a01b03811633146104fe5760405162461bcd60e51b815260206004820152602f60248201527f416363657373436f6e74726f6c3a2063616e206f6e6c792072656e6f756e636560448201526e103937b632b9903337b91039b2b63360891b6064820152608401610477565b61048a8282610d75565b610513600033610676565b61052f5760405162461bcd60e51b815260040161047790611427565b600354604080516001600160a01b038581166024830152604480830186905283518084039091018152606490920183526020820180516001600160e01b03166340c10f1960e01b17905291516000938493169161058b9161144a565b6000604051808303816000865af19150503d80600081146105c8576040519150601f19603f3d011682016040523d82523d6000602084013e6105cd565b606091505b50915091508180156105ee5750808060200190518101906105ee9190611485565b6106265760405162461bcd60e51b81526020600482015260096024820152681b5a5b9d0819985a5b60ba1b6044820152606401610477565b50505050565b6000828152602081815260408083206001600160a01b03851684526001019091529020545b92915050565b600082815260208190526040812061066f9083610dce565b9392505050565b600082815260208190526040812061066f9083610dda565b600061069a8133610676565b6106b65760405162461bcd60e51b815260040161047790611427565b6006546106c662093a80826114bd565b4210610a695762093a806106da81426114d5565b6106e491906114f7565b60068190556003546040516370a0823160e01b81523060048201529192506000916001600160a01b03909116906370a0823190602401602060405180830381865afa158015610737573d6000803e3d6000fd5b505050506040513d601f19601f8201168201806040525081019061075b9190611516565b9050600a5460095461076d91906114bd565b8110156107b35760405162461bcd60e51b8152602060048201526014602482015273496e73756666696369656e742062616c616e636560601b6044820152606401610477565b6003546001600160a01b031663a9059cbb6107cc610dfc565b6009546040516001600160e01b031960e085901b1681526001600160a01b03909216600483015260248201526044016020604051808303816000875af115801561081a573d6000803e3d6000fd5b505050506040513d601f19601f8201168201806040525081019061083e9190611485565b61087a5760405162461bcd60e51b815260206004820152600d60248201526c151c985b9cd9995c8811985a5b609a1b6044820152606401610477565b610882610dfc565b6001600160a01b031663bee5dc326040518163ffffffff1660e01b8152600401600060405180830381600087803b1580156108bc57600080fd5b505af11580156108d0573d6000803e3d6000fd5b505050506108dc610dfc565b6001600160a01b031663326a94076040518163ffffffff1660e01b8152600401600060405180830381600087803b15801561091657600080fd5b505af115801561092a573d6000803e3d6000fd5b50506003546001600160a01b0316915063095ea7b39050610949610e6a565b600a546040516001600160e01b031960e085901b1681526001600160a01b03909216600483015260248201526044016020604051808303816000875af1158015610997573d6000803e3d6000fd5b505050506040513d601f19601f820116820180604052508101906109bb9190611485565b506109c4610e6a565b6001600160a01b0316633c6b16ab600a546040518263ffffffff1660e01b81526004016109f391815260200190565b600060405180830381600087803b158015610a0d57600080fd5b505af1158015610a21573d6000803e3d6000fd5b5050600954600a546040805192835260208301919091523393507fb3a7f4e19ac1e31fc41d825d7a63c4af7b79cda95d9abfb66c36e6987706bf9792500160405180910390a2505b905090565b6000610a69610eb4565b610a83600033610676565b610a9f5760405162461bcd60e51b815260040161047790611427565b600955565b600154610100900460ff16610abf5760015460ff1615610ac3565b303b155b610b265760405162461bcd60e51b815260206004820152602e60248201527f496e697469616c697a61626c653a20636f6e747261637420697320616c72656160448201526d191e481a5b9a5d1a585b1a5e995960921b6064820152608401610477565b600154610100900460ff16158015610b48576001805461ffff19166101011790555b836001600160a01b031663fc0c546a6040518163ffffffff1660e01b8152600401602060405180830381865afa158015610b86573d6000803e3d6000fd5b505050506040513d601f19601f82011682018060405250810190610baa919061152f565b600380546001600160a01b03199081166001600160a01b03938416179091556004805482168784161790556005805490911691851691909117905562093a80610bf381426114d5565b610bfd91906114f7565b600655610c0b600083610480565b8015610626576001805461ff001916905550505050565b600081815260208190526040812061065190610f41565b600082815260208190526040902060020154610c559033610676565b6104fe5760405162461bcd60e51b815260206004820152603060248201527f416363657373436f6e74726f6c3a2073656e646572206d75737420626520616e60448201526f2061646d696e20746f207265766f6b6560801b6064820152608401610477565b6000610a69610f4b565b610ccf600033610676565b610ceb5760405162461bcd60e51b815260040161047790611427565b600655565b610cfb600033610676565b610d175760405162461bcd60e51b815260040161047790611427565b600a55565b6000828152602081905260409020610d349082610f65565b1561048a5760405133906001600160a01b0383169084907f2f8788117e7eff1d82e926ec794901d17c78024a50270940304540a733656f0d90600090a45050565b6000828152602081905260409020610d8d9082610f7a565b1561048a5760405133906001600160a01b0383169084907ff6391f5c32d9c69d2a47ea670b442974b53935d1edc7fd64eb21e047a839171b90600090a45050565b600061066f8383610f8f565b6001600160a01b0381166000908152600183016020526040812054151561066f565b6005546040805163c13270f160e01b815290516000926001600160a01b03169163c13270f19160048083019260209291908290030181865afa158015610e46573d6000803e3d6000fd5b505050506040513d601f19601f82011682018060405250810190610a69919061152f565b600554604080516311b25aab60e21b815290516000926001600160a01b0316916346c96aac9160048083019260209291908290030181865afa158015610e46573d6000803e3d6000fd5b600354604080516318160ddd60e01b815290516000926001600160a01b0316916318160ddd9160048083019260209291908290030181865afa158015610efe573d6000803e3d6000fd5b505050506040513d601f19601f82011682018060405250810190610f229190611516565b610f2a610fb9565b600854610f3791906114f7565b610a6991906114d5565b6000610651825490565b6000610a69610f58610eb4565b610f60610fce565b610fe6565b600061066f836001600160a01b038416610ffd565b600061066f836001600160a01b03841661104c565b6000826000018281548110610fa657610fa661154c565b9060005260206000200154905092915050565b6000610a69610fc661113f565b600754610fe6565b600060646001610fdc61113f565b610f3791906114f7565b600081831015610ff6578161066f565b5090919050565b600081815260018301602052604081205461104457508154600181810184556000848152602080822090930184905584548482528286019093526040902091909155610651565b506000610651565b60008181526001830160205260408120548015611135576000611070600183611562565b855490915060009061108490600190611562565b90508181146110e95760008660000182815481106110a4576110a461154c565b90600052602060002001549050808760000184815481106110c7576110c761154c565b6000918252602080832090910192909255918252600188019052604090208390555b85548690806110fa576110fa611579565b600190038181906000526020600020016000905590558560010160008681526020019081526020016000206000905560019350505050610651565b6000915050610651565b6003546040516370a0823160e01b81523060048201526000916001600160a01b0316906370a0823190602401602060405180830381865afa158015611188573d6000803e3d6000fd5b505050506040513d601f19601f820116820180604052508101906111ac9190611516565b6003546001600160a01b03166370a082316111c5610dfc565b6040516001600160e01b031960e084901b1681526001600160a01b039091166004820152602401602060405180830381865afa158015611209573d6000803e3d6000fd5b505050506040513d601f19601f8201168201806040525081019061122d9190611516565b60048054604080516318160ddd60e01b815290516001600160a01b03909216926318160ddd9282820192602092908290030181865afa158015611274573d6000803e3d6000fd5b505050506040513d601f19601f820116820180604052508101906112989190611516565b600360009054906101000a90046001600160a01b03166001600160a01b03166318160ddd6040518163ffffffff1660e01b8152600401602060405180830381865afa1580156112eb573d6000803e3d6000fd5b505050506040513d601f19601f8201168201806040525081019061130f9190611516565b6113199190611562565b6113239190611562565b610a699190611562565b60006020828403121561133f57600080fd5b5035919050565b6001600160a01b038116811461135b57600080fd5b50565b6000806040838503121561137157600080fd5b82359150602083013561138381611346565b809150509250929050565b600080604083850312156113a157600080fd5b82356113ac81611346565b946020939093013593505050565b600080604083850312156113cd57600080fd5b50508035926020909101359150565b6000806000606084860312156113f157600080fd5b83356113fc81611346565b9250602084013561140c81611346565b9150604084013561141c81611346565b809150509250925092565b6020808252600990820152683337b93134b23232b760b91b604082015260600190565b6000825160005b8181101561146b5760208186018101518583015201611451565b8181111561147a576000828501525b509190910192915050565b60006020828403121561149757600080fd5b8151801515811461066f57600080fd5b634e487b7160e01b600052601160045260246000fd5b600082198211156114d0576114d06114a7565b500190565b6000826114f257634e487b7160e01b600052601260045260246000fd5b500490565b6000816000190483118215151615611511576115116114a7565b500290565b60006020828403121561152857600080fd5b5051919050565b60006020828403121561154157600080fd5b815161066f81611346565b634e487b7160e01b600052603260045260246000fd5b600082821015611574576115746114a7565b500390565b634e487b7160e01b600052603160045260246000fdfea264697066735822122078a82d482eb316a45c62d43a04eccb17c5ea7c44a3e1f7b2902766413b35a84a64736f6c634300080d0033",
  "devdoc": {
    "kind": "dev",
    "methods": {
      "calculateEmission()": {
        "details": " 2%/"
      },
      "getRoleAdmin(bytes32)": {
        "details": "Returns the admin role that controls `role`. See {grantRole} and {revokeRole}. To change a role's admin, use {_setRoleAdmin}."
      },
      "getRoleMember(bytes32,uint256)": {
        "details": "Returns one of the accounts that have `role`. `index` must be a value between 0 and {getRoleMemberCount}, non-inclusive. Role bearers are not sorted in any particular way, and their ordering may change at any point. WARNING: When using {getRoleMember} and {getRoleMemberCount}, make sure you perform all queries on the same block. See the following https://forum.openzeppelin.com/t/iterating-over-elements-on-enumerableset-in-openzeppelin-contracts/2296[forum post] for more information."
      },
      "getRoleMemberCount(bytes32)": {
        "details": "Returns the number of accounts that have `role`. Can be used together with {getRoleMember} to enumerate all bearers of a role."
      },
      "getRoleMemberIndex(bytes32,address)": {
        "details": "Returns the index of the account that have `role`."
      },
      "grantRole(bytes32,address)": {
        "details": "Grants `role` to `account`. If `account` had not been already granted `role`, emits a {RoleGranted} event. Requirements: - the caller must have ``role``'s admin role."
      },
      "hasRole(bytes32,address)": {
        "details": "Returns `true` if `account` has been granted `role`."
      },
      "renounceRole(bytes32,address)": {
        "details": "Revokes `role` from the calling account. Roles are often managed via {grantRole} and {revokeRole}: this function's purpose is to provide a mechanism for accounts to lose their privileges if they are compromised (such as when a trusted device is misplaced). If the calling account had been granted `role`, emits a {RoleRevoked} event. Requirements: - the caller must be `account`."
      },
      "revokeRole(bytes32,address)": {
        "details": "Revokes `role` from `account`. If `account` had been granted `role`, emits a {RoleRevoked} event. Requirements: - the caller must have ``role``'s admin role."
      },
      "weeklyEmission()": {
        "details": ""
      }
    },
    "stateVariables": {
      "baseWeeklyEmission": {
        "details": " = "
      },
      "initialStubCirculation": {
        "details": ""
      },
      "veDistPerWeek": {
        "details": "veDist per week"
      },
      "voterPerWeek": {
        "details": "voter per week"
      }
    },
    "version": 1
  },
  "userdoc": {
    "kind": "user",
    "methods": {},
    "version": 1
  },
  "storageLayout": {
    "storage": [
      {
        "astId": 25700,
        "contract": "contracts/base/token/MinterUpgradeable.sol:MinterUpgradeable",
        "label": "_roles",
        "offset": 0,
        "slot": "0",
        "type": "t_mapping(t_bytes32,t_struct(RoleData)25695_storage)"
      },
      {
        "astId": 26886,
        "contract": "contracts/base/token/MinterUpgradeable.sol:MinterUpgradeable",
        "label": "_initialized",
        "offset": 0,
        "slot": "1",
        "type": "t_bool"
      },
      {
        "astId": 26889,
        "contract": "contracts/base/token/MinterUpgradeable.sol:MinterUpgradeable",
        "label": "_initializing",
        "offset": 1,
        "slot": "1",
        "type": "t_bool"
      },
      {
        "astId": 10205,
        "contract": "contracts/base/token/MinterUpgradeable.sol:MinterUpgradeable",
        "label": "veDistRatio",
        "offset": 0,
        "slot": "2",
        "type": "t_uint256"
      },
      {
        "astId": 10211,
        "contract": "contracts/base/token/MinterUpgradeable.sol:MinterUpgradeable",
        "label": "_token",
        "offset": 0,
        "slot": "3",
        "type": "t_contract(IERC20)23974"
      },
      {
        "astId": 10214,
        "contract": "contracts/base/token/MinterUpgradeable.sol:MinterUpgradeable",
        "label": "_ve",
        "offset": 0,
        "slot": "4",
        "type": "t_contract(IVe)25542"
      },
      {
        "astId": 10216,
        "contract": "contracts/base/token/MinterUpgradeable.sol:MinterUpgradeable",
        "label": "controller",
        "offset": 0,
        "slot": "5",
        "type": "t_address"
      },
      {
        "astId": 10218,
        "contract": "contracts/base/token/MinterUpgradeable.sol:MinterUpgradeable",
        "label": "activeperiod",
        "offset": 0,
        "slot": "6",
        "type": "t_uint256"
      },
      {
        "astId": 10221,
        "contract": "contracts/base/token/MinterUpgradeable.sol:MinterUpgradeable",
        "label": "initialStubCirculation",
        "offset": 0,
        "slot": "7",
        "type": "t_uint256"
      },
      {
        "astId": 10231,
        "contract": "contracts/base/token/MinterUpgradeable.sol:MinterUpgradeable",
        "label": "baseWeeklyEmission",
        "offset": 0,
        "slot": "8",
        "type": "t_uint256"
      },
      {
        "astId": 10243,
        "contract": "contracts/base/token/MinterUpgradeable.sol:MinterUpgradeable",
        "label": "veDistPerWeek",
        "offset": 0,
        "slot": "9",
        "type": "t_uint256"
      },
      {
        "astId": 10246,
        "contract": "contracts/base/token/MinterUpgradeable.sol:MinterUpgradeable",
        "label": "voterPerWeek",
        "offset": 0,
        "slot": "10",
        "type": "t_uint256"
      }
    ],
    "types": {
      "t_address": {
        "encoding": "inplace",
        "label": "address",
        "numberOfBytes": "20"
      },
      "t_array(t_bytes32)dyn_storage": {
        "base": "t_bytes32",
        "encoding": "dynamic_array",
        "label": "bytes32[]",
        "numberOfBytes": "32"
      },
      "t_bool": {
        "encoding": "inplace",
        "label": "bool",
        "numberOfBytes": "1"
      },
      "t_bytes32": {
        "encoding": "inplace",
        "label": "bytes32",
        "numberOfBytes": "32"
      },
      "t_contract(IERC20)23974": {
        "encoding": "inplace",
        "label": "contract IERC20",
        "numberOfBytes": "20"
      },
      "t_contract(IVe)25542": {
        "encoding": "inplace",
        "label": "contract IVe",
        "numberOfBytes": "20"
      },
      "t_mapping(t_bytes32,t_struct(RoleData)25695_storage)": {
        "encoding": "mapping",
        "key": "t_bytes32",
        "label": "mapping(bytes32 => struct AccessControl.RoleData)",
        "numberOfBytes": "32",
        "value": "t_struct(RoleData)25695_storage"
      },
      "t_mapping(t_bytes32,t_uint256)": {
        "encoding": "mapping",
        "key": "t_bytes32",
        "label": "mapping(bytes32 => uint256)",
        "numberOfBytes": "32",
        "value": "t_uint256"
      },
      "t_struct(AddressSet)26592_storage": {
        "encoding": "inplace",
        "label": "struct EnumerableSet.AddressSet",
        "members": [
          {
            "astId": 26591,
            "contract": "contracts/base/token/MinterUpgradeable.sol:MinterUpgradeable",
            "label": "_inner",
            "offset": 0,
            "slot": "0",
            "type": "t_struct(Set)26291_storage"
          }
        ],
        "numberOfBytes": "64"
      },
      "t_struct(RoleData)25695_storage": {
        "encoding": "inplace",
        "label": "struct AccessControl.RoleData",
        "members": [
          {
            "astId": 25692,
            "contract": "contracts/base/token/MinterUpgradeable.sol:MinterUpgradeable",
            "label": "members",
            "offset": 0,
            "slot": "0",
            "type": "t_struct(AddressSet)26592_storage"
          },
          {
            "astId": 25694,
            "contract": "contracts/base/token/MinterUpgradeable.sol:MinterUpgradeable",
            "label": "adminRole",
            "offset": 0,
            "slot": "2",
            "type": "t_bytes32"
          }
        ],
        "numberOfBytes": "96"
      },
      "t_struct(Set)26291_storage": {
        "encoding": "inplace",
        "label": "struct EnumerableSet.Set",
        "members": [
          {
            "astId": 26286,
            "contract": "contracts/base/token/MinterUpgradeable.sol:MinterUpgradeable",
            "label": "_values",
            "offset": 0,
            "slot": "0",
            "type": "t_array(t_bytes32)dyn_storage"
          },
          {
            "astId": 26290,
            "contract": "contracts/base/token/MinterUpgradeable.sol:MinterUpgradeable",
            "label": "_indexes",
            "offset": 0,
            "slot": "1",
            "type": "t_mapping(t_bytes32,t_uint256)"
          }
        ],
        "numberOfBytes": "64"
      },
      "t_uint256": {
        "encoding": "inplace",
        "label": "uint256",
        "numberOfBytes": "32"
      }
    }
  }
}