{
  "_format": "hh-sol-artifact-1",
  "contractName": "VoltVoter",
  "sourceName": "contracts/base/vote/VoltVoter.sol",
  "abi": [
    {
      "inputs": [
        {
          "internalType": "address",
          "name": "_ve",
          "type": "address"
        },
        {
          "internalType": "address",
          "name": "_factory",
          "type": "address"
        },
        {
          "internalType": "address",
          "name": "_gaugeFactory",
          "type": "address"
        },
        {
          "internalType": "address",
          "name": "_bribeFactory",
          "type": "address"
        }
      ],
      "stateMutability": "nonpayable",
      "type": "constructor"
    },
    {
      "anonymous": false,
      "inputs": [
        {
          "indexed": false,
          "internalType": "uint256",
          "name": "tokenId",
          "type": "uint256"
        },
        {
          "indexed": false,
          "internalType": "int256",
          "name": "weight",
          "type": "int256"
        }
      ],
      "name": "Abstained",
      "type": "event"
    },
    {
      "anonymous": false,
      "inputs": [
        {
          "indexed": true,
          "internalType": "address",
          "name": "owner",
          "type": "address"
        },
        {
          "indexed": true,
          "internalType": "address",
          "name": "gauge",
          "type": "address"
        },
        {
          "indexed": false,
          "internalType": "uint256",
          "name": "tokenId",
          "type": "uint256"
        }
      ],
      "name": "Attach",
      "type": "event"
    },
    {
      "anonymous": false,
      "inputs": [
        {
          "indexed": true,
          "internalType": "address",
          "name": "lp",
          "type": "address"
        },
        {
          "indexed": true,
          "internalType": "address",
          "name": "gauge",
          "type": "address"
        },
        {
          "indexed": false,
          "internalType": "uint256",
          "name": "tokenId",
          "type": "uint256"
        },
        {
          "indexed": false,
          "internalType": "uint256",
          "name": "amount",
          "type": "uint256"
        }
      ],
      "name": "Deposit",
      "type": "event"
    },
    {
      "anonymous": false,
      "inputs": [
        {
          "indexed": true,
          "internalType": "address",
          "name": "owner",
          "type": "address"
        },
        {
          "indexed": true,
          "internalType": "address",
          "name": "gauge",
          "type": "address"
        },
        {
          "indexed": false,
          "internalType": "uint256",
          "name": "tokenId",
          "type": "uint256"
        }
      ],
      "name": "Detach",
      "type": "event"
    },
    {
      "anonymous": false,
      "inputs": [
        {
          "indexed": true,
          "internalType": "address",
          "name": "sender",
          "type": "address"
        },
        {
          "indexed": true,
          "internalType": "address",
          "name": "gauge",
          "type": "address"
        },
        {
          "indexed": false,
          "internalType": "uint256",
          "name": "amount",
          "type": "uint256"
        }
      ],
      "name": "DistributeReward",
      "type": "event"
    },
    {
      "anonymous": false,
      "inputs": [
        {
          "indexed": true,
          "internalType": "address",
          "name": "gauge",
          "type": "address"
        },
        {
          "indexed": false,
          "internalType": "address",
          "name": "creator",
          "type": "address"
        },
        {
          "indexed": true,
          "internalType": "address",
          "name": "bribe",
          "type": "address"
        },
        {
          "indexed": true,
          "internalType": "address",
          "name": "pool",
          "type": "address"
        }
      ],
      "name": "GaugeCreated",
      "type": "event"
    },
    {
      "anonymous": false,
      "inputs": [
        {
          "indexed": true,
          "internalType": "address",
          "name": "sender",
          "type": "address"
        },
        {
          "indexed": true,
          "internalType": "address",
          "name": "reward",
          "type": "address"
        },
        {
          "indexed": false,
          "internalType": "uint256",
          "name": "amount",
          "type": "uint256"
        }
      ],
      "name": "NotifyReward",
      "type": "event"
    },
    {
      "anonymous": false,
      "inputs": [
        {
          "indexed": true,
          "internalType": "address",
          "name": "voter",
          "type": "address"
        },
        {
          "indexed": false,
          "internalType": "uint256",
          "name": "tokenId",
          "type": "uint256"
        },
        {
          "indexed": false,
          "internalType": "int256",
          "name": "weight",
          "type": "int256"
        }
      ],
      "name": "Voted",
      "type": "event"
    },
    {
      "anonymous": false,
      "inputs": [
        {
          "indexed": true,
          "internalType": "address",
          "name": "whitelister",
          "type": "address"
        },
        {
          "indexed": true,
          "internalType": "address",
          "name": "token",
          "type": "address"
        }
      ],
      "name": "Whitelisted",
      "type": "event"
    },
    {
      "anonymous": false,
      "inputs": [
        {
          "indexed": true,
          "internalType": "address",
          "name": "lp",
          "type": "address"
        },
        {
          "indexed": true,
          "internalType": "address",
          "name": "gauge",
          "type": "address"
        },
        {
          "indexed": false,
          "internalType": "uint256",
          "name": "tokenId",
          "type": "uint256"
        },
        {
          "indexed": false,
          "internalType": "uint256",
          "name": "amount",
          "type": "uint256"
        }
      ],
      "name": "Withdraw",
      "type": "event"
    },
    {
      "inputs": [
        {
          "internalType": "uint256",
          "name": "tokenId",
          "type": "uint256"
        },
        {
          "internalType": "address",
          "name": "account",
          "type": "address"
        }
      ],
      "name": "attachTokenToGauge",
      "outputs": [],
      "stateMutability": "nonpayable",
      "type": "function"
    },
    {
      "inputs": [],
      "name": "bribeFactory",
      "outputs": [
        {
          "internalType": "address",
          "name": "",
          "type": "address"
        }
      ],
      "stateMutability": "view",
      "type": "function"
    },
    {
      "inputs": [
        {
          "internalType": "address",
          "name": "",
          "type": "address"
        }
      ],
      "name": "bribes",
      "outputs": [
        {
          "internalType": "address",
          "name": "",
          "type": "address"
        }
      ],
      "stateMutability": "view",
      "type": "function"
    },
    {
      "inputs": [
        {
          "internalType": "address[]",
          "name": "_bribes",
          "type": "address[]"
        },
        {
          "internalType": "address[][]",
          "name": "_tokens",
          "type": "address[][]"
        },
        {
          "internalType": "uint256",
          "name": "_tokenId",
          "type": "uint256"
        }
      ],
      "name": "claimBribes",
      "outputs": [],
      "stateMutability": "nonpayable",
      "type": "function"
    },
    {
      "inputs": [
        {
          "internalType": "address[]",
          "name": "_bribes",
          "type": "address[]"
        },
        {
          "internalType": "address[][]",
          "name": "_tokens",
          "type": "address[][]"
        },
        {
          "internalType": "uint256",
          "name": "_tokenId",
          "type": "uint256"
        }
      ],
      "name": "claimFees",
      "outputs": [],
      "stateMutability": "nonpayable",
      "type": "function"
    },
    {
      "inputs": [
        {
          "internalType": "address[]",
          "name": "_gauges",
          "type": "address[]"
        },
        {
          "internalType": "address[][]",
          "name": "_tokens",
          "type": "address[][]"
        }
      ],
      "name": "claimRewards",
      "outputs": [],
      "stateMutability": "nonpayable",
      "type": "function"
    },
    {
      "inputs": [
        {
          "internalType": "address",
          "name": "",
          "type": "address"
        }
      ],
      "name": "claimable",
      "outputs": [
        {
          "internalType": "uint256",
          "name": "",
          "type": "uint256"
        }
      ],
      "stateMutability": "view",
      "type": "function"
    },
    {
      "inputs": [
        {
          "internalType": "address",
          "name": "_pool",
          "type": "address"
        }
      ],
      "name": "createGauge",
      "outputs": [
        {
          "internalType": "address",
          "name": "",
          "type": "address"
        }
      ],
      "stateMutability": "nonpayable",
      "type": "function"
    },
    {
      "inputs": [
        {
          "internalType": "uint256",
          "name": "tokenId",
          "type": "uint256"
        },
        {
          "internalType": "address",
          "name": "account",
          "type": "address"
        }
      ],
      "name": "detachTokenFromGauge",
      "outputs": [],
      "stateMutability": "nonpayable",
      "type": "function"
    },
    {
      "inputs": [
        {
          "internalType": "address",
          "name": "_gauge",
          "type": "address"
        }
      ],
      "name": "distribute",
      "outputs": [],
      "stateMutability": "nonpayable",
      "type": "function"
    },
    {
      "inputs": [],
      "name": "distributeAll",
      "outputs": [],
      "stateMutability": "nonpayable",
      "type": "function"
    },
    {
      "inputs": [
        {
          "internalType": "address[]",
          "name": "_gauges",
          "type": "address[]"
        }
      ],
      "name": "distributeFees",
      "outputs": [],
      "stateMutability": "nonpayable",
      "type": "function"
    },
    {
      "inputs": [
        {
          "internalType": "address[]",
          "name": "_gauges",
          "type": "address[]"
        }
      ],
      "name": "distributeForGauges",
      "outputs": [],
      "stateMutability": "nonpayable",
      "type": "function"
    },
    {
      "inputs": [
        {
          "internalType": "uint256",
          "name": "start",
          "type": "uint256"
        },
        {
          "internalType": "uint256",
          "name": "finish",
          "type": "uint256"
        }
      ],
      "name": "distributeForPoolsInRange",
      "outputs": [],
      "stateMutability": "nonpayable",
      "type": "function"
    },
    {
      "inputs": [
        {
          "internalType": "uint256",
          "name": "tokenId",
          "type": "uint256"
        },
        {
          "internalType": "address",
          "name": "account",
          "type": "address"
        },
        {
          "internalType": "uint256",
          "name": "amount",
          "type": "uint256"
        }
      ],
      "name": "emitDeposit",
      "outputs": [],
      "stateMutability": "nonpayable",
      "type": "function"
    },
    {
      "inputs": [
        {
          "internalType": "uint256",
          "name": "tokenId",
          "type": "uint256"
        },
        {
          "internalType": "address",
          "name": "account",
          "type": "address"
        },
        {
          "internalType": "uint256",
          "name": "amount",
          "type": "uint256"
        }
      ],
      "name": "emitWithdraw",
      "outputs": [],
      "stateMutability": "nonpayable",
      "type": "function"
    },
    {
      "inputs": [],
      "name": "factory",
      "outputs": [
        {
          "internalType": "address",
          "name": "",
          "type": "address"
        }
      ],
      "stateMutability": "view",
      "type": "function"
    },
    {
      "inputs": [],
      "name": "gaugeFactory",
      "outputs": [
        {
          "internalType": "address",
          "name": "",
          "type": "address"
        }
      ],
      "stateMutability": "view",
      "type": "function"
    },
    {
      "inputs": [
        {
          "internalType": "address",
          "name": "",
          "type": "address"
        }
      ],
      "name": "gauges",
      "outputs": [
        {
          "internalType": "address",
          "name": "",
          "type": "address"
        }
      ],
      "stateMutability": "view",
      "type": "function"
    },
    {
      "inputs": [],
      "name": "index",
      "outputs": [
        {
          "internalType": "uint256",
          "name": "",
          "type": "uint256"
        }
      ],
      "stateMutability": "view",
      "type": "function"
    },
    {
      "inputs": [
        {
          "internalType": "address[]",
          "name": "_tokens",
          "type": "address[]"
        },
        {
          "internalType": "address",
          "name": "_minter",
          "type": "address"
        }
      ],
      "name": "init",
      "outputs": [],
      "stateMutability": "nonpayable",
      "type": "function"
    },
    {
      "inputs": [
        {
          "internalType": "address",
          "name": "",
          "type": "address"
        }
      ],
      "name": "isGauge",
      "outputs": [
        {
          "internalType": "bool",
          "name": "",
          "type": "bool"
        }
      ],
      "stateMutability": "view",
      "type": "function"
    },
    {
      "inputs": [
        {
          "internalType": "address",
          "name": "",
          "type": "address"
        }
      ],
      "name": "isWhitelisted",
      "outputs": [
        {
          "internalType": "bool",
          "name": "",
          "type": "bool"
        }
      ],
      "stateMutability": "view",
      "type": "function"
    },
    {
      "inputs": [],
      "name": "listingFee",
      "outputs": [
        {
          "internalType": "uint256",
          "name": "",
          "type": "uint256"
        }
      ],
      "stateMutability": "view",
      "type": "function"
    },
    {
      "inputs": [],
      "name": "minter",
      "outputs": [
        {
          "internalType": "address",
          "name": "",
          "type": "address"
        }
      ],
      "stateMutability": "view",
      "type": "function"
    },
    {
      "inputs": [
        {
          "internalType": "uint256",
          "name": "amount",
          "type": "uint256"
        }
      ],
      "name": "notifyRewardAmount",
      "outputs": [],
      "stateMutability": "nonpayable",
      "type": "function"
    },
    {
      "inputs": [
        {
          "internalType": "uint256",
          "name": "_tokenId",
          "type": "uint256"
        }
      ],
      "name": "poke",
      "outputs": [],
      "stateMutability": "nonpayable",
      "type": "function"
    },
    {
      "inputs": [
        {
          "internalType": "address",
          "name": "",
          "type": "address"
        }
      ],
      "name": "poolForGauge",
      "outputs": [
        {
          "internalType": "address",
          "name": "",
          "type": "address"
        }
      ],
      "stateMutability": "view",
      "type": "function"
    },
    {
      "inputs": [
        {
          "internalType": "uint256",
          "name": "",
          "type": "uint256"
        },
        {
          "internalType": "uint256",
          "name": "",
          "type": "uint256"
        }
      ],
      "name": "poolVote",
      "outputs": [
        {
          "internalType": "address",
          "name": "",
          "type": "address"
        }
      ],
      "stateMutability": "view",
      "type": "function"
    },
    {
      "inputs": [
        {
          "internalType": "uint256",
          "name": "",
          "type": "uint256"
        }
      ],
      "name": "pools",
      "outputs": [
        {
          "internalType": "address",
          "name": "",
          "type": "address"
        }
      ],
      "stateMutability": "view",
      "type": "function"
    },
    {
      "inputs": [],
      "name": "poolsLength",
      "outputs": [
        {
          "internalType": "uint256",
          "name": "",
          "type": "uint256"
        }
      ],
      "stateMutability": "view",
      "type": "function"
    },
    {
      "inputs": [
        {
          "internalType": "address",
          "name": "_token",
          "type": "address"
        },
        {
          "internalType": "address",
          "name": "_gaugeOrBribe",
          "type": "address"
        },
        {
          "internalType": "uint256",
          "name": "_tokenId",
          "type": "uint256"
        }
      ],
      "name": "registerRewardToken",
      "outputs": [],
      "stateMutability": "nonpayable",
      "type": "function"
    },
    {
      "inputs": [
        {
          "internalType": "address",
          "name": "_token",
          "type": "address"
        },
        {
          "internalType": "address",
          "name": "_gaugeOrBribe",
          "type": "address"
        },
        {
          "internalType": "uint256",
          "name": "_tokenId",
          "type": "uint256"
        }
      ],
      "name": "removeRewardToken",
      "outputs": [],
      "stateMutability": "nonpayable",
      "type": "function"
    },
    {
      "inputs": [
        {
          "internalType": "uint256",
          "name": "_tokenId",
          "type": "uint256"
        }
      ],
      "name": "reset",
      "outputs": [],
      "stateMutability": "nonpayable",
      "type": "function"
    },
    {
      "inputs": [
        {
          "internalType": "address",
          "name": "",
          "type": "address"
        }
      ],
      "name": "supplyIndex",
      "outputs": [
        {
          "internalType": "uint256",
          "name": "",
          "type": "uint256"
        }
      ],
      "stateMutability": "view",
      "type": "function"
    },
    {
      "inputs": [],
      "name": "token",
      "outputs": [
        {
          "internalType": "address",
          "name": "",
          "type": "address"
        }
      ],
      "stateMutability": "view",
      "type": "function"
    },
    {
      "inputs": [],
      "name": "totalWeight",
      "outputs": [
        {
          "internalType": "uint256",
          "name": "",
          "type": "uint256"
        }
      ],
      "stateMutability": "view",
      "type": "function"
    },
    {
      "inputs": [],
      "name": "updateAll",
      "outputs": [],
      "stateMutability": "nonpayable",
      "type": "function"
    },
    {
      "inputs": [
        {
          "internalType": "address[]",
          "name": "_gauges",
          "type": "address[]"
        }
      ],
      "name": "updateFor",
      "outputs": [],
      "stateMutability": "nonpayable",
      "type": "function"
    },
    {
      "inputs": [
        {
          "internalType": "uint256",
          "name": "start",
          "type": "uint256"
        },
        {
          "internalType": "uint256",
          "name": "end",
          "type": "uint256"
        }
      ],
      "name": "updateForRange",
      "outputs": [],
      "stateMutability": "nonpayable",
      "type": "function"
    },
    {
      "inputs": [
        {
          "internalType": "address",
          "name": "_gauge",
          "type": "address"
        }
      ],
      "name": "updateGauge",
      "outputs": [],
      "stateMutability": "nonpayable",
      "type": "function"
    },
    {
      "inputs": [
        {
          "internalType": "uint256",
          "name": "",
          "type": "uint256"
        }
      ],
      "name": "usedWeights",
      "outputs": [
        {
          "internalType": "uint256",
          "name": "",
          "type": "uint256"
        }
      ],
      "stateMutability": "view",
      "type": "function"
    },
    {
      "inputs": [],
      "name": "ve",
      "outputs": [
        {
          "internalType": "address",
          "name": "",
          "type": "address"
        }
      ],
      "stateMutability": "view",
      "type": "function"
    },
    {
      "inputs": [
        {
          "internalType": "uint256",
          "name": "tokenId",
          "type": "uint256"
        },
        {
          "internalType": "address[]",
          "name": "_poolVote",
          "type": "address[]"
        },
        {
          "internalType": "int256[]",
          "name": "_weights",
          "type": "int256[]"
        }
      ],
      "name": "vote",
      "outputs": [],
      "stateMutability": "nonpayable",
      "type": "function"
    },
    {
      "inputs": [
        {
          "internalType": "uint256",
          "name": "",
          "type": "uint256"
        },
        {
          "internalType": "address",
          "name": "",
          "type": "address"
        }
      ],
      "name": "votes",
      "outputs": [
        {
          "internalType": "int256",
          "name": "",
          "type": "int256"
        }
      ],
      "stateMutability": "view",
      "type": "function"
    },
    {
      "inputs": [
        {
          "internalType": "address",
          "name": "",
          "type": "address"
        }
      ],
      "name": "weights",
      "outputs": [
        {
          "internalType": "int256",
          "name": "",
          "type": "int256"
        }
      ],
      "stateMutability": "view",
      "type": "function"
    },
    {
      "inputs": [
        {
          "internalType": "address",
          "name": "_token",
          "type": "address"
        },
        {
          "internalType": "uint256",
          "name": "_tokenId",
          "type": "uint256"
        }
      ],
      "name": "whitelist",
      "outputs": [],
      "stateMutability": "nonpayable",
      "type": "function"
    }
  ],
  "bytecode": "0x61012060405260016000553480156200001757600080fd5b5060405162003c5e38038062003c5e8339810160408190526200003a9162000102565b6001600160a01b03808516608081905290841660a05260408051637e062a3560e11b8152905163fc0c546a916004808201926020929091908290030181865afa1580156200008c573d6000803e3d6000fd5b505050506040513d601f19601f82011682018060405250810190620000b291906200015f565b6001600160a01b0390811660c05291821660e05216610100525050600180546001600160a01b0319163317905562000184565b80516001600160a01b0381168114620000fd57600080fd5b919050565b600080600080608085870312156200011957600080fd5b6200012485620000e5565b93506200013460208601620000e5565b92506200014460408601620000e5565b91506200015460608601620000e5565b905092959194509250565b6000602082840312156200017257600080fd5b6200017d82620000e5565b9392505050565b60805160a05160c05160e051610100516139c36200029b600039600081816106c601526119410152600081816102f801526119bf0152600081816106ed01528181610b3001528181610ba701528181611869015281816118a2015281816118d401528181611a81015281816121d80152818161229401528181612a7e0152612b6f015260008181610608015261166301526000818161031f01528181610838015281816108ef01528181610c4801528181610d9201528181610e5301528181610fb30152818161113d0152818161121301528181611431015281816114f2015281816119f001528181611d9d01528181611e5e01528181611faa0152818161257b015281816129540152612aed01526139c36000f3fe608060405234801561001057600080fd5b50600436106102955760003560e01c80637715ee7511610167578063ac4afa38116100ce578063ddbe883c11610087578063ddbe883c1461067b578063e380fcad1461068e578063ea94ee44146106ae578063eb4a78e0146106c1578063fc0c546a146106e8578063fecdad601461070f57600080fd5b8063ac4afa38146105c7578063b9a09fd5146105da578063c45a015514610603578063c527ee1f1461062a578063d23254b41461063d578063d560b0d71461066857600080fd5b8063a5f4301e11610120578063a5f4301e14610522578063a61c713a14610535578063a7cac84614610548578063a86a366d14610568578063a8c5d95a1461057b578063aa79979b146105a457600080fd5b80637715ee75146104ad57806379e93824146104c05780637e1ddf64146104e057806396c82e57146104f357806398fc55d8146104fc5780639b6a9d721461050f57600080fd5b80633c6b16ab1161020b57806353f38e6b116101c457806353f38e6b1461044657806363453ae114610459578063666256aa1461046c578063698473e31461047f5780636a1b7ecc146104925780636ecbe38a1461049a57600080fd5b80633c6b16ab146103dd578063402914f5146103f0578063411b1f7714610410578063436596c4146104235780634c6e62b61461042b57806353d786931461043e57600080fd5b806320b1cb6f1161025d57806320b1cb6f146103565780632716ae66146103695780632986c0e51461037b578063310bd74b1461038457806332145f90146103975780633af32abf146103aa57600080fd5b806306d6a1b21461029a57806307546172146102e05780630d52333c146102f35780631f8507161461031a5780632025e9b814610341575b600080fd5b6102c36102a8366004613073565b6005602052600090815260409020546001600160a01b031681565b6040516001600160a01b0390911681526020015b60405180910390f35b6001546102c3906001600160a01b031681565b6102c37f000000000000000000000000000000000000000000000000000000000000000081565b6102c37f000000000000000000000000000000000000000000000000000000000000000081565b61035461034f36600461316f565b610722565b005b61035461036436600461322c565b610766565b6003545b6040519081526020016102d7565b61036d600d5481565b610354610392366004613290565b61081c565b6103546103a5366004613290565b610956565b6103cd6103b8366004613073565b600c6020526000908152604090205460ff1681565b60405190151581526020016102d7565b6103546103eb366004613290565b610aa6565b61036d6103fe366004613073565b600f6020526000908152604090205481565b61035461041e3660046132a9565b610bfd565b610354610cf2565b6103546104393660046132d9565b610d5c565b610354610f44565b61035461045436600461331a565b610f55565b610354610467366004613073565b610f8b565b61035461047a36600461333c565b610f97565b61035461048d3660046132a9565b6110f3565b61036d6111df565b6103546104a8366004613073565b6111ee565b6103546104bb36600461333c565b6111f7565b61036d6104ce366004613290565b600a6020526000908152604090205481565b6103546104ee3660046133a9565b611353565b61036d60025481565b61035461050a3660046133f0565b6113fb565b61035461051d36600461331a565b61158b565b6102c3610530366004613073565b6115f1565b61035461054336600461341c565b611bb6565b61036d610556366004613073565b60076020526000908152604090205481565b6102c361057636600461331a565b611c28565b6102c3610589366004613073565b6006602052600090815260409020546001600160a01b031681565b6103cd6105b2366004613073565b600b6020526000908152604090205460ff1681565b6102c36105d5366004613290565b611c60565b6102c36105e8366004613073565b6004602052600090815260409020546001600160a01b031681565b6102c37f000000000000000000000000000000000000000000000000000000000000000081565b61035461063836600461316f565b611c8a565b61036d61064b3660046132a9565b600860209081526000928352604080842090915290825290205481565b61035461067636600461316f565b611d27565b6103546106893660046132d9565b611d67565b61036d61069c366004613073565b600e6020526000908152604090205481565b6103546106bc36600461341c565b611f1c565b6102c37f000000000000000000000000000000000000000000000000000000000000000081565b6102c37f000000000000000000000000000000000000000000000000000000000000000081565b61035461071d36600461348f565b611f8e565b60005b81518110156107625761075082828151811061074357610743613509565b60200260200101516120e0565b8061075a81613535565b915050610725565b5050565b60005b82518110156108175782818151811061078457610784613509565b60200260200101516001600160a01b03166331279d3d338484815181106107ad576107ad613509565b60200260200101516040518363ffffffff1660e01b81526004016107d2929190613592565b600060405180830381600087803b1580156107ec57600080fd5b505af1158015610800573d6000803e3d6000fd5b50505050808061080f90613535565b915050610769565b505050565b60405163430c208160e01b8152336004820152602481018290527f00000000000000000000000000000000000000000000000000000000000000006001600160a01b03169063430c208190604401602060405180830381865afa158015610887573d6000803e3d6000fd5b505050506040513d601f19601f820116820180604052508101906108ab91906135b6565b6108d05760405162461bcd60e51b81526004016108c7906135d8565b60405180910390fd5b6108d981612348565b60405163c1f0fb9f60e01b8152600481018290527f00000000000000000000000000000000000000000000000000000000000000006001600160a01b03169063c1f0fb9f90602401600060405180830381600087803b15801561093b57600080fd5b505af115801561094f573d6000803e3d6000fd5b5050505050565b6000818152600960209081526040808320805482518185028101850190935280835291929091908301828280156109b657602002820191906000526020600020905b81546001600160a01b03168152600190910190602001808311610998575b5050505050905060008151905060008167ffffffffffffffff8111156109de576109de613090565b604051908082528060200260200182016040528015610a07578160200160208202803683370190505b50905060005b82811015610a9457600860008681526020019081526020016000206000858381518110610a3c57610a3c613509565b60200260200101516001600160a01b03166001600160a01b0316815260200190815260200160002054828281518110610a7757610a77613509565b602090810291909101015280610a8c81613535565b915050610a0d565b50610aa0848483612557565b50505050565b80600003610ae45760405162461bcd60e51b815260206004820152600b60248201526a1e995c9bc8185b5bdd5b9d60aa1b60448201526064016108c7565b6002546000819003610b235760405162461bcd60e51b8152602060048201526008602482015267217765696768747360c01b60448201526064016108c7565b610b586001600160a01b037f0000000000000000000000000000000000000000000000000000000000000000163330856129eb565b600081610b6d84670de0b6b3a76400006135f8565b610b77919061362d565b90508015610b975780600d6000828254610b919190613641565b90915550505b6040518381526001600160a01b037f0000000000000000000000000000000000000000000000000000000000000000169033907ff70d5c697de7ea828df48e5c4573cb2194c659f1901f70110c52b066dcf50826906020015b60405180910390a3505050565b336000908152600b602052604090205460ff16610c2c5760405162461bcd60e51b81526004016108c790613659565b8115610cad57604051634c3c15a760e11b8152600481018390527f00000000000000000000000000000000000000000000000000000000000000006001600160a01b0316906398782b4e90602401600060405180830381600087803b158015610c9457600080fd5b505af1158015610ca8573d6000803e3d6000fd5b505050505b60405182815233906001600160a01b038316907fae268d9aab12f3605f58efd74fd3801fa812b03fdb44317eb70f46dff0e19e22906020015b60405180910390a35050565b60035460005b8181101561076257610d4a6004600060038481548110610d1a57610d1a613509565b60009182526020808320909101546001600160a01b039081168452908301939093526040909101902054166120e0565b80610d5481613535565b915050610cf8565b60008111610d7c5760405162461bcd60e51b81526004016108c790613679565b6040516331a9108f60e11b8152600481018290527f00000000000000000000000000000000000000000000000000000000000000006001600160a01b031690636352211e90602401602060405180830381865afa158015610de1573d6000803e3d6000fd5b505050506040513d601f19601f82011682018060405250810190610e059190613699565b6001600160a01b0316336001600160a01b031614610e355760405162461bcd60e51b81526004016108c7906135d8565b610e3d612a56565b6040516339f890b560e21b8152600481018390527f00000000000000000000000000000000000000000000000000000000000000006001600160a01b03169063e7e242d490602401602060405180830381865afa158015610ea2573d6000803e3d6000fd5b505050506040513d601f19601f82011682018060405250810190610ec691906136b6565b11610ee35760405162461bcd60e51b81526004016108c7906136cf565b604051631c8db79360e31b81526001600160a01b03848116600483015283169063e46dbc98906024015b600060405180830381600087803b158015610f2757600080fd5b505af1158015610f3b573d6000803e3d6000fd5b50505050505050565b600354610f539060009061158b565b565b815b8181101561081757610f796004600060038481548110610d1a57610d1a613509565b80610f8381613535565b915050610f57565b610f94816120e0565b50565b60405163430c208160e01b8152336004820152602481018290527f00000000000000000000000000000000000000000000000000000000000000006001600160a01b03169063430c208190604401602060405180830381865afa158015611002573d6000803e3d6000fd5b505050506040513d601f19601f8201168201806040525081019061102691906135b6565b6110425760405162461bcd60e51b81526004016108c7906135d8565b60005b8351811015610aa05783818151811061106057611060613509565b60200260200101516001600160a01b031663a7852afa8385848151811061108957611089613509565b60200260200101516040518363ffffffff1660e01b81526004016110ae9291906136ef565b600060405180830381600087803b1580156110c857600080fd5b505af11580156110dc573d6000803e3d6000fd5b5050505080806110eb90613535565b915050611045565b336000908152600b602052604090205460ff166111225760405162461bcd60e51b81526004016108c790613659565b81156111a2576040516246b3bd60e81b8152600481018390527f00000000000000000000000000000000000000000000000000000000000000006001600160a01b0316906346b3bd0090602401600060405180830381600087803b15801561118957600080fd5b505af115801561119d573d6000803e3d6000fd5b505050505b60405182815233906001600160a01b038316907f60940192810a6fb3bce3fd3e2e3a13fd6ccc7605e963fb87ee971aba829989bd90602001610ce6565b60006111e9612a56565b905090565b610f9481612c0d565b60405163430c208160e01b8152336004820152602481018290527f00000000000000000000000000000000000000000000000000000000000000006001600160a01b03169063430c208190604401602060405180830381865afa158015611262573d6000803e3d6000fd5b505050506040513d601f19601f8201168201806040525081019061128691906135b6565b6112a25760405162461bcd60e51b81526004016108c7906135d8565b60005b8351811015610aa0578381815181106112c0576112c0613509565b60200260200101516001600160a01b031663a7852afa838584815181106112e9576112e9613509565b60200260200101516040518363ffffffff1660e01b815260040161130e9291906136ef565b600060405180830381600087803b15801561132857600080fd5b505af115801561133c573d6000803e3d6000fd5b50505050808061134b90613535565b9150506112a5565b6001546001600160a01b031633146113975760405162461bcd60e51b815260206004820152600760248201526610b6b4b73a32b960c91b60448201526064016108c7565b60005b82518110156113d7576113c58382815181106113b8576113b8613509565b6020026020010151612cf1565b806113cf81613535565b91505061139a565b50600180546001600160a01b0319166001600160a01b039290921691909117905550565b6000811161141b5760405162461bcd60e51b81526004016108c790613679565b6040516331a9108f60e11b8152600481018290527f00000000000000000000000000000000000000000000000000000000000000006001600160a01b031690636352211e90602401602060405180830381865afa158015611480573d6000803e3d6000fd5b505050506040513d601f19601f820116820180604052508101906114a49190613699565b6001600160a01b0316336001600160a01b0316146114d45760405162461bcd60e51b81526004016108c7906135d8565b6114dc612a56565b6040516339f890b560e21b8152600481018390527f00000000000000000000000000000000000000000000000000000000000000006001600160a01b03169063e7e242d490602401602060405180830381865afa158015611541573d6000803e3d6000fd5b505050506040513d601f19601f8201168201806040525081019061156591906136b6565b116115825760405162461bcd60e51b81526004016108c7906136cf565b61076282612cf1565b815b81811015610817576115df60046000600384815481106115af576115af613509565b60009182526020808320909101546001600160a01b03908116845290830193909352604090910190205416612c0d565b806115e981613535565b91505061158d565b6001600160a01b03818116600090815260046020526040812054909116156116445760405162461bcd60e51b815260206004820152600660248201526565786973747360d01b60448201526064016108c7565b60405163e5e31b1360e01b81526001600160a01b0383811660048301527f0000000000000000000000000000000000000000000000000000000000000000169063e5e31b1390602401602060405180830381865afa1580156116aa573d6000803e3d6000fd5b505050506040513d601f19601f820116820180604052508101906116ce91906135b6565b6117025760405162461bcd60e51b8152602060048201526005602482015264085c1bdbdb60da1b60448201526064016108c7565b600080836001600160a01b0316639d63848a6040518163ffffffff1660e01b81526004016040805180830381865afa158015611742573d6000803e3d6000fd5b505050506040513d601f19601f820116820180604052508101906117669190613708565b6001600160a01b0382166000908152600c6020526040902054919350915060ff1680156117ab57506001600160a01b0381166000908152600c602052604090205460ff165b6117e65760405162461bcd60e51b815260206004820152600c60248201526b085dda1a5d195b1a5cdd195960a21b60448201526064016108c7565b6040805160038082526080820190925260009160208201606080368337019050509050828160008151811061181d5761181d613509565b60200260200101906001600160a01b031690816001600160a01b031681525050818160018151811061185157611851613509565b6001600160a01b0392831660209182029290920101527f00000000000000000000000000000000000000000000000000000000000000008116908416148015906118cd5750816001600160a01b03167f00000000000000000000000000000000000000000000000000000000000000006001600160a01b031614155b15611927577f00000000000000000000000000000000000000000000000000000000000000008160028151811061190657611906613509565b60200260200101906001600160a01b031690816001600160a01b0316815250505b60405163897cd6b360e01b81526000906001600160a01b037f0000000000000000000000000000000000000000000000000000000000000000169063897cd6b390611976908590600401613737565b6020604051808303816000875af1158015611995573d6000803e3d6000fd5b505050506040513d601f19601f820116820180604052508101906119b99190613699565b905060007f00000000000000000000000000000000000000000000000000000000000000006001600160a01b03166358c14b6588847f0000000000000000000000000000000000000000000000000000000000000000876040518563ffffffff1660e01b8152600401611a2f949392919061374a565b6020604051808303816000875af1158015611a4e573d6000803e3d6000fd5b505050506040513d601f19601f82011682018060405250810190611a729190613699565b9050611aaa6001600160a01b037f00000000000000000000000000000000000000000000000000000000000000001682600019612d9d565b6001600160a01b03808216600081815260066020908152604080832080548689166001600160a01b031991821617909155948c16808452600483528184208054871686179055938352600582528083208054909516909317909355600b9092529020805460ff19166001179055611b2081612c0d565b600380546001810182556000919091527fc2575a0e9e593c00f959f8c92f12db2869c3395a3b0502d05e2516446f71f85b0180546001600160a01b0319166001600160a01b03898116918217909255604051338152909184811691908416907f48d3c521fd0d5541640f58c6d6381eed7cb2e8c9df421ae165a4f4c2d221ee0d9060200160405180910390a49695505050505050565b336000908152600b602052604090205460ff16611be55760405162461bcd60e51b81526004016108c790613659565b604080518481526020810183905233916001600160a01b038516917fdcbc1c05240f31ff3ad067ef1ee35ce4997762752e3a095284754544f4c709d79101610bf0565b60096020528160005260406000208181548110611c4457600080fd5b6000918252602090912001546001600160a01b03169150829050565b60038181548110611c7057600080fd5b6000918252602090912001546001600160a01b0316905081565b60005b815181101561076257818181518110611ca857611ca8613509565b60200260200101516001600160a01b031663d294f0936040518163ffffffff1660e01b815260040160408051808303816000875af1158015611cee573d6000803e3d6000fd5b505050506040513d601f19601f82011682018060405250810190611d129190613788565b50508080611d1f90613535565b915050611c8d565b60005b815181101561076257611d55828281518110611d4857611d48613509565b6020026020010151612c0d565b80611d5f81613535565b915050611d2a565b60008111611d875760405162461bcd60e51b81526004016108c790613679565b6040516331a9108f60e11b8152600481018290527f00000000000000000000000000000000000000000000000000000000000000006001600160a01b031690636352211e90602401602060405180830381865afa158015611dec573d6000803e3d6000fd5b505050506040513d601f19601f82011682018060405250810190611e109190613699565b6001600160a01b0316336001600160a01b031614611e405760405162461bcd60e51b81526004016108c7906135d8565b611e48612a56565b6040516339f890b560e21b8152600481018390527f00000000000000000000000000000000000000000000000000000000000000006001600160a01b03169063e7e242d490602401602060405180830381865afa158015611ead573d6000803e3d6000fd5b505050506040513d601f19601f82011682018060405250810190611ed191906136b6565b11611eee5760405162461bcd60e51b81526004016108c7906136cf565b604051633d509c9760e01b81526001600160a01b038481166004830152831690633d509c9790602401610f0d565b336000908152600b602052604090205460ff16611f4b5760405162461bcd60e51b81526004016108c790613659565b604080518481526020810183905233916001600160a01b038516917ff341246adaac6f497bc2a656f546ab9e182111d630394f0c57c710a59a2cb5679101610bf0565b60405163430c208160e01b8152336004820152602481018690527f00000000000000000000000000000000000000000000000000000000000000006001600160a01b03169063430c208190604401602060405180830381865afa158015611ff9573d6000803e3d6000fd5b505050506040513d601f19601f8201168201806040525081019061201d91906135b6565b6120395760405162461bcd60e51b81526004016108c7906135d8565b8281146120725760405162461bcd60e51b81526020600482015260076024820152662161727261797360c81b60448201526064016108c7565b61094f858585808060200260200160405190810160405280939291908181526020018383602002808284376000920191909152505060408051602080890282810182019093528882529093508892508791829185019084908082843760009201919091525061255792505050565b6000546001146121235760405162461bcd60e51b815260206004820152600e60248201526d1499595b9d1c985b9d0818d85b1b60921b60448201526064016108c7565b6002600081905550600160009054906101000a90046001600160a01b03166001600160a01b031663a83627de6040518163ffffffff1660e01b81526004016020604051808303816000875af1158015612180573d6000803e3d6000fd5b505050506040513d601f19601f820116820180604052508101906121a491906136b6565b506121ae81612c0d565b6001600160a01b038181166000818152600f602052604090819020549051634cde602960e11b81527f00000000000000000000000000000000000000000000000000000000000000009093166004840152916399bcc05290602401602060405180830381865afa158015612226573d6000803e3d6000fd5b505050506040513d601f19601f8201168201806040525081019061224a91906136b6565b811180156122645750600061226262093a808361362d565b115b1561233f576001600160a01b038281166000818152600f6020526040808220919091555163b66503cf60e01b81527f00000000000000000000000000000000000000000000000000000000000000009092166004830152602482018390529063b66503cf90604401600060405180830381600087803b1580156122e657600080fd5b505af11580156122fa573d6000803e3d6000fd5b50506040518381526001600160a01b03851692503391507f4fa9693cae526341d334e2862ca2413b2e503f1266255f9e0869fb36e6d89b179060200160405180910390a35b50506001600055565b600081815260096020526040812080549091805b8281101561251b57600084828154811061237857612378613509565b60009182526020808320909101548883526008825260408084206001600160a01b0392831680865290845281852054600490945293205492935090916123be9116612c0d565b6001600160a01b038216600090815260076020526040812080548392906123e69084906137ac565b909155505060008781526008602090815260408083206001600160a01b03861684529091528120805483929061241d9084906137ac565b909155505060008113156124c0576001600160a01b038281166000908152600460208181526040808420548516845260069091529182902054915163278afc8b60e21b8152908101849052602481018a9052911690639e2bf22c90604401600060405180830381600087803b15801561249557600080fd5b505af11580156124a9573d6000803e3d6000fd5b5050505080846124b991906137eb565b93506124cd565b6124ca81856137ac565b93505b60408051888152602081018390527f6b3894ce60b9bbe9d93f1a4e6fc25b6b93cd8222e73ab6348d79c596f5b51de9910160405180910390a15050808061251390613535565b91505061235c565b50806002600082825461252e919061382c565b90915550506000848152600a6020908152604080832083905560099091528120610aa09161302c565b61256083612348565b81516040516339f890b560e21b8152600481018590526000907f00000000000000000000000000000000000000000000000000000000000000006001600160a01b03169063e7e242d490602401602060405180830381865afa1580156125ca573d6000803e3d6000fd5b505050506040513d601f19601f820116820180604052508101906125ee91906136b6565b90506000806000805b8581101561268157600087828151811061261357612613613509565b6020026020010151136126485786818151811061263257612632613509565b602002602001015161264390613843565b612663565b86818151811061265a5761265a613509565b60200260200101515b61266d90856137eb565b93508061267981613535565b9150506125f7565b5060005b858110156129345760008882815181106126a1576126a1613509565b6020908102919091018101516001600160a01b038082166000908152600490935260408320548b51929450169190879089908c90879081106126e5576126e5613509565b60200260200101516126f7919061385f565b61270191906138e4565b60008d81526008602090815260408083206001600160a01b0388168452909152902054909150156127655760405162461bcd60e51b815260206004820152600e60248201526d191d5c1b1a58d85d19481c1bdbdb60921b60448201526064016108c7565b806000036127a25760405162461bcd60e51b815260206004820152600a6024820152693d32b937903837bbb2b960b11b60448201526064016108c7565b6127ab82612c0d565b60008c815260096020908152604080832080546001810182559084528284200180546001600160a01b0319166001600160a01b03881690811790915583526007909152812080548392906128009084906137eb565b909155505060008c81526008602090815260408083206001600160a01b0387168452909152812080548392906128379084906137eb565b909155505060008113156128be576001600160a01b038083166000908152600660205260409081902054905163f320772360e01b815260048101849052602481018f905291169063f320772390604401600060405180830381600087803b1580156128a157600080fd5b505af11580156128b5573d6000803e3d6000fd5b505050506128ca565b6128c781613843565b90505b6128d481866137eb565b94506128e081876137eb565b604080518e81526020810184905291975033917f1263a2295e53acd6ef8f655b8afc11fa0f2cf11925be7aa1757d741ef32a926c910160405180910390a2505050808061292c90613535565b915050612685565b5060008113156129b95760405163fd4a77f160e01b8152600481018990527f00000000000000000000000000000000000000000000000000000000000000006001600160a01b03169063fd4a77f190602401600060405180830381600087803b1580156129a057600080fd5b505af11580156129b4573d6000803e3d6000fd5b505050505b81600260008282546129cb9190613641565b90915550506000978852600a602052604090972096909655505050505050565b6040516001600160a01b0380851660248301528316604482015260648101829052610aa09085906323b872dd60e01b906084015b60408051601f198184030181529190526020810180516001600160e01b03166001600160e01b031990931692909217909152612e4f565b6001546040516370a0823160e01b81526001600160a01b0391821660048201526000916014917f0000000000000000000000000000000000000000000000000000000000000000909116906370a0823190602401602060405180830381865afa158015612ac7573d6000803e3d6000fd5b505050506040513d601f19601f82011682018060405250810190612aeb91906136b6565b7f00000000000000000000000000000000000000000000000000000000000000006001600160a01b03166318160ddd6040518163ffffffff1660e01b8152600401602060405180830381865afa158015612b49573d6000803e3d6000fd5b505050506040513d601f19601f82011682018060405250810190612b6d91906136b6565b7f00000000000000000000000000000000000000000000000000000000000000006001600160a01b03166318160ddd6040518163ffffffff1660e01b8152600401602060405180830381865afa158015612bcb573d6000803e3d6000fd5b505050506040513d601f19601f82011682018060405250810190612bef91906136b6565b612bf9919061382c565b612c03919061382c565b6111e9919061362d565b6001600160a01b0380821660009081526005602090815260408083205490931680835260079091529181205490811315612cd0576001600160a01b0383166000908152600e602052604081208054600d549182905591612c6d838361382c565b90508015612cc8576000670de0b6b3a7640000612c8a83876135f8565b612c94919061362d565b6001600160a01b0388166000908152600f6020526040812080549293508392909190612cc1908490613641565b9091555050505b505050505050565b600d546001600160a01b0384166000908152600e6020526040902055505050565b6001600160a01b0381166000908152600c602052604090205460ff1615612d505760405162461bcd60e51b8152602060048201526013602482015272185b1c9958591e481dda1a5d195b1a5cdd1959606a1b60448201526064016108c7565b6001600160a01b0381166000818152600c6020526040808220805460ff191660011790555133917f6661a7108aecd07864384529117d96c319c1163e3010c01390f6b704726e07de91a350565b604051636eb1769f60e11b81523060048201526001600160a01b038381166024830152600091839186169063dd62ed3e90604401602060405180830381865afa158015612dee573d6000803e3d6000fd5b505050506040513d601f19601f82011682018060405250810190612e1291906136b6565b612e1c9190613641565b6040516001600160a01b038516602482015260448101829052909150610aa090859063095ea7b360e01b90606401612a1f565b6000612ea4826040518060400160405280602081526020017f5361666545524332303a206c6f772d6c6576656c2063616c6c206661696c6564815250856001600160a01b0316612f219092919063ffffffff16565b8051909150156108175780806020019051810190612ec291906135b6565b6108175760405162461bcd60e51b815260206004820152602a60248201527f5361666545524332303a204552433230206f7065726174696f6e20646964206e6044820152691bdd081cdd58d8d9595960b21b60648201526084016108c7565b60606001600160a01b0384163b612f7a5760405162461bcd60e51b815260206004820152601d60248201527f416464726573733a2063616c6c20746f206e6f6e2d636f6e747261637400000060448201526064016108c7565b600080856001600160a01b031685604051612f95919061393e565b6000604051808303816000865af19150503d8060008114612fd2576040519150601f19603f3d011682016040523d82523d6000602084013e612fd7565b606091505b5091509150612fe7828286612ff3565b925050505b9392505050565b60608315613002575081612fec565b8251156130125782518084602001fd5b8160405162461bcd60e51b81526004016108c7919061395a565b5080546000825590600052602060002090810190610f9491905b8082111561305a5760008155600101613046565b5090565b6001600160a01b0381168114610f9457600080fd5b60006020828403121561308557600080fd5b8135612fec8161305e565b634e487b7160e01b600052604160045260246000fd5b604051601f8201601f1916810167ffffffffffffffff811182821017156130cf576130cf613090565b604052919050565b600067ffffffffffffffff8211156130f1576130f1613090565b5060051b60200190565b600082601f83011261310c57600080fd5b8135602061312161311c836130d7565b6130a6565b82815260059290921b8401810191818101908684111561314057600080fd5b8286015b848110156131645780356131578161305e565b8352918301918301613144565b509695505050505050565b60006020828403121561318157600080fd5b813567ffffffffffffffff81111561319857600080fd5b6131a4848285016130fb565b949350505050565b600082601f8301126131bd57600080fd5b813560206131cd61311c836130d7565b82815260059290921b840181019181810190868411156131ec57600080fd5b8286015b8481101561316457803567ffffffffffffffff8111156132105760008081fd5b61321e8986838b01016130fb565b8452509183019183016131f0565b6000806040838503121561323f57600080fd5b823567ffffffffffffffff8082111561325757600080fd5b613263868387016130fb565b9350602085013591508082111561327957600080fd5b50613286858286016131ac565b9150509250929050565b6000602082840312156132a257600080fd5b5035919050565b600080604083850312156132bc57600080fd5b8235915060208301356132ce8161305e565b809150509250929050565b6000806000606084860312156132ee57600080fd5b83356132f98161305e565b925060208401356133098161305e565b929592945050506040919091013590565b6000806040838503121561332d57600080fd5b50508035926020909101359150565b60008060006060848603121561335157600080fd5b833567ffffffffffffffff8082111561336957600080fd5b613375878388016130fb565b9450602086013591508082111561338b57600080fd5b50613398868287016131ac565b925050604084013590509250925092565b600080604083850312156133bc57600080fd5b823567ffffffffffffffff8111156133d357600080fd5b6133df858286016130fb565b92505060208301356132ce8161305e565b6000806040838503121561340357600080fd5b823561340e8161305e565b946020939093013593505050565b60008060006060848603121561343157600080fd5b8335925060208401356133098161305e565b60008083601f84011261345557600080fd5b50813567ffffffffffffffff81111561346d57600080fd5b6020830191508360208260051b850101111561348857600080fd5b9250929050565b6000806000806000606086880312156134a757600080fd5b85359450602086013567ffffffffffffffff808211156134c657600080fd5b6134d289838a01613443565b909650945060408801359150808211156134eb57600080fd5b506134f888828901613443565b969995985093965092949392505050565b634e487b7160e01b600052603260045260246000fd5b634e487b7160e01b600052601160045260246000fd5b6000600182016135475761354761351f565b5060010190565b600081518084526020808501945080840160005b838110156135875781516001600160a01b031687529582019590820190600101613562565b509495945050505050565b6001600160a01b03831681526040602082018190526000906131a49083018461354e565b6000602082840312156135c857600080fd5b81518015158114612fec57600080fd5b60208082526006908201526510b7bbb732b960d11b604082015260600190565b60008160001904831182151516156136125761361261351f565b500290565b634e487b7160e01b600052601260045260246000fd5b60008261363c5761363c613617565b500490565b600082198211156136545761365461351f565b500190565b60208082526006908201526521676175676560d01b604082015260600190565b60208082526006908201526510ba37b5b2b760d11b604082015260600190565b6000602082840312156136ab57600080fd5b8151612fec8161305e565b6000602082840312156136c857600080fd5b5051919050565b60208082526006908201526510b837bbb2b960d11b604082015260600190565b8281526040602082015260006131a4604083018461354e565b6000806040838503121561371b57600080fd5b82516137268161305e565b60208401519092506132ce8161305e565b602081526000612fec602083018461354e565b6001600160a01b03858116825284811660208301528316604082015260806060820181905260009061377e9083018461354e565b9695505050505050565b6000806040838503121561379b57600080fd5b505080516020909101519092909150565b60008083128015600160ff1b8501841216156137ca576137ca61351f565b6001600160ff1b03840183138116156137e5576137e561351f565b50500390565b600080821280156001600160ff1b038490038513161561380d5761380d61351f565b600160ff1b83900384128116156138265761382661351f565b50500190565b60008282101561383e5761383e61351f565b500390565b6000600160ff1b82016138585761385861351f565b5060000390565b60006001600160ff1b03818413828413808216868404861116156138855761388561351f565b600160ff1b60008712828116878305891216156138a4576138a461351f565b600087129250878205871284841616156138c0576138c061351f565b878505871281841616156138d6576138d661351f565b505050929093029392505050565b6000826138f3576138f3613617565b600160ff1b82146000198414161561390d5761390d61351f565b500590565b60005b8381101561392d578181015183820152602001613915565b83811115610aa05750506000910152565b60008251613950818460208701613912565b9190910192915050565b6020815260008251806020840152613979816040850160208701613912565b601f01601f1916919091016040019291505056fea2646970667358221220a435bc108ea1a4214d843c5606d89f52dc7688a8d936d6c35d30ac1f420fe12d64736f6c634300080d0033",
  "linkReferences": {},
  "deployedLinkReferences": {}
}