{
  "_format": "hh-sol-artifact-1",
  "contractName": "VoltVoter",
  "sourceName": "contracts/base/vote/VoltVoter.sol",
  "abi": [
    {
      "inputs": [
        {
          "internalType": "address",
          "name": "_ve",
          "type": "address"
        },
        {
          "internalType": "address",
          "name": "_factory",
          "type": "address"
        },
        {
          "internalType": "address",
          "name": "_gaugeFactory",
          "type": "address"
        },
        {
          "internalType": "address",
          "name": "_bribeFactory",
          "type": "address"
        }
      ],
      "stateMutability": "nonpayable",
      "type": "constructor"
    },
    {
      "anonymous": false,
      "inputs": [
        {
          "indexed": false,
          "internalType": "uint256",
          "name": "tokenId",
          "type": "uint256"
        },
        {
          "indexed": false,
          "internalType": "int256",
          "name": "weight",
          "type": "int256"
        }
      ],
      "name": "Abstained",
      "type": "event"
    },
    {
      "anonymous": false,
      "inputs": [
        {
          "indexed": true,
          "internalType": "address",
          "name": "owner",
          "type": "address"
        },
        {
          "indexed": true,
          "internalType": "address",
          "name": "gauge",
          "type": "address"
        },
        {
          "indexed": false,
          "internalType": "uint256",
          "name": "tokenId",
          "type": "uint256"
        }
      ],
      "name": "Attach",
      "type": "event"
    },
    {
      "anonymous": false,
      "inputs": [
        {
          "indexed": true,
          "internalType": "address",
          "name": "lp",
          "type": "address"
        },
        {
          "indexed": true,
          "internalType": "address",
          "name": "gauge",
          "type": "address"
        },
        {
          "indexed": false,
          "internalType": "uint256",
          "name": "tokenId",
          "type": "uint256"
        },
        {
          "indexed": false,
          "internalType": "uint256",
          "name": "amount",
          "type": "uint256"
        }
      ],
      "name": "Deposit",
      "type": "event"
    },
    {
      "anonymous": false,
      "inputs": [
        {
          "indexed": true,
          "internalType": "address",
          "name": "owner",
          "type": "address"
        },
        {
          "indexed": true,
          "internalType": "address",
          "name": "gauge",
          "type": "address"
        },
        {
          "indexed": false,
          "internalType": "uint256",
          "name": "tokenId",
          "type": "uint256"
        }
      ],
      "name": "Detach",
      "type": "event"
    },
    {
      "anonymous": false,
      "inputs": [
        {
          "indexed": true,
          "internalType": "address",
          "name": "sender",
          "type": "address"
        },
        {
          "indexed": true,
          "internalType": "address",
          "name": "gauge",
          "type": "address"
        },
        {
          "indexed": false,
          "internalType": "uint256",
          "name": "amount",
          "type": "uint256"
        }
      ],
      "name": "DistributeReward",
      "type": "event"
    },
    {
      "anonymous": false,
      "inputs": [
        {
          "indexed": true,
          "internalType": "address",
          "name": "gauge",
          "type": "address"
        },
        {
          "indexed": false,
          "internalType": "address",
          "name": "creator",
          "type": "address"
        },
        {
          "indexed": true,
          "internalType": "address",
          "name": "bribe",
          "type": "address"
        },
        {
          "indexed": true,
          "internalType": "address",
          "name": "pool",
          "type": "address"
        }
      ],
      "name": "GaugeCreated",
      "type": "event"
    },
    {
      "anonymous": false,
      "inputs": [
        {
          "indexed": true,
          "internalType": "address",
          "name": "sender",
          "type": "address"
        },
        {
          "indexed": true,
          "internalType": "address",
          "name": "reward",
          "type": "address"
        },
        {
          "indexed": false,
          "internalType": "uint256",
          "name": "amount",
          "type": "uint256"
        }
      ],
      "name": "NotifyReward",
      "type": "event"
    },
    {
      "anonymous": false,
      "inputs": [
        {
          "indexed": true,
          "internalType": "address",
          "name": "voter",
          "type": "address"
        },
        {
          "indexed": false,
          "internalType": "uint256",
          "name": "tokenId",
          "type": "uint256"
        },
        {
          "indexed": false,
          "internalType": "int256",
          "name": "weight",
          "type": "int256"
        }
      ],
      "name": "Voted",
      "type": "event"
    },
    {
      "anonymous": false,
      "inputs": [
        {
          "indexed": true,
          "internalType": "address",
          "name": "whitelister",
          "type": "address"
        },
        {
          "indexed": true,
          "internalType": "address",
          "name": "token",
          "type": "address"
        }
      ],
      "name": "Whitelisted",
      "type": "event"
    },
    {
      "anonymous": false,
      "inputs": [
        {
          "indexed": true,
          "internalType": "address",
          "name": "lp",
          "type": "address"
        },
        {
          "indexed": true,
          "internalType": "address",
          "name": "gauge",
          "type": "address"
        },
        {
          "indexed": false,
          "internalType": "uint256",
          "name": "tokenId",
          "type": "uint256"
        },
        {
          "indexed": false,
          "internalType": "uint256",
          "name": "amount",
          "type": "uint256"
        }
      ],
      "name": "Withdraw",
      "type": "event"
    },
    {
      "inputs": [
        {
          "internalType": "uint256",
          "name": "tokenId",
          "type": "uint256"
        },
        {
          "internalType": "address",
          "name": "account",
          "type": "address"
        }
      ],
      "name": "attachTokenToGauge",
      "outputs": [],
      "stateMutability": "nonpayable",
      "type": "function"
    },
    {
      "inputs": [],
      "name": "bribeFactory",
      "outputs": [
        {
          "internalType": "address",
          "name": "",
          "type": "address"
        }
      ],
      "stateMutability": "view",
      "type": "function"
    },
    {
      "inputs": [
        {
          "internalType": "address",
          "name": "",
          "type": "address"
        }
      ],
      "name": "bribes",
      "outputs": [
        {
          "internalType": "address",
          "name": "",
          "type": "address"
        }
      ],
      "stateMutability": "view",
      "type": "function"
    },
    {
      "inputs": [
        {
          "internalType": "address[]",
          "name": "_bribes",
          "type": "address[]"
        },
        {
          "internalType": "address[][]",
          "name": "_tokens",
          "type": "address[][]"
        },
        {
          "internalType": "uint256",
          "name": "_tokenId",
          "type": "uint256"
        }
      ],
      "name": "claimBribes",
      "outputs": [],
      "stateMutability": "nonpayable",
      "type": "function"
    },
    {
      "inputs": [
        {
          "internalType": "address[]",
          "name": "_bribes",
          "type": "address[]"
        },
        {
          "internalType": "address[][]",
          "name": "_tokens",
          "type": "address[][]"
        },
        {
          "internalType": "uint256",
          "name": "_tokenId",
          "type": "uint256"
        }
      ],
      "name": "claimFees",
      "outputs": [],
      "stateMutability": "nonpayable",
      "type": "function"
    },
    {
      "inputs": [
        {
          "internalType": "address[]",
          "name": "_gauges",
          "type": "address[]"
        },
        {
          "internalType": "address[][]",
          "name": "_tokens",
          "type": "address[][]"
        }
      ],
      "name": "claimRewards",
      "outputs": [],
      "stateMutability": "nonpayable",
      "type": "function"
    },
    {
      "inputs": [
        {
          "internalType": "address",
          "name": "",
          "type": "address"
        }
      ],
      "name": "claimable",
      "outputs": [
        {
          "internalType": "uint256",
          "name": "",
          "type": "uint256"
        }
      ],
      "stateMutability": "view",
      "type": "function"
    },
    {
      "inputs": [
        {
          "internalType": "address",
          "name": "_pool",
          "type": "address"
        }
      ],
      "name": "createGauge",
      "outputs": [
        {
          "internalType": "address",
          "name": "",
          "type": "address"
        }
      ],
      "stateMutability": "nonpayable",
      "type": "function"
    },
    {
      "inputs": [
        {
          "internalType": "uint256",
          "name": "tokenId",
          "type": "uint256"
        },
        {
          "internalType": "address",
          "name": "account",
          "type": "address"
        }
      ],
      "name": "detachTokenFromGauge",
      "outputs": [],
      "stateMutability": "nonpayable",
      "type": "function"
    },
    {
      "inputs": [
        {
          "internalType": "address",
          "name": "_gauge",
          "type": "address"
        }
      ],
      "name": "distribute",
      "outputs": [],
      "stateMutability": "nonpayable",
      "type": "function"
    },
    {
      "inputs": [],
      "name": "distributeAll",
      "outputs": [],
      "stateMutability": "nonpayable",
      "type": "function"
    },
    {
      "inputs": [
        {
          "internalType": "address[]",
          "name": "_gauges",
          "type": "address[]"
        }
      ],
      "name": "distributeFees",
      "outputs": [],
      "stateMutability": "nonpayable",
      "type": "function"
    },
    {
      "inputs": [
        {
          "internalType": "address[]",
          "name": "_gauges",
          "type": "address[]"
        }
      ],
      "name": "distributeForGauges",
      "outputs": [],
      "stateMutability": "nonpayable",
      "type": "function"
    },
    {
      "inputs": [
        {
          "internalType": "uint256",
          "name": "start",
          "type": "uint256"
        },
        {
          "internalType": "uint256",
          "name": "finish",
          "type": "uint256"
        }
      ],
      "name": "distributeForPoolsInRange",
      "outputs": [],
      "stateMutability": "nonpayable",
      "type": "function"
    },
    {
      "inputs": [
        {
          "internalType": "uint256",
          "name": "tokenId",
          "type": "uint256"
        },
        {
          "internalType": "address",
          "name": "account",
          "type": "address"
        },
        {
          "internalType": "uint256",
          "name": "amount",
          "type": "uint256"
        }
      ],
      "name": "emitDeposit",
      "outputs": [],
      "stateMutability": "nonpayable",
      "type": "function"
    },
    {
      "inputs": [
        {
          "internalType": "uint256",
          "name": "tokenId",
          "type": "uint256"
        },
        {
          "internalType": "address",
          "name": "account",
          "type": "address"
        },
        {
          "internalType": "uint256",
          "name": "amount",
          "type": "uint256"
        }
      ],
      "name": "emitWithdraw",
      "outputs": [],
      "stateMutability": "nonpayable",
      "type": "function"
    },
    {
      "inputs": [],
      "name": "factory",
      "outputs": [
        {
          "internalType": "address",
          "name": "",
          "type": "address"
        }
      ],
      "stateMutability": "view",
      "type": "function"
    },
    {
      "inputs": [],
      "name": "gaugeFactory",
      "outputs": [
        {
          "internalType": "address",
          "name": "",
          "type": "address"
        }
      ],
      "stateMutability": "view",
      "type": "function"
    },
    {
      "inputs": [
        {
          "internalType": "address",
          "name": "",
          "type": "address"
        }
      ],
      "name": "gauges",
      "outputs": [
        {
          "internalType": "address",
          "name": "",
          "type": "address"
        }
      ],
      "stateMutability": "view",
      "type": "function"
    },
    {
      "inputs": [],
      "name": "index",
      "outputs": [
        {
          "internalType": "uint256",
          "name": "",
          "type": "uint256"
        }
      ],
      "stateMutability": "view",
      "type": "function"
    },
    {
      "inputs": [
        {
          "internalType": "address[]",
          "name": "_tokens",
          "type": "address[]"
        },
        {
          "internalType": "address",
          "name": "_minter",
          "type": "address"
        }
      ],
      "name": "init",
      "outputs": [],
      "stateMutability": "nonpayable",
      "type": "function"
    },
    {
      "inputs": [
        {
          "internalType": "address",
          "name": "",
          "type": "address"
        }
      ],
      "name": "isGauge",
      "outputs": [
        {
          "internalType": "bool",
          "name": "",
          "type": "bool"
        }
      ],
      "stateMutability": "view",
      "type": "function"
    },
    {
      "inputs": [
        {
          "internalType": "address",
          "name": "",
          "type": "address"
        }
      ],
      "name": "isWhitelisted",
      "outputs": [
        {
          "internalType": "bool",
          "name": "",
          "type": "bool"
        }
      ],
      "stateMutability": "view",
      "type": "function"
    },
    {
      "inputs": [],
      "name": "listingFee",
      "outputs": [
        {
          "internalType": "uint256",
          "name": "",
          "type": "uint256"
        }
      ],
      "stateMutability": "view",
      "type": "function"
    },
    {
      "inputs": [],
      "name": "minter",
      "outputs": [
        {
          "internalType": "address",
          "name": "",
          "type": "address"
        }
      ],
      "stateMutability": "view",
      "type": "function"
    },
    {
      "inputs": [
        {
          "internalType": "uint256",
          "name": "amount",
          "type": "uint256"
        }
      ],
      "name": "notifyRewardAmount",
      "outputs": [],
      "stateMutability": "nonpayable",
      "type": "function"
    },
    {
      "inputs": [
        {
          "internalType": "uint256",
          "name": "_tokenId",
          "type": "uint256"
        }
      ],
      "name": "poke",
      "outputs": [],
      "stateMutability": "nonpayable",
      "type": "function"
    },
    {
      "inputs": [
        {
          "internalType": "address",
          "name": "",
          "type": "address"
        }
      ],
      "name": "poolForGauge",
      "outputs": [
        {
          "internalType": "address",
          "name": "",
          "type": "address"
        }
      ],
      "stateMutability": "view",
      "type": "function"
    },
    {
      "inputs": [
        {
          "internalType": "uint256",
          "name": "",
          "type": "uint256"
        },
        {
          "internalType": "uint256",
          "name": "",
          "type": "uint256"
        }
      ],
      "name": "poolVote",
      "outputs": [
        {
          "internalType": "address",
          "name": "",
          "type": "address"
        }
      ],
      "stateMutability": "view",
      "type": "function"
    },
    {
      "inputs": [
        {
          "internalType": "uint256",
          "name": "",
          "type": "uint256"
        }
      ],
      "name": "pools",
      "outputs": [
        {
          "internalType": "address",
          "name": "",
          "type": "address"
        }
      ],
      "stateMutability": "view",
      "type": "function"
    },
    {
      "inputs": [],
      "name": "poolsLength",
      "outputs": [
        {
          "internalType": "uint256",
          "name": "",
          "type": "uint256"
        }
      ],
      "stateMutability": "view",
      "type": "function"
    },
    {
      "inputs": [
        {
          "internalType": "address",
          "name": "_token",
          "type": "address"
        },
        {
          "internalType": "address",
          "name": "_gaugeOrBribe",
          "type": "address"
        },
        {
          "internalType": "uint256",
          "name": "_tokenId",
          "type": "uint256"
        }
      ],
      "name": "registerRewardToken",
      "outputs": [],
      "stateMutability": "nonpayable",
      "type": "function"
    },
    {
      "inputs": [
        {
          "internalType": "address",
          "name": "_token",
          "type": "address"
        },
        {
          "internalType": "address",
          "name": "_gaugeOrBribe",
          "type": "address"
        },
        {
          "internalType": "uint256",
          "name": "_tokenId",
          "type": "uint256"
        }
      ],
      "name": "removeRewardToken",
      "outputs": [],
      "stateMutability": "nonpayable",
      "type": "function"
    },
    {
      "inputs": [
        {
          "internalType": "uint256",
          "name": "_tokenId",
          "type": "uint256"
        }
      ],
      "name": "reset",
      "outputs": [],
      "stateMutability": "nonpayable",
      "type": "function"
    },
    {
      "inputs": [
        {
          "internalType": "address",
          "name": "",
          "type": "address"
        }
      ],
      "name": "supplyIndex",
      "outputs": [
        {
          "internalType": "uint256",
          "name": "",
          "type": "uint256"
        }
      ],
      "stateMutability": "view",
      "type": "function"
    },
    {
      "inputs": [],
      "name": "token",
      "outputs": [
        {
          "internalType": "address",
          "name": "",
          "type": "address"
        }
      ],
      "stateMutability": "view",
      "type": "function"
    },
    {
      "inputs": [],
      "name": "totalWeight",
      "outputs": [
        {
          "internalType": "uint256",
          "name": "",
          "type": "uint256"
        }
      ],
      "stateMutability": "view",
      "type": "function"
    },
    {
      "inputs": [],
      "name": "updateAll",
      "outputs": [],
      "stateMutability": "nonpayable",
      "type": "function"
    },
    {
      "inputs": [
        {
          "internalType": "address[]",
          "name": "_gauges",
          "type": "address[]"
        }
      ],
      "name": "updateFor",
      "outputs": [],
      "stateMutability": "nonpayable",
      "type": "function"
    },
    {
      "inputs": [
        {
          "internalType": "uint256",
          "name": "start",
          "type": "uint256"
        },
        {
          "internalType": "uint256",
          "name": "end",
          "type": "uint256"
        }
      ],
      "name": "updateForRange",
      "outputs": [],
      "stateMutability": "nonpayable",
      "type": "function"
    },
    {
      "inputs": [
        {
          "internalType": "address",
          "name": "_gauge",
          "type": "address"
        }
      ],
      "name": "updateGauge",
      "outputs": [],
      "stateMutability": "nonpayable",
      "type": "function"
    },
    {
      "inputs": [
        {
          "internalType": "uint256",
          "name": "",
          "type": "uint256"
        }
      ],
      "name": "usedWeights",
      "outputs": [
        {
          "internalType": "uint256",
          "name": "",
          "type": "uint256"
        }
      ],
      "stateMutability": "view",
      "type": "function"
    },
    {
      "inputs": [],
      "name": "ve",
      "outputs": [
        {
          "internalType": "address",
          "name": "",
          "type": "address"
        }
      ],
      "stateMutability": "view",
      "type": "function"
    },
    {
      "inputs": [
        {
          "internalType": "uint256",
          "name": "tokenId",
          "type": "uint256"
        },
        {
          "internalType": "address[]",
          "name": "_poolVote",
          "type": "address[]"
        },
        {
          "internalType": "int256[]",
          "name": "_weights",
          "type": "int256[]"
        }
      ],
      "name": "vote",
      "outputs": [],
      "stateMutability": "nonpayable",
      "type": "function"
    },
    {
      "inputs": [
        {
          "internalType": "uint256",
          "name": "tokenId",
          "type": "uint256"
        },
        {
          "internalType": "address[]",
          "name": "_poolVote",
          "type": "address[]"
        },
        {
          "internalType": "int256[]",
          "name": "_weights",
          "type": "int256[]"
        }
      ],
      "name": "votePart",
      "outputs": [],
      "stateMutability": "nonpayable",
      "type": "function"
    },
    {
      "inputs": [
        {
          "internalType": "uint256",
          "name": "",
          "type": "uint256"
        },
        {
          "internalType": "address",
          "name": "",
          "type": "address"
        }
      ],
      "name": "votes",
      "outputs": [
        {
          "internalType": "int256",
          "name": "",
          "type": "int256"
        }
      ],
      "stateMutability": "view",
      "type": "function"
    },
    {
      "inputs": [
        {
          "internalType": "address",
          "name": "",
          "type": "address"
        }
      ],
      "name": "weights",
      "outputs": [
        {
          "internalType": "int256",
          "name": "",
          "type": "int256"
        }
      ],
      "stateMutability": "view",
      "type": "function"
    },
    {
      "inputs": [
        {
          "internalType": "address",
          "name": "_token",
          "type": "address"
        },
        {
          "internalType": "uint256",
          "name": "_tokenId",
          "type": "uint256"
        }
      ],
      "name": "whitelist",
      "outputs": [],
      "stateMutability": "nonpayable",
      "type": "function"
    }
  ],
  "bytecode": "0x61012060405260016000553480156200001757600080fd5b5060405162003f2338038062003f238339810160408190526200003a9162000102565b6001600160a01b03808516608081905290841660a05260408051637e062a3560e11b8152905163fc0c546a916004808201926020929091908290030181865afa1580156200008c573d6000803e3d6000fd5b505050506040513d601f19601f82011682018060405250810190620000b291906200015f565b6001600160a01b0390811660c05291821660e05216610100525050600180546001600160a01b0319163317905562000184565b80516001600160a01b0381168114620000fd57600080fd5b919050565b600080600080608085870312156200011957600080fd5b6200012485620000e5565b93506200013460208601620000e5565b92506200014460408601620000e5565b91506200015460608601620000e5565b905092959194509250565b6000602082840312156200017257600080fd5b6200017d82620000e5565b9392505050565b60805160a05160c05160e05161010051613c81620002a2600039600081816106e401526119d20152600081816103030152611a5001526000818161070b01528181610bbb01528181610c32015281816118fa015281816119330152818161196501528181611b1201528181612526015281816125e201528181612d3d0152612e2e01526000818161061301526116f401526000818161032a015281816108560152818161090d01528181610cd301528181610e1d01528181610ede0152818161103e015281816111ce015281816112a4015281816114c20152818161158301528181611a8101528181611e2e01528181611eef01528181611fc90152818161226a015281816128c901528181612c130152612dac0152613c816000f3fe608060405234801561001057600080fd5b50600436106102a05760003560e01c806379e9382411610167578063b9a09fd5116100ce578063de838fc111610087578063de838fc114610699578063e380fcad146106ac578063ea94ee44146106cc578063eb4a78e0146106df578063fc0c546a14610706578063fecdad601461072d57600080fd5b8063b9a09fd5146105e5578063c45a01551461060e578063c527ee1f14610635578063d23254b414610648578063d560b0d714610673578063ddbe883c1461068657600080fd5b8063a61c713a11610120578063a61c713a14610540578063a7cac84614610553578063a86a366d14610573578063a8c5d95a14610586578063aa79979b146105af578063ac4afa38146105d257600080fd5b806379e93824146104cb5780637e1ddf64146104eb57806396c82e57146104fe57806398fc55d8146105075780639b6a9d721461051a578063a5f4301e1461052d57600080fd5b8063402914f51161020b57806363453ae1116101c457806363453ae114610464578063666256aa14610477578063698473e31461048a5780636a1b7ecc1461049d5780636ecbe38a146104a55780637715ee75146104b857600080fd5b8063402914f5146103fb578063411b1f771461041b578063436596c41461042e5780634c6e62b61461043657806353d786931461044957806353f38e6b1461045157600080fd5b80632716ae661161025d5780632716ae66146103745780632986c0e514610386578063310bd74b1461038f57806332145f90146103a25780633af32abf146103b55780633c6b16ab146103e857600080fd5b806306d6a1b2146102a557806307546172146102eb5780630d52333c146102fe5780631f850716146103255780632025e9b81461034c57806320b1cb6f14610361575b600080fd5b6102ce6102b3366004613331565b6005602052600090815260409020546001600160a01b031681565b6040516001600160a01b0390911681526020015b60405180910390f35b6001546102ce906001600160a01b031681565b6102ce7f000000000000000000000000000000000000000000000000000000000000000081565b6102ce7f000000000000000000000000000000000000000000000000000000000000000081565b61035f61035a36600461342d565b610740565b005b61035f61036f3660046134ea565b610784565b6003545b6040519081526020016102e2565b610378600d5481565b61035f61039d36600461354e565b61083a565b61035f6103b036600461354e565b610974565b6103d86103c3366004613331565b600c6020526000908152604090205460ff1681565b60405190151581526020016102e2565b61035f6103f636600461354e565b610b31565b610378610409366004613331565b600f6020526000908152604090205481565b61035f610429366004613567565b610c88565b61035f610d7d565b61035f610444366004613597565b610de7565b61035f610fcf565b61035f61045f3660046135d8565b610fe0565b61035f610472366004613331565b611016565b61035f6104853660046135fa565b611022565b61035f610498366004613567565b611184565b610378611270565b61035f6104b3366004613331565b61127f565b61035f6104c63660046135fa565b611288565b6103786104d936600461354e565b600a6020526000908152604090205481565b61035f6104f9366004613667565b6113e4565b61037860025481565b61035f6105153660046136ae565b61148c565b61035f6105283660046135d8565b61161c565b6102ce61053b366004613331565b611682565b61035f61054e3660046136da565b611c47565b610378610561366004613331565b60076020526000908152604090205481565b6102ce6105813660046135d8565b611cb9565b6102ce610594366004613331565b6006602052600090815260409020546001600160a01b031681565b6103d86105bd366004613331565b600b6020526000908152604090205460ff1681565b6102ce6105e036600461354e565b611cf1565b6102ce6105f3366004613331565b6004602052600090815260409020546001600160a01b031681565b6102ce7f000000000000000000000000000000000000000000000000000000000000000081565b61035f61064336600461342d565b611d1b565b610378610656366004613567565b600860209081526000928352604080842090915290825290205481565b61035f61068136600461342d565b611db8565b61035f610694366004613597565b611df8565b61035f6106a736600461374d565b611fad565b6103786106ba366004613331565b600e6020526000908152604090205481565b61035f6106da3660046136da565b6121dc565b6102ce7f000000000000000000000000000000000000000000000000000000000000000081565b6102ce7f000000000000000000000000000000000000000000000000000000000000000081565b61035f61073b36600461374d565b61224e565b60005b81518110156107805761076e828281518110610761576107616137c7565b602002602001015161242e565b80610778816137f3565b915050610743565b5050565b60005b8251811015610835578281815181106107a2576107a26137c7565b60200260200101516001600160a01b03166331279d3d338484815181106107cb576107cb6137c7565b60200260200101516040518363ffffffff1660e01b81526004016107f0929190613850565b600060405180830381600087803b15801561080a57600080fd5b505af115801561081e573d6000803e3d6000fd5b50505050808061082d906137f3565b915050610787565b505050565b60405163430c208160e01b8152336004820152602481018290527f00000000000000000000000000000000000000000000000000000000000000006001600160a01b03169063430c208190604401602060405180830381865afa1580156108a5573d6000803e3d6000fd5b505050506040513d601f19601f820116820180604052508101906108c99190613874565b6108ee5760405162461bcd60e51b81526004016108e590613896565b60405180910390fd5b6108f781612696565b60405163c1f0fb9f60e01b8152600481018290527f00000000000000000000000000000000000000000000000000000000000000006001600160a01b03169063c1f0fb9f90602401600060405180830381600087803b15801561095957600080fd5b505af115801561096d573d6000803e3d6000fd5b5050505050565b6000818152600960209081526040808320805482518185028101850190935280835291929091908301828280156109d457602002820191906000526020600020905b81546001600160a01b031681526001909101906020018083116109b6575b5050505050905060008151905060008167ffffffffffffffff8111156109fc576109fc61334e565b604051908082528060200260200182016040528015610a25578160200160208202803683370190505b5090506000805b83811015610b2457600860008781526020019081526020016000206000868381518110610a5b57610a5b6137c7565b60200260200101516001600160a01b03166001600160a01b0316815260200190815260200160002054838281518110610a9657610a966137c7565b6020026020010181815250506000838281518110610ab657610ab66137c7565b602002602001015113610aeb57828181518110610ad557610ad56137c7565b6020026020010151610ae6906138b6565b610b06565b828181518110610afd57610afd6137c7565b60200260200101515b610b1090836138d2565b915080610b1c816137f3565b915050610a2c565b5061096d858584846128a5565b80600003610b6f5760405162461bcd60e51b815260206004820152600b60248201526a1e995c9bc8185b5bdd5b9d60aa1b60448201526064016108e5565b6002546000819003610bae5760405162461bcd60e51b8152602060048201526008602482015267217765696768747360c01b60448201526064016108e5565b610be36001600160a01b037f000000000000000000000000000000000000000000000000000000000000000016333085612caa565b600081610bf884670de0b6b3a7640000613913565b610c029190613948565b90508015610c225780600d6000828254610c1c919061395c565b90915550505b6040518381526001600160a01b037f0000000000000000000000000000000000000000000000000000000000000000169033907ff70d5c697de7ea828df48e5c4573cb2194c659f1901f70110c52b066dcf50826906020015b60405180910390a3505050565b336000908152600b602052604090205460ff16610cb75760405162461bcd60e51b81526004016108e590613974565b8115610d3857604051634c3c15a760e11b8152600481018390527f00000000000000000000000000000000000000000000000000000000000000006001600160a01b0316906398782b4e90602401600060405180830381600087803b158015610d1f57600080fd5b505af1158015610d33573d6000803e3d6000fd5b505050505b60405182815233906001600160a01b038316907fae268d9aab12f3605f58efd74fd3801fa812b03fdb44317eb70f46dff0e19e22906020015b60405180910390a35050565b60035460005b8181101561078057610dd56004600060038481548110610da557610da56137c7565b60009182526020808320909101546001600160a01b0390811684529083019390935260409091019020541661242e565b80610ddf816137f3565b915050610d83565b60008111610e075760405162461bcd60e51b81526004016108e590613994565b6040516331a9108f60e11b8152600481018290527f00000000000000000000000000000000000000000000000000000000000000006001600160a01b031690636352211e90602401602060405180830381865afa158015610e6c573d6000803e3d6000fd5b505050506040513d601f19601f82011682018060405250810190610e9091906139b4565b6001600160a01b0316336001600160a01b031614610ec05760405162461bcd60e51b81526004016108e590613896565b610ec8612d15565b6040516339f890b560e21b8152600481018390527f00000000000000000000000000000000000000000000000000000000000000006001600160a01b03169063e7e242d490602401602060405180830381865afa158015610f2d573d6000803e3d6000fd5b505050506040513d601f19601f82011682018060405250810190610f5191906139d1565b11610f6e5760405162461bcd60e51b81526004016108e5906139ea565b604051631c8db79360e31b81526001600160a01b03848116600483015283169063e46dbc98906024015b600060405180830381600087803b158015610fb257600080fd5b505af1158015610fc6573d6000803e3d6000fd5b50505050505050565b600354610fde9060009061161c565b565b815b81811015610835576110046004600060038481548110610da557610da56137c7565b8061100e816137f3565b915050610fe2565b61101f8161242e565b50565b60405163430c208160e01b8152336004820152602481018290527f00000000000000000000000000000000000000000000000000000000000000006001600160a01b03169063430c208190604401602060405180830381865afa15801561108d573d6000803e3d6000fd5b505050506040513d601f19601f820116820180604052508101906110b19190613874565b6110cd5760405162461bcd60e51b81526004016108e590613896565b60005b835181101561117e578381815181106110eb576110eb6137c7565b60200260200101516001600160a01b031663a7852afa83858481518110611114576111146137c7565b60200260200101516040518363ffffffff1660e01b8152600401611139929190613a0a565b600060405180830381600087803b15801561115357600080fd5b505af1158015611167573d6000803e3d6000fd5b505050508080611176906137f3565b9150506110d0565b50505050565b336000908152600b602052604090205460ff166111b35760405162461bcd60e51b81526004016108e590613974565b8115611233576040516246b3bd60e81b8152600481018390527f00000000000000000000000000000000000000000000000000000000000000006001600160a01b0316906346b3bd0090602401600060405180830381600087803b15801561121a57600080fd5b505af115801561122e573d6000803e3d6000fd5b505050505b60405182815233906001600160a01b038316907f60940192810a6fb3bce3fd3e2e3a13fd6ccc7605e963fb87ee971aba829989bd90602001610d71565b600061127a612d15565b905090565b61101f81612ecc565b60405163430c208160e01b8152336004820152602481018290527f00000000000000000000000000000000000000000000000000000000000000006001600160a01b03169063430c208190604401602060405180830381865afa1580156112f3573d6000803e3d6000fd5b505050506040513d601f19601f820116820180604052508101906113179190613874565b6113335760405162461bcd60e51b81526004016108e590613896565b60005b835181101561117e57838181518110611351576113516137c7565b60200260200101516001600160a01b031663a7852afa8385848151811061137a5761137a6137c7565b60200260200101516040518363ffffffff1660e01b815260040161139f929190613a0a565b600060405180830381600087803b1580156113b957600080fd5b505af11580156113cd573d6000803e3d6000fd5b5050505080806113dc906137f3565b915050611336565b6001546001600160a01b031633146114285760405162461bcd60e51b815260206004820152600760248201526610b6b4b73a32b960c91b60448201526064016108e5565b60005b825181101561146857611456838281518110611449576114496137c7565b6020026020010151612faf565b80611460816137f3565b91505061142b565b50600180546001600160a01b0319166001600160a01b039290921691909117905550565b600081116114ac5760405162461bcd60e51b81526004016108e590613994565b6040516331a9108f60e11b8152600481018290527f00000000000000000000000000000000000000000000000000000000000000006001600160a01b031690636352211e90602401602060405180830381865afa158015611511573d6000803e3d6000fd5b505050506040513d601f19601f8201168201806040525081019061153591906139b4565b6001600160a01b0316336001600160a01b0316146115655760405162461bcd60e51b81526004016108e590613896565b61156d612d15565b6040516339f890b560e21b8152600481018390527f00000000000000000000000000000000000000000000000000000000000000006001600160a01b03169063e7e242d490602401602060405180830381865afa1580156115d2573d6000803e3d6000fd5b505050506040513d601f19601f820116820180604052508101906115f691906139d1565b116116135760405162461bcd60e51b81526004016108e5906139ea565b61078082612faf565b815b81811015610835576116706004600060038481548110611640576116406137c7565b60009182526020808320909101546001600160a01b03908116845290830193909352604090910190205416612ecc565b8061167a816137f3565b91505061161e565b6001600160a01b03818116600090815260046020526040812054909116156116d55760405162461bcd60e51b815260206004820152600660248201526565786973747360d01b60448201526064016108e5565b60405163e5e31b1360e01b81526001600160a01b0383811660048301527f0000000000000000000000000000000000000000000000000000000000000000169063e5e31b1390602401602060405180830381865afa15801561173b573d6000803e3d6000fd5b505050506040513d601f19601f8201168201806040525081019061175f9190613874565b6117935760405162461bcd60e51b8152602060048201526005602482015264085c1bdbdb60da1b60448201526064016108e5565b600080836001600160a01b0316639d63848a6040518163ffffffff1660e01b81526004016040805180830381865afa1580156117d3573d6000803e3d6000fd5b505050506040513d601f19601f820116820180604052508101906117f79190613a23565b6001600160a01b0382166000908152600c6020526040902054919350915060ff16801561183c57506001600160a01b0381166000908152600c602052604090205460ff165b6118775760405162461bcd60e51b815260206004820152600c60248201526b085dda1a5d195b1a5cdd195960a21b60448201526064016108e5565b604080516003808252608082019092526000916020820160608036833701905050905082816000815181106118ae576118ae6137c7565b60200260200101906001600160a01b031690816001600160a01b03168152505081816001815181106118e2576118e26137c7565b6001600160a01b0392831660209182029290920101527f000000000000000000000000000000000000000000000000000000000000000081169084161480159061195e5750816001600160a01b03167f00000000000000000000000000000000000000000000000000000000000000006001600160a01b031614155b156119b8577f000000000000000000000000000000000000000000000000000000000000000081600281518110611997576119976137c7565b60200260200101906001600160a01b031690816001600160a01b0316815250505b60405163897cd6b360e01b81526000906001600160a01b037f0000000000000000000000000000000000000000000000000000000000000000169063897cd6b390611a07908590600401613a52565b6020604051808303816000875af1158015611a26573d6000803e3d6000fd5b505050506040513d601f19601f82011682018060405250810190611a4a91906139b4565b905060007f00000000000000000000000000000000000000000000000000000000000000006001600160a01b03166358c14b6588847f0000000000000000000000000000000000000000000000000000000000000000876040518563ffffffff1660e01b8152600401611ac09493929190613a65565b6020604051808303816000875af1158015611adf573d6000803e3d6000fd5b505050506040513d601f19601f82011682018060405250810190611b0391906139b4565b9050611b3b6001600160a01b037f0000000000000000000000000000000000000000000000000000000000000000168260001961305b565b6001600160a01b03808216600081815260066020908152604080832080548689166001600160a01b031991821617909155948c16808452600483528184208054871686179055938352600582528083208054909516909317909355600b9092529020805460ff19166001179055611bb181612ecc565b600380546001810182556000919091527fc2575a0e9e593c00f959f8c92f12db2869c3395a3b0502d05e2516446f71f85b0180546001600160a01b0319166001600160a01b03898116918217909255604051338152909184811691908416907f48d3c521fd0d5541640f58c6d6381eed7cb2e8c9df421ae165a4f4c2d221ee0d9060200160405180910390a49695505050505050565b336000908152600b602052604090205460ff16611c765760405162461bcd60e51b81526004016108e590613974565b604080518481526020810183905233916001600160a01b038516917fdcbc1c05240f31ff3ad067ef1ee35ce4997762752e3a095284754544f4c709d79101610c7b565b60096020528160005260406000208181548110611cd557600080fd5b6000918252602090912001546001600160a01b03169150829050565b60038181548110611d0157600080fd5b6000918252602090912001546001600160a01b0316905081565b60005b815181101561078057818181518110611d3957611d396137c7565b60200260200101516001600160a01b031663d294f0936040518163ffffffff1660e01b815260040160408051808303816000875af1158015611d7f573d6000803e3d6000fd5b505050506040513d601f19601f82011682018060405250810190611da39190613aa3565b50508080611db0906137f3565b915050611d1e565b60005b815181101561078057611de6828281518110611dd957611dd96137c7565b6020026020010151612ecc565b80611df0816137f3565b915050611dbb565b60008111611e185760405162461bcd60e51b81526004016108e590613994565b6040516331a9108f60e11b8152600481018290527f00000000000000000000000000000000000000000000000000000000000000006001600160a01b031690636352211e90602401602060405180830381865afa158015611e7d573d6000803e3d6000fd5b505050506040513d601f19601f82011682018060405250810190611ea191906139b4565b6001600160a01b0316336001600160a01b031614611ed15760405162461bcd60e51b81526004016108e590613896565b611ed9612d15565b6040516339f890b560e21b8152600481018390527f00000000000000000000000000000000000000000000000000000000000000006001600160a01b03169063e7e242d490602401602060405180830381865afa158015611f3e573d6000803e3d6000fd5b505050506040513d601f19601f82011682018060405250810190611f6291906139d1565b11611f7f5760405162461bcd60e51b81526004016108e5906139ea565b604051633d509c9760e01b81526001600160a01b038481166004830152831690633d509c9790602401610f98565b60405163430c208160e01b8152336004820152602481018690527f00000000000000000000000000000000000000000000000000000000000000006001600160a01b03169063430c208190604401602060405180830381865afa158015612018573d6000803e3d6000fd5b505050506040513d601f19601f8201168201806040525081019061203c9190613874565b6120585760405162461bcd60e51b81526004016108e590613896565b8281146120915760405162461bcd60e51b81526020600482015260076024820152662161727261797360c81b60448201526064016108e5565b6000805b8481101561211c5760008484838181106120b1576120b16137c7565b90506020020135136120e4578383828181106120cf576120cf6137c7565b905060200201356120df906138b6565b6120fe565b8383828181106120f6576120f66137c7565b905060200201355b61210890836138d2565b915080612114816137f3565b915050612095565b5060648113156121605760405162461bcd60e51b815260206004820152600f60248201526e1d1bdd185b159bdd1955d95a59da1d608a1b60448201526064016108e5565b606490506121d48686868080602002602001604051908101604052809392919081815260200183836020028082843760009201919091525050604080516020808a028281018201909352898252909350899250889182918501908490808284376000920191909152508792506128a5915050565b505050505050565b336000908152600b602052604090205460ff1661220b5760405162461bcd60e51b81526004016108e590613974565b604080518481526020810183905233916001600160a01b038516917ff341246adaac6f497bc2a656f546ab9e182111d630394f0c57c710a59a2cb5679101610c7b565b60405163430c208160e01b8152336004820152602481018690527f00000000000000000000000000000000000000000000000000000000000000006001600160a01b03169063430c208190604401602060405180830381865afa1580156122b9573d6000803e3d6000fd5b505050506040513d601f19601f820116820180604052508101906122dd9190613874565b6122f95760405162461bcd60e51b81526004016108e590613896565b8281146123325760405162461bcd60e51b81526020600482015260076024820152662161727261797360c81b60448201526064016108e5565b6000805b848110156123bd576000848483818110612352576123526137c7565b905060200201351361238557838382818110612370576123706137c7565b90506020020135612380906138b6565b61239f565b838382818110612397576123976137c7565b905060200201355b6123a990836138d2565b9150806123b5816137f3565b915050612336565b506121d48686868080602002602001604051908101604052809392919081815260200183836020028082843760009201919091525050604080516020808a028281018201909352898252909350899250889182918501908490808284376000920191909152508792506128a5915050565b6000546001146124715760405162461bcd60e51b815260206004820152600e60248201526d1499595b9d1c985b9d0818d85b1b60921b60448201526064016108e5565b6002600081905550600160009054906101000a90046001600160a01b03166001600160a01b031663a83627de6040518163ffffffff1660e01b81526004016020604051808303816000875af11580156124ce573d6000803e3d6000fd5b505050506040513d601f19601f820116820180604052508101906124f291906139d1565b506124fc81612ecc565b6001600160a01b038181166000818152600f602052604090819020549051634cde602960e11b81527f00000000000000000000000000000000000000000000000000000000000000009093166004840152916399bcc05290602401602060405180830381865afa158015612574573d6000803e3d6000fd5b505050506040513d601f19601f8201168201806040525081019061259891906139d1565b811180156125b2575060006125b062093a8083613948565b115b1561268d576001600160a01b038281166000818152600f6020526040808220919091555163b66503cf60e01b81527f00000000000000000000000000000000000000000000000000000000000000009092166004830152602482018390529063b66503cf90604401600060405180830381600087803b15801561263457600080fd5b505af1158015612648573d6000803e3d6000fd5b50506040518381526001600160a01b03851692503391507f4fa9693cae526341d334e2862ca2413b2e503f1266255f9e0869fb36e6d89b179060200160405180910390a35b50506001600055565b600081815260096020526040812080549091805b828110156128695760008482815481106126c6576126c66137c7565b60009182526020808320909101548883526008825260408084206001600160a01b03928316808652908452818520546004909452932054929350909161270c9116612ecc565b6001600160a01b03821660009081526007602052604081208054839290612734908490613ac7565b909155505060008781526008602090815260408083206001600160a01b03861684529091528120805483929061276b908490613ac7565b9091555050600081131561280e576001600160a01b038281166000908152600460208181526040808420548516845260069091529182902054915163278afc8b60e21b8152908101849052602481018a9052911690639e2bf22c90604401600060405180830381600087803b1580156127e357600080fd5b505af11580156127f7573d6000803e3d6000fd5b50505050808461280791906138d2565b935061281b565b6128188185613ac7565b93505b60408051888152602081018390527f6b3894ce60b9bbe9d93f1a4e6fc25b6b93cd8222e73ab6348d79c596f5b51de9910160405180910390a150508080612861906137f3565b9150506126aa565b50806002600082825461287c9190613b06565b90915550506000848152600a602090815260408083208390556009909152812061117e916132ea565b6128ae84612696565b82516040516339f890b560e21b8152600481018690526000907f00000000000000000000000000000000000000000000000000000000000000006001600160a01b03169063e7e242d490602401602060405180830381865afa158015612918573d6000803e3d6000fd5b505050506040513d601f19601f8201168201806040525081019061293c91906139d1565b905060008060005b84811015612bf3576000888281518110612960576129606137c7565b6020908102919091018101516001600160a01b038082166000908152600490935260408320548b51929450169190899088908c90879081106129a4576129a46137c7565b60200260200101516129b69190613b1d565b6129c09190613ba2565b60008d81526008602090815260408083206001600160a01b038816845290915290205490915015612a245760405162461bcd60e51b815260206004820152600e60248201526d191d5c1b1a58d85d19481c1bdbdb60921b60448201526064016108e5565b80600003612a615760405162461bcd60e51b815260206004820152600a6024820152693d32b937903837bbb2b960b11b60448201526064016108e5565b612a6a82612ecc565b60008c815260096020908152604080832080546001810182559084528284200180546001600160a01b0319166001600160a01b0388169081179091558352600790915281208054839290612abf9084906138d2565b909155505060008c81526008602090815260408083206001600160a01b038716845290915281208054839290612af69084906138d2565b90915550506000811315612b7d576001600160a01b038083166000908152600660205260409081902054905163f320772360e01b815260048101849052602481018f905291169063f320772390604401600060405180830381600087803b158015612b6057600080fd5b505af1158015612b74573d6000803e3d6000fd5b50505050612b89565b612b86816138b6565b90505b612b9381866138d2565b9450612b9f81876138d2565b604080518e81526020810184905291975033917f1263a2295e53acd6ef8f655b8afc11fa0f2cf11925be7aa1757d741ef32a926c910160405180910390a25050508080612beb906137f3565b915050612944565b506000811315612c785760405163fd4a77f160e01b8152600481018990527f00000000000000000000000000000000000000000000000000000000000000006001600160a01b03169063fd4a77f190602401600060405180830381600087803b158015612c5f57600080fd5b505af1158015612c73573d6000803e3d6000fd5b505050505b8160026000828254612c8a919061395c565b90915550506000978852600a602052604090972096909655505050505050565b6040516001600160a01b038085166024830152831660448201526064810182905261117e9085906323b872dd60e01b906084015b60408051601f198184030181529190526020810180516001600160e01b03166001600160e01b03199093169290921790915261310d565b6001546040516370a0823160e01b81526001600160a01b0391821660048201526000916014917f0000000000000000000000000000000000000000000000000000000000000000909116906370a0823190602401602060405180830381865afa158015612d86573d6000803e3d6000fd5b505050506040513d601f19601f82011682018060405250810190612daa91906139d1565b7f00000000000000000000000000000000000000000000000000000000000000006001600160a01b03166318160ddd6040518163ffffffff1660e01b8152600401602060405180830381865afa158015612e08573d6000803e3d6000fd5b505050506040513d601f19601f82011682018060405250810190612e2c91906139d1565b7f00000000000000000000000000000000000000000000000000000000000000006001600160a01b03166318160ddd6040518163ffffffff1660e01b8152600401602060405180830381865afa158015612e8a573d6000803e3d6000fd5b505050506040513d601f19601f82011682018060405250810190612eae91906139d1565b612eb89190613b06565b612ec29190613b06565b61127a9190613948565b6001600160a01b0380821660009081526005602090815260408083205490931680835260079091529181205490811315612f8e576001600160a01b0383166000908152600e602052604081208054600d549182905591612f2c8383613b06565b905080156121d4576000670de0b6b3a7640000612f498387613913565b612f539190613948565b6001600160a01b0388166000908152600f6020526040812080549293508392909190612f8090849061395c565b909155505050505050505050565b600d546001600160a01b0384166000908152600e6020526040902055505050565b6001600160a01b0381166000908152600c602052604090205460ff161561300e5760405162461bcd60e51b8152602060048201526013602482015272185b1c9958591e481dda1a5d195b1a5cdd1959606a1b60448201526064016108e5565b6001600160a01b0381166000818152600c6020526040808220805460ff191660011790555133917f6661a7108aecd07864384529117d96c319c1163e3010c01390f6b704726e07de91a350565b604051636eb1769f60e11b81523060048201526001600160a01b038381166024830152600091839186169063dd62ed3e90604401602060405180830381865afa1580156130ac573d6000803e3d6000fd5b505050506040513d601f19601f820116820180604052508101906130d091906139d1565b6130da919061395c565b6040516001600160a01b03851660248201526044810182905290915061117e90859063095ea7b360e01b90606401612cde565b6000613162826040518060400160405280602081526020017f5361666545524332303a206c6f772d6c6576656c2063616c6c206661696c6564815250856001600160a01b03166131df9092919063ffffffff16565b80519091501561083557808060200190518101906131809190613874565b6108355760405162461bcd60e51b815260206004820152602a60248201527f5361666545524332303a204552433230206f7065726174696f6e20646964206e6044820152691bdd081cdd58d8d9595960b21b60648201526084016108e5565b60606001600160a01b0384163b6132385760405162461bcd60e51b815260206004820152601d60248201527f416464726573733a2063616c6c20746f206e6f6e2d636f6e747261637400000060448201526064016108e5565b600080856001600160a01b0316856040516132539190613bfc565b6000604051808303816000865af19150503d8060008114613290576040519150601f19603f3d011682016040523d82523d6000602084013e613295565b606091505b50915091506132a58282866132b1565b925050505b9392505050565b606083156132c05750816132aa565b8251156132d05782518084602001fd5b8160405162461bcd60e51b81526004016108e59190613c18565b508054600082559060005260206000209081019061101f91905b808211156133185760008155600101613304565b5090565b6001600160a01b038116811461101f57600080fd5b60006020828403121561334357600080fd5b81356132aa8161331c565b634e487b7160e01b600052604160045260246000fd5b604051601f8201601f1916810167ffffffffffffffff8111828210171561338d5761338d61334e565b604052919050565b600067ffffffffffffffff8211156133af576133af61334e565b5060051b60200190565b600082601f8301126133ca57600080fd5b813560206133df6133da83613395565b613364565b82815260059290921b840181019181810190868411156133fe57600080fd5b8286015b848110156134225780356134158161331c565b8352918301918301613402565b509695505050505050565b60006020828403121561343f57600080fd5b813567ffffffffffffffff81111561345657600080fd5b613462848285016133b9565b949350505050565b600082601f83011261347b57600080fd5b8135602061348b6133da83613395565b82815260059290921b840181019181810190868411156134aa57600080fd5b8286015b8481101561342257803567ffffffffffffffff8111156134ce5760008081fd5b6134dc8986838b01016133b9565b8452509183019183016134ae565b600080604083850312156134fd57600080fd5b823567ffffffffffffffff8082111561351557600080fd5b613521868387016133b9565b9350602085013591508082111561353757600080fd5b506135448582860161346a565b9150509250929050565b60006020828403121561356057600080fd5b5035919050565b6000806040838503121561357a57600080fd5b82359150602083013561358c8161331c565b809150509250929050565b6000806000606084860312156135ac57600080fd5b83356135b78161331c565b925060208401356135c78161331c565b929592945050506040919091013590565b600080604083850312156135eb57600080fd5b50508035926020909101359150565b60008060006060848603121561360f57600080fd5b833567ffffffffffffffff8082111561362757600080fd5b613633878388016133b9565b9450602086013591508082111561364957600080fd5b506136568682870161346a565b925050604084013590509250925092565b6000806040838503121561367a57600080fd5b823567ffffffffffffffff81111561369157600080fd5b61369d858286016133b9565b925050602083013561358c8161331c565b600080604083850312156136c157600080fd5b82356136cc8161331c565b946020939093013593505050565b6000806000606084860312156136ef57600080fd5b8335925060208401356135c78161331c565b60008083601f84011261371357600080fd5b50813567ffffffffffffffff81111561372b57600080fd5b6020830191508360208260051b850101111561374657600080fd5b9250929050565b60008060008060006060868803121561376557600080fd5b85359450602086013567ffffffffffffffff8082111561378457600080fd5b61379089838a01613701565b909650945060408801359150808211156137a957600080fd5b506137b688828901613701565b969995985093965092949392505050565b634e487b7160e01b600052603260045260246000fd5b634e487b7160e01b600052601160045260246000fd5b600060018201613805576138056137dd565b5060010190565b600081518084526020808501945080840160005b838110156138455781516001600160a01b031687529582019590820190600101613820565b509495945050505050565b6001600160a01b03831681526040602082018190526000906134629083018461380c565b60006020828403121561388657600080fd5b815180151581146132aa57600080fd5b60208082526006908201526510b7bbb732b960d11b604082015260600190565b6000600160ff1b82016138cb576138cb6137dd565b5060000390565b600080821280156001600160ff1b03849003851316156138f4576138f46137dd565b600160ff1b839003841281161561390d5761390d6137dd565b50500190565b600081600019048311821515161561392d5761392d6137dd565b500290565b634e487b7160e01b600052601260045260246000fd5b60008261395757613957613932565b500490565b6000821982111561396f5761396f6137dd565b500190565b60208082526006908201526521676175676560d01b604082015260600190565b60208082526006908201526510ba37b5b2b760d11b604082015260600190565b6000602082840312156139c657600080fd5b81516132aa8161331c565b6000602082840312156139e357600080fd5b5051919050565b60208082526006908201526510b837bbb2b960d11b604082015260600190565b828152604060208201526000613462604083018461380c565b60008060408385031215613a3657600080fd5b8251613a418161331c565b602084015190925061358c8161331c565b6020815260006132aa602083018461380c565b6001600160a01b038581168252848116602083015283166040820152608060608201819052600090613a999083018461380c565b9695505050505050565b60008060408385031215613ab657600080fd5b505080516020909101519092909150565b60008083128015600160ff1b850184121615613ae557613ae56137dd565b6001600160ff1b0384018313811615613b0057613b006137dd565b50500390565b600082821015613b1857613b186137dd565b500390565b60006001600160ff1b0381841382841380821686840486111615613b4357613b436137dd565b600160ff1b6000871282811687830589121615613b6257613b626137dd565b60008712925087820587128484161615613b7e57613b7e6137dd565b87850587128184161615613b9457613b946137dd565b505050929093029392505050565b600082613bb157613bb1613932565b600160ff1b821460001984141615613bcb57613bcb6137dd565b500590565b60005b83811015613beb578181015183820152602001613bd3565b8381111561117e5750506000910152565b60008251613c0e818460208701613bd0565b9190910192915050565b6020815260008251806020840152613c37816040850160208701613bd0565b601f01601f1916919091016040019291505056fea2646970667358221220e62c30deb4ac1bade9df2d9c6553da1cf2d800c2c7987ceeed3a9839b7283c8664736f6c634300080d0033",
  "linkReferences": {},
  "deployedLinkReferences": {}
}